{
  "address": "0x1C02a79012757FCe342eeFEEe3e84F5EF4149582",
  "abi": [
    {
      "constant": true,
      "inputs": [],
      "name": "TRADER_FLAG_RESULT_2",
      "outputs": [
        {
          "internalType": "bytes32",
          "name": "",
          "type": "bytes32"
        }
      ],
      "payable": false,
      "stateMutability": "view",
      "type": "function"
    },
    {
      "constant": true,
      "inputs": [],
      "name": "_TRADE_RESULT_",
      "outputs": [
        {
          "internalType": "uint256",
          "name": "marginAmount",
          "type": "uint256"
        },
        {
          "internalType": "uint256",
          "name": "positionAmount",
          "type": "uint256"
        },
        {
          "internalType": "bool",
          "name": "isBuy",
          "type": "bool"
        },
        {
          "internalType": "bytes32",
          "name": "traderFlags",
          "type": "bytes32"
        }
      ],
      "payable": false,
      "stateMutability": "view",
      "type": "function"
    },
    {
      "constant": true,
      "inputs": [],
      "name": "_TRADE_RESULT_2_",
      "outputs": [
        {
          "internalType": "uint256",
          "name": "marginAmount",
          "type": "uint256"
        },
        {
          "internalType": "uint256",
          "name": "positionAmount",
          "type": "uint256"
        },
        {
          "internalType": "bool",
          "name": "isBuy",
          "type": "bool"
        },
        {
          "internalType": "bytes32",
          "name": "traderFlags",
          "type": "bytes32"
        }
      ],
      "payable": false,
      "stateMutability": "view",
      "type": "function"
    },
    {
      "constant": false,
      "inputs": [
        {
          "internalType": "uint256",
          "name": "marginAmount",
          "type": "uint256"
        },
        {
          "internalType": "uint256",
          "name": "positionAmount",
          "type": "uint256"
        },
        {
          "internalType": "bool",
          "name": "isBuy",
          "type": "bool"
        },
        {
          "internalType": "bytes32",
          "name": "traderFlags",
          "type": "bytes32"
        }
      ],
      "name": "setSecondTradeResult",
      "outputs": [],
      "payable": false,
      "stateMutability": "nonpayable",
      "type": "function"
    },
    {
      "constant": false,
      "inputs": [
        {
          "internalType": "uint256",
          "name": "marginAmount",
          "type": "uint256"
        },
        {
          "internalType": "uint256",
          "name": "positionAmount",
          "type": "uint256"
        },
        {
          "internalType": "bool",
          "name": "isBuy",
          "type": "bool"
        },
        {
          "internalType": "bytes32",
          "name": "traderFlags",
          "type": "bytes32"
        }
      ],
      "name": "setTradeResult",
      "outputs": [],
      "payable": false,
      "stateMutability": "nonpayable",
      "type": "function"
    },
    {
      "constant": false,
      "inputs": [
        {
          "internalType": "address",
          "name": "",
          "type": "address"
        },
        {
          "internalType": "address",
          "name": "",
          "type": "address"
        },
        {
          "internalType": "address",
          "name": "",
          "type": "address"
        },
        {
          "internalType": "uint256",
          "name": "",
          "type": "uint256"
        },
        {
          "internalType": "bytes",
          "name": "",
          "type": "bytes"
        },
        {
          "internalType": "bytes32",
          "name": "traderFlags",
          "type": "bytes32"
        }
      ],
      "name": "trade",
      "outputs": [
        {
          "components": [
            {
              "internalType": "uint256",
              "name": "marginAmount",
              "type": "uint256"
            },
            {
              "internalType": "uint256",
              "name": "positionAmount",
              "type": "uint256"
            },
            {
              "internalType": "bool",
              "name": "isBuy",
              "type": "bool"
            },
            {
              "internalType": "bytes32",
              "name": "traderFlags",
              "type": "bytes32"
            }
          ],
          "internalType": "struct P1Types.TradeResult",
          "name": "",
          "type": "tuple"
        }
      ],
      "payable": false,
      "stateMutability": "nonpayable",
      "type": "function"
    }
  ],
  "transactionHash": "0x4379670ff86dfdef186b5458adb2333d06198200c5c049206cf8a1eb463d026c",
  "args": [],
  "numDeployments": 1,
  "solcInputHash": "d8a4bed0d8259721c6e731840c9f1c4e",
  "bytecode": "0x608060405234801561001057600080fd5b5061052b806100206000396000f3fe608060405234801561001057600080fd5b50600436106100725760003560e01c806375092a301161005057806375092a30146100c2578063970c2ba1146100ca578063e53adbb2146100ea57610072565b8063495f9bff1461007757806363a3d85f146100985780636d2c6021146100ad575b600080fd5b61007f6100fd565b60405161008f9493929190610455565b60405180910390f35b6100ab6100a6366004610370565b610112565b005b6100b5610155565b60405161008f9190610439565b61007f61015b565b6100dd6100d83660046102cb565b610170565b60405161008f9190610447565b6100ab6100f8366004610370565b6101f1565b60005460015460025460035460ff9091169084565b604080516080810182528581526020810185905292151590830181905260609092018190526004939093556005919091556006805460ff19169091179055600755565b60001981565b60045460055460065460075460ff9091169084565b610178610234565b6000198214156101b65750604080516080810182526004548152600554602082015260065460ff1615159181019190915260075460608201526101e6565b50604080516080810182526000548152600154602082015260025460ff1615159181019190915260035460608201525b979650505050505050565b604080516080810182528581526020810185905292151590830181905260609092018190526000939093556001919091556002805460ff19169091179055600355565b60408051608081018252600080825260208201819052918101829052606081019190915290565b8035610266816104bf565b92915050565b8035610266816104d6565b8035610266816104df565b60008083601f84011261029457600080fd5b50813567ffffffffffffffff8111156102ac57600080fd5b6020830191508360018202830111156102c457600080fd5b9250929050565b600080600080600080600060c0888a0312156102e657600080fd5b60006102f28a8a61025b565b97505060206103038a828b0161025b565b96505060406103148a828b0161025b565b95505060606103258a828b01610277565b945050608088013567ffffffffffffffff81111561034257600080fd5b61034e8a828b01610282565b935093505060a06103618a828b01610277565b91505092959891949750929550565b6000806000806080858703121561038657600080fd5b60006103928787610277565b94505060206103a387828801610277565b93505060406103b48782880161026c565b92505060606103c587828801610277565b91505092959194509250565b6103da8161049e565b82525050565b6103da816104a3565b805160808301906103fa84826103e0565b50602082015161040d60208501826103e0565b50604082015161042060408501826103d1565b50606082015161043360608501826103e0565b50505050565b6020810161026682846103e0565b6080810161026682846103e9565b6080810161046382876103e0565b61047060208301866103e0565b61047d60408301856103d1565b61048a60608301846103e0565b95945050505050565b6000610266826104a6565b151590565b90565b73ffffffffffffffffffffffffffffffffffffffff1690565b6104c881610493565b81146104d357600080fd5b50565b6104c88161049e565b6104c8816104a356fea365627a7a723158204760e589aeebd71c1fcee416e2e9ba7a9f36b85aff2b699de10ec7543bff9f206c6578706572696d656e74616cf564736f6c63430005100040",
  "devdoc": {
    "author": "axor",
    "methods": {},
    "title": "Test_P1Trader"
  },
  "userdoc": {
    "methods": {
      "setSecondTradeResult(uint256,uint256,bool,bytes32)": {
        "notice": "Sets a second trade result which can be triggered by the trader flags of the first trade."
      }
    },
    "notice": "I_P1Trader implementation for testing."
  },
  "storageLayout": {
    "storage": [
      {
        "astId": 8739,
        "contract": "contracts/test/v1/Test_P1Trader.sol:Test_P1Trader",
        "label": "_TRADE_RESULT_",
        "offset": 0,
        "slot": "0",
        "type": "t_struct(TradeResult)5272_storage"
      },
      {
        "astId": 8741,
        "contract": "contracts/test/v1/Test_P1Trader.sol:Test_P1Trader",
        "label": "_TRADE_RESULT_2_",
        "offset": 0,
        "slot": "4",
        "type": "t_struct(TradeResult)5272_storage"
      }
    ],
    "types": {
      "t_bool": {
        "encoding": "inplace",
        "label": "bool",
        "numberOfBytes": "1"
      },
      "t_bytes32": {
        "encoding": "inplace",
        "label": "bytes32",
        "numberOfBytes": "32"
      },
      "t_struct(TradeResult)5272_storage": {
        "encoding": "inplace",
        "label": "struct P1Types.TradeResult",
        "members": [
          {
            "astId": 5265,
            "contract": "contracts/test/v1/Test_P1Trader.sol:Test_P1Trader",
            "label": "marginAmount",
            "offset": 0,
            "slot": "0",
            "type": "t_uint256"
          },
          {
            "astId": 5267,
            "contract": "contracts/test/v1/Test_P1Trader.sol:Test_P1Trader",
            "label": "positionAmount",
            "offset": 0,
            "slot": "1",
            "type": "t_uint256"
          },
          {
            "astId": 5269,
            "contract": "contracts/test/v1/Test_P1Trader.sol:Test_P1Trader",
            "label": "isBuy",
            "offset": 0,
            "slot": "2",
            "type": "t_bool"
          },
          {
            "astId": 5271,
            "contract": "contracts/test/v1/Test_P1Trader.sol:Test_P1Trader",
            "label": "traderFlags",
            "offset": 0,
            "slot": "3",
            "type": "t_bytes32"
          }
        ],
        "numberOfBytes": "128"
      },
      "t_uint256": {
        "encoding": "inplace",
        "label": "uint256",
        "numberOfBytes": "32"
      }
    }
  }
}