{
  "address": "0x15b4Ef556Fbfa4C12D6D1896206D0eFAa1AAED42",
  "abi": [
    {
      "inputs": [
        {
          "internalType": "address",
          "name": "perpetualV1",
          "type": "address"
        },
        {
          "internalType": "uint256",
          "name": "chainId",
          "type": "uint256"
        }
      ],
      "payable": false,
      "stateMutability": "nonpayable",
      "type": "constructor"
    },
    {
      "anonymous": false,
      "inputs": [
        {
          "indexed": true,
          "internalType": "address",
          "name": "maker",
          "type": "address"
        },
        {
          "indexed": false,
          "internalType": "bytes32",
          "name": "orderHash",
          "type": "bytes32"
        }
      ],
      "name": "LogOrderApproved",
      "type": "event"
    },
    {
      "anonymous": false,
      "inputs": [
        {
          "indexed": true,
          "internalType": "address",
          "name": "maker",
          "type": "address"
        },
        {
          "indexed": false,
          "internalType": "bytes32",
          "name": "orderHash",
          "type": "bytes32"
        }
      ],
      "name": "LogOrderCanceled",
      "type": "event"
    },
    {
      "anonymous": false,
      "inputs": [
        {
          "indexed": false,
          "internalType": "bytes32",
          "name": "orderHash",
          "type": "bytes32"
        },
        {
          "indexed": false,
          "internalType": "bytes32",
          "name": "flags",
          "type": "bytes32"
        },
        {
          "indexed": false,
          "internalType": "uint256",
          "name": "triggerPrice",
          "type": "uint256"
        },
        {
          "components": [
            {
              "internalType": "uint256",
              "name": "amount",
              "type": "uint256"
            },
            {
              "internalType": "uint256",
              "name": "price",
              "type": "uint256"
            },
            {
              "internalType": "uint256",
              "name": "fee",
              "type": "uint256"
            },
            {
              "internalType": "bool",
              "name": "isNegativeFee",
              "type": "bool"
            }
          ],
          "indexed": false,
          "internalType": "struct P1Orders.Fill",
          "name": "fill",
          "type": "tuple"
        }
      ],
      "name": "LogOrderFilled",
      "type": "event"
    },
    {
      "constant": true,
      "inputs": [],
      "name": "_EIP712_DOMAIN_HASH_",
      "outputs": [
        {
          "internalType": "bytes32",
          "name": "",
          "type": "bytes32"
        }
      ],
      "payable": false,
      "stateMutability": "view",
      "type": "function"
    },
    {
      "constant": true,
      "inputs": [
        {
          "internalType": "bytes32",
          "name": "",
          "type": "bytes32"
        }
      ],
      "name": "_FILLED_AMOUNT_",
      "outputs": [
        {
          "internalType": "uint256",
          "name": "",
          "type": "uint256"
        }
      ],
      "payable": false,
      "stateMutability": "view",
      "type": "function"
    },
    {
      "constant": true,
      "inputs": [],
      "name": "_PERPETUAL_V1_",
      "outputs": [
        {
          "internalType": "address",
          "name": "",
          "type": "address"
        }
      ],
      "payable": false,
      "stateMutability": "view",
      "type": "function"
    },
    {
      "constant": true,
      "inputs": [
        {
          "internalType": "bytes32",
          "name": "",
          "type": "bytes32"
        }
      ],
      "name": "_STATUS_",
      "outputs": [
        {
          "internalType": "enum P1Orders.OrderStatus",
          "name": "",
          "type": "uint8"
        }
      ],
      "payable": false,
      "stateMutability": "view",
      "type": "function"
    },
    {
      "constant": false,
      "inputs": [
        {
          "components": [
            {
              "internalType": "bytes32",
              "name": "flags",
              "type": "bytes32"
            },
            {
              "internalType": "uint256",
              "name": "amount",
              "type": "uint256"
            },
            {
              "internalType": "uint256",
              "name": "limitPrice",
              "type": "uint256"
            },
            {
              "internalType": "uint256",
              "name": "triggerPrice",
              "type": "uint256"
            },
            {
              "internalType": "uint256",
              "name": "limitFee",
              "type": "uint256"
            },
            {
              "internalType": "address",
              "name": "maker",
              "type": "address"
            },
            {
              "internalType": "address",
              "name": "taker",
              "type": "address"
            },
            {
              "internalType": "uint256",
              "name": "expiration",
              "type": "uint256"
            }
          ],
          "internalType": "struct P1Orders.Order",
          "name": "order",
          "type": "tuple"
        }
      ],
      "name": "approveOrder",
      "outputs": [],
      "payable": false,
      "stateMutability": "nonpayable",
      "type": "function"
    },
    {
      "constant": false,
      "inputs": [
        {
          "components": [
            {
              "internalType": "bytes32",
              "name": "flags",
              "type": "bytes32"
            },
            {
              "internalType": "uint256",
              "name": "amount",
              "type": "uint256"
            },
            {
              "internalType": "uint256",
              "name": "limitPrice",
              "type": "uint256"
            },
            {
              "internalType": "uint256",
              "name": "triggerPrice",
              "type": "uint256"
            },
            {
              "internalType": "uint256",
              "name": "limitFee",
              "type": "uint256"
            },
            {
              "internalType": "address",
              "name": "maker",
              "type": "address"
            },
            {
              "internalType": "address",
              "name": "taker",
              "type": "address"
            },
            {
              "internalType": "uint256",
              "name": "expiration",
              "type": "uint256"
            }
          ],
          "internalType": "struct P1Orders.Order",
          "name": "order",
          "type": "tuple"
        }
      ],
      "name": "cancelOrder",
      "outputs": [],
      "payable": false,
      "stateMutability": "nonpayable",
      "type": "function"
    },
    {
      "constant": true,
      "inputs": [
        {
          "internalType": "bytes32[]",
          "name": "orderHashes",
          "type": "bytes32[]"
        }
      ],
      "name": "getOrdersStatus",
      "outputs": [
        {
          "components": [
            {
              "internalType": "enum P1Orders.OrderStatus",
              "name": "status",
              "type": "uint8"
            },
            {
              "internalType": "uint256",
              "name": "filledAmount",
              "type": "uint256"
            }
          ],
          "internalType": "struct P1Orders.OrderQueryOutput[]",
          "name": "",
          "type": "tuple[]"
        }
      ],
      "payable": false,
      "stateMutability": "view",
      "type": "function"
    },
    {
      "constant": false,
      "inputs": [
        {
          "internalType": "address",
          "name": "sender",
          "type": "address"
        },
        {
          "internalType": "address",
          "name": "maker",
          "type": "address"
        },
        {
          "internalType": "address",
          "name": "taker",
          "type": "address"
        },
        {
          "internalType": "uint256",
          "name": "price",
          "type": "uint256"
        },
        {
          "internalType": "bytes",
          "name": "data",
          "type": "bytes"
        },
        {
          "internalType": "bytes32",
          "name": "",
          "type": "bytes32"
        }
      ],
      "name": "trade",
      "outputs": [
        {
          "components": [
            {
              "internalType": "uint256",
              "name": "marginAmount",
              "type": "uint256"
            },
            {
              "internalType": "uint256",
              "name": "positionAmount",
              "type": "uint256"
            },
            {
              "internalType": "bool",
              "name": "isBuy",
              "type": "bool"
            },
            {
              "internalType": "bytes32",
              "name": "traderFlags",
              "type": "bytes32"
            }
          ],
          "internalType": "struct P1Types.TradeResult",
          "name": "",
          "type": "tuple"
        }
      ],
      "payable": false,
      "stateMutability": "nonpayable",
      "type": "function"
    }
  ],
  "transactionHash": "0x64fbce97bd40984d098dc4ec5805f26435ac6813c50104055c5becc660c74049",
  "args": [
    "0x1F68745625A5Be3D2C0412CC06DB965c1Bf7D292",
    421614
  ],
  "numDeployments": 2,
  "solcInputHash": "d8a4bed0d8259721c6e731840c9f1c4e",
  "bytecode": "0x60806040523480156200001157600080fd5b506040516200249438038062002494833981016040819052620000349162000145565b600080546001600160a01b0319166001600160a01b0384161790556040516200006090602001620002aa565b60408051601f1981840301815282825280516020918201208383018352600884526750314f726465727360c01b938201939093528151808301835260038152620312e360ec1b9082015290516200010192917fa158a5339131788e3aca6a19d29e24b109bb548949d45296cd531bbe8e7565d1917fe6bbd6277e1bf288eed5e8d1780f9a50b239e86b153736bceebccf4ea79d90b3918691309101620002f8565b60405160208183030381529060405280519060200120600181905550505062000394565b805162000132816200036f565b92915050565b8051620001328162000389565b600080604083850312156200015957600080fd5b600062000167858562000125565b92505060206200017a8582860162000138565b9150509250929050565b6200018f8162000353565b82525050565b6200018f8162000360565b6000620001af600c836200034e565b6b1cdd1c9a5b99c81b985b594b60a21b8152600c0192915050565b6000620001d96019836200034e565b7f6164647265737320766572696679696e67436f6e747261637400000000000000815260190192915050565b6000620002146010836200034e565b6f1d5a5b9d0c8d4d8818da185a5b92590b60821b815260100192915050565b6000620002426001836200034e565b602960f81b815260010192915050565b600062000261600f836200034e565b6e1cdd1c9a5b99c81d995c9cda5bdb8b608a1b8152600f0192915050565b60006200028e600d836200034e565b6c08a92a06e626488dedac2d2dc5609b1b8152600d0192915050565b6000620002b7826200027f565b9150620002c482620001a0565b9150620002d18262000252565b9150620002de8262000205565b9150620002eb82620001ca565b9150620001328262000233565b60a0810162000308828862000195565b62000317602083018762000195565b62000326604083018662000195565b62000335606083018562000195565b62000344608083018462000184565b9695505050505050565b919050565b6000620001328262000363565b90565b6001600160a01b031690565b6200037a8162000353565b81146200038657600080fd5b50565b6200037a8162000360565b6120f080620003a46000396000f3fe608060405234801561001057600080fd5b50600436106100885760003560e01c80639ea070711161005b5780639ea07071146100fe578063aacc263e1461011e578063c7dc03f91461013e578063d4bec8eb1461014657610088565b80635c457f291461008d5780637946c890146100b6578063867f1690146100cb578063970c2ba1146100de575b600080fd5b6100a061009b366004611350565b61015b565b6040516100ad9190611dab565b60405180910390f35b6100c96100c436600461138c565b61016d565b005b6100c96100d936600461138c565b610229565b6100f16100ec36600461124b565b610307565b6040516100ad9190611f77565b61011161010c366004611350565b6105ba565b6040516100ad9190611e48565b61013161012c3660046112f0565b6105cf565b6040516100ad9190611d9a565b6100a06106a2565b61014e6106a8565b6040516100ad9190611d71565b60026020526000908152604090205481565b61017d60c0820160a08301611225565b6001600160a01b0316336001600160a01b0316146101b65760405162461bcd60e51b81526004016101ad90611f17565b60405180910390fd5b60006101cf6101ca368490038401846113ab565b6106b7565b60008181526003602052604090819020805460ff191660021790555190915033907f4117a4c82505f7102c183e1fb9daa8f8e06d56d6af04479fc417fa8c049028939061021d908490611dab565b60405180910390a25050565b61023960c0820160a08301611225565b6001600160a01b0316336001600160a01b0316146102695760405162461bcd60e51b81526004016101ad90611eb7565b600061027d6101ca368490038401846113ab565b9050600260008281526003602052604090205460ff16600281111561029e57fe5b14156102bc5760405162461bcd60e51b81526004016101ad90611f37565b60008181526003602052604090819020805460ff191660011790555133907fbd06df5febc1b0cd2e8ba37a6bb524ae77524c4aa2dc5e0f5ac64f5d11a50b1b9061021d908490611dab565b61030f610deb565b6000546001600160a01b031633811461033a5760405162461bcd60e51b81526004016101ad90611f67565b886001600160a01b0316876001600160a01b0316146103ed57604051634275143160e11b81526001600160a01b038216906384ea286290610381908a908d90600401611d7f565b60206040518083038186803b15801561039957600080fd5b505afa1580156103ad573d6000803e3d6000fd5b505050506040513d601f19601f820116820180604052506103d19190810190611332565b6103ed5760405162461bcd60e51b81526004016101ad90611e67565b6103f5610e12565b610401858701876113ca565b9050600061041282600001516106b7565b905061041e8282610742565b61042b828b8b868c6107f8565b6000818152600260209081526040822054908401515190919061045590839063ffffffff610ac916565b84516020015190915081111561047d5760405162461bcd60e51b81526004016101ad90611f47565b600083815260026020908152604091829020839055855180516060909101519187015192517f5760b5a80923536b02524ebe3b1f92cc973195ac25559c60564e8db9e02d15ad936104d393889392909190611db9565b60405180910390a16000610500856020015160200151866020015160400151610af590919063ffffffff16565b905060006105118660000151610b1f565b90506000866020015160600151151582151514610545576020808801510151610540908463ffffffff610ac916565b61055d565b602080880151015161055d908463ffffffff610b2816565b90506040518060800160405280610585838a6020015160000151610af590919063ffffffff16565b815260209889015151988101989098529115604088015250600160609096019590955250929c9b505050505050505050505050565b60036020526000908152604090205460ff1681565b6060808383905060405190808252806020026020018201604052801561060f57816020015b6105fc610e44565b8152602001906001900390816105f45790505b50905060005b8381101561069857600085858381811061062b57fe5b604080518082018252602092830294909401356000818152600390935291205490935082915060ff16600281111561065f57fe5b8152600083815260026020908152604090912054910152835184908490811061068457fe5b602090810291909101015250600101610615565b5090505b92915050565b60015481565b6000546001600160a01b031681565b6000806040516020016106c990611d03565b60405160208183030381529060405280519060200120836040516020016106f1929190611df7565b60408051601f198184030181529082905280516020918201206001549093506107239261190160f01b92859101611caa565b604051602081830303815290604052805190602001209150505b919050565b60008181526003602052604081205460ff169081600281111561076157fe5b14156107b257610775828460400151610b6a565b6001600160a01b0316836000015160a001516001600160a01b0316146107ad5760405162461bcd60e51b81526004016101ad90611ee7565b6107f3565b60028160028111156107c057fe5b14156107de5760405162461bcd60e51b81526004016101ad90611ec7565b60018160028111156107ec57fe5b146107f357fe5b505050565b836001600160a01b0316856000015160a001516001600160a01b0316146108315760405162461bcd60e51b81526004016101ad90611e97565b826001600160a01b0316856000015160c001516001600160a01b031614806108655750845160c001516001600160a01b0316155b6108815760405162461bcd60e51b81526004016101ad90611f57565b845160e00151421115806108985750845160e00151155b6108b45760405162461bcd60e51b81526004016101ad90611ef7565b60006108c38660000151610b1f565b90506000816108e157865160400151602080890151015110156108f2565b865160400151602080890151015111155b9050806109115760405162461bcd60e51b81526004016101ad90611f27565b60006109208860000151610cfa565b61094a5787602001516060015180610945575087516080015160208901516040015111155b61096c565b876020015160600151801561096c575087516080015160208901516040015110155b90508061098b5760405162461bcd60e51b81526004016101ad90611e77565b875160600151156109d6576000836109ab578851606001518511156109b5565b8851606001518510155b9050806109d45760405162461bcd60e51b81526004016101ad90611f07565b505b87516109e190610d03565b15610abf576109ee610deb565b6040516324d08fa760e21b81526001600160a01b038716906393423e9c90610a1a908b90600401611d71565b60806040518083038186803b158015610a3257600080fd5b505afa158015610a46573d6000803e3d6000fd5b505050506040513d601f19601f82011682018060405250610a6a919081019061136e565b90508060200151151584151514158015610aa1575080606001516effffffffffffffffffffffffffffff1689602001516000015111155b610abd5760405162461bcd60e51b81526004016101ad90611e87565b505b5050505050505050565b600082820183811015610aee5760405162461bcd60e51b81526004016101ad90611ea7565b9392505050565b6000610aee670de0b6b3a7640000610b13858563ffffffff610d0c16565b9063ffffffff610d4616565b51600116151590565b6000610aee83836040518060400160405280601e81526020017f536166654d6174683a207375627472616374696f6e206f766572666c6f770000815250610d88565b6040810151600090819060f01c60ff166003811115610b8557fe5b9050600080826003811115610b9657fe5b1415610ba3575083610c92565b6001826003811115610bb157fe5b1415610c1c576040518060400160405280601c81526020017f19457468657265756d205369676e6564204d6573736167653a0a33320000000081525085604051602001610bff929190611ce1565b604051602081830303815290604052805190602001209050610c92565b6002826003811115610c2a57fe5b14610c3157fe5b6040518060400160405280601b81526020017f19457468657265756d205369676e6564204d6573736167653a0a20000000000081525085604051602001610c79929190611ce1565b6040516020818303038152906040528051906020012090505b600181856040015160f81c8660000151876020015160405160008152602001604052604051610cc49493929190611e13565b6020604051602081039080840390855afa158015610ce6573d6000803e3d6000fd5b5050604051601f1901519695505050505050565b51600416151590565b51600216151590565b600082610d1b5750600061069c565b82820282848281610d2857fe5b0414610aee5760405162461bcd60e51b81526004016101ad90611ed7565b6000610aee83836040518060400160405280601a81526020017f536166654d6174683a206469766973696f6e206279207a65726f000000000000815250610db4565b60008184841115610dac5760405162461bcd60e51b81526004016101ad9190611e56565b505050900390565b60008183610dd55760405162461bcd60e51b81526004016101ad9190611e56565b506000838581610de157fe5b0495945050505050565b60408051608081018252600080825260208201819052918101829052606081019190915290565b6040518060600160405280610e25610e5b565b8152602001610e32610eb5565b8152602001610e3f610edf565b905290565b604080518082019091526000808252602082015290565b604051806101000160405280600080191681526020016000815260200160008152602001600081526020016000815260200160006001600160a01b0316815260200160006001600160a01b03168152602001600081525090565b60405180608001604052806000815260200160008152602001600081526020016000151581525090565b604080516060810182526000808252602082018190529181019190915290565b803561069c81612075565b60008083601f840112610f1c57600080fd5b50813567ffffffffffffffff811115610f3457600080fd5b602083019150836020820283011115610f4c57600080fd5b9250929050565b803561069c81612089565b805161069c81612089565b803561069c81612092565b803561069c8161209b565b60008083601f840112610f9157600080fd5b50813567ffffffffffffffff811115610fa957600080fd5b602083019150836001820283011115610f4c57600080fd5b600060808284031215610fd357600080fd5b610fdd6080611f85565b90506000610feb8484610f5e565b8252506020610ffc84848301610f5e565b60208301525060406110108482850161121a565b60408301525060606110248482850161121a565b60608301525092915050565b60006080828403121561104257600080fd5b61104c6080611f85565b9050600061105a8484610f74565b825250602061106b84848301610f74565b602083015250604061107f84828501610f74565b604083015250606061102484828501610f53565b600061010082840312156110a657600080fd5b50919050565b600061010082840312156110bf57600080fd5b6110ca610100611f85565b905060006110d88484610f74565b82525060206110e984848301610f74565b60208301525060406110fd84828501610f74565b604083015250606061111184828501610f74565b606083015250608061112584828501610f74565b60808301525060a061113984828501610eff565b60a08301525060c061114d84828501610eff565b60c08301525060e061116184828501610f74565b60e08301525092915050565b60006060828403121561117f57600080fd5b6111896060611f85565b905060006111978484610f74565b82525060206111a884848301610f74565b60208301525060406111bc84828501610f69565b60408301525092915050565b60006101e082840312156111db57600080fd5b6111e56060611f85565b905060006111f384846110ac565b82525061010061120584848301611030565b6020830152506101806111bc8482850161116d565b805161069c816120a4565b60006020828403121561123757600080fd5b60006112438484610eff565b949350505050565b600080600080600080600060c0888a03121561126657600080fd5b60006112728a8a610eff565b97505060206112838a828b01610eff565b96505060406112948a828b01610eff565b95505060606112a58a828b01610f74565b945050608088013567ffffffffffffffff8111156112c257600080fd5b6112ce8a828b01610f7f565b935093505060a06112e18a828b01610f74565b91505092959891949750929550565b6000806020838503121561130357600080fd5b823567ffffffffffffffff81111561131a57600080fd5b61132685828601610f0a565b92509250509250929050565b60006020828403121561134457600080fd5b60006112438484610f5e565b60006020828403121561136257600080fd5b60006112438484610f74565b60006080828403121561138057600080fd5b60006112438484610fc1565b6000610100828403121561139f57600080fd5b60006112438484611093565b600061010082840312156113be57600080fd5b600061124384846110ac565b60006101e082840312156113dd57600080fd5b600061124384846111c8565b60006113f58383611b9c565b505060400190565b61140681611fbf565b82525050565b600061141782611fb2565b6114218185611fb6565b935061142c83611fac565b8060005b8381101561145a57815161144488826113e9565b975061144f83611fac565b925050600101611430565b509495945050505050565b61140681611fca565b61140661147a82611fcf565b611ff4565b61140681611ff4565b61140661147a82611ff4565b600061149f82611fb2565b6114a9818561073d565b93506114b9818560208601612032565b9290920192915050565b61140681612027565b60006114d782611fb2565b6114e18185611fb6565b93506114f1818560208601612032565b6114fa8161205e565b9093019392505050565b6000611511602e83611fb6565b7f53656e64657220646f6573206e6f742068617665207065726d697373696f6e7381527f20666f72207468652074616b6572000000000000000000000000000000000000602082015260400192915050565b6000611570601383611fb6565b7f46696c6c2066656520697320696e76616c696400000000000000000000000000815260200192915050565b60006115a9601f83611fb6565b7f46696c6c20646f6573206e6f7420646563726561736520706f736974696f6e00815260200192915050565b60006115e2600f8361073d565b7f75696e7432353620616d6f756e742c00000000000000000000000000000000008152600f0192915050565b600061161b602083611fb6565b7f4f72646572206d616b657220646f6573206e6f74206d61746368206d616b6572815260200192915050565b600061165460068361073d565b7f4f72646572280000000000000000000000000000000000000000000000000000815260060192915050565b600061168d601b83611fb6565b7f536166654d6174683a206164646974696f6e206f766572666c6f770000000000815260200192915050565b60006116c660158361073d565b7f75696e74323536207472696767657250726963652c0000000000000000000000815260150192915050565b60006116ff60018361073d565b602960f81b815260010192915050565b600061171c602583611fb6565b7f4f726465722063616e6e6f7420626520617070726f766564206279206e6f6e2d81526436b0b5b2b960d91b602082015260400192915050565b6000611763600e8361073d565b7f6279746573333220666c6167732c0000000000000000000000000000000000008152600e0192915050565b600061179c601a83611fb6565b7f4f726465722077617320616c72656164792063616e63656c6564000000000000815260200192915050565b60006117d5602183611fb6565b7f536166654d6174683a206d756c7469706c69636174696f6e206f766572666c6f8152607760f81b602082015260400192915050565b600061181860138361073d565b7f75696e74323536206c696d697450726963652c00000000000000000000000000815260130192915050565b6000611851600e8361073d565b7f616464726573732074616b65722c0000000000000000000000000000000000008152600e0192915050565b600061188a600e8361073d565b7f61646472657373206d616b65722c0000000000000000000000000000000000008152600e0192915050565b60006118c3601e83611fb6565b7f4f726465722068617320616e20696e76616c6964207369676e61747572650000815260200192915050565b60006118fc601183611fb6565b7f4f72646572206861732065787069726564000000000000000000000000000000815260200192915050565b6000611935602283611fb6565b7f5472696767657220707269636520686173206e6f74206265656e207265616368815261195960f21b602082015260400192915050565b600061197960128361073d565b7f75696e743235362065787069726174696f6e0000000000000000000000000000815260120192915050565b60006119b2602583611fb6565b7f4f726465722063616e6e6f742062652063616e63656c6564206279206e6f6e2d81526436b0b5b2b960d91b602082015260400192915050565b60006119f9601583611fb6565b7f46696c6c20707269636520697320696e76616c69640000000000000000000000815260200192915050565b6000611a32602183611fb6565b7f43616e63656c6564206f726465722063616e6e6f7420626520617070726f76658152601960fa1b602082015260400192915050565b6000611a75601583611fb6565b7f43616e6e6f74206f76657266696c6c206f726465720000000000000000000000815260200192915050565b6000611aae602083611fb6565b7f4f726465722074616b657220646f6573206e6f74206d617463682074616b6572815260200192915050565b6000611ae760118361073d565b7f75696e74323536206c696d69744665652c000000000000000000000000000000815260110192915050565b6000611b20601e83611fb6565b7f6d73672e73656e646572206d7573742062652050657270657475616c56310000815260200192915050565b80516080830190611b5d848261147f565b506020820151611b70602085018261147f565b506040820151611b83604085018261147f565b506060820151611b966060850182611465565b50505050565b80516040830190611bad84826114c3565b506020820151611b96602085018261147f565b8051610100830190611bd2848261147f565b506020820151611be5602085018261147f565b506040820151611bf8604085018261147f565b506060820151611c0b606085018261147f565b506080820151611c1e608085018261147f565b5060a0820151611c3160a08501826113fd565b5060c0820151611c4460c08501826113fd565b5060e0820151611b9660e085018261147f565b80516080830190611c68848261147f565b506020820151611c7b602085018261147f565b506040820151611c8e6040850182611465565b506060820151611b96606085018261147f565b61140681612021565b6000611cb6828661146e565b600282019150611cc68285611488565b602082019150611cd68284611488565b506020019392505050565b6000611ced8285611494565b9150611cf98284611488565b5060200192915050565b6000611d0e82611647565b9150611d1982611756565b9150611d24826115d5565b9150611d2f8261180b565b9150611d3a826116b9565b9150611d4582611ada565b9150611d508261187d565b9150611d5b82611844565b9150611d668261196c565b915061069c826116f2565b6020810161069c82846113fd565b60408101611d8d82856113fd565b610aee60208301846113fd565b60208082528101610aee818461140c565b6020810161069c828461147f565b60e08101611dc7828761147f565b611dd4602083018661147f565b611de1604083018561147f565b611dee6060830184611b4c565b95945050505050565b6101208101611e06828561147f565b610aee6020830184611bc0565b60808101611e21828761147f565b611e2e6020830186611ca1565b611e3b604083018561147f565b611dee606083018461147f565b6020810161069c82846114c3565b60208082528101610aee81846114cc565b6020808252810161069c81611504565b6020808252810161069c81611563565b6020808252810161069c8161159c565b6020808252810161069c8161160e565b6020808252810161069c81611680565b6020808252810161069c8161170f565b6020808252810161069c8161178f565b6020808252810161069c816117c8565b6020808252810161069c816118b6565b6020808252810161069c816118ef565b6020808252810161069c81611928565b6020808252810161069c816119a5565b6020808252810161069c816119ec565b6020808252810161069c81611a25565b6020808252810161069c81611a68565b6020808252810161069c81611aa1565b6020808252810161069c81611b13565b6080810161069c8284611c57565b60405181810167ffffffffffffffff81118282101715611fa457600080fd5b604052919050565b60200190565b5190565b90815260200190565b600061069c82612015565b151590565b7fffff0000000000000000000000000000000000000000000000000000000000001690565b90565b8061073d81612068565b6effffffffffffffffffffffffffffff1690565b6001600160a01b031690565b60ff1690565b600061069c82611ff7565b60005b8381101561204d578181015183820152602001612035565b83811115611b965750506000910152565b601f01601f191690565b6003811061207257fe5b50565b61207e81611fbf565b811461207257600080fd5b61207e81611fca565b61207e81611fcf565b61207e81611ff4565b61207e8161200156fea365627a7a72315820f04ae331b28970d97fd5fcdc51780aa9617415711577e4563042a92f397d2c6c6c6578706572696d656e74616cf564736f6c63430005100040",
  "devdoc": {
    "author": "axor",
    "methods": {
      "approveOrder((bytes32,uint256,uint256,uint256,uint256,address,address,uint256))": {
        "details": "Emits the LogOrderApproved event.",
        "params": {
          "order": "The order that will be approved."
        }
      },
      "cancelOrder((bytes32,uint256,uint256,uint256,uint256,address,address,uint256))": {
        "details": "Emits the LogOrderCanceled event.",
        "params": {
          "order": "The order that will be permanently canceled."
        }
      },
      "getOrdersStatus(bytes32[])": {
        "params": {
          "orderHashes": "A list of the hashes of the orders to check."
        },
        "return": "A list of OrderQueryOutput structs containing the status and filled                     amount of each order."
      },
      "trade(address,address,address,uint256,bytes,bytes32)": {
        "details": "Emits the LogOrderFilled event.",
        "params": {
          "data": "A struct of type TradeData.",
          "maker": "The maker of the order.",
          "price": "The current oracle price of the underlying asset.",
          "sender": "The address that called the trade() function on PerpetualV1.",
          "taker": "The taker of the order."
        },
        "return": "The assets to be traded and traderFlags that indicate that a trade occurred."
      }
    },
    "title": "P1Orders"
  },
  "userdoc": {
    "methods": {
      "approveOrder((bytes32,uint256,uint256,uint256,uint256,address,address,uint256))": {
        "notice": "On-chain approves an order."
      },
      "cancelOrder((bytes32,uint256,uint256,uint256,uint256,address,address,uint256))": {
        "notice": "On-chain cancels an order."
      },
      "getOrdersStatus(bytes32[])": {
        "notice": "Gets the status (open/approved/canceled) and filled amount of each order in a list."
      },
      "trade(address,address,address,uint256,bytes,bytes32)": {
        "notice": "Allows an account to take an order cryptographically signed by a different account."
      }
    },
    "notice": "Contract allowing trading between accounts using cryptographically signed messages."
  },
  "storageLayout": {
    "storage": [
      {
        "astId": 6979,
        "contract": "contracts/protocol/v1/traders/P1Orders.sol:P1Orders",
        "label": "_PERPETUAL_V1_",
        "offset": 0,
        "slot": "0",
        "type": "t_address"
      },
      {
        "astId": 6981,
        "contract": "contracts/protocol/v1/traders/P1Orders.sol:P1Orders",
        "label": "_EIP712_DOMAIN_HASH_",
        "offset": 0,
        "slot": "1",
        "type": "t_bytes32"
      },
      {
        "astId": 6985,
        "contract": "contracts/protocol/v1/traders/P1Orders.sol:P1Orders",
        "label": "_FILLED_AMOUNT_",
        "offset": 0,
        "slot": "2",
        "type": "t_mapping(t_bytes32,t_uint256)"
      },
      {
        "astId": 6989,
        "contract": "contracts/protocol/v1/traders/P1Orders.sol:P1Orders",
        "label": "_STATUS_",
        "offset": 0,
        "slot": "3",
        "type": "t_mapping(t_bytes32,t_enum(OrderStatus)6917)"
      }
    ],
    "types": {
      "t_address": {
        "encoding": "inplace",
        "label": "address",
        "numberOfBytes": "20"
      },
      "t_bytes32": {
        "encoding": "inplace",
        "label": "bytes32",
        "numberOfBytes": "32"
      },
      "t_enum(OrderStatus)6917": {
        "encoding": "inplace",
        "label": "enum P1Orders.OrderStatus",
        "numberOfBytes": "1"
      },
      "t_mapping(t_bytes32,t_enum(OrderStatus)6917)": {
        "encoding": "mapping",
        "key": "t_bytes32",
        "label": "mapping(bytes32 => enum P1Orders.OrderStatus)",
        "numberOfBytes": "32",
        "value": "t_enum(OrderStatus)6917"
      },
      "t_mapping(t_bytes32,t_uint256)": {
        "encoding": "mapping",
        "key": "t_bytes32",
        "label": "mapping(bytes32 => uint256)",
        "numberOfBytes": "32",
        "value": "t_uint256"
      },
      "t_uint256": {
        "encoding": "inplace",
        "label": "uint256",
        "numberOfBytes": "32"
      }
    }
  }
}