{
  "address": "0xA3A1C2D00Ce16ffE6EAbbd051Fb827cb03defAb2",
  "abi": [
    {
      "anonymous": false,
      "inputs": [
        {
          "indexed": true,
          "internalType": "address",
          "name": "account",
          "type": "address"
        },
        {
          "indexed": false,
          "internalType": "bool",
          "name": "isPositive",
          "type": "bool"
        },
        {
          "indexed": false,
          "internalType": "uint256",
          "name": "amount",
          "type": "uint256"
        },
        {
          "indexed": false,
          "internalType": "bytes32",
          "name": "balance",
          "type": "bytes32"
        }
      ],
      "name": "LogAccountSettled",
      "type": "event"
    },
    {
      "anonymous": false,
      "inputs": [
        {
          "indexed": true,
          "internalType": "address",
          "name": "account",
          "type": "address"
        },
        {
          "indexed": false,
          "internalType": "uint256",
          "name": "amount",
          "type": "uint256"
        },
        {
          "indexed": false,
          "internalType": "bytes32",
          "name": "balance",
          "type": "bytes32"
        }
      ],
      "name": "LogDeposit",
      "type": "event"
    },
    {
      "anonymous": false,
      "inputs": [
        {
          "indexed": false,
          "internalType": "uint256",
          "name": "settlementPrice",
          "type": "uint256"
        }
      ],
      "name": "LogFinalSettlementEnabled",
      "type": "event"
    },
    {
      "anonymous": false,
      "inputs": [
        {
          "indexed": false,
          "internalType": "bytes32",
          "name": "index",
          "type": "bytes32"
        }
      ],
      "name": "LogIndex",
      "type": "event"
    },
    {
      "anonymous": false,
      "inputs": [
        {
          "indexed": false,
          "internalType": "address",
          "name": "funder",
          "type": "address"
        }
      ],
      "name": "LogSetFunder",
      "type": "event"
    },
    {
      "anonymous": false,
      "inputs": [
        {
          "indexed": false,
          "internalType": "address",
          "name": "operator",
          "type": "address"
        },
        {
          "indexed": false,
          "internalType": "bool",
          "name": "approved",
          "type": "bool"
        }
      ],
      "name": "LogSetGlobalOperator",
      "type": "event"
    },
    {
      "anonymous": false,
      "inputs": [
        {
          "indexed": true,
          "internalType": "address",
          "name": "sender",
          "type": "address"
        },
        {
          "indexed": false,
          "internalType": "address",
          "name": "operator",
          "type": "address"
        },
        {
          "indexed": false,
          "internalType": "bool",
          "name": "approved",
          "type": "bool"
        }
      ],
      "name": "LogSetLocalOperator",
      "type": "event"
    },
    {
      "anonymous": false,
      "inputs": [
        {
          "indexed": false,
          "internalType": "uint256",
          "name": "minCollateral",
          "type": "uint256"
        }
      ],
      "name": "LogSetMinCollateral",
      "type": "event"
    },
    {
      "anonymous": false,
      "inputs": [
        {
          "indexed": false,
          "internalType": "address",
          "name": "oracle",
          "type": "address"
        }
      ],
      "name": "LogSetOracle",
      "type": "event"
    },
    {
      "anonymous": false,
      "inputs": [
        {
          "indexed": true,
          "internalType": "address",
          "name": "account",
          "type": "address"
        },
        {
          "indexed": false,
          "internalType": "address",
          "name": "destination",
          "type": "address"
        }
      ],
      "name": "LogSetWithdraw",
      "type": "event"
    },
    {
      "anonymous": false,
      "inputs": [
        {
          "indexed": true,
          "internalType": "address",
          "name": "maker",
          "type": "address"
        },
        {
          "indexed": true,
          "internalType": "address",
          "name": "taker",
          "type": "address"
        },
        {
          "indexed": false,
          "internalType": "address",
          "name": "trader",
          "type": "address"
        },
        {
          "indexed": false,
          "internalType": "uint256",
          "name": "marginAmount",
          "type": "uint256"
        },
        {
          "indexed": false,
          "internalType": "uint256",
          "name": "positionAmount",
          "type": "uint256"
        },
        {
          "indexed": false,
          "internalType": "bool",
          "name": "isBuy",
          "type": "bool"
        },
        {
          "indexed": false,
          "internalType": "bytes32",
          "name": "makerBalance",
          "type": "bytes32"
        },
        {
          "indexed": false,
          "internalType": "bytes32",
          "name": "takerBalance",
          "type": "bytes32"
        }
      ],
      "name": "LogTrade",
      "type": "event"
    },
    {
      "anonymous": false,
      "inputs": [
        {
          "indexed": true,
          "internalType": "address",
          "name": "account",
          "type": "address"
        },
        {
          "indexed": false,
          "internalType": "address",
          "name": "destination",
          "type": "address"
        },
        {
          "indexed": false,
          "internalType": "uint256",
          "name": "amount",
          "type": "uint256"
        },
        {
          "indexed": false,
          "internalType": "bool",
          "name": "settlementIsPositive",
          "type": "bool"
        },
        {
          "indexed": false,
          "internalType": "uint256",
          "name": "settlementAmount",
          "type": "uint256"
        },
        {
          "indexed": false,
          "internalType": "bytes32",
          "name": "balance",
          "type": "bytes32"
        }
      ],
      "name": "LogUserForceWithdraw",
      "type": "event"
    },
    {
      "anonymous": false,
      "inputs": [
        {
          "indexed": true,
          "internalType": "address",
          "name": "account",
          "type": "address"
        },
        {
          "indexed": false,
          "internalType": "address",
          "name": "destination",
          "type": "address"
        },
        {
          "indexed": false,
          "internalType": "uint256",
          "name": "amount",
          "type": "uint256"
        },
        {
          "indexed": false,
          "internalType": "bytes32",
          "name": "balance",
          "type": "bytes32"
        }
      ],
      "name": "LogWithdraw",
      "type": "event"
    },
    {
      "anonymous": false,
      "inputs": [
        {
          "indexed": true,
          "internalType": "address",
          "name": "account",
          "type": "address"
        },
        {
          "indexed": false,
          "internalType": "uint256",
          "name": "amount",
          "type": "uint256"
        },
        {
          "indexed": false,
          "internalType": "bytes32",
          "name": "balance",
          "type": "bytes32"
        }
      ],
      "name": "LogWithdrawFinalSettlement",
      "type": "event"
    },
    {
      "constant": false,
      "inputs": [
        {
          "internalType": "address",
          "name": "from",
          "type": "address"
        },
        {
          "internalType": "address",
          "name": "account",
          "type": "address"
        },
        {
          "internalType": "uint256",
          "name": "amount",
          "type": "uint256"
        },
        {
          "internalType": "uint256",
          "name": "price",
          "type": "uint256"
        },
        {
          "internalType": "uint256",
          "name": "settlementAmounts",
          "type": "uint256"
        },
        {
          "internalType": "bool",
          "name": "settlementIsPositives",
          "type": "bool"
        }
      ],
      "name": "deposit",
      "outputs": [],
      "payable": false,
      "stateMutability": "nonpayable",
      "type": "function"
    },
    {
      "constant": false,
      "inputs": [
        {
          "internalType": "uint256",
          "name": "priceLowerBound",
          "type": "uint256"
        },
        {
          "internalType": "uint256",
          "name": "priceUpperBound",
          "type": "uint256"
        }
      ],
      "name": "enableFinalSettlement",
      "outputs": [],
      "payable": false,
      "stateMutability": "nonpayable",
      "type": "function"
    },
    {
      "constant": true,
      "inputs": [
        {
          "internalType": "address",
          "name": "account",
          "type": "address"
        }
      ],
      "name": "getAccountBalance",
      "outputs": [
        {
          "components": [
            {
              "internalType": "bool",
              "name": "marginIsPositive",
              "type": "bool"
            },
            {
              "internalType": "bool",
              "name": "positionIsPositive",
              "type": "bool"
            },
            {
              "internalType": "uint120",
              "name": "margin",
              "type": "uint120"
            },
            {
              "internalType": "uint120",
              "name": "position",
              "type": "uint120"
            }
          ],
          "internalType": "struct P1Types.Balance",
          "name": "",
          "type": "tuple"
        }
      ],
      "payable": false,
      "stateMutability": "view",
      "type": "function"
    },
    {
      "constant": true,
      "inputs": [
        {
          "internalType": "address",
          "name": "account",
          "type": "address"
        }
      ],
      "name": "getAccountIndex",
      "outputs": [
        {
          "components": [
            {
              "internalType": "uint32",
              "name": "timestamp",
              "type": "uint32"
            },
            {
              "internalType": "bool",
              "name": "isPositive",
              "type": "bool"
            },
            {
              "internalType": "uint128",
              "name": "value",
              "type": "uint128"
            }
          ],
          "internalType": "struct P1Types.Index",
          "name": "",
          "type": "tuple"
        }
      ],
      "payable": false,
      "stateMutability": "view",
      "type": "function"
    },
    {
      "constant": true,
      "inputs": [],
      "name": "getAdmin",
      "outputs": [
        {
          "internalType": "address",
          "name": "",
          "type": "address"
        }
      ],
      "payable": false,
      "stateMutability": "view",
      "type": "function"
    },
    {
      "constant": true,
      "inputs": [],
      "name": "getDelayBlock",
      "outputs": [
        {
          "internalType": "uint256",
          "name": "",
          "type": "uint256"
        }
      ],
      "payable": false,
      "stateMutability": "view",
      "type": "function"
    },
    {
      "constant": true,
      "inputs": [],
      "name": "getFinalSettlementEnabled",
      "outputs": [
        {
          "internalType": "bool",
          "name": "",
          "type": "bool"
        }
      ],
      "payable": false,
      "stateMutability": "view",
      "type": "function"
    },
    {
      "constant": true,
      "inputs": [],
      "name": "getFunderContract",
      "outputs": [
        {
          "internalType": "address",
          "name": "",
          "type": "address"
        }
      ],
      "payable": false,
      "stateMutability": "view",
      "type": "function"
    },
    {
      "constant": true,
      "inputs": [],
      "name": "getGlobalIndex",
      "outputs": [
        {
          "components": [
            {
              "internalType": "uint32",
              "name": "timestamp",
              "type": "uint32"
            },
            {
              "internalType": "bool",
              "name": "isPositive",
              "type": "bool"
            },
            {
              "internalType": "uint128",
              "name": "value",
              "type": "uint128"
            }
          ],
          "internalType": "struct P1Types.Index",
          "name": "",
          "type": "tuple"
        }
      ],
      "payable": false,
      "stateMutability": "view",
      "type": "function"
    },
    {
      "constant": true,
      "inputs": [
        {
          "internalType": "address",
          "name": "operator",
          "type": "address"
        }
      ],
      "name": "getIsGlobalOperator",
      "outputs": [
        {
          "internalType": "bool",
          "name": "",
          "type": "bool"
        }
      ],
      "payable": false,
      "stateMutability": "view",
      "type": "function"
    },
    {
      "constant": true,
      "inputs": [
        {
          "internalType": "address",
          "name": "account",
          "type": "address"
        },
        {
          "internalType": "address",
          "name": "operator",
          "type": "address"
        }
      ],
      "name": "getIsLocalOperator",
      "outputs": [
        {
          "internalType": "bool",
          "name": "",
          "type": "bool"
        }
      ],
      "payable": false,
      "stateMutability": "view",
      "type": "function"
    },
    {
      "constant": true,
      "inputs": [],
      "name": "getMinCollateral",
      "outputs": [
        {
          "internalType": "uint256",
          "name": "",
          "type": "uint256"
        }
      ],
      "payable": false,
      "stateMutability": "view",
      "type": "function"
    },
    {
      "constant": true,
      "inputs": [],
      "name": "getOracleContract",
      "outputs": [
        {
          "internalType": "address",
          "name": "",
          "type": "address"
        }
      ],
      "payable": false,
      "stateMutability": "view",
      "type": "function"
    },
    {
      "constant": true,
      "inputs": [],
      "name": "getOraclePrice",
      "outputs": [
        {
          "internalType": "uint256",
          "name": "",
          "type": "uint256"
        }
      ],
      "payable": false,
      "stateMutability": "view",
      "type": "function"
    },
    {
      "constant": true,
      "inputs": [],
      "name": "getTokenContract",
      "outputs": [
        {
          "internalType": "address",
          "name": "",
          "type": "address"
        }
      ],
      "payable": false,
      "stateMutability": "view",
      "type": "function"
    },
    {
      "constant": true,
      "inputs": [
        {
          "internalType": "address",
          "name": "account",
          "type": "address"
        }
      ],
      "name": "getUserFlag",
      "outputs": [
        {
          "internalType": "uint256",
          "name": "",
          "type": "uint256"
        }
      ],
      "payable": false,
      "stateMutability": "view",
      "type": "function"
    },
    {
      "constant": true,
      "inputs": [
        {
          "internalType": "address",
          "name": "account",
          "type": "address"
        },
        {
          "internalType": "address",
          "name": "operator",
          "type": "address"
        }
      ],
      "name": "hasAccountPermissions",
      "outputs": [
        {
          "internalType": "bool",
          "name": "",
          "type": "bool"
        }
      ],
      "payable": false,
      "stateMutability": "view",
      "type": "function"
    },
    {
      "constant": false,
      "inputs": [
        {
          "internalType": "address",
          "name": "token",
          "type": "address"
        },
        {
          "internalType": "address",
          "name": "oracle",
          "type": "address"
        },
        {
          "internalType": "address",
          "name": "funder",
          "type": "address"
        },
        {
          "internalType": "uint256",
          "name": "minCollateral",
          "type": "uint256"
        }
      ],
      "name": "initializeV1",
      "outputs": [],
      "payable": false,
      "stateMutability": "nonpayable",
      "type": "function"
    },
    {
      "constant": false,
      "inputs": [
        {
          "internalType": "address",
          "name": "account",
          "type": "address"
        },
        {
          "internalType": "address",
          "name": "destination",
          "type": "address"
        }
      ],
      "name": "requestWithdraw",
      "outputs": [],
      "payable": false,
      "stateMutability": "nonpayable",
      "type": "function"
    },
    {
      "constant": false,
      "inputs": [
        {
          "internalType": "address",
          "name": "funder",
          "type": "address"
        }
      ],
      "name": "setFunder",
      "outputs": [],
      "payable": false,
      "stateMutability": "nonpayable",
      "type": "function"
    },
    {
      "constant": false,
      "inputs": [
        {
          "internalType": "address",
          "name": "operator",
          "type": "address"
        },
        {
          "internalType": "bool",
          "name": "approved",
          "type": "bool"
        }
      ],
      "name": "setGlobalOperator",
      "outputs": [],
      "payable": false,
      "stateMutability": "nonpayable",
      "type": "function"
    },
    {
      "constant": false,
      "inputs": [
        {
          "internalType": "address",
          "name": "operator",
          "type": "address"
        },
        {
          "internalType": "bool",
          "name": "approved",
          "type": "bool"
        }
      ],
      "name": "setLocalOperator",
      "outputs": [],
      "payable": false,
      "stateMutability": "nonpayable",
      "type": "function"
    },
    {
      "constant": false,
      "inputs": [
        {
          "internalType": "uint256",
          "name": "minCollateral",
          "type": "uint256"
        }
      ],
      "name": "setMinCollateral",
      "outputs": [],
      "payable": false,
      "stateMutability": "nonpayable",
      "type": "function"
    },
    {
      "constant": false,
      "inputs": [
        {
          "internalType": "address",
          "name": "oracle",
          "type": "address"
        }
      ],
      "name": "setOracle",
      "outputs": [],
      "payable": false,
      "stateMutability": "nonpayable",
      "type": "function"
    },
    {
      "constant": false,
      "inputs": [
        {
          "internalType": "uint256",
          "name": "withdrawDelayBlock",
          "type": "uint256"
        }
      ],
      "name": "setWithdrawDelayBlock",
      "outputs": [],
      "payable": false,
      "stateMutability": "nonpayable",
      "type": "function"
    },
    {
      "constant": false,
      "inputs": [
        {
          "internalType": "address[]",
          "name": "accounts",
          "type": "address[]"
        },
        {
          "components": [
            {
              "internalType": "uint256",
              "name": "takerIndex",
              "type": "uint256"
            },
            {
              "internalType": "uint256",
              "name": "makerIndex",
              "type": "uint256"
            },
            {
              "internalType": "address",
              "name": "trader",
              "type": "address"
            },
            {
              "internalType": "bytes",
              "name": "data",
              "type": "bytes"
            }
          ],
          "internalType": "struct P1Trade.TradeArg[]",
          "name": "trades",
          "type": "tuple[]"
        },
        {
          "internalType": "uint256[]",
          "name": "settlementAmounts",
          "type": "uint256[]"
        },
        {
          "internalType": "bool[]",
          "name": "settlementIsPositives",
          "type": "bool[]"
        },
        {
          "internalType": "uint256",
          "name": "price",
          "type": "uint256"
        }
      ],
      "name": "trade",
      "outputs": [],
      "payable": false,
      "stateMutability": "nonpayable",
      "type": "function"
    },
    {
      "constant": false,
      "inputs": [
        {
          "internalType": "address",
          "name": "account",
          "type": "address"
        },
        {
          "internalType": "address",
          "name": "destination",
          "type": "address"
        },
        {
          "internalType": "uint256",
          "name": "amount",
          "type": "uint256"
        }
      ],
      "name": "userWithdraw",
      "outputs": [],
      "payable": false,
      "stateMutability": "nonpayable",
      "type": "function"
    },
    {
      "constant": false,
      "inputs": [
        {
          "internalType": "address",
          "name": "account",
          "type": "address"
        },
        {
          "internalType": "address",
          "name": "destination",
          "type": "address"
        },
        {
          "internalType": "uint256",
          "name": "amount",
          "type": "uint256"
        },
        {
          "internalType": "uint256",
          "name": "price",
          "type": "uint256"
        },
        {
          "internalType": "uint256",
          "name": "settlementAmounts",
          "type": "uint256"
        },
        {
          "internalType": "bool",
          "name": "settlementIsPositives",
          "type": "bool"
        }
      ],
      "name": "withdraw",
      "outputs": [],
      "payable": false,
      "stateMutability": "nonpayable",
      "type": "function"
    },
    {
      "constant": false,
      "inputs": [],
      "name": "withdrawFinalSettlement",
      "outputs": [],
      "payable": false,
      "stateMutability": "nonpayable",
      "type": "function"
    }
  ],
  "transactionHash": "0xd60808f8f6e53ca7c095065b1447d661b231a4edcfd796f93c508f1080a4e0be",
  "args": [],
  "numDeployments": 3,
  "solcInputHash": "3c1127b82a0e5199970fefd0f49979ee",
  "bytecode": "0x608060405260016000556149e2806100186000396000f3fe608060405234801561001057600080fd5b50600436106101cf5760003560e01c806380d6368111610104578063a895155b116100a2578063e3bbb56511610071578063e3bbb565146103a3578063e77cb892146103ab578063e830b690146103be578063f40c3699146103c6576101cf565b8063a895155b14610362578063b4959e7214610375578063dc4f3a0e14610388578063e200b63014610390576101cf565b80638e9b3957116100de5780638e9b39571461031457806393423e9c146103275780639795d87b146103475780639ba63e9e1461034f576101cf565b806380d63681146102d9578063846321a4146102ee57806384ea286214610301576101cf565b806346d256c5116101715780637099366b1161014b5780637099366b1461029657806377ecf4111461029e578063796da7af146102b15780637adbf973146102c6576101cf565b806346d256c514610268578063642326591461027b5780636e9960c31461028e576101cf565b80631d13f344116101ad5780631d13f3441461021a57806328b7bede1461022d5780632f21dc32146102425780633a031bf014610255576101cf565b8063052f72d7146101d45780630acc8cd1146101fd578063142c69b314610212575b600080fd5b6101e76101e23660046137ea565b6103d9565b6040516101f4919061463e565b60405180910390f35b61021061020b3660046137ea565b6103f7565b005b610210610548565b6102106102283660046138f0565b610822565b6102356109ca565b6040516101f491906144bb565b610210610250366004613808565b6109d9565b6101e7610263366004613808565b610aa8565b610210610276366004613977565b610ad8565b6102106102893660046138f0565b610ba0565b610235610d74565b6101e7610da4565b6102106102ac3660046138a3565b610dad565b6102b9611032565b6040516101f4919061465a565b6102106102d43660046137ea565b6110e7565b6102e1611231565b6040516101f49190614835565b6102106102fc366004613ae7565b61127e565b6101e761030f366004613808565b61133c565b610210610322366004613ae7565b6113ad565b61033a6103353660046137ea565b611413565b6040516101f49190614827565b6102b9611483565b6102e161035d3660046137ea565b611489565b610210610370366004613842565b6114f1565b610210610383366004613977565b61165e565b6102356116cb565b6102b961039e3660046137ea565b6116da565b6102356116f5565b6102106103b93660046139a7565b611704565b6102b9611d00565b6102106103d4366004613b23565b611d06565b6001600160a01b031660009081526003602052604090205460ff1690565b6103ff610d74565b6001600160a01b0316336001600160a01b0316146104385760405162461bcd60e51b815260040161042f90614737565b60405180910390fd5b600019600054141561045c5760405162461bcd60e51b815260040161042f906147f7565b6000196000908155604051633afb52f560e21b81526001600160a01b0383169163ebed4bd49161048f9190600401614668565b604080518083038186803b1580156104a657600080fd5b505afa1580156104ba573d6000803e3d6000fd5b505050506040513d601f19601f820116820180604052506104de9190810190613a99565b50506008805473ffffffffffffffffffffffffffffffffffffffff19166001600160a01b0383161790556040517f433b5c8c9ff78f62114ee8804a916537fa42009ebac4965bfed953f771789e47906105389083906144bb565b60405180910390a1506001600055565b600b5460ff1661056a5760405162461bcd60e51b815260040161042f906146b7565b600019600054141561058e5760405162461bcd60e51b815260040161042f906147f7565b60001960005561059c613409565b506040805160608082018352600c548252600a546020808401919091528351918201845260095463ffffffff81168352640100000000810460ff161515918301919091526501000000000090046001600160801b0316818401529181019190915261060561342f565b61060f8233611e36565b505090506000806106248385600001516121c6565b9150915080821015610639575050505061081b565b6000610662610646612273565b610656858563ffffffff61227f16565b9063ffffffff6122c116565b6006546040516370a0823160e01b81529192506000916001600160a01b03909116906370a08231906106989030906004016144bb565b60206040518083038186803b1580156106b057600080fd5b505afa1580156106c4573d6000803e3d6000fd5b505050506040513d601f19601f820116820180604052506106e89190810190613b05565b905060006106f68284612303565b9050600061071261070d858463ffffffff61227f16565b612319565b604080516080810182526001600160781b0383811680151583526000602080850182815285870193845260608601838152338085526001909352969092208551815493519451975160ff199094169015151761ff001916610100941515949094029390931770ffffffffffffffffffffffffffffff000019166201000096851696909602959095176001600160881b0316600160881b91909316029190911790556006549099509192506107d0916001600160a01b0316908461234e565b337fc3b34c584e097adcd5d59ecaf4107928698a4f075c7753b5dbe28cd20d7ac1fd836107fc8a6123d9565b60405161080a929190614843565b60405180910390a250505050505050505b6001600055565b600b5460ff16156108455760405162461bcd60e51b815260040161042f90614747565b60001960005414156108695760405162461bcd60e51b815260040161042f906147f7565b60001960009081553381526003602052604090205460ff1661089d5760405162461bcd60e51b815260040161042f906146d7565b6108a5613409565b6108ae84612442565b90506108b861342f565b6108c4828886866126b4565b6006549091506108df906001600160a01b0316893089612962565b6108ef818763ffffffff61298c16565b6001600160a01b038716600081815260016020908152604091829020845181549286015193860151606087015160ff199094169115159190911761ff001916610100941515949094029390931770ffffffffffffffffffffffffffffff00001916620100006001600160781b0394851602176001600160881b0316600160881b93909216929092021790557f40a9cb3a9707d3a68091d8ef7ffd4158d01d0b2ad92b1e489abe8312dd543023876109a5846123d9565b6040516109b3929190614843565b60405180910390a250506001600055505050505050565b6006546001600160a01b031690565b600b5460ff16156109fc5760405162461bcd60e51b815260040161042f90614747565b6000196000541415610a205760405162461bcd60e51b815260040161042f906147f7565b600019600055610a30823361133c565b610a4c5760405162461bcd60e51b815260040161042f90614687565b6001600160a01b03821660008181526004602052604090819020439055517f9a37e35722b49ddb4423d6a2457572e944ace1c590b8f3a14ff5eb4c7a83ca9590610a979084906144bb565b60405180910390a250506001600055565b6001600160a01b0380831660009081526005602090815260408083209385168352929052205460ff165b92915050565b610ae0610d74565b6001600160a01b0316336001600160a01b031614610b105760405162461bcd60e51b815260040161042f90614737565b6000196000541415610b345760405162461bcd60e51b815260040161042f906147f7565b60001960009081556001600160a01b03831681526003602052604090819020805460ff1916831515179055517feaeee7699e70e6b31ac89ec999ef6936b97ac1e364f0e1fcf584772372caa0d390610b8f9084908490614552565b60405180910390a150506001600055565b600b5460ff1615610bc35760405162461bcd60e51b815260040161042f90614747565b6000196000541415610be75760405162461bcd60e51b815260040161042f906147f7565b60001960009081553381526003602052604090205460ff16610c1b5760405162461bcd60e51b815260040161042f906146f7565b610c23613409565b610c2c84612442565b9050610c3661342f565b610c42828986866126b4565b6001600160a01b03808a16600090815260046020526040812055600654919250610c6e9116888861234e565b610c7e818763ffffffff6129c116565b6001600160a01b038816600090815260016020908152604091829020835181549285015193850151606086015160ff199094169115159190911761ff001916610100941515949094029390931770ffffffffffffffffffffffffffffff00001916620100006001600160781b0394851602176001600160881b0316600160881b9390921692909202179055610d1382826129e4565b610d2f5760405162461bcd60e51b815260040161042f906147c7565b876001600160a01b03167f74348e8cb927b5536fe550310d0cdf05914498fcb04ad61b99c29e3899b0bce98888610d65856123d9565b6040516109b3939291906145d4565b6000610d9f7fb53127684a568b3173ae13b9f8a6016e243e63b6e8ee1178d6a717850b5d6103612a3e565b905090565b600b5460ff1690565b600b5460ff1615610dd05760405162461bcd60e51b815260040161042f90614747565b6000196000541415610df45760405162461bcd60e51b815260040161042f906147f7565b600019600055610e04833361133c565b610e205760405162461bcd60e51b815260040161042f90614687565b6001600160a01b03831660009081526004602052604090205415801590610e645750600d546001600160a01b03841660009081526004602052604090205443910111155b610e805760405162461bcd60e51b815260040161042f90614787565b6001600160a01b038316600090815260046020526040812055610ea1613409565b610ea9612a42565b9050610eb361342f565b600080610ec08488611e36565b92509250925080851015610ee65760405162461bcd60e51b815260040161042f906147b7565b8115610ef55793840193610efb565b80850394505b600654610f12906001600160a01b0316878761234e565b610f22838663ffffffff6129c116565b6001600160a01b038716600090815260016020908152604091829020855181549287015193870151606088015160ff199094169115159190911761ff001916610100941515949094029390931770ffffffffffffffffffffffffffffff00001916620100006001600160781b0394851602176001600160881b0316600160881b9390921692909202179055610fb784846129e4565b610fd35760405162461bcd60e51b815260040161042f906147c7565b866001600160a01b03167f5cbceab3e5a3f7f2c0de8532ed22367c5b34ac743e712398d68fb28d64af99f78787858561100b896123d9565b60405161101c959493929190614588565b60405180910390a2505060016000555050505050565b3360009081526003602052604081205460ff166110615760405162461bcd60e51b815260040161042f90614727565b600760009054906101000a90046001600160a01b03166001600160a01b03166398d5fdca6040518163ffffffff1660e01b815260040160206040518083038186803b1580156110af57600080fd5b505afa1580156110c3573d6000803e3d6000fd5b505050506040513d601f19601f82011682018060405250610d9f9190810190613b05565b6110ef610d74565b6001600160a01b0316336001600160a01b03161461111f5760405162461bcd60e51b815260040161042f90614737565b60001960005414156111435760405162461bcd60e51b815260040161042f906147f7565b600019600081905550806001600160a01b03166398d5fdca6040518163ffffffff1660e01b815260040160206040518083038186803b15801561118557600080fd5b505afa158015611199573d6000803e3d6000fd5b505050506040513d601f19601f820116820180604052506111bd9190810190613b05565b6111d95760405162461bcd60e51b815260040161042f90614777565b6007805473ffffffffffffffffffffffffffffffffffffffff19166001600160a01b0383161790556040517fad675642c3cba5442815383698d42cd28889533d9671a6d32cffea58ef0874da906105389083906144bb565b611239613456565b506040805160608101825260095463ffffffff81168252640100000000810460ff16151560208301526501000000000090046001600160801b03169181019190915290565b611286610d74565b6001600160a01b0316336001600160a01b0316146112b65760405162461bcd60e51b815260040161042f90614737565b60001960005414156112da5760405162461bcd60e51b815260040161042f906147f7565b6000196000556112e8612273565b8110156113075760405162461bcd60e51b815260040161042f906146a7565b600a8190556040517f248b36ced4662a14c995e0872f00eb61be4e3dea3913226cdeb513d64728cdca9061053890839061465a565b6000816001600160a01b0316836001600160a01b0316148061137657506001600160a01b03821660009081526003602052604090205460ff165b806113a657506001600160a01b0380841660009081526005602090815260408083209386168352929052205460ff165b9392505050565b6113b5610d74565b6001600160a01b0316336001600160a01b0316146113e55760405162461bcd60e51b815260040161042f90614737565b60001960005414156114095760405162461bcd60e51b815260040161042f906147f7565b600d556001600055565b61141b61342f565b506001600160a01b03166000908152600160209081526040918290208251608081018452905460ff808216151583526101008204161515928201929092526001600160781b03620100008304811693820193909352600160881b909104909116606082015290565b600d5490565b611491613456565b506001600160a01b03166000908152600260209081526040918290208251606081018452905463ffffffff81168252640100000000810460ff16151592820192909252650100000000009091046001600160801b03169181019190915290565b6114f9610d74565b6001600160a01b0316336001600160a01b0316146115295760405162461bcd60e51b815260040161042f90614737565b600019600054141561154d5760405162461bcd60e51b815260040161042f906147f7565b60001960005560405161157590600190611566906144b0565b60405190819003902003612a3e565b156115925760405162461bcd60e51b815260040161042f90614757565b6115b460016040516115a3906144b0565b604051908190039020036001612d40565b6006805473ffffffffffffffffffffffffffffffffffffffff199081166001600160a01b0396871617909155600780548216948616949094179093556008805490931691909316179055600a55604080516060810182524263ffffffff16808252600060208301819052919092018190526009805463ffffffff19169092177fffffffffffffffffffffff0000000000000000000000000000000000ffffffff1690915560019055565b3360008181526005602090815260408083206001600160a01b038716845290915290819020805460ff1916841515179055517ffe9fa8ad7dbd5e50cbcd1a903ea64717cb80b02e6b737e74f7e2f070b3e4d15f906116bf9085908590614552565b60405180910390a25050565b6008546001600160a01b031690565b6001600160a01b031660009081526004602052604090205490565b6007546001600160a01b031690565b600b5460ff16156117275760405162461bcd60e51b815260040161042f90614747565b600019600054141561174b5760405162461bcd60e51b815260040161042f906147f7565b60001960009081553381526003602052604090205460ff1661177f5760405162461bcd60e51b815260040161042f906146d7565b61178885612d44565b611790613409565b61179982612442565b905060606117a982888787612de1565b9050606081516040519080825280602002602001820160405280156117e857816020015b6117d561342f565b8152602001906001900390816117cd5790505b50905060005b8851811015611835576000600460008b848151811061180957fe5b6020908102919091018101516001600160a01b03168252810191909152604001600020556001016117ee565b5060005b825181101561187d5761185e83828151811061185157fe5b6020026020010151612ea2565b82828151811061186a57fe5b6020908102919091010152600101611839565b506000805b8851821015611cef57611893613476565b89838151811061189f57fe5b6020908102919091018101516040808201516001600160a01b0316600090815260039093529091205490915060ff166118ea5760405162461bcd60e51b815260040161042f906146d7565b60008b8260200151815181106118fc57fe5b6020026020010151905060008c83600001518151811061191857fe5b6020026020010151905061192a61342f565b6040808501518a516060870151925163970c2ba160e01b81526001600160a01b039092169263970c2ba19261196b9233928992899291908d906004016144c9565b608060405180830381600087803b15801561198557600080fd5b505af1158015611999573d6000803e3d6000fd5b505050506040513d601f19601f820116820180604052506119bd9190810190613ac9565b9050806060015185179450816001600160a01b0316836001600160a01b031614156119eb5750505050611ce4565b6119f361342f565b87856020015181518110611a0357fe5b60200260200101519050611a1561342f565b88866000015181518110611a2557fe5b60200260200101519050826040015115611a90578251611a4c90839063ffffffff61298c16565b6020830151611a6290839063ffffffff612ef816565b8251611a7590829063ffffffff6129c116565b6020830151611a8b90829063ffffffff612f2d16565b611ae2565b8251611aa390839063ffffffff6129c116565b6020830151611ab990839063ffffffff612f2d16565b8251611acc90829063ffffffff61298c16565b6020830151611ae290829063ffffffff612ef816565b8160016000876001600160a01b03166001600160a01b0316815260200190815260200160002060008201518160000160006101000a81548160ff02191690831515021790555060208201518160000160016101000a81548160ff02191690831515021790555060408201518160000160026101000a8154816001600160781b0302191690836001600160781b0316021790555060608201518160000160116101000a8154816001600160781b0302191690836001600160781b031602179055509050508060016000866001600160a01b03166001600160a01b0316815260200190815260200160002060008201518160000160006101000a81548160ff02191690831515021790555060208201518160000160016101000a81548160ff02191690831515021790555060408201518160000160026101000a8154816001600160781b0302191690836001600160781b0316021790555060608201518160000160116101000a8154816001600160781b0302191690836001600160781b03160217905550905050836001600160a01b0316856001600160a01b03167f5171a2ba3550a103fd09ca39b7dcfdf328a5acef18e290c7802d69c8ba73d8d98860400151866000015187602001518860400151611cba896123d9565b611cc3896123d9565b604051611cd5969594939291906145ef565b60405180910390a35050505050505b600190910190611882565b505060016000555050505050505050565b600a5490565b611d0e610d74565b6001600160a01b0316336001600160a01b031614611d3e5760405162461bcd60e51b815260040161042f90614737565b600b5460ff1615611d615760405162461bcd60e51b815260040161042f90614747565b6000196000541415611d855760405162461bcd60e51b815260040161042f906147f7565b600019600055611d93613409565b611d9b612a42565b90508281600001511015611dc15760405162461bcd60e51b815260040161042f90614697565b8051821015611de25760405162461bcd60e51b815260040161042f906147d7565b8051600c819055600b805460ff191660011790556040517f68e4c41627e835051be46337f1542645a60c7e6d6ea79efc5f20bdadae5f88d291611e249161465a565b60405180910390a15050600160005550565b611e3e61342f565b600080611e49613456565b506040850151611e57613456565b506001600160a01b0385166000908152600260209081526040918290208251606081018452905463ffffffff81168252640100000000810460ff16151592820192909252650100000000009091046001600160801b031691810191909152611ebd61342f565b506001600160a01b0386166000908152600160209081526040918290208251608081018452905460ff808216151583526101008204161515928201929092526001600160781b03620100008304811693820193909352600160881b90910490911660608201528251825163ffffffff90811691161415611f48579450600093508392506121bf915050565b6001600160a01b03871660009081526002602090815260409182902085518154928701519387015163ffffffff1990931663ffffffff9091161764ff000000001916640100000000931515939093029290921774ffffffffffffffffffffffffffffffff00000000001916650100000000006001600160801b039092169190910217905560608101516001600160781b0316611fef579450600093508392506121bf915050565b611ff76134a7565b50604080518082018252908401516001600160801b031681526020808501511515818301528301511561204a5760408301516120439082906001600160801b031663ffffffff612f5016565b905061206c565b60408301516120699082906001600160801b031663ffffffff612fff16565b90505b81602001511515816020015115151415955085156120ba57606082015181516120a3916001600160781b031663ffffffff61307c16565b94506120b5828663ffffffff61298c16565b6120eb565b606082015181516120d9916001600160781b031663ffffffff61309a16565b94506120eb828663ffffffff6129c116565b6001600160a01b038816600081815260016020908152604091829020855181549287015193870151606088015160ff199094169115159190911761ff001916610100941515949094029390931770ffffffffffffffffffffffffffffff00001916620100006001600160781b0394851602176001600160881b0316600160881b93909216929092021790557f022694ffbbd957d26de6b85c040be68ec582d13d40114b29130581793a1bf31e87876121a2866123d9565b6040516121b19392919061464c565b60405180910390a250945050505b9250925092565b815160009081908190819015612202576121fb6121e1612273565b60408801516001600160781b03169063ffffffff6130f116565b9150612210565b61220d6121e1612273565b90505b6060860151600090612231906001600160781b03168763ffffffff6130f116565b90508660200151156122545761224d838263ffffffff61312b16565b9250612267565b612264828263ffffffff61312b16565b91505b50909590945092505050565b670de0b6b3a764000090565b60006113a683836040518060400160405280601e81526020017f536166654d6174683a207375627472616374696f6e206f766572666c6f770000815250613150565b60006113a683836040518060400160405280601a81526020017f536166654d6174683a206469766973696f6e206279207a65726f00000000000081525061317c565b600081831061231257816113a6565b5090919050565b60006f01000000000000000000000000000000821061234a5760405162461bcd60e51b815260040161042f906146e7565b5090565b6040516123d490849063a9059cbb60e01b90612370908690869060240161456d565b60408051601f198184030181529190526020810180517bffffffffffffffffffffffffffffffffffffffffffffffffffffffff167fffffffff00000000000000000000000000000000000000000000000000000000909316929092179091526131b3565b505050565b60008082602001516123ec5760006123fe565b6f010000000000000000000000000000005b835161240b576000612411565b600160f81b5b608085604001516001600160781b0316901b85606001516001600160781b031617171790508060001b915050919050565b61244a613409565b612452613456565b506040805160608101825260095463ffffffff808216808452640100000000830460ff1615156020850152650100000000009092046001600160801b03169383019390935290916000916124a99142919061227f16565b90508015612658576124b96134a7565b50604080518082018252838201516001600160801b031681526020808501511515908201526008549151633afb52f560e21b8152909160009182916001600160a01b03169063ebed4bd49061251290879060040161465a565b604080518083038186803b15801561252957600080fd5b505afa15801561253d573d6000803e3d6000fd5b505050506040513d601f19601f820116820180604052506125619190810190613a99565b9092509050612576818863ffffffff61307c16565b905081156125955761258e838263ffffffff612fff16565b92506125a8565b6125a5838263ffffffff612f5016565b92505b60405180606001604052806125bc42613298565b63ffffffff1681526020018460200151151581526020016125e085600001516132be565b6001600160801b0390811690915281516009805460208501516040860151909416650100000000000274ffffffffffffffffffffffffffffffff0000000000199415156401000000000264ff000000001963ffffffff90951663ffffffff199093169290921793909316179290921617905594505050505b7f995e61c355733308eab39a59e1e1ac167274cdd1ad707fe4d13e127a01076428612682836132e3565b60405161268f919061465a565b60405180910390a15060408051606081018252938452600a5460208501528301525090565b6126bc61342f565b6126c4613456565b5060408501516126d2613456565b506001600160a01b0385166000908152600260209081526040918290208251606081018452905463ffffffff81168252640100000000810460ff16151592820192909252650100000000009091046001600160801b03169181019190915261273861342f565b506001600160a01b0386166000908152600160209081526040918290208251608081018452905460ff808216151583526101008204161515928201929092526001600160781b03620100008304811693820193909352600160881b90910490911660608201528251825163ffffffff908116911614156127bc57925061295a915050565b6001600160a01b03871660009081526002602090815260409182902085518154928701519387015163ffffffff1990931663ffffffff9091161764ff000000001916640100000000931515939093029290921774ffffffffffffffffffffffffffffffff00000000001916650100000000006001600160801b039092169190910217905560608101516001600160781b031661285c57925061295a915050565b841561287757612872818763ffffffff61298c16565b612887565b612887818763ffffffff6129c116565b6001600160a01b038716600081815260016020908152604091829020845181549286015193860151606087015160ff199094169115159190911761ff001916610100941515949094029390931770ffffffffffffffffffffffffffffff00001916620100006001600160781b0394851602176001600160881b0316600160881b93909216929092021790557f022694ffbbd957d26de6b85c040be68ec582d13d40114b29130581793a1bf31e868861293e856123d9565b60405161294d9392919061464c565b60405180910390a2925050505b949350505050565b6040516129869085906323b872dd60e01b906123709087908790879060240161452a565b50505050565b6129946134a7565b61299d83613323565b90506129af818363ffffffff612fff16565b90506123d4838263ffffffff61335016565b6129c96134a7565b6129d283613323565b90506129af818363ffffffff612f5016565b6000806000612a008560000151856121c690919063ffffffff16565b91509150612a1b8560200151826130f190919063ffffffff16565b612a33612a26612273565b849063ffffffff6130f116565b101595945050505050565b5490565b612a4a613409565b612a52613456565b506040805160608101825260095463ffffffff81168252640100000000810460ff161515602080840191909152650100000000009091046001600160801b0316828401526007548351634c6afee560e11b8152935192936000936001600160a01b03909216926398d5fdca92600480840193829003018186803b158015612ad857600080fd5b505afa158015612aec573d6000803e3d6000fd5b505050506040513d601f19601f82011682018060405250612b109190810190613b05565b90506000612b31836000015163ffffffff164261227f90919063ffffffff16565b90508015612ce057612b416134a7565b50604080518082018252848201516001600160801b031681526020808601511515908201526008549151633afb52f560e21b8152909160009182916001600160a01b03169063ebed4bd490612b9a90879060040161465a565b604080518083038186803b158015612bb157600080fd5b505afa158015612bc5573d6000803e3d6000fd5b505050506040513d601f19601f82011682018060405250612be99190810190613a99565b9092509050612bfe818663ffffffff61307c16565b90508115612c1d57612c16838263ffffffff612fff16565b9250612c30565b612c2d838263ffffffff612f5016565b92505b6040518060600160405280612c4442613298565b63ffffffff168152602001846020015115158152602001612c6885600001516132be565b6001600160801b0390811690915281516009805460208501516040860151909416650100000000000274ffffffffffffffffffffffffffffffff0000000000199415156401000000000264ff000000001963ffffffff90951663ffffffff199093169290921793909316179290921617905595505050505b7f995e61c355733308eab39a59e1e1ac167274cdd1ad707fe4d13e127a01076428612d0a846132e3565b604051612d17919061465a565b60405180910390a15060408051606081018252918252600a546020830152810191909152905090565b9055565b6000815111612d655760405162461bcd60e51b815260040161042f90614797565b600081600081518110612d7457fe5b602002602001015190506000600190505b82518110156123d4576000838281518110612d9c57fe5b60200260200101519050826001600160a01b0316816001600160a01b031611612dd75760405162461bcd60e51b815260040161042f90614817565b9150600101612d85565b6060600084519050606081604051908082528060200260200182016040528015612e2557816020015b612e1261342f565b815260200190600190039081612e0a5790505b50905060005b82811015612e9757612e7888888381518110612e4357fe5b6020026020010151888481518110612e5757fe5b6020026020010151888581518110612e6b57fe5b60200260200101516126b4565b828281518110612e8457fe5b6020908102919091010152600101612e2b565b509695505050505050565b612eaa61342f565b604051806080016040528083600001511515815260200183602001511515815260200183604001516001600160781b0316815260200183606001516001600160781b03168152509050919050565b612f006134a7565b612f0983613373565b9050612f1b818363ffffffff612f5016565b90506123d4838263ffffffff6133aa16565b612f356134a7565b612f3e83613373565b9050612f1b818363ffffffff612fff16565b612f586134a7565b8260200151612f94576040518060400160405280612f8385600001518561312b90919063ffffffff16565b815260006020909101529050610ad2565b8251821015612fcc576040805180820190915283518190612fbb908563ffffffff61227f16565b815260016020909101529050610ad2565b6040518060400160405280612fee85600001518561227f90919063ffffffff16565b815260006020909101529392505050565b6130076134a7565b826020015115613033576040518060400160405280612fbb85600001518561312b90919063ffffffff16565b825182111561305e576040518060400160405280612fbb85600001518561227f90919063ffffffff16565b6040805180820190915283518190612fee908563ffffffff61227f16565b60006113a6670de0b6b3a7640000610656858563ffffffff6130f116565b60008215806130a7575081155b156130b457506000610ad2565b6113a660016130e5670de0b6b3a7640000610656836130d9898963ffffffff6130f116565b9063ffffffff61227f16565b9063ffffffff61312b16565b60008261310057506000610ad2565b8282028284828161310d57fe5b04146113a65760405162461bcd60e51b815260040161042f90614767565b6000828201838110156113a65760405162461bcd60e51b815260040161042f906146c7565b600081848411156131745760405162461bcd60e51b815260040161042f9190614676565b505050900390565b6000818361319d5760405162461bcd60e51b815260040161042f9190614676565b5060008385816131a957fe5b0495945050505050565b6131c5826001600160a01b03166133d0565b6131e15760405162461bcd60e51b815260040161042f90614807565b60006060836001600160a01b0316836040516131fd91906144a4565b6000604051808303816000865af19150503d806000811461323a576040519150601f19603f3d011682016040523d82523d6000602084013e61323f565b606091505b5091509150816132615760405162461bcd60e51b815260040161042f90614717565b805115612986578080602001905161327c9190810190613a7b565b6129865760405162461bcd60e51b815260040161042f906147e7565b6000640100000000821061234a5760405162461bcd60e51b815260040161042f906147a7565b6000600160801b821061234a5760405162461bcd60e51b815260040161042f90614707565b6000806088836000015163ffffffff16901b836020015161330557600061330b565b600160801b5b60408501516001600160801b03161717915050919050565b61332b6134a7565b50604080518082018252908201516001600160781b0316815290511515602082015290565b805161335b90612319565b6001600160781b031660408301526020015115159052565b61337b6134a7565b604051806040016040528083606001516001600160781b03168152602001836020015115158152509050919050565b80516133b590612319565b6001600160781b031660608301526020908101511515910152565b6000813f7fc5d2460186f7233c927e7db2dcc703c0e500b653ca82273b7bfad8045d85a47081811480159061295a575050151592915050565b6040518060600160405280600081526020016000815260200161342a613456565b905290565b60408051608081018252600080825260208201819052918101829052606081019190915290565b604080516060810182526000808252602082018190529181019190915290565b6040518060800160405280600081526020016000815260200160006001600160a01b03168152602001606081525090565b604080518082019091526000808252602082015290565b8035610ad281614976565b600082601f8301126134da57600080fd5b81356134ed6134e882614878565b614851565b9150818183526020840193506020810190508385602084028201111561351257600080fd5b60005b8381101561353e578161352888826134be565b8452506020928301929190910190600101613515565b5050505092915050565b600082601f83011261355957600080fd5b81356135676134e882614878565b9150818183526020840193506020810190508385602084028201111561358c57600080fd5b60005b8381101561353e57816135a28882613685565b845250602092830192919091019060010161358f565b600082601f8301126135c957600080fd5b81356135d76134e882614878565b81815260209384019390925082018360005b8381101561353e57813586016135ff88826136f5565b84525060209283019291909101906001016135e9565b600082601f83011261362657600080fd5b81356136346134e882614878565b9150818183526020840193506020810190508385602084028201111561365957600080fd5b60005b8381101561353e578161366f88826137df565b845250602092830192919091019060010161365c565b8035610ad28161498d565b8051610ad28161498d565b8051610ad281614996565b600082601f8301126136b757600080fd5b81356136c56134e882614899565b915080825260208301602083018583830111156136e157600080fd5b6136ec838284614934565b50505092915050565b60006080828403121561370757600080fd5b6137116080614851565b9050600061371f84846137df565b8252506020613730848483016137df565b6020830152506040613744848285016134be565b604083015250606082013567ffffffffffffffff81111561376457600080fd5b613770848285016136a6565b60608301525092915050565b60006080828403121561378e57600080fd5b6137986080614851565b905060006137a6848461369b565b82525060206137b78484830161369b565b60208301525060406137cb84828501613690565b60408301525060606137708482850161369b565b8035610ad281614996565b6000602082840312156137fc57600080fd5b600061295a84846134be565b6000806040838503121561381b57600080fd5b600061382785856134be565b9250506020613838858286016134be565b9150509250929050565b6000806000806080858703121561385857600080fd5b600061386487876134be565b9450506020613875878288016134be565b9350506040613886878288016134be565b9250506060613897878288016137df565b91505092959194509250565b6000806000606084860312156138b857600080fd5b60006138c486866134be565b93505060206138d5868287016134be565b92505060406138e6868287016137df565b9150509250925092565b60008060008060008060c0878903121561390957600080fd5b600061391589896134be565b965050602061392689828a016134be565b955050604061393789828a016137df565b945050606061394889828a016137df565b935050608061395989828a016137df565b92505060a061396a89828a01613685565b9150509295509295509295565b6000806040838503121561398a57600080fd5b600061399685856134be565b925050602061383885828601613685565b600080600080600060a086880312156139bf57600080fd5b853567ffffffffffffffff8111156139d657600080fd5b6139e2888289016134c9565b955050602086013567ffffffffffffffff8111156139ff57600080fd5b613a0b888289016135b8565b945050604086013567ffffffffffffffff811115613a2857600080fd5b613a3488828901613615565b935050606086013567ffffffffffffffff811115613a5157600080fd5b613a5d88828901613548565b9250506080613a6e888289016137df565b9150509295509295909350565b600060208284031215613a8d57600080fd5b600061295a8484613690565b60008060408385031215613aac57600080fd5b6000613ab88585613690565b92505060206138388582860161369b565b600060808284031215613adb57600080fd5b600061295a848461377c565b600060208284031215613af957600080fd5b600061295a84846137df565b600060208284031215613b1757600080fd5b600061295a848461369b565b60008060408385031215613b3657600080fd5b6000613b4285856137df565b9250506020613838858286016137df565b613b5c81614913565b82525050565b613b5c816148d3565b613b5c816148de565b613b5c816148e3565b6000613b88826148c1565b613b9281856148ce565b9350613ba2818560208601614940565b9290920192915050565b6000613bb7826148c1565b613bc181856148c5565b9350613bd1818560208601614940565b613bda8161496c565b9093019392505050565b613b5c8161491e565b6000613bfa601b836148ce565b7f61786f722e50657270657475616c56312e696e697469616c697a6500000000008152601b0192915050565b6000613c33602b836148c5565b7f73656e64657220646f6573206e6f742068617665207065726d697373696f6e2081527f746f207769746864726177000000000000000000000000000000000000000000602082015260400192915050565b6000613c926032836148c5565b7f4f7261636c65207072696365206973206c657373207468616e2074686520707281527f6f7669646564206c6f77657220626f756e640000000000000000000000000000602082015260400192915050565b6000613cf1602f836148c5565b7f54686520636f6c6c61746572616c20726571756972656d656e742063616e6e6f81527f7420626520756e64657220313030250000000000000000000000000000000000602082015260400192915050565b6000613d506026836148c5565b7f4f6e6c79207065726d697474656420647572696e672066696e616c207365747481527f6c656d656e740000000000000000000000000000000000000000000000000000602082015260400192915050565b6000613daf601b836148c5565b7f536166654d6174683a206164646974696f6e206f766572666c6f770000000000815260200192915050565b6000613de8601d836148c5565b7f747261646572206973206e6f7420676c6f62616c206f70657261746f72000000815260200192915050565b6000613e216027836148c5565b7f53616665436173743a2076616c756520646f65736e27742066697420696e203181527f3230206269747300000000000000000000000000000000000000000000000000602082015260400192915050565b6000613e806021836148c5565b7f6f6e6c7920676c6f62616c206f70657261746f722063616e20776974686472618152607760f81b602082015260400192915050565b6000613ec36027836148c5565b7f53616665436173743a2076616c756520646f65736e27742066697420696e203181527f3238206269747300000000000000000000000000000000000000000000000000602082015260400192915050565b6000613f226020836148c5565b7f5361666545524332303a206c6f772d6c6576656c2063616c6c206661696c6564815260200192915050565b6000613f5b602a836148c5565b7f4f7261636c6520707269636520726571756573746572206e6f7420676c6f626181527f6c206f70657261746f7200000000000000000000000000000000000000000000602082015260400192915050565b6000613fba601e836148c5565b7f41646d696e61626c653a2063616c6c6572206973206e6f742061646d696e0000815260200192915050565b6000613ff36025836148c5565b7f4e6f74207065726d697474656420647572696e672066696e616c20736574746c81527f656d656e74000000000000000000000000000000000000000000000000000000602082015260400192915050565b6000614052601f836148c5565b7f50657270657475616c563120616c726561647920696e697469616c697a656400815260200192915050565b600061408b6021836148c5565b7f536166654d6174683a206d756c7469706c69636174696f6e206f766572666c6f8152607760f81b602082015260400192915050565b60006140ce6025836148c5565b7f4e6577206f7261636c652063616e6e6f742072657475726e2061207a65726f2081527f7072696365000000000000000000000000000000000000000000000000000000602082015260400192915050565b600061412d600f836148c5565b7f63616e6e6f742077697468647261770000000000000000000000000000000000815260200192915050565b60006141666022836148c5565b7f4163636f756e7473206d7573742068617665206e6f6e2d7a65726f206c656e678152610e8d60f31b602082015260400192915050565b60006141aa6026836148c5565b7f53616665436173743a2076616c756520646f65736e27742066697420696e203381527f3220626974730000000000000000000000000000000000000000000000000000602082015260400192915050565b60006142096029836148c5565b7f696e73756666696369656e742062616c616e636520746f20636f76657220667581527f6e64696e67206665650000000000000000000000000000000000000000000000602082015260400192915050565b6000614268601a836148c5565b7f6163636f756e74206e6f7420636f6c6c61746572616c697a6564000000000000815260200192915050565b60006142a16035836148c5565b7f4f7261636c652070726963652069732067726561746572207468616e2074686581527f2070726f766964656420757070657220626f756e640000000000000000000000602082015260400192915050565b6000614300602a836148c5565b7f5361666545524332303a204552433230206f7065726174696f6e20646964206e81527f6f74207375636365656400000000000000000000000000000000000000000000602082015260400192915050565b600061435f601f836148c5565b7f5265656e7472616e637947756172643a207265656e7472616e742063616c6c00815260200192915050565b6000614398601f836148c5565b7f5361666545524332303a2063616c6c20746f206e6f6e2d636f6e747261637400815260200192915050565b60006143d16022836148c5565b7f4163636f756e7473206d75737420626520736f7274656420616e6420756e6971815261756560f01b602082015260400192915050565b805160808301906144198482613b6b565b50602082015161442c6020850182613b6b565b50604082015161443f6040850182614489565b5060608201516129866060850182614489565b80516060830190614463848261449b565b5060208201516144766020850182613b6b565b5060408201516129866040850182614492565b613b5c816148e6565b613b5c816148f2565b613b5c8161490a565b60006113a68284613b7d565b6000610ad282613bed565b60208101610ad28284613b62565b60c081016144d78289613b53565b6144e46020830188613b62565b6144f16040830187613b62565b6144fe6060830186613b74565b81810360808301526145108185613bac565b905061451f60a0830184613b74565b979650505050505050565b606081016145388286613b62565b6145456020830185613b62565b61295a6040830184613b74565b604081016145608285613b62565b6113a66020830184613b6b565b6040810161457b8285613b62565b6113a66020830184613b74565b60a081016145968288613b62565b6145a36020830187613b74565b6145b06040830186613b6b565b6145bd6060830185613b74565b6145ca6080830184613b74565b9695505050505050565b606081016145e28286613b62565b6145456020830185613b74565b60c081016145fd8289613b62565b61460a6020830188613b74565b6146176040830187613b74565b6146246060830186613b6b565b6146316080830185613b74565b61451f60a0830184613b74565b60208101610ad28284613b6b565b606081016145e28286613b6b565b60208101610ad28284613b74565b60208101610ad28284613be4565b602080825281016113a68184613bac565b60208082528101610ad281613c26565b60208082528101610ad281613c85565b60208082528101610ad281613ce4565b60208082528101610ad281613d43565b60208082528101610ad281613da2565b60208082528101610ad281613ddb565b60208082528101610ad281613e14565b60208082528101610ad281613e73565b60208082528101610ad281613eb6565b60208082528101610ad281613f15565b60208082528101610ad281613f4e565b60208082528101610ad281613fad565b60208082528101610ad281613fe6565b60208082528101610ad281614045565b60208082528101610ad28161407e565b60208082528101610ad2816140c1565b60208082528101610ad281614120565b60208082528101610ad281614159565b60208082528101610ad28161419d565b60208082528101610ad2816141fc565b60208082528101610ad28161425b565b60208082528101610ad281614294565b60208082528101610ad2816142f3565b60208082528101610ad281614352565b60208082528101610ad28161438b565b60208082528101610ad2816143c4565b60808101610ad28284614408565b60608101610ad28284614452565b6040810161457b8285613b74565b60405181810167ffffffffffffffff8111828210171561487057600080fd5b604052919050565b600067ffffffffffffffff82111561488f57600080fd5b5060209081020190565b600067ffffffffffffffff8211156148b057600080fd5b506020601f91909101601f19160190565b5190565b90815260200190565b919050565b6000610ad2826148fe565b151590565b90565b6001600160781b031690565b6001600160801b031690565b6001600160a01b031690565b63ffffffff1690565b6000610ad282614929565b6000610ad2826148e3565b6000610ad2826148d3565b82818337506000910152565b60005b8381101561495b578181015183820152602001614943565b838111156129865750506000910152565b601f01601f191690565b61497f816148d3565b811461498a57600080fd5b50565b61497f816148de565b61497f816148e356fea365627a7a723158204db0d05fc7752f10da2cf1f029546bfbc4c3f6038fe9a272cd805b018667ca5e6c6578706572696d656e74616cf564736f6c63430005100040",
  "devdoc": {
    "author": "axor",
    "details": "Main perpetual market implementation contract that inherits from other contracts.",
    "methods": {
      "deposit(address,address,uint256,uint256,uint256,bool)": {
        "details": "Emits LogIndex, LogAccountSettled, and LogDeposit events.",
        "params": {
          "account": "The account for which to credit the deposit.",
          "amount": "the amount of tokens to deposit."
        }
      },
      "enableFinalSettlement(uint256,uint256)": {
        "details": "Must be called by the PerpetualV1 admin. The current result of the price oracle must be between the two bounds supplied. Emits the LogFinalSettlementEnabled event.",
        "params": {
          "priceLowerBound": "The lower-bound (inclusive) of the acceptable price range.",
          "priceUpperBound": "The upper-bound (inclusive) of the acceptable price range."
        }
      },
      "getAccountBalance(address)": {
        "params": {
          "account": "The address of the account to query the balances of."
        },
        "return": "The balances of the account."
      },
      "getAccountIndex(address)": {
        "params": {
          "account": "The address of the account to query the index of."
        },
        "return": "The index of the account."
      },
      "getAdmin()": {
        "return": "The EIP-1967 proxy admin"
      },
      "getFinalSettlementEnabled()": {
        "return": "True if final-settlement was enabled, false otherwise."
      },
      "getFunderContract()": {
        "return": "The address of the funder contract."
      },
      "getGlobalIndex()": {
        "return": "The most recently cached global index."
      },
      "getIsGlobalOperator(address)": {
        "params": {
          "operator": "The address of the operator to query the status of."
        },
        "return": "True if the address is a global operator, false otherwise."
      },
      "getIsLocalOperator(address,address)": {
        "params": {
          "account": "The account to query the operator for.",
          "operator": "The address of the operator to query the status of."
        },
        "return": "True if the operator is a local operator of the account, false otherwise."
      },
      "getMinCollateral()": {
        "return": "The minimum-acceptable collateralization ratio, returned as a fixed-point number with 18 decimals of precision."
      },
      "getOracleContract()": {
        "return": "The address of the price oracle contract."
      },
      "getOraclePrice()": {
        "details": "Only able to be called by global operators.",
        "return": "The price returned by the current price oracle."
      },
      "getTokenContract()": {
        "return": "The address of the ERC20 token."
      },
      "hasAccountPermissions(address,address)": {
        "params": {
          "account": "The account to query.",
          "operator": "The address to query."
        },
        "return": "True if the operator has permission to operate the account,                  and false otherwise."
      },
      "initializeV1(address,address,address,uint256)": {
        "details": "Once-only initializer function that replaces the constructor since this contract is proxied. Uses a non-colliding storage slot to store if this version has been initialized.Can only be called once and can only be called by the admin of this contract.",
        "params": {
          "funder": "The address of the funder contract.",
          "minCollateral": "The minimum allowed initial collateralization percentage.",
          "oracle": "The address of the price oracle contract.",
          "token": "The address of the token to use for margin-deposits."
        }
      },
      "requestWithdraw(address,address)": {
        "details": "Emits LogIndex, LogAccountSettled, and LogWithdraw events.",
        "params": {
          "account": "The account for which to debit the withdrawal.",
          "destination": "The address to which the tokens are transferred."
        }
      },
      "setFunder(address)": {
        "details": "Must be called by the PerpetualV1 admin. Emits the LogSetFunder event.",
        "params": {
          "funder": "The address of the new funder contract."
        }
      },
      "setGlobalOperator(address,bool)": {
        "details": "Must be called by the PerpetualV1 admin. Emits the LogSetGlobalOperator event.",
        "params": {
          "approved": "True if approved, false if disapproved.",
          "operator": "The address for which to enable or disable global operator privileges."
        }
      },
      "setLocalOperator(address,bool)": {
        "details": "Emits the LogSetLocalOperator event.",
        "params": {
          "approved": "True for approval, false for disapproval.",
          "operator": "The account that is approved or disapproved."
        }
      },
      "setMinCollateral(uint256)": {
        "details": "Must be called by the PerpetualV1 admin. Emits the LogSetMinCollateral event.",
        "params": {
          "minCollateral": "The new value of the minimum initial collateralization percentage,                       as a fixed-point number with 18 decimals."
        }
      },
      "setOracle(address)": {
        "details": "Must be called by the PerpetualV1 admin. Emits the LogSetOracle event.",
        "params": {
          "oracle": "The address of the new price oracle contract."
        }
      },
      "setWithdrawDelayBlock(uint256)": {
        "details": "Must be called by the PerpetualV1 admin.",
        "params": {
          "withdrawDelayBlock": "The new value of the number of blocks required to withdraw funds."
        }
      },
      "trade(address[],(uint256,uint256,address,bytes)[],uint256[],bool[],uint256)": {
        "details": "Emits the LogIndex event, one LogAccountSettled event for each account in `accounts`, and the LogTrade event for each trade in `trades`.",
        "params": {
          "accounts": "The sorted list of accounts that are involved in trades.",
          "trades": "The list of trades to execute in-order."
        }
      },
      "userWithdraw(address,address,uint256)": {
        "details": "Emits LogIndex, LogAccountSettled, and LogWithdraw events.",
        "params": {
          "account": "The account for which to debit the withdrawal.",
          "amount": "The amount of tokens to withdraw.",
          "destination": "The address to which the tokens are transferred."
        }
      },
      "withdraw(address,address,uint256,uint256,uint256,bool)": {
        "details": "Emits LogIndex, LogAccountSettled, and LogWithdraw events.",
        "params": {
          "account": "The account for which to debit the withdrawal.",
          "amount": "The amount of tokens to withdraw.",
          "destination": "The address to which the tokens are transferred.",
          "price": "The oracle price at the time of the withdrawal."
        }
      },
      "withdrawFinalSettlement()": {
        "details": "Emits the LogAccountSettled and LogWithdrawFinalSettlement events."
      }
    },
    "title": "PerpetualV1"
  },
  "userdoc": {
    "methods": {
      "deposit(address,address,uint256,uint256,uint256,bool)": {
        "notice": "Deposit some amount of margin tokens from the msg.sender into an account."
      },
      "enableFinalSettlement(uint256,uint256)": {
        "notice": "Enables final settlement if the oracle price is between the provided bounds."
      },
      "getAccountBalance(address)": {
        "notice": "Get the balance of an account, without accounting for changes in the index."
      },
      "getAccountIndex(address)": {
        "notice": "Gets the most recently cached index of an account."
      },
      "getFinalSettlementEnabled()": {
        "notice": "Gets the status of whether final-settlement was initiated by the Admin."
      },
      "getFunderContract()": {
        "notice": "Gets the current address of the funder contract."
      },
      "getGlobalIndex()": {
        "notice": "Gets the most recently cached global index."
      },
      "getIsGlobalOperator(address)": {
        "notice": "Gets the global operator status of an address."
      },
      "getIsLocalOperator(address,address)": {
        "notice": "Gets the local operator status of an operator for a particular account."
      },
      "getMinCollateral()": {
        "notice": "Gets minimum collateralization ratio of the protocol."
      },
      "getOracleContract()": {
        "notice": "Gets the current address of the price oracle contract."
      },
      "getOraclePrice()": {
        "notice": "Gets the price returned by the oracle."
      },
      "getTokenContract()": {
        "notice": "Gets the address of the ERC20 margin contract used for margin deposits."
      },
      "hasAccountPermissions(address,address)": {
        "notice": "Gets whether an address has permissions to operate an account."
      },
      "requestWithdraw(address,address)": {
        "notice": "Set Withdraw acction."
      },
      "setFunder(address)": {
        "notice": "Sets a new funder contract."
      },
      "setGlobalOperator(address,bool)": {
        "notice": "Add or remove a Global Operator address."
      },
      "setLocalOperator(address,bool)": {
        "notice": "Grants or revokes permission for another account to perform certain actions on behalf of the sender."
      },
      "setMinCollateral(uint256)": {
        "notice": "Sets a new value for the minimum collateralization percentage."
      },
      "setOracle(address)": {
        "notice": "Sets a new price oracle contract."
      },
      "setWithdrawDelayBlock(uint256)": {
        "notice": "Sets a new value for the number of blocks required to withdraw funds."
      },
      "trade(address[],(uint256,uint256,address,bytes)[],uint256[],bool[],uint256)": {
        "notice": "Submits one or more trades between any number of accounts."
      },
      "userWithdraw(address,address,uint256)": {
        "notice": "Withdraw some amount of margin tokens from an account to a destination address."
      },
      "withdraw(address,address,uint256,uint256,uint256,bool)": {
        "notice": "Withdraw some amount of margin tokens from an account to a destination address."
      },
      "withdrawFinalSettlement()": {
        "notice": "Withdraw the number of margin tokens equal to the value of the account at the time that final settlement occurred."
      }
    },
    "notice": "A market for a perpetual contract, a financial derivative which may be traded on margin and which aims to closely track the spot price of an underlying asset. The underlying asset is specified via the price oracle which reports its spot price. Tethering of the perpetual market price is supported by a funding oracle which governs funding payments between longs and shorts."
  },
  "storageLayout": {
    "storage": [
      {
        "astId": 1537,
        "contract": "contracts/protocol/v1/PerpetualV1.sol:PerpetualV1",
        "label": "_STATUS_",
        "offset": 0,
        "slot": "0",
        "type": "t_uint256"
      },
      {
        "astId": 3921,
        "contract": "contracts/protocol/v1/PerpetualV1.sol:PerpetualV1",
        "label": "_BALANCES_",
        "offset": 0,
        "slot": "1",
        "type": "t_mapping(t_address,t_struct(Balance)5272_storage)"
      },
      {
        "astId": 3925,
        "contract": "contracts/protocol/v1/PerpetualV1.sol:PerpetualV1",
        "label": "_LOCAL_INDEXES_",
        "offset": 0,
        "slot": "2",
        "type": "t_mapping(t_address,t_struct(Index)5263_storage)"
      },
      {
        "astId": 3929,
        "contract": "contracts/protocol/v1/PerpetualV1.sol:PerpetualV1",
        "label": "_GLOBAL_OPERATORS_",
        "offset": 0,
        "slot": "3",
        "type": "t_mapping(t_address,t_bool)"
      },
      {
        "astId": 3933,
        "contract": "contracts/protocol/v1/PerpetualV1.sol:PerpetualV1",
        "label": "_WITHDRAW_DELAY_",
        "offset": 0,
        "slot": "4",
        "type": "t_mapping(t_address,t_uint256)"
      },
      {
        "astId": 3939,
        "contract": "contracts/protocol/v1/PerpetualV1.sol:PerpetualV1",
        "label": "_LOCAL_OPERATORS_",
        "offset": 0,
        "slot": "5",
        "type": "t_mapping(t_address,t_mapping(t_address,t_bool))"
      },
      {
        "astId": 3941,
        "contract": "contracts/protocol/v1/PerpetualV1.sol:PerpetualV1",
        "label": "_TOKEN_",
        "offset": 0,
        "slot": "6",
        "type": "t_address"
      },
      {
        "astId": 3943,
        "contract": "contracts/protocol/v1/PerpetualV1.sol:PerpetualV1",
        "label": "_ORACLE_",
        "offset": 0,
        "slot": "7",
        "type": "t_address"
      },
      {
        "astId": 3945,
        "contract": "contracts/protocol/v1/PerpetualV1.sol:PerpetualV1",
        "label": "_FUNDER_",
        "offset": 0,
        "slot": "8",
        "type": "t_address"
      },
      {
        "astId": 3947,
        "contract": "contracts/protocol/v1/PerpetualV1.sol:PerpetualV1",
        "label": "_GLOBAL_INDEX_",
        "offset": 0,
        "slot": "9",
        "type": "t_struct(Index)5263_storage"
      },
      {
        "astId": 3949,
        "contract": "contracts/protocol/v1/PerpetualV1.sol:PerpetualV1",
        "label": "_MIN_COLLATERAL_",
        "offset": 0,
        "slot": "10",
        "type": "t_uint256"
      },
      {
        "astId": 3951,
        "contract": "contracts/protocol/v1/PerpetualV1.sol:PerpetualV1",
        "label": "_FINAL_SETTLEMENT_ENABLED_",
        "offset": 0,
        "slot": "11",
        "type": "t_bool"
      },
      {
        "astId": 3953,
        "contract": "contracts/protocol/v1/PerpetualV1.sol:PerpetualV1",
        "label": "_FINAL_SETTLEMENT_PRICE_",
        "offset": 0,
        "slot": "12",
        "type": "t_uint256"
      },
      {
        "astId": 3955,
        "contract": "contracts/protocol/v1/PerpetualV1.sol:PerpetualV1",
        "label": "_WITHDRAW_DELAY_BLOCK_",
        "offset": 0,
        "slot": "13",
        "type": "t_uint256"
      }
    ],
    "types": {
      "t_address": {
        "encoding": "inplace",
        "label": "address",
        "numberOfBytes": "20"
      },
      "t_bool": {
        "encoding": "inplace",
        "label": "bool",
        "numberOfBytes": "1"
      },
      "t_mapping(t_address,t_bool)": {
        "encoding": "mapping",
        "key": "t_address",
        "label": "mapping(address => bool)",
        "numberOfBytes": "32",
        "value": "t_bool"
      },
      "t_mapping(t_address,t_mapping(t_address,t_bool))": {
        "encoding": "mapping",
        "key": "t_address",
        "label": "mapping(address => mapping(address => bool))",
        "numberOfBytes": "32",
        "value": "t_mapping(t_address,t_bool)"
      },
      "t_mapping(t_address,t_struct(Balance)5272_storage)": {
        "encoding": "mapping",
        "key": "t_address",
        "label": "mapping(address => struct P1Types.Balance)",
        "numberOfBytes": "32",
        "value": "t_struct(Balance)5272_storage"
      },
      "t_mapping(t_address,t_struct(Index)5263_storage)": {
        "encoding": "mapping",
        "key": "t_address",
        "label": "mapping(address => struct P1Types.Index)",
        "numberOfBytes": "32",
        "value": "t_struct(Index)5263_storage"
      },
      "t_mapping(t_address,t_uint256)": {
        "encoding": "mapping",
        "key": "t_address",
        "label": "mapping(address => uint256)",
        "numberOfBytes": "32",
        "value": "t_uint256"
      },
      "t_struct(Balance)5272_storage": {
        "encoding": "inplace",
        "label": "struct P1Types.Balance",
        "members": [
          {
            "astId": 5265,
            "contract": "contracts/protocol/v1/PerpetualV1.sol:PerpetualV1",
            "label": "marginIsPositive",
            "offset": 0,
            "slot": "0",
            "type": "t_bool"
          },
          {
            "astId": 5267,
            "contract": "contracts/protocol/v1/PerpetualV1.sol:PerpetualV1",
            "label": "positionIsPositive",
            "offset": 1,
            "slot": "0",
            "type": "t_bool"
          },
          {
            "astId": 5269,
            "contract": "contracts/protocol/v1/PerpetualV1.sol:PerpetualV1",
            "label": "margin",
            "offset": 2,
            "slot": "0",
            "type": "t_uint120"
          },
          {
            "astId": 5271,
            "contract": "contracts/protocol/v1/PerpetualV1.sol:PerpetualV1",
            "label": "position",
            "offset": 17,
            "slot": "0",
            "type": "t_uint120"
          }
        ],
        "numberOfBytes": "32"
      },
      "t_struct(Index)5263_storage": {
        "encoding": "inplace",
        "label": "struct P1Types.Index",
        "members": [
          {
            "astId": 5258,
            "contract": "contracts/protocol/v1/PerpetualV1.sol:PerpetualV1",
            "label": "timestamp",
            "offset": 0,
            "slot": "0",
            "type": "t_uint32"
          },
          {
            "astId": 5260,
            "contract": "contracts/protocol/v1/PerpetualV1.sol:PerpetualV1",
            "label": "isPositive",
            "offset": 4,
            "slot": "0",
            "type": "t_bool"
          },
          {
            "astId": 5262,
            "contract": "contracts/protocol/v1/PerpetualV1.sol:PerpetualV1",
            "label": "value",
            "offset": 5,
            "slot": "0",
            "type": "t_uint128"
          }
        ],
        "numberOfBytes": "32"
      },
      "t_uint120": {
        "encoding": "inplace",
        "label": "uint120",
        "numberOfBytes": "15"
      },
      "t_uint128": {
        "encoding": "inplace",
        "label": "uint128",
        "numberOfBytes": "16"
      },
      "t_uint256": {
        "encoding": "inplace",
        "label": "uint256",
        "numberOfBytes": "32"
      },
      "t_uint32": {
        "encoding": "inplace",
        "label": "uint32",
        "numberOfBytes": "4"
      }
    }
  }
}