{
  "address": "0x8E3CC01F4eE7f7D4D1d2Cdd1C5863B72B825a852",
  "abi": [
    {
      "anonymous": false,
      "inputs": [
        {
          "indexed": true,
          "internalType": "address",
          "name": "previousOwner",
          "type": "address"
        },
        {
          "indexed": true,
          "internalType": "address",
          "name": "newOwner",
          "type": "address"
        }
      ],
      "name": "OwnershipTransferred",
      "type": "event"
    },
    {
      "inputs": [],
      "name": "initialize",
      "outputs": [],
      "stateMutability": "nonpayable",
      "type": "function"
    },
    {
      "inputs": [
        {
          "internalType": "address[]",
          "name": "targets",
          "type": "address[]"
        },
        {
          "internalType": "uint256[]",
          "name": "amounts",
          "type": "uint256[]"
        },
        {
          "internalType": "bytes[]",
          "name": "data",
          "type": "bytes[]"
        }
      ],
      "name": "multisend",
      "outputs": [
        {
          "internalType": "uint256",
          "name": "revertIndex",
          "type": "uint256"
        }
      ],
      "stateMutability": "nonpayable",
      "type": "function"
    },
    {
      "inputs": [],
      "name": "owner",
      "outputs": [
        {
          "internalType": "address",
          "name": "",
          "type": "address"
        }
      ],
      "stateMutability": "view",
      "type": "function"
    },
    {
      "inputs": [],
      "name": "renounceOwnership",
      "outputs": [],
      "stateMutability": "nonpayable",
      "type": "function"
    },
    {
      "inputs": [
        {
          "internalType": "address",
          "name": "newOwner",
          "type": "address"
        }
      ],
      "name": "transferOwnership",
      "outputs": [],
      "stateMutability": "nonpayable",
      "type": "function"
    }
  ],
  "transactionHash": "0x53f38a5688ee51cc40273349b19d229575f79f5525cefd5a651b6887283674f5",
  "args": [],
  "numDeployments": 1,
  "solcInputHash": "36789b950975181a03a1f4fbb1e45908",
  "bytecode": "0x608060405234801561001057600080fd5b506109b4806100206000396000f3fe608060405234801561001057600080fd5b50600436106100675760003560e01c80638da5cb5b116100505780638da5cb5b1461007e578063e3400a571461009e578063f2fde38b146100bf57610067565b8063715018a61461006c5780638129fc1c14610076575b600080fd5b6100746100d2565b005b61007461013d565b6033546040516001600160a01b0390911681526020015b60405180910390f35b6100b16100ac3660046107cf565b610211565b604051908152602001610095565b6100746100cd3660046107ae565b61041d565b6033546001600160a01b031633146101315760405162461bcd60e51b815260206004820181905260248201527f4f776e61626c653a2063616c6c6572206973206e6f7420746865206f776e657260448201526064015b60405180910390fd5b61013b60006104f8565b565b600054610100900460ff166101585760005460ff1615610160565b610160610562565b6101d25760405162461bcd60e51b815260206004820152602e60248201527f496e697469616c697a61626c653a20636f6e747261637420697320616c72656160448201527f647920696e697469616c697a65640000000000000000000000000000000000006064820152608401610128565b600054610100900460ff161580156101f4576000805461ffff19166101011790555b6101fc610573565b801561020e576000805461ff00191690555b50565b6033546000906001600160a01b0316331461026e5760405162461bcd60e51b815260206004820181905260248201527f4f776e61626c653a2063616c6c6572206973206e6f7420746865206f776e65726044820152606401610128565b83518351811480156102805750825181145b6102cc5760405162461bcd60e51b815260206004820152600d60248201527f496e76616c696420696e707574000000000000000000000000000000000000006044820152606401610128565b60005b81811015610414576000808783815181106102fa57634e487b7160e01b600052603260045260246000fd5b60200260200101516001600160a01b031687848151811061032b57634e487b7160e01b600052603260045260246000fd5b602002602001015187858151811061035357634e487b7160e01b600052603260045260246000fd5b602002602001015160405161036891906108b3565b60006040518083038185875af1925050503d80600081146103a5576040519150601f19603f3d011682016040523d82523d6000602084013e6103aa565b606091505b5091509150829450816103ff5760405162461bcd60e51b815260206004820152600660248201527f4661696c656400000000000000000000000000000000000000000000000000006044820152606401610128565b5050808061040c90610941565b9150506102cf565b50509392505050565b6033546001600160a01b031633146104775760405162461bcd60e51b815260206004820181905260248201527f4f776e61626c653a2063616c6c6572206973206e6f7420746865206f776e65726044820152606401610128565b6001600160a01b0381166104f35760405162461bcd60e51b815260206004820152602660248201527f4f776e61626c653a206e6577206f776e657220697320746865207a65726f206160448201527f64647265737300000000000000000000000000000000000000000000000000006064820152608401610128565b61020e815b603380546001600160a01b038381167fffffffffffffffffffffffff0000000000000000000000000000000000000000831681179093556040519116919082907f8be0079c531659141344cd1fd0a4f28419497f9722a3daafe3b4186f6b6457e090600090a35050565b600061056d306105e6565b15905090565b600054610100900460ff166105de5760405162461bcd60e51b815260206004820152602b60248201527f496e697469616c697a61626c653a20636f6e7472616374206973206e6f74206960448201526a6e697469616c697a696e6760a81b6064820152608401610128565b61013b6105f9565b6001600160a01b0381163b15155b919050565b600054610100900460ff166106645760405162461bcd60e51b815260206004820152602b60248201527f496e697469616c697a61626c653a20636f6e7472616374206973206e6f74206960448201526a6e697469616c697a696e6760a81b6064820152608401610128565b61013b336104f8565b80356001600160a01b03811681146105f457600080fd5b6000601f8381840112610695578182fd5b823560206106aa6106a58361091d565b6108ec565b82815281810190868301865b8581101561073657813589018a603f8201126106d0578889fd5b85810135604067ffffffffffffffff8211156106ee576106ee610968565b6106ff828b01601f191689016108ec565b8281528d82848601011115610712578b8cfd5b828285018a83013791820188018b90525085525092840192908401906001016106b6565b509098975050505050505050565b600082601f830112610754578081fd5b813560206107646106a58361091d565b80838252828201915082860187848660051b8901011115610783578586fd5b855b858110156107a157813584529284019290840190600101610785565b5090979650505050505050565b6000602082840312156107bf578081fd5b6107c88261066d565b9392505050565b6000806000606084860312156107e3578182fd5b833567ffffffffffffffff808211156107fa578384fd5b818601915086601f83011261080d578384fd5b8135602061081d6106a58361091d565b8083825282820191508286018b848660051b890101111561083c578889fd5b8896505b84871015610865576108518161066d565b835260019690960195918301918301610840565b509750508701359250508082111561087b578384fd5b61088787838801610744565b9350604086013591508082111561089c578283fd5b506108a986828701610684565b9150509250925092565b60008251815b818110156108d357602081860181015185830152016108b9565b818111156108e15782828501525b509190910192915050565b604051601f8201601f1916810167ffffffffffffffff8111828210171561091557610915610968565b604052919050565b600067ffffffffffffffff82111561093757610937610968565b5060051b60200190565b600060001982141561096157634e487b7160e01b81526011600452602481fd5b5060010190565b634e487b7160e01b600052604160045260246000fdfea2646970667358221220b60bdec2c136c96fdf8e1e540ab49b8d7e352b8ac6a2bbdb4c65067e5e88e79164736f6c63430008030033",
  "devdoc": {
    "kind": "dev",
    "methods": {
      "owner()": {
        "details": "Returns the address of the current owner."
      },
      "renounceOwnership()": {
        "details": "Leaves the contract without owner. It will not be possible to call `onlyOwner` functions anymore. Can only be called by the current owner. NOTE: Renouncing ownership will leave the contract without an owner, thereby removing any functionality that is only available to the owner."
      },
      "transferOwnership(address)": {
        "details": "Transfers ownership of the contract to a new account (`newOwner`). Can only be called by the current owner."
      }
    },
    "version": 1
  },
  "userdoc": {
    "kind": "user",
    "methods": {},
    "version": 1
  },
  "storageLayout": {
    "storage": [
      {
        "astId": 130,
        "contract": "contracts/helpers/MultiSend.sol:MultiSendProxy",
        "label": "_initialized",
        "offset": 0,
        "slot": "0",
        "type": "t_bool"
      },
      {
        "astId": 133,
        "contract": "contracts/helpers/MultiSend.sol:MultiSendProxy",
        "label": "_initializing",
        "offset": 1,
        "slot": "0",
        "type": "t_bool"
      },
      {
        "astId": 481,
        "contract": "contracts/helpers/MultiSend.sol:MultiSendProxy",
        "label": "__gap",
        "offset": 0,
        "slot": "1",
        "type": "t_array(t_uint256)50_storage"
      },
      {
        "astId": 10,
        "contract": "contracts/helpers/MultiSend.sol:MultiSendProxy",
        "label": "_owner",
        "offset": 0,
        "slot": "51",
        "type": "t_address"
      },
      {
        "astId": 122,
        "contract": "contracts/helpers/MultiSend.sol:MultiSendProxy",
        "label": "__gap",
        "offset": 0,
        "slot": "52",
        "type": "t_array(t_uint256)49_storage"
      }
    ],
    "types": {
      "t_address": {
        "encoding": "inplace",
        "label": "address",
        "numberOfBytes": "20"
      },
      "t_array(t_uint256)49_storage": {
        "base": "t_uint256",
        "encoding": "inplace",
        "label": "uint256[49]",
        "numberOfBytes": "1568"
      },
      "t_array(t_uint256)50_storage": {
        "base": "t_uint256",
        "encoding": "inplace",
        "label": "uint256[50]",
        "numberOfBytes": "1600"
      },
      "t_bool": {
        "encoding": "inplace",
        "label": "bool",
        "numberOfBytes": "1"
      },
      "t_uint256": {
        "encoding": "inplace",
        "label": "uint256",
        "numberOfBytes": "32"
      }
    }
  }
}