{
  "address": "0x7710C162FbAEe43BDAED74533e82440904dAa8a5",
  "abi": [
    {
      "inputs": [
        {
          "internalType": "address",
          "name": "perpetualV1",
          "type": "address"
        },
        {
          "internalType": "address",
          "name": "liquidator",
          "type": "address"
        },
        {
          "internalType": "address",
          "name": "insuranceFund",
          "type": "address"
        },
        {
          "internalType": "uint256",
          "name": "insuranceFee",
          "type": "uint256"
        }
      ],
      "payable": false,
      "stateMutability": "nonpayable",
      "type": "constructor"
    },
    {
      "anonymous": false,
      "inputs": [
        {
          "indexed": false,
          "internalType": "uint256",
          "name": "insuranceFee",
          "type": "uint256"
        }
      ],
      "name": "LogInsuranceFeeSet",
      "type": "event"
    },
    {
      "anonymous": false,
      "inputs": [
        {
          "indexed": false,
          "internalType": "address",
          "name": "insuranceFund",
          "type": "address"
        }
      ],
      "name": "LogInsuranceFundSet",
      "type": "event"
    },
    {
      "anonymous": false,
      "inputs": [
        {
          "indexed": true,
          "internalType": "address",
          "name": "liquidatee",
          "type": "address"
        },
        {
          "indexed": true,
          "internalType": "address",
          "name": "liquidator",
          "type": "address"
        },
        {
          "indexed": false,
          "internalType": "bool",
          "name": "isBuy",
          "type": "bool"
        },
        {
          "indexed": false,
          "internalType": "uint256",
          "name": "liquidationAmount",
          "type": "uint256"
        },
        {
          "indexed": false,
          "internalType": "uint256",
          "name": "feeAmount",
          "type": "uint256"
        }
      ],
      "name": "LogLiquidatorProxyUsed",
      "type": "event"
    },
    {
      "anonymous": false,
      "inputs": [
        {
          "indexed": true,
          "internalType": "address",
          "name": "previousOwner",
          "type": "address"
        },
        {
          "indexed": true,
          "internalType": "address",
          "name": "newOwner",
          "type": "address"
        }
      ],
      "name": "OwnershipTransferred",
      "type": "event"
    },
    {
      "constant": true,
      "inputs": [],
      "name": "_INSURANCE_FEE_",
      "outputs": [
        {
          "internalType": "uint256",
          "name": "",
          "type": "uint256"
        }
      ],
      "payable": false,
      "stateMutability": "view",
      "type": "function"
    },
    {
      "constant": true,
      "inputs": [],
      "name": "_INSURANCE_FUND_",
      "outputs": [
        {
          "internalType": "address",
          "name": "",
          "type": "address"
        }
      ],
      "payable": false,
      "stateMutability": "view",
      "type": "function"
    },
    {
      "constant": true,
      "inputs": [],
      "name": "_LIQUIDATION_",
      "outputs": [
        {
          "internalType": "address",
          "name": "",
          "type": "address"
        }
      ],
      "payable": false,
      "stateMutability": "view",
      "type": "function"
    },
    {
      "constant": true,
      "inputs": [],
      "name": "_PERPETUAL_V1_",
      "outputs": [
        {
          "internalType": "address",
          "name": "",
          "type": "address"
        }
      ],
      "payable": false,
      "stateMutability": "view",
      "type": "function"
    },
    {
      "constant": false,
      "inputs": [],
      "name": "approveMaximumOnPerpetual",
      "outputs": [],
      "payable": false,
      "stateMutability": "nonpayable",
      "type": "function"
    },
    {
      "constant": true,
      "inputs": [],
      "name": "isOwner",
      "outputs": [
        {
          "internalType": "bool",
          "name": "",
          "type": "bool"
        }
      ],
      "payable": false,
      "stateMutability": "view",
      "type": "function"
    },
    {
      "constant": false,
      "inputs": [
        {
          "internalType": "address",
          "name": "liquidatee",
          "type": "address"
        },
        {
          "internalType": "address",
          "name": "liquidator",
          "type": "address"
        },
        {
          "internalType": "bool",
          "name": "isBuy",
          "type": "bool"
        },
        {
          "components": [
            {
              "internalType": "uint256",
              "name": "value",
              "type": "uint256"
            },
            {
              "internalType": "bool",
              "name": "isPositive",
              "type": "bool"
            }
          ],
          "internalType": "struct SignedMath.Int",
          "name": "maxPosition",
          "type": "tuple"
        }
      ],
      "name": "liquidate",
      "outputs": [
        {
          "internalType": "uint256",
          "name": "",
          "type": "uint256"
        }
      ],
      "payable": false,
      "stateMutability": "nonpayable",
      "type": "function"
    },
    {
      "constant": true,
      "inputs": [],
      "name": "owner",
      "outputs": [
        {
          "internalType": "address",
          "name": "",
          "type": "address"
        }
      ],
      "payable": false,
      "stateMutability": "view",
      "type": "function"
    },
    {
      "constant": false,
      "inputs": [],
      "name": "renounceOwnership",
      "outputs": [],
      "payable": false,
      "stateMutability": "nonpayable",
      "type": "function"
    },
    {
      "constant": false,
      "inputs": [
        {
          "internalType": "uint256",
          "name": "insuranceFee",
          "type": "uint256"
        }
      ],
      "name": "setInsuranceFee",
      "outputs": [],
      "payable": false,
      "stateMutability": "nonpayable",
      "type": "function"
    },
    {
      "constant": false,
      "inputs": [
        {
          "internalType": "address",
          "name": "insuranceFund",
          "type": "address"
        }
      ],
      "name": "setInsuranceFund",
      "outputs": [],
      "payable": false,
      "stateMutability": "nonpayable",
      "type": "function"
    },
    {
      "constant": false,
      "inputs": [
        {
          "internalType": "address",
          "name": "newOwner",
          "type": "address"
        }
      ],
      "name": "transferOwnership",
      "outputs": [],
      "payable": false,
      "stateMutability": "nonpayable",
      "type": "function"
    }
  ],
  "transactionHash": "0xdf7b352b19778c25b7a4310dd24e52e0772bb5862c8d0112f57607497ddbbb72",
  "args": [
    "0x74beb16F052DE4CDD2BA4d852A497a4cA4143049",
    "0x778A9C75793E085e77a6AbBD935cca2e497A4Cd9",
    "0x0000000000000000000000000000000000000000",
    "100000000000000000"
  ],
  "numDeployments": 1,
  "solcInputHash": "a5604317cf97a944079ddba7080b0658",
  "bytecode": "0x60806040523480156200001157600080fd5b50604051620020f8380380620020f8833981016040819052620000349162000176565b6000620000496001600160e01b036200015216565b600080546001600160a01b0319166001600160a01b0383169081178255604051929350917f8be0079c531659141344cd1fd0a4f28419497f9722a3daafe3b4186f6b6457e0908290a350600180546001600160a01b038087166001600160a01b03199283161790925560028054868416908316179055600380549285169290911691909117905560048190556040517f02be8aef8c7fb3cfe392924a6868452212a6fb3db277cc1a24af9f7c4af80ebd9062000107908490620001fc565b60405180910390a17fb66e25e76b9dc01dd4aa8dffb4c93b795262619460b2d05e1c4cc18388f78f48816040516200014091906200020c565b60405180910390a15050505062000256565b3390565b8051620001638162000231565b92915050565b805162000163816200024b565b600080600080608085870312156200018d57600080fd5b60006200019b878762000156565b9450506020620001ae8782880162000156565b9350506040620001c18782880162000156565b9250506060620001d48782880162000169565b91505092959194509250565b620001eb816200021c565b82525050565b620001eb816200022e565b60208101620001638284620001e0565b60208101620001638284620001f1565b60006001600160a01b03821662000163565b90565b6200023c816200021c565b81146200024857600080fd5b50565b6200023c816200022e565b611e9280620002666000396000f3fe608060405234801561001057600080fd5b50600436106100d45760003560e01c80638ffac73311610081578063c3c052931161005b578063c3c0529314610169578063d4bec8eb1461017c578063f2fde38b14610184576100d4565b80638ffac7331461013b578063a5d9c62a14610143578063ba32681e14610156576100d4565b8063786ed92e116100b2578063786ed92e146101165780638da5cb5b1461011e5780638f32d59b14610126576100d4565b80633fa8c92a146100d95780634ce7c2ca146100f7578063715018a61461010c575b600080fd5b6100e1610197565b6040516100ee9190611b68565b60405180910390f35b6100ff6101a6565b6040516100ee9190611d29565b6101146101ac565b005b6100e1610230565b6100e161023f565b61012e61024e565b6040516100ee9190611c2f565b610114610272565b6100ff6101513660046114a3565b610331565b61011461016436600461155e565b6106c2565b610114610177366004611467565b61075e565b6100e16107da565b610114610192366004611467565b6107e9565b6003546001600160a01b031681565b60045481565b6101b461024e565b6101d95760405162461bcd60e51b81526004016101d090611cd9565b60405180910390fd5b600080546040516001600160a01b03909116907f8be0079c531659141344cd1fd0a4f28419497f9722a3daafe3b4186f6b6457e0908390a36000805473ffffffffffffffffffffffffffffffffffffffff19169055565b6002546001600160a01b031681565b6000546001600160a01b031690565b600080546001600160a01b0316610263610819565b6001600160a01b031614905090565b6001546040805163145bdf6f60e11b815290516001600160a01b039092169160009183916328b7bede91600480820192602092909190829003018186803b1580156102bc57600080fd5b505afa1580156102d0573d6000803e3d6000fd5b505050506040513d601f19601f820116820180604052506102f49190810190611485565b90506103116001600160a01b03821683600063ffffffff61081d16565b61032d6001600160a01b0382168360001963ffffffff61081d16565b5050565b6001546000906001600160a01b039081169085163314806103cb5750604051634275143160e11b81526001600160a01b038216906384ea28629061037b9088903390600401611b91565b60206040518083038186803b15801561039357600080fd5b505afa1580156103a7573d6000803e3d6000fd5b505050506040513d601f19601f820116820180604052506103cb9190810190611504565b6103e75760405162461bcd60e51b81526004016101d090611cb9565b6040516311f9fbc960e21b81526001600160a01b038216906347e7ef2490610416908890600090600401611bd4565b600060405180830381600087803b15801561043057600080fd5b505af1158015610444573d6000803e3d6000fd5b505050506104506112dd565b6040516324d08fa760e21b81526001600160a01b038316906393423e9c9061047c908990600401611b68565b60806040518083038186803b15801561049457600080fd5b505afa1580156104a8573d6000803e3d6000fd5b505050506040513d601f19601f820116820180604052506104cc9190810190611522565b90506104d6611304565b6104ef82876104ea36899003890189611540565b61094c565b90506104fd838989846109b4565b6105056112dd565b6040516324d08fa760e21b81526001600160a01b038516906393423e9c90610531908b90600401611b68565b60806040518083038186803b15801561054957600080fd5b505afa15801561055d573d6000803e3d6000fd5b505050506040513d601f19601f820116820180604052506105819190810190611522565b9050600080610591868685610b72565b9092509050801561066357604051636ce5768960e11b81526001600160a01b0387169063d9caed12906105cc908d9030908690600401611bac565b600060405180830381600087803b1580156105e657600080fd5b505af11580156105fa573d6000803e3d6000fd5b50506003546040516311f9fbc960e21b81526001600160a01b03808b1694506347e7ef2493506106309216908590600401611bef565b600060405180830381600087803b15801561064a57600080fd5b505af115801561065e573d6000803e3d6000fd5b505050505b896001600160a01b03168b6001600160a01b03167f56f54e5e291f84831023c9ddf34fe42973dae320af11193db2b5f7af27719ba68b85856040516106aa93929190611c3d565b60405180910390a3509450505050505b949350505050565b6106ca61024e565b6106e65760405162461bcd60e51b81526004016101d090611cd9565b6106ff60026106f3610cc5565b9063ffffffff610cd116565b81111561071e5760405162461bcd60e51b81526004016101d090611ca9565b60048190556040517fb66e25e76b9dc01dd4aa8dffb4c93b795262619460b2d05e1c4cc18388f78f4890610753908390611d29565b60405180910390a150565b61076661024e565b6107825760405162461bcd60e51b81526004016101d090611cd9565b6003805473ffffffffffffffffffffffffffffffffffffffff19166001600160a01b0383161790556040517f02be8aef8c7fb3cfe392924a6868452212a6fb3db277cc1a24af9f7c4af80ebd90610753908390611b68565b6001546001600160a01b031681565b6107f161024e565b61080d5760405162461bcd60e51b81526004016101d090611cd9565b61081681610d1c565b50565b3390565b8015806108a55750604051636eb1769f60e11b81526001600160a01b0384169063dd62ed3e906108539030908690600401611b76565b60206040518083038186803b15801561086b57600080fd5b505afa15801561087f573d6000803e3d6000fd5b505050506040513d601f19601f820116820180604052506108a3919081019061157c565b155b6108c15760405162461bcd60e51b81526004016101d090611d09565b60405161094790849063095ea7b360e01b906108e39086908690602401611bef565b60408051601f198184030181529190526020810180517bffffffffffffffffffffffffffffffffffffffffffffffffffffffff167fffffffff0000000000000000000000000000000000000000000000000000000090931692909217909152610daa565b505050565b610954611304565b61095c611304565b61097561096886610e95565b849063ffffffff610ecc16565b90508315158160200151151514801561098e5750805115155b6109aa5760405162461bcd60e51b81526004016101d090611ce9565b90505b9392505050565b604080516002808252606080830184526001600160a01b038781169087161093909291906020830190803883390190505090506000826109f55760016109f8565b60005b60ff169050600083610a0b576000610a0e565b60015b60ff16905085838381518110610a2057fe5b60200260200101906001600160a01b031690816001600160a01b03168152505086838281518110610a4d57fe5b6001600160a01b0390921660209283029190910190910152604080516001808252818301909252606091816020015b610a8461131b565b815260200190600190039081610a7c5750506040805160808101825285815260208082018690526002546001600160a01b03168284015289518a820151935194955091936060850193610add9392909160009101611d37565b60405160208183030381529060405281525081600081518110610afc57fe5b602090810291909101015260405163347761fb60e11b81526001600160a01b038a16906368eec3f690610b359087908590600401611c0a565b600060405180830381600087803b158015610b4f57600080fd5b505af1158015610b63573d6000803e3d6000fd5b50505050505050505050505050565b600080610b7d611304565b610b9e610b8986610e95565b610b9286610e95565b9063ffffffff610ecc16565b9050610ba8611304565b610bbd610bb487610efe565b610b9287610efe565b9050610bc76112dd565b610bd7818463ffffffff610f2b16565b610be7818363ffffffff610f5116565b6000886001600160a01b031663796da7af6040518163ffffffff1660e01b815260040160206040518083038186803b158015610c2257600080fd5b505afa158015610c36573d6000803e3d6000fd5b505050506040513d601f19601f82011682018060405250610c5a919081019061157c565b9050600080610c6f848463ffffffff610f7416565b915091506000818311610c83576000610cb1565b610cb1610c8e610cc5565b6004546106f390610ca5878763ffffffff61102116565b9063ffffffff61106316565b96519c969b50959950505050505050505050565b670de0b6b3a764000090565b6000610d1383836040518060400160405280601a81526020017f536166654d6174683a206469766973696f6e206279207a65726f000000000000815250611081565b90505b92915050565b6001600160a01b038116610d425760405162461bcd60e51b81526004016101d090611c69565b600080546040516001600160a01b03808516939216917f8be0079c531659141344cd1fd0a4f28419497f9722a3daafe3b4186f6b6457e091a36000805473ffffffffffffffffffffffffffffffffffffffff19166001600160a01b0392909216919091179055565b610dbc826001600160a01b03166110b8565b610dd85760405162461bcd60e51b81526004016101d090611d19565b60006060836001600160a01b031683604051610df49190611b5c565b6000604051808303816000865af19150503d8060008114610e31576040519150601f19603f3d011682016040523d82523d6000602084013e610e36565b606091505b509150915081610e585760405162461bcd60e51b81526004016101d090611c99565b805115610e8f5780806020019051610e739190810190611504565b610e8f5760405162461bcd60e51b81526004016101d090611cf9565b50505050565b610e9d611304565b604051806040016040528083606001516001600160781b03168152602001836020015115158152509050919050565b610ed4611304565b8160200151610ef057610eeb8383600001516110f1565b610d13565b610d13838360000151611190565b610f06611304565b50604080518082018252908201516001600160781b0316815290511515602082015290565b8051610f369061121d565b6001600160781b031660608301526020908101511515910152565b8051610f5c9061121d565b6001600160781b031660408301526020015115159052565b815160009081908190819015610fb057610fa9610f8f610cc5565b60408801516001600160781b03169063ffffffff61125216565b9150610fbe565b610fbb610f8f610cc5565b90505b6060860151600090610fdf906001600160781b03168763ffffffff61125216565b905086602001511561100257610ffb838263ffffffff61128c16565b9250611015565b611012828263ffffffff61128c16565b91505b50909590945092505050565b6000610d1383836040518060400160405280601e81526020017f536166654d6174683a207375627472616374696f6e206f766572666c6f7700008152506112b1565b6000610d13670de0b6b3a76400006106f3858563ffffffff61125216565b600081836110a25760405162461bcd60e51b81526004016101d09190611c58565b5060008385816110ae57fe5b0495945050505050565b6000813f7fc5d2460186f7233c927e7db2dcc703c0e500b653ca82273b7bfad8045d85a4708181148015906106ba575050151592915050565b6110f9611304565b82602001511561113657604051806040016040528061112585600001518561128c90919063ffffffff16565b815260016020909101529050610d16565b825182111561116157604051806040016040528061112585600001518561102190919063ffffffff16565b604080518082019091528351819061117f908563ffffffff61102116565b815260006020909101529392505050565b611198611304565b82602001516111d45760405180604001604052806111c385600001518561128c90919063ffffffff16565b815260006020909101529050610d16565b82518210156111fb576040805180820190915283518190611125908563ffffffff61102116565b604051806040016040528061117f85600001518561102190919063ffffffff16565b60006f01000000000000000000000000000000821061124e5760405162461bcd60e51b81526004016101d090611c89565b5090565b60008261126157506000610d16565b8282028284828161126e57fe5b0414610d135760405162461bcd60e51b81526004016101d090611cc9565b600082820183811015610d135760405162461bcd60e51b81526004016101d090611c79565b600081848411156112d55760405162461bcd60e51b81526004016101d09190611c58565b505050900390565b60408051608081018252600080825260208201819052918101829052606081019190915290565b604080518082019091526000808252602082015290565b6040518060800160405280600081526020016000815260200160006001600160a01b03168152602001606081525090565b8035610d1681611e20565b8051610d1681611e20565b8035610d1681611e34565b8051610d1681611e34565b60006080828403121561138a57600080fd5b6113946080611d5f565b905060006113a2848461136d565b82525060206113b38484830161136d565b60208301525060406113c784828501611446565b60408301525060606113db84828501611446565b60608301525092915050565b6000604082840312156113f957600080fd5b50919050565b60006040828403121561141157600080fd5b61141b6040611d5f565b905060006114298484611451565b825250602061143a84848301611362565b60208301525092915050565b8051610d1681611e3d565b8035610d1681611e46565b8051610d1681611e46565b60006020828403121561147957600080fd5b60006106ba848461134c565b60006020828403121561149757600080fd5b60006106ba8484611357565b60008060008060a085870312156114b957600080fd5b60006114c5878761134c565b94505060206114d68782880161134c565b93505060406114e787828801611362565b92505060606114f8878288016113e7565b91505092959194509250565b60006020828403121561151657600080fd5b60006106ba848461136d565b60006080828403121561153457600080fd5b60006106ba8484611378565b60006040828403121561155257600080fd5b60006106ba84846113ff565b60006020828403121561157057600080fd5b60006106ba8484611451565b60006020828403121561158e57600080fd5b60006106ba848461145c565b60006115a683836115c9565b505060200190565b6000610d138383611af8565b6115c381611dc9565b82525050565b6115c381611d9e565b60006115dd82611d8c565b6115e78185611d90565b93506115f283611d86565b8060005b8381101561162057815161160a888261159a565b975061161583611d86565b9250506001016115f6565b509495945050505050565b600061163682611d8c565b6116408185611d90565b93508360208202850161165285611d86565b8060005b8581101561168c578484038952815161166f85826115ae565b945061167a83611d86565b60209a909a0199925050600101611656565b5091979650505050505050565b6115c381611da9565b60006116ad82611d8c565b6116b78185611d99565b93506116c7818560208601611dea565b9290920192915050565b60006116dc82611d8c565b6116e68185611d90565b93506116f6818560208601611dea565b6116ff81611e16565b9093019392505050565b6115c381611dd4565b600061171f602683611d90565b7f4f776e61626c653a206e6577206f776e657220697320746865207a65726f206181527f6464726573730000000000000000000000000000000000000000000000000000602082015260400192915050565b600061177e601b83611d90565b7f536166654d6174683a206164646974696f6e206f766572666c6f770000000000815260200192915050565b60006117b7602783611d90565b7f53616665436173743a2076616c756520646f65736e27742066697420696e203181527f3230206269747300000000000000000000000000000000000000000000000000602082015260400192915050565b6000611816602083611d90565b7f5361666545524332303a206c6f772d6c6576656c2063616c6c206661696c6564815260200192915050565b600061184f602783611d90565b7f696e737572616e63654665652063616e6e6f742062652067726561746572207481527f68616e2035302500000000000000000000000000000000000000000000000000602082015260400192915050565b60006118ae603083611d90565b7f6d73672e73656e6465722063616e6e6f74206f70657261746520746865206c6981527f7175696461746f72206163636f756e7400000000000000000000000000000000602082015260400192915050565b600061190d602183611d90565b7f536166654d6174683a206d756c7469706c69636174696f6e206f766572666c6f8152607760f81b602082015260400192915050565b6000611950602083611d90565b7f4f776e61626c653a2063616c6c6572206973206e6f7420746865206f776e6572815260200192915050565b6000611989604a83611d90565b7f43616e6e6f74206c697175696461746520696620697420776f756c642070757481527f206c697175696461746f7220706173742074686520737065636966696564206d60208201527f6178506f736974696f6e00000000000000000000000000000000000000000000604082015260600192915050565b6000611a0e602a83611d90565b7f5361666545524332303a204552433230206f7065726174696f6e20646964206e81527f6f74207375636365656400000000000000000000000000000000000000000000602082015260400192915050565b6000611a6d603683611d90565b7f5361666545524332303a20617070726f76652066726f6d206e6f6e2d7a65726f81527f20746f206e6f6e2d7a65726f20616c6c6f77616e636500000000000000000000602082015260400192915050565b6000611acc601f83611d90565b7f5361666545524332303a2063616c6c20746f206e6f6e2d636f6e747261637400815260200192915050565b80516000906080840190611b0c8582611b53565b506020830151611b1f6020860182611b53565b506040830151611b3260408601826115c9565b5060608301518482036060860152611b4a82826116d1565b95945050505050565b6115c381611dc6565b60006109ad82846116a2565b60208101610d1682846115c9565b60408101611b8482856115c9565b6109ad60208301846115c9565b60408101611b9f82856115c9565b6109ad60208301846115ba565b60608101611bba82866115c9565b611bc760208301856115c9565b6106ba6040830184611b53565b60408101611be282856115c9565b6109ad6020830184611709565b60408101611bfd82856115c9565b6109ad6020830184611b53565b60408082528101611c1b81856115d2565b905081810360208301526106ba818461162b565b60208101610d168284611699565b60608101611c4b8286611699565b611bc76020830185611b53565b60208082528101610d1381846116d1565b60208082528101610d1681611712565b60208082528101610d1681611771565b60208082528101610d16816117aa565b60208082528101610d1681611809565b60208082528101610d1681611842565b60208082528101610d16816118a1565b60208082528101610d1681611900565b60208082528101610d1681611943565b60208082528101610d168161197c565b60208082528101610d1681611a01565b60208082528101610d1681611a60565b60208082528101610d1681611abf565b60208101610d168284611b53565b60608101611d458286611b53565b611d526020830185611699565b6106ba6040830184611699565b60405181810167ffffffffffffffff81118282101715611d7e57600080fd5b604052919050565b60200190565b5190565b90815260200190565b919050565b6000610d1682611dba565b151590565b6001600160781b031690565b6001600160a01b031690565b90565b6000610d1682611ddf565b6000610d1682611dc6565b6000610d1682611d9e565b60005b83811015611e05578181015183820152602001611ded565b83811115610e8f5750506000910152565b601f01601f191690565b611e2981611d9e565b811461081657600080fd5b611e2981611da9565b611e2981611dae565b611e2981611dc656fea365627a7a72315820d3d6f6a9964a9173246ae3dd04cb932eda6306ef431f932ecbed23b8ee6bf7ab6c6578706572696d656e74616cf564736f6c63430005100040",
  "devdoc": {
    "author": "axor",
    "methods": {
      "approveMaximumOnPerpetual()": {
        "details": "Cannot be run in the constructor due to technical restrictions in Solidity."
      },
      "isOwner()": {
        "details": "Returns true if the caller is the current owner."
      },
      "liquidate(address,address,bool,(uint256,bool))": {
        "details": "Emits the LogLiquidatorProxyUsed event.",
        "params": {
          "isBuy": "True if the liquidatee has a long position, false otherwise.",
          "liquidatee": "The account to liquidate.",
          "liquidator": "The account that performs the liquidation.",
          "maxPosition": "Maximum position size that the liquidator will take post-liquidation."
        },
        "return": "The change in position."
      },
      "owner()": {
        "details": "Returns the address of the current owner."
      },
      "renounceOwnership()": {
        "details": "Leaves the contract without owner. It will not be possible to call `onlyOwner` functions anymore. Can only be called by the current owner.     * NOTE: Renouncing ownership will leave the contract without an owner, thereby removing any functionality that is only available to the owner."
      },
      "setInsuranceFee(uint256)": {
        "details": "Allows the owner to set the insurance fee. Emits the LogInsuranceFeeSet event.",
        "params": {
          "insuranceFee": "The new fee as a fixed-point number with 18 decimal places. Max of 50%."
        }
      },
      "setInsuranceFund(address)": {
        "details": "Allows the owner to set the insurance fund address. Emits the LogInsuranceFundSet event.",
        "params": {
          "insuranceFund": "The address to set as the insurance fund."
        }
      },
      "transferOwnership(address)": {
        "details": "Transfers ownership of the contract to a new account (`newOwner`). Can only be called by the current owner."
      }
    },
    "title": "P1LiquidatorProxy"
  },
  "userdoc": {
    "methods": {
      "approveMaximumOnPerpetual()": {
        "notice": "Sets the maximum allowance on the perpetual contract. Must be called at least once."
      },
      "liquidate(address,address,bool,(uint256,bool))": {
        "notice": "Allows an account below the minimum collateralization to be liquidated by another account. This allows the account to be partially or fully subsumed by the liquidator. A proportion of all liquidation profits is directed to the insurance fund."
      }
    },
    "notice": "Proxy contract for liquidating accounts. A fixed percentage of each liquidation is directed to the insurance fund."
  },
  "storageLayout": {
    "storage": [
      {
        "astId": 220,
        "contract": "contracts/protocol/v1/proxies/P1LiquidatorProxy.sol:P1LiquidatorProxy",
        "label": "_owner",
        "offset": 0,
        "slot": "0",
        "type": "t_address"
      },
      {
        "astId": 6017,
        "contract": "contracts/protocol/v1/proxies/P1LiquidatorProxy.sol:P1LiquidatorProxy",
        "label": "_PERPETUAL_V1_",
        "offset": 0,
        "slot": "1",
        "type": "t_address"
      },
      {
        "astId": 6019,
        "contract": "contracts/protocol/v1/proxies/P1LiquidatorProxy.sol:P1LiquidatorProxy",
        "label": "_LIQUIDATION_",
        "offset": 0,
        "slot": "2",
        "type": "t_address"
      },
      {
        "astId": 6021,
        "contract": "contracts/protocol/v1/proxies/P1LiquidatorProxy.sol:P1LiquidatorProxy",
        "label": "_INSURANCE_FUND_",
        "offset": 0,
        "slot": "3",
        "type": "t_address"
      },
      {
        "astId": 6023,
        "contract": "contracts/protocol/v1/proxies/P1LiquidatorProxy.sol:P1LiquidatorProxy",
        "label": "_INSURANCE_FEE_",
        "offset": 0,
        "slot": "4",
        "type": "t_uint256"
      }
    ],
    "types": {
      "t_address": {
        "encoding": "inplace",
        "label": "address",
        "numberOfBytes": "20"
      },
      "t_uint256": {
        "encoding": "inplace",
        "label": "uint256",
        "numberOfBytes": "32"
      }
    }
  }
}