{
  "address": "0x0D30031f75B758d38FE112500934DA91F875FB13",
  "abi": [
    {
      "constant": true,
      "inputs": [],
      "name": "_PRICE_",
      "outputs": [
        {
          "internalType": "uint256",
          "name": "",
          "type": "uint256"
        }
      ],
      "payable": false,
      "stateMutability": "view",
      "type": "function"
    },
    {
      "constant": true,
      "inputs": [],
      "name": "getPrice",
      "outputs": [
        {
          "internalType": "uint256",
          "name": "",
          "type": "uint256"
        }
      ],
      "payable": false,
      "stateMutability": "view",
      "type": "function"
    },
    {
      "constant": false,
      "inputs": [
        {
          "internalType": "uint256",
          "name": "newPrice",
          "type": "uint256"
        }
      ],
      "name": "setPrice",
      "outputs": [],
      "payable": false,
      "stateMutability": "nonpayable",
      "type": "function"
    }
  ],
  "transactionHash": "0x268a253f4dbd6d2369c6f9e69f81c9995d42f2181b9bb6b84e6406a7356b8df8",
  "args": [],
  "numDeployments": 1,
  "solcInputHash": "fa0f031bede90450ee2a1bb216f6f0de",
  "bytecode": "0x60806040526000805534801561001457600080fd5b50610128806100246000396000f3fe6080604052348015600f57600080fd5b5060043610603c5760003560e01c806391b7f5ed14604157806398d5fdca1460525780639f5cf46a14606c575b600080fd5b6050604c3660046092565b6072565b005b60586077565b6040516063919060c2565b60405180910390f35b6058607d565b600055565b60005490565b60005481565b8035608c8160d1565b92915050565b60006020828403121560a357600080fd5b600060ad84846083565b949350505050565b60bc8160ce565b82525050565b60208101608c828460b5565b90565b60d88160ce565b811460e257600080fd5b5056fea365627a7a72315820d9943d75baa6e6d7abea5c4d8a1bfe87850fac5bffbdfc06896b6ad759694a676c6578706572696d656e74616cf564736f6c63430005100040",
  "devdoc": {
    "author": "axor",
    "methods": {},
    "title": "Test_P1Oracle"
  },
  "userdoc": {
    "methods": {},
    "notice": "I_P1Oracle implementation for testing."
  },
  "storageLayout": {
    "storage": [
      {
        "astId": 8715,
        "contract": "contracts/test/v1/Test_P1Oracle.sol:Test_P1Oracle",
        "label": "_PRICE_",
        "offset": 0,
        "slot": "0",
        "type": "t_uint256"
      }
    ],
    "types": {
      "t_uint256": {
        "encoding": "inplace",
        "label": "uint256",
        "numberOfBytes": "32"
      }
    }
  }
}