{
  "address": "0x1f26C48C2CfC50a56dE1E8EbeC4A68f4bb6ef5cf",
  "abi": [
    {
      "anonymous": false,
      "inputs": [
        {
          "indexed": true,
          "internalType": "address",
          "name": "previousOwner",
          "type": "address"
        },
        {
          "indexed": true,
          "internalType": "address",
          "name": "newOwner",
          "type": "address"
        }
      ],
      "name": "OwnershipTransferred",
      "type": "event"
    },
    {
      "inputs": [
        {
          "internalType": "address[]",
          "name": "listWhitelist",
          "type": "address[]"
        }
      ],
      "name": "initialize",
      "outputs": [],
      "stateMutability": "nonpayable",
      "type": "function"
    },
    {
      "inputs": [
        {
          "internalType": "address[]",
          "name": "targets",
          "type": "address[]"
        },
        {
          "internalType": "uint256[]",
          "name": "amounts",
          "type": "uint256[]"
        },
        {
          "internalType": "bytes[]",
          "name": "data",
          "type": "bytes[]"
        }
      ],
      "name": "multisend",
      "outputs": [
        {
          "internalType": "uint256",
          "name": "revertIndex",
          "type": "uint256"
        }
      ],
      "stateMutability": "nonpayable",
      "type": "function"
    },
    {
      "inputs": [],
      "name": "owner",
      "outputs": [
        {
          "internalType": "address",
          "name": "",
          "type": "address"
        }
      ],
      "stateMutability": "view",
      "type": "function"
    },
    {
      "inputs": [],
      "name": "renounceOwnership",
      "outputs": [],
      "stateMutability": "nonpayable",
      "type": "function"
    },
    {
      "inputs": [
        {
          "internalType": "address",
          "name": "user",
          "type": "address"
        },
        {
          "internalType": "bool",
          "name": "status",
          "type": "bool"
        }
      ],
      "name": "setWhitelist",
      "outputs": [],
      "stateMutability": "nonpayable",
      "type": "function"
    },
    {
      "inputs": [
        {
          "internalType": "address",
          "name": "newOwner",
          "type": "address"
        }
      ],
      "name": "transferOwnership",
      "outputs": [],
      "stateMutability": "nonpayable",
      "type": "function"
    },
    {
      "inputs": [
        {
          "internalType": "address",
          "name": "",
          "type": "address"
        }
      ],
      "name": "whitelists",
      "outputs": [
        {
          "internalType": "bool",
          "name": "",
          "type": "bool"
        }
      ],
      "stateMutability": "view",
      "type": "function"
    }
  ],
  "transactionHash": "0xd8333dcb372335beedb20c725f4188e2b0c35156c6d5d97440b8ed3ec96e31c3",
  "args": [],
  "numDeployments": 2,
  "solcInputHash": "0d5ee18772fba89bdfbbaf5268f19123",
  "bytecode": "0x608060405234801561001057600080fd5b50610bb9806100206000396000f3fe608060405234801561001057600080fd5b506004361061007d5760003560e01c80638da5cb5b1161005b5780638da5cb5b146100d7578063a224cee7146100f2578063e3400a5714610105578063f2fde38b146101265761007d565b80631e7be2101461008257806353d6fd59146100ba578063715018a6146100cf575b600080fd5b6100a5610090366004610946565b60656020526000908152604090205460ff1681565b60405190151581526020015b60405180910390f35b6100cd6100c8366004610967565b610139565b005b6100cd6101c3565b6033546040516001600160a01b0390911681526020016100b1565b6100cd6101003660046109a1565b610229565b6101186101133660046109dc565b61038d565b6040519081526020016100b1565b6100cd610134366004610946565b6105a7565b6033546001600160a01b031633146101985760405162461bcd60e51b815260206004820181905260248201527f4f776e61626c653a2063616c6c6572206973206e6f7420746865206f776e657260448201526064015b60405180910390fd5b6001600160a01b03919091166000908152606560205260409020805460ff1916911515919091179055565b6033546001600160a01b0316331461021d5760405162461bcd60e51b815260206004820181905260248201527f4f776e61626c653a2063616c6c6572206973206e6f7420746865206f776e6572604482015260640161018f565b6102276000610689565b565b600054610100900460ff166102445760005460ff161561024c565b61024c6106f3565b6102be5760405162461bcd60e51b815260206004820152602e60248201527f496e697469616c697a61626c653a20636f6e747261637420697320616c72656160448201527f647920696e697469616c697a6564000000000000000000000000000000000000606482015260840161018f565b600054610100900460ff161580156102e0576000805461ffff19166101011790555b6102e8610704565b336000908152606560205260408120805460ff191660011790555b82518110156103765760016065600085848151811061033257634e487b7160e01b600052603260045260246000fd5b6020908102919091018101516001600160a01b03168252810191909152604001600020805460ff19169115159190911790558061036e81610b46565b915050610303565b508015610389576000805461ff00191690555b5050565b3360009081526065602052604081205460ff166103f85760405162461bcd60e51b8152602060048201526024808201527f496e76616c69642073656e6465722c206d75737420626520696e2077686974656044820152631b1a5cdd60e21b606482015260840161018f565b835183518114801561040a5750825181145b6104565760405162461bcd60e51b815260206004820152600d60248201527f496e76616c696420696e70757400000000000000000000000000000000000000604482015260640161018f565b60005b8181101561059e5760008087838151811061048457634e487b7160e01b600052603260045260246000fd5b60200260200101516001600160a01b03168784815181106104b557634e487b7160e01b600052603260045260246000fd5b60200260200101518785815181106104dd57634e487b7160e01b600052603260045260246000fd5b60200260200101516040516104f29190610ab8565b60006040518083038185875af1925050503d806000811461052f576040519150601f19603f3d011682016040523d82523d6000602084013e610534565b606091505b5091509150829450816105895760405162461bcd60e51b815260206004820152600660248201527f4661696c65640000000000000000000000000000000000000000000000000000604482015260640161018f565b5050808061059690610b46565b915050610459565b50509392505050565b6033546001600160a01b031633146106015760405162461bcd60e51b815260206004820181905260248201527f4f776e61626c653a2063616c6c6572206973206e6f7420746865206f776e6572604482015260640161018f565b6001600160a01b03811661067d5760405162461bcd60e51b815260206004820152602660248201527f4f776e61626c653a206e6577206f776e657220697320746865207a65726f206160448201527f6464726573730000000000000000000000000000000000000000000000000000606482015260840161018f565b61068681610689565b50565b603380546001600160a01b038381167fffffffffffffffffffffffff0000000000000000000000000000000000000000831681179093556040519116919082907f8be0079c531659141344cd1fd0a4f28419497f9722a3daafe3b4186f6b6457e090600090a35050565b60006106fe30610777565b15905090565b600054610100900460ff1661076f5760405162461bcd60e51b815260206004820152602b60248201527f496e697469616c697a61626c653a20636f6e7472616374206973206e6f74206960448201526a6e697469616c697a696e6760a81b606482015260840161018f565b61022761078a565b6001600160a01b0381163b15155b919050565b600054610100900460ff166107f55760405162461bcd60e51b815260206004820152602b60248201527f496e697469616c697a61626c653a20636f6e7472616374206973206e6f74206960448201526a6e697469616c697a696e6760a81b606482015260840161018f565b61022733610689565b80356001600160a01b038116811461078557600080fd5b600082601f830112610825578081fd5b8135602061083a61083583610b22565b610af1565b80838252828201915082860187848660051b8901011115610859578586fd5b855b8581101561087e5761086c826107fe565b8452928401929084019060010161085b565b5090979650505050505050565b6000601f838184011261089c578182fd5b823560206108ac61083583610b22565b82815281810190868301865b8581101561093857813589018a603f8201126108d2578889fd5b85810135604067ffffffffffffffff8211156108f0576108f0610b6d565b610901828b01601f19168901610af1565b8281528d82848601011115610914578b8cfd5b828285018a83013791820188018b90525085525092840192908401906001016108b8565b509098975050505050505050565b600060208284031215610957578081fd5b610960826107fe565b9392505050565b60008060408385031215610979578081fd5b610982836107fe565b915060208301358015158114610996578182fd5b809150509250929050565b6000602082840312156109b2578081fd5b813567ffffffffffffffff8111156109c8578182fd5b6109d484828501610815565b949350505050565b6000806000606084860312156109f0578081fd5b833567ffffffffffffffff80821115610a07578283fd5b610a1387838801610815565b9450602091508186013581811115610a29578384fd5b8601601f81018813610a39578384fd5b8035610a4761083582610b22565b8082825285820191508584018b878560051b8701011115610a66578788fd5b8794505b83851015610a88578035835260019490940193918601918601610a6a565b5096505050506040860135915080821115610aa1578283fd5b50610aae8682870161088b565b9150509250925092565b60008251815b81811015610ad85760208186018101518583015201610abe565b81811115610ae65782828501525b509190910192915050565b604051601f8201601f1916810167ffffffffffffffff81118282101715610b1a57610b1a610b6d565b604052919050565b600067ffffffffffffffff821115610b3c57610b3c610b6d565b5060051b60200190565b6000600019821415610b6657634e487b7160e01b81526011600452602481fd5b5060010190565b634e487b7160e01b600052604160045260246000fdfea264697066735822122018089841c8065edab5a5b51f802736b7ab01de9ede1103add3843f445386821c64736f6c63430008030033",
  "devdoc": {
    "kind": "dev",
    "methods": {
      "owner()": {
        "details": "Returns the address of the current owner."
      },
      "renounceOwnership()": {
        "details": "Leaves the contract without owner. It will not be possible to call `onlyOwner` functions anymore. Can only be called by the current owner. NOTE: Renouncing ownership will leave the contract without an owner, thereby removing any functionality that is only available to the owner."
      },
      "transferOwnership(address)": {
        "details": "Transfers ownership of the contract to a new account (`newOwner`). Can only be called by the current owner."
      }
    },
    "version": 1
  },
  "userdoc": {
    "kind": "user",
    "methods": {},
    "version": 1
  },
  "storageLayout": {
    "storage": [
      {
        "astId": 130,
        "contract": "contracts/helpers/MultiSend.sol:MultiSendProxy",
        "label": "_initialized",
        "offset": 0,
        "slot": "0",
        "type": "t_bool"
      },
      {
        "astId": 133,
        "contract": "contracts/helpers/MultiSend.sol:MultiSendProxy",
        "label": "_initializing",
        "offset": 1,
        "slot": "0",
        "type": "t_bool"
      },
      {
        "astId": 481,
        "contract": "contracts/helpers/MultiSend.sol:MultiSendProxy",
        "label": "__gap",
        "offset": 0,
        "slot": "1",
        "type": "t_array(t_uint256)50_storage"
      },
      {
        "astId": 10,
        "contract": "contracts/helpers/MultiSend.sol:MultiSendProxy",
        "label": "_owner",
        "offset": 0,
        "slot": "51",
        "type": "t_address"
      },
      {
        "astId": 122,
        "contract": "contracts/helpers/MultiSend.sol:MultiSendProxy",
        "label": "__gap",
        "offset": 0,
        "slot": "52",
        "type": "t_array(t_uint256)49_storage"
      },
      {
        "astId": 491,
        "contract": "contracts/helpers/MultiSend.sol:MultiSendProxy",
        "label": "whitelists",
        "offset": 0,
        "slot": "101",
        "type": "t_mapping(t_address,t_bool)"
      }
    ],
    "types": {
      "t_address": {
        "encoding": "inplace",
        "label": "address",
        "numberOfBytes": "20"
      },
      "t_array(t_uint256)49_storage": {
        "base": "t_uint256",
        "encoding": "inplace",
        "label": "uint256[49]",
        "numberOfBytes": "1568"
      },
      "t_array(t_uint256)50_storage": {
        "base": "t_uint256",
        "encoding": "inplace",
        "label": "uint256[50]",
        "numberOfBytes": "1600"
      },
      "t_bool": {
        "encoding": "inplace",
        "label": "bool",
        "numberOfBytes": "1"
      },
      "t_mapping(t_address,t_bool)": {
        "encoding": "mapping",
        "key": "t_address",
        "label": "mapping(address => bool)",
        "numberOfBytes": "32",
        "value": "t_bool"
      },
      "t_uint256": {
        "encoding": "inplace",
        "label": "uint256",
        "numberOfBytes": "32"
      }
    }
  }
}