{
  "address": "0x2FAFBa17A2801E1FE093A0C63f6f549EB974CDd5",
  "abi": [
    {
      "inputs": [
        {
          "internalType": "address",
          "name": "oracle",
          "type": "address"
        },
        {
          "internalType": "address",
          "name": "reader",
          "type": "address"
        },
        {
          "internalType": "uint96",
          "name": "adjustmentExponent",
          "type": "uint96"
        }
      ],
      "payable": false,
      "stateMutability": "nonpayable",
      "type": "constructor"
    },
    {
      "constant": true,
      "inputs": [],
      "name": "_ADJUSTMENT_",
      "outputs": [
        {
          "internalType": "uint256",
          "name": "",
          "type": "uint256"
        }
      ],
      "payable": false,
      "stateMutability": "view",
      "type": "function"
    },
    {
      "constant": true,
      "inputs": [
        {
          "internalType": "address",
          "name": "",
          "type": "address"
        }
      ],
      "name": "_MAPPING_",
      "outputs": [
        {
          "internalType": "bytes32",
          "name": "",
          "type": "bytes32"
        }
      ],
      "payable": false,
      "stateMutability": "view",
      "type": "function"
    },
    {
      "constant": true,
      "inputs": [],
      "name": "_ORACLE_",
      "outputs": [
        {
          "internalType": "address",
          "name": "",
          "type": "address"
        }
      ],
      "payable": false,
      "stateMutability": "view",
      "type": "function"
    },
    {
      "constant": true,
      "inputs": [],
      "name": "_READER_",
      "outputs": [
        {
          "internalType": "address",
          "name": "",
          "type": "address"
        }
      ],
      "payable": false,
      "stateMutability": "view",
      "type": "function"
    },
    {
      "constant": true,
      "inputs": [],
      "name": "getPrice",
      "outputs": [
        {
          "internalType": "uint256",
          "name": "",
          "type": "uint256"
        }
      ],
      "payable": false,
      "stateMutability": "view",
      "type": "function"
    }
  ],
  "transactionHash": "0xbfc5043988ea1451d746d1c9852cc939a49b70d7d96eec2b1229f3cb1832212e",
  "args": [
    "0x56a43EB56Da12C0dc1D972ACb089c06a5dEF8e69",
    "0x16D57534E40a44EbBF73B270D7C95b0a0e43f615",
    16
  ],
  "numDeployments": 2,
  "solcInputHash": "638c89ae9bbcccd3b2c9594585590c46",
  "bytecode": "0x608060405234801561001057600080fd5b5060405161070238038061070283398101604081905261002f916100b2565b600080546001600160a01b03199081166001600160a01b0386811691909117835560018054909216941693841790556001600160601b0391909116600a81900a60025591815260036020526040902060609290921b6001600160601b03191617905561013c565b80516100a18161011c565b92915050565b80516100a181610133565b6000806000606084860312156100c757600080fd5b60006100d38686610096565b93505060206100e486828701610096565b92505060406100f5868287016100a7565b9150509250925092565b60006001600160a01b0382166100a1565b6001600160601b031690565b610125816100ff565b811461013057600080fd5b50565b61012581610110565b6105b78061014b6000396000f3fe608060405234801561001057600080fd5b50600436106100675760003560e01c8063939a543911610050578063939a54391461009257806398d5fdca146100a7578063c1f75961146100af57610067565b806367b141ee1461006c57806373a2ab7c1461008a575b600080fd5b6100746100c2565b6040516100819190610496565b60405180910390f35b6100746100d1565b61009a6100e0565b60405161008191906104a4565b61009a6100e6565b61009a6100bd366004610301565b6101dc565b6001546001600160a01b031681565b6000546001600160a01b031681565b60025481565b336000908152600360205260408120548061011c5760405162461bcd60e51b8152600401610113906104c3565b60405180910390fd5b600080610128836101ee565b915091506000826001600160a01b03166350d25bcd6040518163ffffffff1660e01b815260040160206040518083038186803b15801561016757600080fd5b505afa15801561017b573d6000803e3d6000fd5b505050506040513d601f19601f8201168201806040525061019f9190810190610327565b9050600081136101c15760405162461bcd60e51b8152600401610113906104e3565b806101d2818463ffffffff61020a16565b9550505050505090565b60036020526000908152604090205481565b606081901c6bffffffffffffffffffffffff8216600a0a915091565b6000610234670de0b6b3a7640000610228858563ffffffff61023d16565b9063ffffffff61027716565b90505b92915050565b60008261024c57506000610237565b8282028284828161025957fe5b04146102345760405162461bcd60e51b8152600401610113906104d3565b600061023483836040518060400160405280601a81526020017f536166654d6174683a206469766973696f6e206279207a65726f000000000000815250600081836102d55760405162461bcd60e51b815260040161011391906104b2565b5060008385816102e157fe5b0495945050505050565b803561023781610554565b80516102378161056b565b60006020828403121561031357600080fd5b600061031f84846102eb565b949350505050565b60006020828403121561033957600080fd5b600061031f84846102f6565b61034e81610500565b82525050565b61034e8161050b565b6000610368826104f3565b61037281856104f7565b935061038281856020860161051a565b61038b8161054a565b9093019392505050565b60006103a26035836104f7565b7f5031436861696e6c696e6b4f7261636c653a2053656e646572206e6f7420617581527f74686f72697a656420746f206765742070726963650000000000000000000000602082015260400192915050565b60006104016021836104f7565b7f536166654d6174683a206d756c7469706c69636174696f6e206f766572666c6f8152607760f81b602082015260400192915050565b60006104446031836104f7565b7f5031436861696e6c696e6b4f7261636c653a20496e76616c696420616e73776581527f722066726f6d2061676772656761746f72000000000000000000000000000000602082015260400192915050565b602081016102378284610345565b602081016102378284610354565b60208082528101610234818461035d565b6020808252810161023781610395565b60208082528101610237816103f4565b6020808252810161023781610437565b5190565b90815260200190565b60006102378261050e565b90565b6001600160a01b031690565b60005b8381101561053557818101518382015260200161051d565b83811115610544576000848401525b50505050565b601f01601f191690565b61055d81610500565b811461056857600080fd5b50565b61055d8161050b56fea365627a7a72315820b27c26e58326162ef06aea3bfe4a9066807b75ad4ef990b9ad408051422530ab6c6578706572696d656e74616cf564736f6c63430005100040",
  "devdoc": {
    "author": "axor",
    "methods": {
      "getPrice()": {
        "return": "The adjusted price as a fixed-point number with 18 decimals."
      }
    },
    "title": "P1ChainlinkOracle"
  },
  "userdoc": {
    "methods": {
      "getPrice()": {
        "notice": "Returns the oracle price from the aggregator."
      }
    },
    "notice": "P1Oracle that reads the price from a Chainlink aggregator."
  },
  "storageLayout": {
    "storage": [
      {
        "astId": 5344,
        "contract": "contracts/protocol/v1/oracles/P1ChainlinkOracle.sol:P1ChainlinkOracle",
        "label": "_ORACLE_",
        "offset": 0,
        "slot": "0",
        "type": "t_address"
      },
      {
        "astId": 5346,
        "contract": "contracts/protocol/v1/oracles/P1ChainlinkOracle.sol:P1ChainlinkOracle",
        "label": "_READER_",
        "offset": 0,
        "slot": "1",
        "type": "t_address"
      },
      {
        "astId": 5348,
        "contract": "contracts/protocol/v1/oracles/P1ChainlinkOracle.sol:P1ChainlinkOracle",
        "label": "_ADJUSTMENT_",
        "offset": 0,
        "slot": "2",
        "type": "t_uint256"
      },
      {
        "astId": 5352,
        "contract": "contracts/protocol/v1/oracles/P1ChainlinkOracle.sol:P1ChainlinkOracle",
        "label": "_MAPPING_",
        "offset": 0,
        "slot": "3",
        "type": "t_mapping(t_address,t_bytes32)"
      }
    ],
    "types": {
      "t_address": {
        "encoding": "inplace",
        "label": "address",
        "numberOfBytes": "20"
      },
      "t_bytes32": {
        "encoding": "inplace",
        "label": "bytes32",
        "numberOfBytes": "32"
      },
      "t_mapping(t_address,t_bytes32)": {
        "encoding": "mapping",
        "key": "t_address",
        "label": "mapping(address => bytes32)",
        "numberOfBytes": "32",
        "value": "t_bytes32"
      },
      "t_uint256": {
        "encoding": "inplace",
        "label": "uint256",
        "numberOfBytes": "32"
      }
    }
  }
}