{
  "address": "0x2309DBA22565dE0D0715847E1241c2b389d46dCF",
  "abi": [
    {
      "anonymous": false,
      "inputs": [
        {
          "indexed": true,
          "internalType": "address",
          "name": "account",
          "type": "address"
        },
        {
          "indexed": false,
          "internalType": "address",
          "name": "destination",
          "type": "address"
        }
      ],
      "name": "CancelRequestWithdraw",
      "type": "event"
    },
    {
      "anonymous": false,
      "inputs": [
        {
          "indexed": true,
          "internalType": "address",
          "name": "account",
          "type": "address"
        },
        {
          "indexed": false,
          "internalType": "bool",
          "name": "isPositive",
          "type": "bool"
        },
        {
          "indexed": false,
          "internalType": "uint256",
          "name": "amount",
          "type": "uint256"
        },
        {
          "indexed": false,
          "internalType": "bytes32",
          "name": "balance",
          "type": "bytes32"
        }
      ],
      "name": "LogAccountSettled",
      "type": "event"
    },
    {
      "anonymous": false,
      "inputs": [
        {
          "indexed": true,
          "internalType": "address",
          "name": "account",
          "type": "address"
        },
        {
          "indexed": false,
          "internalType": "uint256",
          "name": "amount",
          "type": "uint256"
        },
        {
          "indexed": false,
          "internalType": "bytes32",
          "name": "balance",
          "type": "bytes32"
        }
      ],
      "name": "LogDeposit",
      "type": "event"
    },
    {
      "anonymous": false,
      "inputs": [
        {
          "indexed": false,
          "internalType": "uint256",
          "name": "settlementPrice",
          "type": "uint256"
        }
      ],
      "name": "LogFinalSettlementEnabled",
      "type": "event"
    },
    {
      "anonymous": false,
      "inputs": [
        {
          "indexed": false,
          "internalType": "bytes32",
          "name": "index",
          "type": "bytes32"
        }
      ],
      "name": "LogIndex",
      "type": "event"
    },
    {
      "anonymous": false,
      "inputs": [
        {
          "indexed": false,
          "internalType": "address",
          "name": "funder",
          "type": "address"
        }
      ],
      "name": "LogSetFunder",
      "type": "event"
    },
    {
      "anonymous": false,
      "inputs": [
        {
          "indexed": false,
          "internalType": "address",
          "name": "operator",
          "type": "address"
        },
        {
          "indexed": false,
          "internalType": "bool",
          "name": "approved",
          "type": "bool"
        }
      ],
      "name": "LogSetGlobalOperator",
      "type": "event"
    },
    {
      "anonymous": false,
      "inputs": [
        {
          "indexed": true,
          "internalType": "address",
          "name": "sender",
          "type": "address"
        },
        {
          "indexed": false,
          "internalType": "address",
          "name": "operator",
          "type": "address"
        },
        {
          "indexed": false,
          "internalType": "bool",
          "name": "approved",
          "type": "bool"
        }
      ],
      "name": "LogSetLocalOperator",
      "type": "event"
    },
    {
      "anonymous": false,
      "inputs": [
        {
          "indexed": false,
          "internalType": "uint256",
          "name": "minCollateral",
          "type": "uint256"
        }
      ],
      "name": "LogSetMinCollateral",
      "type": "event"
    },
    {
      "anonymous": false,
      "inputs": [
        {
          "indexed": false,
          "internalType": "address",
          "name": "oracle",
          "type": "address"
        }
      ],
      "name": "LogSetOracle",
      "type": "event"
    },
    {
      "anonymous": false,
      "inputs": [
        {
          "indexed": true,
          "internalType": "address",
          "name": "account",
          "type": "address"
        },
        {
          "indexed": false,
          "internalType": "address",
          "name": "destination",
          "type": "address"
        }
      ],
      "name": "LogSetWithdraw",
      "type": "event"
    },
    {
      "anonymous": false,
      "inputs": [
        {
          "indexed": true,
          "internalType": "address",
          "name": "maker",
          "type": "address"
        },
        {
          "indexed": true,
          "internalType": "address",
          "name": "taker",
          "type": "address"
        },
        {
          "indexed": false,
          "internalType": "address",
          "name": "trader",
          "type": "address"
        },
        {
          "indexed": false,
          "internalType": "uint256",
          "name": "marginAmount",
          "type": "uint256"
        },
        {
          "indexed": false,
          "internalType": "uint256",
          "name": "positionAmount",
          "type": "uint256"
        },
        {
          "indexed": false,
          "internalType": "bool",
          "name": "isBuy",
          "type": "bool"
        },
        {
          "indexed": false,
          "internalType": "bytes32",
          "name": "makerBalance",
          "type": "bytes32"
        },
        {
          "indexed": false,
          "internalType": "bytes32",
          "name": "takerBalance",
          "type": "bytes32"
        }
      ],
      "name": "LogTrade",
      "type": "event"
    },
    {
      "anonymous": false,
      "inputs": [
        {
          "indexed": true,
          "internalType": "address",
          "name": "account",
          "type": "address"
        },
        {
          "indexed": false,
          "internalType": "address",
          "name": "destination",
          "type": "address"
        },
        {
          "indexed": false,
          "internalType": "uint256",
          "name": "amount",
          "type": "uint256"
        },
        {
          "indexed": false,
          "internalType": "bool",
          "name": "settlementIsPositive",
          "type": "bool"
        },
        {
          "indexed": false,
          "internalType": "uint256",
          "name": "settlementAmount",
          "type": "uint256"
        },
        {
          "indexed": false,
          "internalType": "bytes32",
          "name": "balance",
          "type": "bytes32"
        }
      ],
      "name": "LogUserForceWithdraw",
      "type": "event"
    },
    {
      "anonymous": false,
      "inputs": [
        {
          "indexed": true,
          "internalType": "address",
          "name": "account",
          "type": "address"
        },
        {
          "indexed": false,
          "internalType": "address",
          "name": "destination",
          "type": "address"
        },
        {
          "indexed": false,
          "internalType": "uint256",
          "name": "amount",
          "type": "uint256"
        },
        {
          "indexed": false,
          "internalType": "bytes32",
          "name": "balance",
          "type": "bytes32"
        }
      ],
      "name": "LogWithdraw",
      "type": "event"
    },
    {
      "anonymous": false,
      "inputs": [
        {
          "indexed": true,
          "internalType": "address",
          "name": "account",
          "type": "address"
        },
        {
          "indexed": false,
          "internalType": "uint256",
          "name": "amount",
          "type": "uint256"
        },
        {
          "indexed": false,
          "internalType": "bytes32",
          "name": "balance",
          "type": "bytes32"
        }
      ],
      "name": "LogWithdrawFinalSettlement",
      "type": "event"
    },
    {
      "constant": false,
      "inputs": [
        {
          "internalType": "address",
          "name": "account",
          "type": "address"
        },
        {
          "internalType": "address",
          "name": "destination",
          "type": "address"
        }
      ],
      "name": "cancelRequestWithdraw",
      "outputs": [],
      "payable": false,
      "stateMutability": "nonpayable",
      "type": "function"
    },
    {
      "constant": false,
      "inputs": [
        {
          "internalType": "address",
          "name": "from",
          "type": "address"
        },
        {
          "internalType": "address",
          "name": "account",
          "type": "address"
        },
        {
          "internalType": "uint256",
          "name": "amount",
          "type": "uint256"
        },
        {
          "internalType": "uint256",
          "name": "price",
          "type": "uint256"
        },
        {
          "internalType": "uint256",
          "name": "settlementAmounts",
          "type": "uint256"
        },
        {
          "internalType": "bool",
          "name": "settlementIsPositives",
          "type": "bool"
        }
      ],
      "name": "deposit",
      "outputs": [],
      "payable": false,
      "stateMutability": "nonpayable",
      "type": "function"
    },
    {
      "constant": false,
      "inputs": [
        {
          "internalType": "uint256",
          "name": "priceLowerBound",
          "type": "uint256"
        },
        {
          "internalType": "uint256",
          "name": "priceUpperBound",
          "type": "uint256"
        }
      ],
      "name": "enableFinalSettlement",
      "outputs": [],
      "payable": false,
      "stateMutability": "nonpayable",
      "type": "function"
    },
    {
      "constant": true,
      "inputs": [
        {
          "internalType": "address",
          "name": "account",
          "type": "address"
        }
      ],
      "name": "getAccountBalance",
      "outputs": [
        {
          "components": [
            {
              "internalType": "bool",
              "name": "marginIsPositive",
              "type": "bool"
            },
            {
              "internalType": "bool",
              "name": "positionIsPositive",
              "type": "bool"
            },
            {
              "internalType": "uint120",
              "name": "margin",
              "type": "uint120"
            },
            {
              "internalType": "uint120",
              "name": "position",
              "type": "uint120"
            }
          ],
          "internalType": "struct P1Types.Balance",
          "name": "",
          "type": "tuple"
        }
      ],
      "payable": false,
      "stateMutability": "view",
      "type": "function"
    },
    {
      "constant": true,
      "inputs": [
        {
          "internalType": "address",
          "name": "account",
          "type": "address"
        }
      ],
      "name": "getAccountIndex",
      "outputs": [
        {
          "components": [
            {
              "internalType": "uint32",
              "name": "timestamp",
              "type": "uint32"
            },
            {
              "internalType": "bool",
              "name": "isPositive",
              "type": "bool"
            },
            {
              "internalType": "uint128",
              "name": "value",
              "type": "uint128"
            }
          ],
          "internalType": "struct P1Types.Index",
          "name": "",
          "type": "tuple"
        }
      ],
      "payable": false,
      "stateMutability": "view",
      "type": "function"
    },
    {
      "constant": true,
      "inputs": [],
      "name": "getAdmin",
      "outputs": [
        {
          "internalType": "address",
          "name": "",
          "type": "address"
        }
      ],
      "payable": false,
      "stateMutability": "view",
      "type": "function"
    },
    {
      "constant": true,
      "inputs": [],
      "name": "getDelayBlock",
      "outputs": [
        {
          "internalType": "uint256",
          "name": "",
          "type": "uint256"
        }
      ],
      "payable": false,
      "stateMutability": "view",
      "type": "function"
    },
    {
      "constant": true,
      "inputs": [],
      "name": "getFinalSettlementEnabled",
      "outputs": [
        {
          "internalType": "bool",
          "name": "",
          "type": "bool"
        }
      ],
      "payable": false,
      "stateMutability": "view",
      "type": "function"
    },
    {
      "constant": true,
      "inputs": [],
      "name": "getFunderContract",
      "outputs": [
        {
          "internalType": "address",
          "name": "",
          "type": "address"
        }
      ],
      "payable": false,
      "stateMutability": "view",
      "type": "function"
    },
    {
      "constant": true,
      "inputs": [],
      "name": "getGlobalIndex",
      "outputs": [
        {
          "components": [
            {
              "internalType": "uint32",
              "name": "timestamp",
              "type": "uint32"
            },
            {
              "internalType": "bool",
              "name": "isPositive",
              "type": "bool"
            },
            {
              "internalType": "uint128",
              "name": "value",
              "type": "uint128"
            }
          ],
          "internalType": "struct P1Types.Index",
          "name": "",
          "type": "tuple"
        }
      ],
      "payable": false,
      "stateMutability": "view",
      "type": "function"
    },
    {
      "constant": true,
      "inputs": [
        {
          "internalType": "address",
          "name": "operator",
          "type": "address"
        }
      ],
      "name": "getIsGlobalOperator",
      "outputs": [
        {
          "internalType": "bool",
          "name": "",
          "type": "bool"
        }
      ],
      "payable": false,
      "stateMutability": "view",
      "type": "function"
    },
    {
      "constant": true,
      "inputs": [
        {
          "internalType": "address",
          "name": "account",
          "type": "address"
        },
        {
          "internalType": "address",
          "name": "operator",
          "type": "address"
        }
      ],
      "name": "getIsLocalOperator",
      "outputs": [
        {
          "internalType": "bool",
          "name": "",
          "type": "bool"
        }
      ],
      "payable": false,
      "stateMutability": "view",
      "type": "function"
    },
    {
      "constant": true,
      "inputs": [],
      "name": "getMinCollateral",
      "outputs": [
        {
          "internalType": "uint256",
          "name": "",
          "type": "uint256"
        }
      ],
      "payable": false,
      "stateMutability": "view",
      "type": "function"
    },
    {
      "constant": true,
      "inputs": [],
      "name": "getOracleContract",
      "outputs": [
        {
          "internalType": "address",
          "name": "",
          "type": "address"
        }
      ],
      "payable": false,
      "stateMutability": "view",
      "type": "function"
    },
    {
      "constant": true,
      "inputs": [],
      "name": "getOraclePrice",
      "outputs": [
        {
          "internalType": "uint256",
          "name": "",
          "type": "uint256"
        }
      ],
      "payable": false,
      "stateMutability": "view",
      "type": "function"
    },
    {
      "constant": true,
      "inputs": [],
      "name": "getTokenContract",
      "outputs": [
        {
          "internalType": "address",
          "name": "",
          "type": "address"
        }
      ],
      "payable": false,
      "stateMutability": "view",
      "type": "function"
    },
    {
      "constant": true,
      "inputs": [
        {
          "internalType": "address",
          "name": "account",
          "type": "address"
        }
      ],
      "name": "getUserFlag",
      "outputs": [
        {
          "internalType": "uint256",
          "name": "",
          "type": "uint256"
        }
      ],
      "payable": false,
      "stateMutability": "view",
      "type": "function"
    },
    {
      "constant": true,
      "inputs": [
        {
          "internalType": "address",
          "name": "account",
          "type": "address"
        },
        {
          "internalType": "address",
          "name": "operator",
          "type": "address"
        }
      ],
      "name": "hasAccountPermissions",
      "outputs": [
        {
          "internalType": "bool",
          "name": "",
          "type": "bool"
        }
      ],
      "payable": false,
      "stateMutability": "view",
      "type": "function"
    },
    {
      "constant": false,
      "inputs": [
        {
          "internalType": "address",
          "name": "token",
          "type": "address"
        },
        {
          "internalType": "address",
          "name": "oracle",
          "type": "address"
        },
        {
          "internalType": "address",
          "name": "funder",
          "type": "address"
        },
        {
          "internalType": "uint256",
          "name": "minCollateral",
          "type": "uint256"
        }
      ],
      "name": "initializeV1",
      "outputs": [],
      "payable": false,
      "stateMutability": "nonpayable",
      "type": "function"
    },
    {
      "constant": false,
      "inputs": [
        {
          "internalType": "address",
          "name": "account",
          "type": "address"
        },
        {
          "internalType": "address",
          "name": "destination",
          "type": "address"
        }
      ],
      "name": "requestWithdraw",
      "outputs": [],
      "payable": false,
      "stateMutability": "nonpayable",
      "type": "function"
    },
    {
      "constant": false,
      "inputs": [
        {
          "internalType": "address",
          "name": "funder",
          "type": "address"
        }
      ],
      "name": "setFunder",
      "outputs": [],
      "payable": false,
      "stateMutability": "nonpayable",
      "type": "function"
    },
    {
      "constant": false,
      "inputs": [
        {
          "internalType": "address",
          "name": "operator",
          "type": "address"
        },
        {
          "internalType": "bool",
          "name": "approved",
          "type": "bool"
        }
      ],
      "name": "setGlobalOperator",
      "outputs": [],
      "payable": false,
      "stateMutability": "nonpayable",
      "type": "function"
    },
    {
      "constant": false,
      "inputs": [
        {
          "internalType": "address",
          "name": "operator",
          "type": "address"
        },
        {
          "internalType": "bool",
          "name": "approved",
          "type": "bool"
        }
      ],
      "name": "setLocalOperator",
      "outputs": [],
      "payable": false,
      "stateMutability": "nonpayable",
      "type": "function"
    },
    {
      "constant": false,
      "inputs": [
        {
          "internalType": "uint256",
          "name": "minCollateral",
          "type": "uint256"
        }
      ],
      "name": "setMinCollateral",
      "outputs": [],
      "payable": false,
      "stateMutability": "nonpayable",
      "type": "function"
    },
    {
      "constant": false,
      "inputs": [
        {
          "internalType": "address",
          "name": "oracle",
          "type": "address"
        }
      ],
      "name": "setOracle",
      "outputs": [],
      "payable": false,
      "stateMutability": "nonpayable",
      "type": "function"
    },
    {
      "constant": false,
      "inputs": [
        {
          "internalType": "uint256",
          "name": "withdrawDelayBlock",
          "type": "uint256"
        }
      ],
      "name": "setWithdrawDelayBlock",
      "outputs": [],
      "payable": false,
      "stateMutability": "nonpayable",
      "type": "function"
    },
    {
      "constant": false,
      "inputs": [
        {
          "internalType": "address[]",
          "name": "accounts",
          "type": "address[]"
        },
        {
          "components": [
            {
              "internalType": "uint256",
              "name": "takerIndex",
              "type": "uint256"
            },
            {
              "internalType": "uint256",
              "name": "makerIndex",
              "type": "uint256"
            },
            {
              "internalType": "address",
              "name": "trader",
              "type": "address"
            },
            {
              "internalType": "bytes",
              "name": "data",
              "type": "bytes"
            }
          ],
          "internalType": "struct P1Trade.TradeArg[]",
          "name": "trades",
          "type": "tuple[]"
        },
        {
          "internalType": "uint256[]",
          "name": "settlementAmounts",
          "type": "uint256[]"
        },
        {
          "internalType": "bool[]",
          "name": "settlementIsPositives",
          "type": "bool[]"
        },
        {
          "internalType": "uint256",
          "name": "price",
          "type": "uint256"
        }
      ],
      "name": "trade",
      "outputs": [],
      "payable": false,
      "stateMutability": "nonpayable",
      "type": "function"
    },
    {
      "constant": false,
      "inputs": [
        {
          "internalType": "address",
          "name": "account",
          "type": "address"
        },
        {
          "internalType": "address",
          "name": "destination",
          "type": "address"
        },
        {
          "internalType": "uint256",
          "name": "amount",
          "type": "uint256"
        }
      ],
      "name": "userWithdraw",
      "outputs": [],
      "payable": false,
      "stateMutability": "nonpayable",
      "type": "function"
    },
    {
      "constant": false,
      "inputs": [
        {
          "internalType": "address",
          "name": "account",
          "type": "address"
        },
        {
          "internalType": "address",
          "name": "destination",
          "type": "address"
        },
        {
          "internalType": "uint256",
          "name": "amount",
          "type": "uint256"
        },
        {
          "internalType": "uint256",
          "name": "price",
          "type": "uint256"
        },
        {
          "internalType": "uint256",
          "name": "settlementAmounts",
          "type": "uint256"
        },
        {
          "internalType": "bool",
          "name": "settlementIsPositives",
          "type": "bool"
        }
      ],
      "name": "withdraw",
      "outputs": [],
      "payable": false,
      "stateMutability": "nonpayable",
      "type": "function"
    },
    {
      "constant": false,
      "inputs": [],
      "name": "withdrawFinalSettlement",
      "outputs": [],
      "payable": false,
      "stateMutability": "nonpayable",
      "type": "function"
    }
  ],
  "transactionHash": "0x03fe0958259d8a7e75384da1bcb822530b93f93b3fbf30ca05cc46060a4c67c2",
  "args": [],
  "numDeployments": 3,
  "solcInputHash": "638c89ae9bbcccd3b2c9594585590c46",
  "bytecode": "0x60806040526001600055614abe806100186000396000f3fe608060405234801561001057600080fd5b50600436106101da5760003560e01c8063829b06c211610104578063a895155b116100a2578063e3bbb56511610071578063e3bbb565146103c1578063e77cb892146103c9578063e830b690146103dc578063f40c3699146103e4576101da565b8063a895155b14610380578063b4959e7214610393578063dc4f3a0e146103a6578063e200b630146103ae576101da565b80638e9b3957116100de5780638e9b39571461033257806393423e9c146103455780639795d87b146103655780639ba63e9e1461036d576101da565b8063829b06c2146102f9578063846321a41461030c57806384ea28621461031f576101da565b806346d256c51161017c57806377ecf4111161014b57806377ecf411146102a9578063796da7af146102bc5780637adbf973146102d157806380d63681146102e4576101da565b806346d256c51461027357806364232659146102865780636e9960c3146102995780637099366b146102a1576101da565b80631d13f344116101b85780631d13f3441461022557806328b7bede146102385780632f21dc321461024d5780633a031bf014610260576101da565b8063052f72d7146101df5780630acc8cd114610208578063142c69b31461021d575b600080fd5b6101f26101ed3660046138c6565b6103f7565b6040516101ff919061471a565b60405180910390f35b61021b6102163660046138c6565b610415565b005b61021b610566565b61021b6102333660046139cc565b610840565b6102406109e8565b6040516101ff9190614597565b61021b61025b3660046138e4565b6109f7565b6101f261026e3660046138e4565b610ac6565b61021b610281366004613a53565b610af6565b61021b6102943660046139cc565b610bbe565b610240610d92565b6101f2610dc2565b61021b6102b736600461397f565b610dcb565b6102c4611050565b6040516101ff9190614736565b61021b6102df3660046138c6565b611105565b6102ec61124f565b6040516101ff9190614911565b61021b6103073660046138e4565b61129c565b61021b61031a366004613bc3565b61135a565b6101f261032d3660046138e4565b611418565b61021b610340366004613bc3565b611489565b6103586103533660046138c6565b6114ef565b6040516101ff9190614903565b6102c461155f565b6102ec61037b3660046138c6565b611565565b61021b61038e36600461391e565b6115cd565b61021b6103a1366004613a53565b61173a565b6102406117a7565b6102c46103bc3660046138c6565b6117b6565b6102406117d1565b61021b6103d7366004613a83565b6117e0565b6102c4611ddc565b61021b6103f2366004613bff565b611de2565b6001600160a01b031660009081526003602052604090205460ff1690565b61041d610d92565b6001600160a01b0316336001600160a01b0316146104565760405162461bcd60e51b815260040161044d90614813565b60405180910390fd5b600019600054141561047a5760405162461bcd60e51b815260040161044d906148d3565b6000196000908155604051633afb52f560e21b81526001600160a01b0383169163ebed4bd4916104ad9190600401614744565b604080518083038186803b1580156104c457600080fd5b505afa1580156104d8573d6000803e3d6000fd5b505050506040513d601f19601f820116820180604052506104fc9190810190613b75565b50506008805473ffffffffffffffffffffffffffffffffffffffff19166001600160a01b0383161790556040517f433b5c8c9ff78f62114ee8804a916537fa42009ebac4965bfed953f771789e4790610556908390614597565b60405180910390a1506001600055565b600b5460ff166105885760405162461bcd60e51b815260040161044d90614793565b60001960005414156105ac5760405162461bcd60e51b815260040161044d906148d3565b6000196000556105ba6134e5565b506040805160608082018352600c548252600a546020808401919091528351918201845260095463ffffffff81168352640100000000810460ff161515918301919091526501000000000090046001600160801b0316818401529181019190915261062361350b565b61062d8233611f12565b505090506000806106428385600001516122a2565b91509150808210156106575750505050610839565b600061068061066461234f565b610674858563ffffffff61235b16565b9063ffffffff61239d16565b6006546040516370a0823160e01b81529192506000916001600160a01b03909116906370a08231906106b6903090600401614597565b60206040518083038186803b1580156106ce57600080fd5b505afa1580156106e2573d6000803e3d6000fd5b505050506040513d601f19601f820116820180604052506107069190810190613be1565b9050600061071482846123df565b9050600061073061072b858463ffffffff61235b16565b6123f5565b604080516080810182526001600160781b0383811680151583526000602080850182815285870193845260608601838152338085526001909352969092208551815493519451975160ff199094169015151761ff001916610100941515949094029390931770ffffffffffffffffffffffffffffff000019166201000096851696909602959095176001600160881b0316600160881b91909316029190911790556006549099509192506107ee916001600160a01b0316908461242a565b337fc3b34c584e097adcd5d59ecaf4107928698a4f075c7753b5dbe28cd20d7ac1fd8361081a8a6124b5565b60405161082892919061491f565b60405180910390a250505050505050505b6001600055565b600b5460ff16156108635760405162461bcd60e51b815260040161044d90614823565b60001960005414156108875760405162461bcd60e51b815260040161044d906148d3565b60001960009081553381526003602052604090205460ff166108bb5760405162461bcd60e51b815260040161044d906147b3565b6108c36134e5565b6108cc8461251e565b90506108d661350b565b6108e282888686612790565b6006549091506108fd906001600160a01b0316893089612a3e565b61090d818763ffffffff612a6816565b6001600160a01b038716600081815260016020908152604091829020845181549286015193860151606087015160ff199094169115159190911761ff001916610100941515949094029390931770ffffffffffffffffffffffffffffff00001916620100006001600160781b0394851602176001600160881b0316600160881b93909216929092021790557f40a9cb3a9707d3a68091d8ef7ffd4158d01d0b2ad92b1e489abe8312dd543023876109c3846124b5565b6040516109d192919061491f565b60405180910390a250506001600055505050505050565b6006546001600160a01b031690565b600b5460ff1615610a1a5760405162461bcd60e51b815260040161044d90614823565b6000196000541415610a3e5760405162461bcd60e51b815260040161044d906148d3565b600019600055610a4e8233611418565b610a6a5760405162461bcd60e51b815260040161044d90614763565b6001600160a01b03821660008181526004602052604090819020439055517f9a37e35722b49ddb4423d6a2457572e944ace1c590b8f3a14ff5eb4c7a83ca9590610ab5908490614597565b60405180910390a250506001600055565b6001600160a01b0380831660009081526005602090815260408083209385168352929052205460ff165b92915050565b610afe610d92565b6001600160a01b0316336001600160a01b031614610b2e5760405162461bcd60e51b815260040161044d90614813565b6000196000541415610b525760405162461bcd60e51b815260040161044d906148d3565b60001960009081556001600160a01b03831681526003602052604090819020805460ff1916831515179055517feaeee7699e70e6b31ac89ec999ef6936b97ac1e364f0e1fcf584772372caa0d390610bad908490849061462e565b60405180910390a150506001600055565b600b5460ff1615610be15760405162461bcd60e51b815260040161044d90614823565b6000196000541415610c055760405162461bcd60e51b815260040161044d906148d3565b60001960009081553381526003602052604090205460ff16610c395760405162461bcd60e51b815260040161044d906147d3565b610c416134e5565b610c4a8461251e565b9050610c5461350b565b610c6082898686612790565b6001600160a01b03808a16600090815260046020526040812055600654919250610c8c9116888861242a565b610c9c818763ffffffff612a9d16565b6001600160a01b038816600090815260016020908152604091829020835181549285015193850151606086015160ff199094169115159190911761ff001916610100941515949094029390931770ffffffffffffffffffffffffffffff00001916620100006001600160781b0394851602176001600160881b0316600160881b9390921692909202179055610d318282612ac0565b610d4d5760405162461bcd60e51b815260040161044d906148a3565b876001600160a01b03167f74348e8cb927b5536fe550310d0cdf05914498fcb04ad61b99c29e3899b0bce98888610d83856124b5565b6040516109d1939291906146b0565b6000610dbd7fb53127684a568b3173ae13b9f8a6016e243e63b6e8ee1178d6a717850b5d6103612b1a565b905090565b600b5460ff1690565b600b5460ff1615610dee5760405162461bcd60e51b815260040161044d90614823565b6000196000541415610e125760405162461bcd60e51b815260040161044d906148d3565b600019600055610e228333611418565b610e3e5760405162461bcd60e51b815260040161044d90614763565b6001600160a01b03831660009081526004602052604090205415801590610e825750600d546001600160a01b03841660009081526004602052604090205443910111155b610e9e5760405162461bcd60e51b815260040161044d90614863565b6001600160a01b038316600090815260046020526040812055610ebf6134e5565b610ec7612b1e565b9050610ed161350b565b600080610ede8488611f12565b92509250925080851015610f045760405162461bcd60e51b815260040161044d90614893565b8115610f135793840193610f19565b80850394505b600654610f30906001600160a01b0316878761242a565b610f40838663ffffffff612a9d16565b6001600160a01b038716600090815260016020908152604091829020855181549287015193870151606088015160ff199094169115159190911761ff001916610100941515949094029390931770ffffffffffffffffffffffffffffff00001916620100006001600160781b0394851602176001600160881b0316600160881b9390921692909202179055610fd58484612ac0565b610ff15760405162461bcd60e51b815260040161044d906148a3565b866001600160a01b03167f5cbceab3e5a3f7f2c0de8532ed22367c5b34ac743e712398d68fb28d64af99f787878585611029896124b5565b60405161103a959493929190614664565b60405180910390a2505060016000555050505050565b3360009081526003602052604081205460ff1661107f5760405162461bcd60e51b815260040161044d90614803565b600760009054906101000a90046001600160a01b03166001600160a01b03166398d5fdca6040518163ffffffff1660e01b815260040160206040518083038186803b1580156110cd57600080fd5b505afa1580156110e1573d6000803e3d6000fd5b505050506040513d601f19601f82011682018060405250610dbd9190810190613be1565b61110d610d92565b6001600160a01b0316336001600160a01b03161461113d5760405162461bcd60e51b815260040161044d90614813565b60001960005414156111615760405162461bcd60e51b815260040161044d906148d3565b600019600081905550806001600160a01b03166398d5fdca6040518163ffffffff1660e01b815260040160206040518083038186803b1580156111a357600080fd5b505afa1580156111b7573d6000803e3d6000fd5b505050506040513d601f19601f820116820180604052506111db9190810190613be1565b6111f75760405162461bcd60e51b815260040161044d90614853565b6007805473ffffffffffffffffffffffffffffffffffffffff19166001600160a01b0383161790556040517fad675642c3cba5442815383698d42cd28889533d9671a6d32cffea58ef0874da90610556908390614597565b611257613532565b506040805160608101825260095463ffffffff81168252640100000000810460ff16151560208301526501000000000090046001600160801b03169181019190915290565b600b5460ff16156112bf5760405162461bcd60e51b815260040161044d90614823565b60001960005414156112e35760405162461bcd60e51b815260040161044d906148d3565b6000196000556112f38233611418565b61130f5760405162461bcd60e51b815260040161044d90614763565b6001600160a01b03821660008181526004602052604080822091909155517fa0929ad4011509a83c7b3d9aa68eae2ed92b79aa167df769aa2b331fb9cd05dc90610ab5908490614597565b611362610d92565b6001600160a01b0316336001600160a01b0316146113925760405162461bcd60e51b815260040161044d90614813565b60001960005414156113b65760405162461bcd60e51b815260040161044d906148d3565b6000196000556113c461234f565b8110156113e35760405162461bcd60e51b815260040161044d90614783565b600a8190556040517f248b36ced4662a14c995e0872f00eb61be4e3dea3913226cdeb513d64728cdca90610556908390614736565b6000816001600160a01b0316836001600160a01b0316148061145257506001600160a01b03821660009081526003602052604090205460ff165b8061148257506001600160a01b0380841660009081526005602090815260408083209386168352929052205460ff165b9392505050565b611491610d92565b6001600160a01b0316336001600160a01b0316146114c15760405162461bcd60e51b815260040161044d90614813565b60001960005414156114e55760405162461bcd60e51b815260040161044d906148d3565b600d556001600055565b6114f761350b565b506001600160a01b03166000908152600160209081526040918290208251608081018452905460ff808216151583526101008204161515928201929092526001600160781b03620100008304811693820193909352600160881b909104909116606082015290565b600d5490565b61156d613532565b506001600160a01b03166000908152600260209081526040918290208251606081018452905463ffffffff81168252640100000000810460ff16151592820192909252650100000000009091046001600160801b03169181019190915290565b6115d5610d92565b6001600160a01b0316336001600160a01b0316146116055760405162461bcd60e51b815260040161044d90614813565b60001960005414156116295760405162461bcd60e51b815260040161044d906148d3565b600019600055604051611651906001906116429061458c565b60405190819003902003612b1a565b1561166e5760405162461bcd60e51b815260040161044d90614833565b611690600160405161167f9061458c565b604051908190039020036001612e1c565b6006805473ffffffffffffffffffffffffffffffffffffffff199081166001600160a01b0396871617909155600780548216948616949094179093556008805490931691909316179055600a55604080516060810182524263ffffffff16808252600060208301819052919092018190526009805463ffffffff19169092177fffffffffffffffffffffff0000000000000000000000000000000000ffffffff1690915560019055565b3360008181526005602090815260408083206001600160a01b038716845290915290819020805460ff1916841515179055517ffe9fa8ad7dbd5e50cbcd1a903ea64717cb80b02e6b737e74f7e2f070b3e4d15f9061179b908590859061462e565b60405180910390a25050565b6008546001600160a01b031690565b6001600160a01b031660009081526004602052604090205490565b6007546001600160a01b031690565b600b5460ff16156118035760405162461bcd60e51b815260040161044d90614823565b60001960005414156118275760405162461bcd60e51b815260040161044d906148d3565b60001960009081553381526003602052604090205460ff1661185b5760405162461bcd60e51b815260040161044d906147b3565b61186485612e20565b61186c6134e5565b6118758261251e565b9050606061188582888787612ebd565b9050606081516040519080825280602002602001820160405280156118c457816020015b6118b161350b565b8152602001906001900390816118a95790505b50905060005b8851811015611911576000600460008b84815181106118e557fe5b6020908102919091018101516001600160a01b03168252810191909152604001600020556001016118ca565b5060005b82518110156119595761193a83828151811061192d57fe5b6020026020010151612f7e565b82828151811061194657fe5b6020908102919091010152600101611915565b506000805b8851821015611dcb5761196f613552565b89838151811061197b57fe5b6020908102919091018101516040808201516001600160a01b0316600090815260039093529091205490915060ff166119c65760405162461bcd60e51b815260040161044d906147b3565b60008b8260200151815181106119d857fe5b6020026020010151905060008c8360000151815181106119f457fe5b60200260200101519050611a0661350b565b6040808501518a516060870151925163970c2ba160e01b81526001600160a01b039092169263970c2ba192611a479233928992899291908d906004016145a5565b608060405180830381600087803b158015611a6157600080fd5b505af1158015611a75573d6000803e3d6000fd5b505050506040513d601f19601f82011682018060405250611a999190810190613ba5565b9050806060015185179450816001600160a01b0316836001600160a01b03161415611ac75750505050611dc0565b611acf61350b565b87856020015181518110611adf57fe5b60200260200101519050611af161350b565b88866000015181518110611b0157fe5b60200260200101519050826040015115611b6c578251611b2890839063ffffffff612a6816565b6020830151611b3e90839063ffffffff612fd416565b8251611b5190829063ffffffff612a9d16565b6020830151611b6790829063ffffffff61300916565b611bbe565b8251611b7f90839063ffffffff612a9d16565b6020830151611b9590839063ffffffff61300916565b8251611ba890829063ffffffff612a6816565b6020830151611bbe90829063ffffffff612fd416565b8160016000876001600160a01b03166001600160a01b0316815260200190815260200160002060008201518160000160006101000a81548160ff02191690831515021790555060208201518160000160016101000a81548160ff02191690831515021790555060408201518160000160026101000a8154816001600160781b0302191690836001600160781b0316021790555060608201518160000160116101000a8154816001600160781b0302191690836001600160781b031602179055509050508060016000866001600160a01b03166001600160a01b0316815260200190815260200160002060008201518160000160006101000a81548160ff02191690831515021790555060208201518160000160016101000a81548160ff02191690831515021790555060408201518160000160026101000a8154816001600160781b0302191690836001600160781b0316021790555060608201518160000160116101000a8154816001600160781b0302191690836001600160781b03160217905550905050836001600160a01b0316856001600160a01b03167f5171a2ba3550a103fd09ca39b7dcfdf328a5acef18e290c7802d69c8ba73d8d98860400151866000015187602001518860400151611d96896124b5565b611d9f896124b5565b604051611db1969594939291906146cb565b60405180910390a35050505050505b60019091019061195e565b505060016000555050505050505050565b600a5490565b611dea610d92565b6001600160a01b0316336001600160a01b031614611e1a5760405162461bcd60e51b815260040161044d90614813565b600b5460ff1615611e3d5760405162461bcd60e51b815260040161044d90614823565b6000196000541415611e615760405162461bcd60e51b815260040161044d906148d3565b600019600055611e6f6134e5565b611e77612b1e565b90508281600001511015611e9d5760405162461bcd60e51b815260040161044d90614773565b8051821015611ebe5760405162461bcd60e51b815260040161044d906148b3565b8051600c819055600b805460ff191660011790556040517f68e4c41627e835051be46337f1542645a60c7e6d6ea79efc5f20bdadae5f88d291611f0091614736565b60405180910390a15050600160005550565b611f1a61350b565b600080611f25613532565b506040850151611f33613532565b506001600160a01b0385166000908152600260209081526040918290208251606081018452905463ffffffff81168252640100000000810460ff16151592820192909252650100000000009091046001600160801b031691810191909152611f9961350b565b506001600160a01b0386166000908152600160209081526040918290208251608081018452905460ff808216151583526101008204161515928201929092526001600160781b03620100008304811693820193909352600160881b90910490911660608201528251825163ffffffff908116911614156120245794506000935083925061229b915050565b6001600160a01b03871660009081526002602090815260409182902085518154928701519387015163ffffffff1990931663ffffffff9091161764ff000000001916640100000000931515939093029290921774ffffffffffffffffffffffffffffffff00000000001916650100000000006001600160801b039092169190910217905560608101516001600160781b03166120cb5794506000935083925061229b915050565b6120d3613583565b50604080518082018252908401516001600160801b031681526020808501511515818301528301511561212657604083015161211f9082906001600160801b031663ffffffff61302c16565b9050612148565b60408301516121459082906001600160801b031663ffffffff6130db16565b90505b8160200151151581602001511515141595508515612196576060820151815161217f916001600160781b031663ffffffff61315816565b9450612191828663ffffffff612a6816565b6121c7565b606082015181516121b5916001600160781b031663ffffffff61317616565b94506121c7828663ffffffff612a9d16565b6001600160a01b038816600081815260016020908152604091829020855181549287015193870151606088015160ff199094169115159190911761ff001916610100941515949094029390931770ffffffffffffffffffffffffffffff00001916620100006001600160781b0394851602176001600160881b0316600160881b93909216929092021790557f022694ffbbd957d26de6b85c040be68ec582d13d40114b29130581793a1bf31e878761227e866124b5565b60405161228d93929190614728565b60405180910390a250945050505b9250925092565b8151600090819081908190156122de576122d76122bd61234f565b60408801516001600160781b03169063ffffffff6131cd16565b91506122ec565b6122e96122bd61234f565b90505b606086015160009061230d906001600160781b03168763ffffffff6131cd16565b905086602001511561233057612329838263ffffffff61320716565b9250612343565b612340828263ffffffff61320716565b91505b50909590945092505050565b670de0b6b3a764000090565b600061148283836040518060400160405280601e81526020017f536166654d6174683a207375627472616374696f6e206f766572666c6f77000081525061322c565b600061148283836040518060400160405280601a81526020017f536166654d6174683a206469766973696f6e206279207a65726f000000000000815250613258565b60008183106123ee5781611482565b5090919050565b60006f0100000000000000000000000000000082106124265760405162461bcd60e51b815260040161044d906147c3565b5090565b6040516124b090849063a9059cbb60e01b9061244c9086908690602401614649565b60408051601f198184030181529190526020810180517bffffffffffffffffffffffffffffffffffffffffffffffffffffffff167fffffffff000000000000000000000000000000000000000000000000000000009093169290921790915261328f565b505050565b60008082602001516124c85760006124da565b6f010000000000000000000000000000005b83516124e75760006124ed565b600160f81b5b608085604001516001600160781b0316901b85606001516001600160781b031617171790508060001b915050919050565b6125266134e5565b61252e613532565b506040805160608101825260095463ffffffff808216808452640100000000830460ff1615156020850152650100000000009092046001600160801b03169383019390935290916000916125859142919061235b16565b9050801561273457612595613583565b50604080518082018252838201516001600160801b031681526020808501511515908201526008549151633afb52f560e21b8152909160009182916001600160a01b03169063ebed4bd4906125ee908790600401614736565b604080518083038186803b15801561260557600080fd5b505afa158015612619573d6000803e3d6000fd5b505050506040513d601f19601f8201168201806040525061263d9190810190613b75565b9092509050612652818863ffffffff61315816565b905081156126715761266a838263ffffffff6130db16565b9250612684565b612681838263ffffffff61302c16565b92505b604051806060016040528061269842613374565b63ffffffff1681526020018460200151151581526020016126bc856000015161339a565b6001600160801b0390811690915281516009805460208501516040860151909416650100000000000274ffffffffffffffffffffffffffffffff0000000000199415156401000000000264ff000000001963ffffffff90951663ffffffff199093169290921793909316179290921617905594505050505b7f995e61c355733308eab39a59e1e1ac167274cdd1ad707fe4d13e127a0107642861275e836133bf565b60405161276b9190614736565b60405180910390a15060408051606081018252938452600a5460208501528301525090565b61279861350b565b6127a0613532565b5060408501516127ae613532565b506001600160a01b0385166000908152600260209081526040918290208251606081018452905463ffffffff81168252640100000000810460ff16151592820192909252650100000000009091046001600160801b03169181019190915261281461350b565b506001600160a01b0386166000908152600160209081526040918290208251608081018452905460ff808216151583526101008204161515928201929092526001600160781b03620100008304811693820193909352600160881b90910490911660608201528251825163ffffffff90811691161415612898579250612a36915050565b6001600160a01b03871660009081526002602090815260409182902085518154928701519387015163ffffffff1990931663ffffffff9091161764ff000000001916640100000000931515939093029290921774ffffffffffffffffffffffffffffffff00000000001916650100000000006001600160801b039092169190910217905560608101516001600160781b0316612938579250612a36915050565b84156129535761294e818763ffffffff612a6816565b612963565b612963818763ffffffff612a9d16565b6001600160a01b038716600081815260016020908152604091829020845181549286015193860151606087015160ff199094169115159190911761ff001916610100941515949094029390931770ffffffffffffffffffffffffffffff00001916620100006001600160781b0394851602176001600160881b0316600160881b93909216929092021790557f022694ffbbd957d26de6b85c040be68ec582d13d40114b29130581793a1bf31e8688612a1a856124b5565b604051612a2993929190614728565b60405180910390a2925050505b949350505050565b604051612a629085906323b872dd60e01b9061244c90879087908790602401614606565b50505050565b612a70613583565b612a79836133ff565b9050612a8b818363ffffffff6130db16565b90506124b0838263ffffffff61342c16565b612aa5613583565b612aae836133ff565b9050612a8b818363ffffffff61302c16565b6000806000612adc8560000151856122a290919063ffffffff16565b91509150612af78560200151826131cd90919063ffffffff16565b612b0f612b0261234f565b849063ffffffff6131cd16565b101595945050505050565b5490565b612b266134e5565b612b2e613532565b506040805160608101825260095463ffffffff81168252640100000000810460ff161515602080840191909152650100000000009091046001600160801b0316828401526007548351634c6afee560e11b8152935192936000936001600160a01b03909216926398d5fdca92600480840193829003018186803b158015612bb457600080fd5b505afa158015612bc8573d6000803e3d6000fd5b505050506040513d601f19601f82011682018060405250612bec9190810190613be1565b90506000612c0d836000015163ffffffff164261235b90919063ffffffff16565b90508015612dbc57612c1d613583565b50604080518082018252848201516001600160801b031681526020808601511515908201526008549151633afb52f560e21b8152909160009182916001600160a01b03169063ebed4bd490612c76908790600401614736565b604080518083038186803b158015612c8d57600080fd5b505afa158015612ca1573d6000803e3d6000fd5b505050506040513d601f19601f82011682018060405250612cc59190810190613b75565b9092509050612cda818663ffffffff61315816565b90508115612cf957612cf2838263ffffffff6130db16565b9250612d0c565b612d09838263ffffffff61302c16565b92505b6040518060600160405280612d2042613374565b63ffffffff168152602001846020015115158152602001612d44856000015161339a565b6001600160801b0390811690915281516009805460208501516040860151909416650100000000000274ffffffffffffffffffffffffffffffff0000000000199415156401000000000264ff000000001963ffffffff90951663ffffffff199093169290921793909316179290921617905595505050505b7f995e61c355733308eab39a59e1e1ac167274cdd1ad707fe4d13e127a01076428612de6846133bf565b604051612df39190614736565b60405180910390a15060408051606081018252918252600a546020830152810191909152905090565b9055565b6000815111612e415760405162461bcd60e51b815260040161044d90614873565b600081600081518110612e5057fe5b602002602001015190506000600190505b82518110156124b0576000838281518110612e7857fe5b60200260200101519050826001600160a01b0316816001600160a01b031611612eb35760405162461bcd60e51b815260040161044d906148f3565b9150600101612e61565b6060600084519050606081604051908082528060200260200182016040528015612f0157816020015b612eee61350b565b815260200190600190039081612ee65790505b50905060005b82811015612f7357612f5488888381518110612f1f57fe5b6020026020010151888481518110612f3357fe5b6020026020010151888581518110612f4757fe5b6020026020010151612790565b828281518110612f6057fe5b6020908102919091010152600101612f07565b509695505050505050565b612f8661350b565b604051806080016040528083600001511515815260200183602001511515815260200183604001516001600160781b0316815260200183606001516001600160781b03168152509050919050565b612fdc613583565b612fe58361344f565b9050612ff7818363ffffffff61302c16565b90506124b0838263ffffffff61348616565b613011613583565b61301a8361344f565b9050612ff7818363ffffffff6130db16565b613034613583565b826020015161307057604051806040016040528061305f85600001518561320790919063ffffffff16565b815260006020909101529050610af0565b82518210156130a8576040805180820190915283518190613097908563ffffffff61235b16565b815260016020909101529050610af0565b60405180604001604052806130ca85600001518561235b90919063ffffffff16565b815260006020909101529392505050565b6130e3613583565b82602001511561310f57604051806040016040528061309785600001518561320790919063ffffffff16565b825182111561313a57604051806040016040528061309785600001518561235b90919063ffffffff16565b60408051808201909152835181906130ca908563ffffffff61235b16565b6000611482670de0b6b3a7640000610674858563ffffffff6131cd16565b6000821580613183575081155b1561319057506000610af0565b61148260016131c1670de0b6b3a7640000610674836131b5898963ffffffff6131cd16565b9063ffffffff61235b16565b9063ffffffff61320716565b6000826131dc57506000610af0565b828202828482816131e957fe5b04146114825760405162461bcd60e51b815260040161044d90614843565b6000828201838110156114825760405162461bcd60e51b815260040161044d906147a3565b600081848411156132505760405162461bcd60e51b815260040161044d9190614752565b505050900390565b600081836132795760405162461bcd60e51b815260040161044d9190614752565b50600083858161328557fe5b0495945050505050565b6132a1826001600160a01b03166134ac565b6132bd5760405162461bcd60e51b815260040161044d906148e3565b60006060836001600160a01b0316836040516132d99190614580565b6000604051808303816000865af19150503d8060008114613316576040519150601f19603f3d011682016040523d82523d6000602084013e61331b565b606091505b50915091508161333d5760405162461bcd60e51b815260040161044d906147f3565b805115612a6257808060200190516133589190810190613b57565b612a625760405162461bcd60e51b815260040161044d906148c3565b600064010000000082106124265760405162461bcd60e51b815260040161044d90614883565b6000600160801b82106124265760405162461bcd60e51b815260040161044d906147e3565b6000806088836000015163ffffffff16901b83602001516133e15760006133e7565b600160801b5b60408501516001600160801b03161717915050919050565b613407613583565b50604080518082018252908201516001600160781b0316815290511515602082015290565b8051613437906123f5565b6001600160781b031660408301526020015115159052565b613457613583565b604051806040016040528083606001516001600160781b03168152602001836020015115158152509050919050565b8051613491906123f5565b6001600160781b031660608301526020908101511515910152565b6000813f7fc5d2460186f7233c927e7db2dcc703c0e500b653ca82273b7bfad8045d85a470818114801590612a36575050151592915050565b60405180606001604052806000815260200160008152602001613506613532565b905290565b60408051608081018252600080825260208201819052918101829052606081019190915290565b604080516060810182526000808252602082018190529181019190915290565b6040518060800160405280600081526020016000815260200160006001600160a01b03168152602001606081525090565b604080518082019091526000808252602082015290565b8035610af081614a52565b600082601f8301126135b657600080fd5b81356135c96135c482614954565b61492d565b915081818352602084019350602081019050838560208402820111156135ee57600080fd5b60005b8381101561361a5781613604888261359a565b84525060209283019291909101906001016135f1565b5050505092915050565b600082601f83011261363557600080fd5b81356136436135c482614954565b9150818183526020840193506020810190508385602084028201111561366857600080fd5b60005b8381101561361a578161367e8882613761565b845250602092830192919091019060010161366b565b600082601f8301126136a557600080fd5b81356136b36135c482614954565b81815260209384019390925082018360005b8381101561361a57813586016136db88826137d1565b84525060209283019291909101906001016136c5565b600082601f83011261370257600080fd5b81356137106135c482614954565b9150818183526020840193506020810190508385602084028201111561373557600080fd5b60005b8381101561361a578161374b88826138bb565b8452506020928301929190910190600101613738565b8035610af081614a69565b8051610af081614a69565b8051610af081614a72565b600082601f83011261379357600080fd5b81356137a16135c482614975565b915080825260208301602083018583830111156137bd57600080fd5b6137c8838284614a10565b50505092915050565b6000608082840312156137e357600080fd5b6137ed608061492d565b905060006137fb84846138bb565b825250602061380c848483016138bb565b60208301525060406138208482850161359a565b604083015250606082013567ffffffffffffffff81111561384057600080fd5b61384c84828501613782565b60608301525092915050565b60006080828403121561386a57600080fd5b613874608061492d565b905060006138828484613777565b825250602061389384848301613777565b60208301525060406138a78482850161376c565b604083015250606061384c84828501613777565b8035610af081614a72565b6000602082840312156138d857600080fd5b6000612a36848461359a565b600080604083850312156138f757600080fd5b6000613903858561359a565b92505060206139148582860161359a565b9150509250929050565b6000806000806080858703121561393457600080fd5b6000613940878761359a565b94505060206139518782880161359a565b93505060406139628782880161359a565b9250506060613973878288016138bb565b91505092959194509250565b60008060006060848603121561399457600080fd5b60006139a0868661359a565b93505060206139b18682870161359a565b92505060406139c2868287016138bb565b9150509250925092565b60008060008060008060c087890312156139e557600080fd5b60006139f1898961359a565b9650506020613a0289828a0161359a565b9550506040613a1389828a016138bb565b9450506060613a2489828a016138bb565b9350506080613a3589828a016138bb565b92505060a0613a4689828a01613761565b9150509295509295509295565b60008060408385031215613a6657600080fd5b6000613a72858561359a565b925050602061391485828601613761565b600080600080600060a08688031215613a9b57600080fd5b853567ffffffffffffffff811115613ab257600080fd5b613abe888289016135a5565b955050602086013567ffffffffffffffff811115613adb57600080fd5b613ae788828901613694565b945050604086013567ffffffffffffffff811115613b0457600080fd5b613b10888289016136f1565b935050606086013567ffffffffffffffff811115613b2d57600080fd5b613b3988828901613624565b9250506080613b4a888289016138bb565b9150509295509295909350565b600060208284031215613b6957600080fd5b6000612a36848461376c565b60008060408385031215613b8857600080fd5b6000613b94858561376c565b925050602061391485828601613777565b600060808284031215613bb757600080fd5b6000612a368484613858565b600060208284031215613bd557600080fd5b6000612a3684846138bb565b600060208284031215613bf357600080fd5b6000612a368484613777565b60008060408385031215613c1257600080fd5b6000613c1e85856138bb565b9250506020613914858286016138bb565b613c38816149ef565b82525050565b613c38816149af565b613c38816149ba565b613c38816149bf565b6000613c648261499d565b613c6e81856149aa565b9350613c7e818560208601614a1c565b9290920192915050565b6000613c938261499d565b613c9d81856149a1565b9350613cad818560208601614a1c565b613cb681614a48565b9093019392505050565b613c38816149fa565b6000613cd6601b836149aa565b7f61786f722e50657270657475616c56312e696e697469616c697a6500000000008152601b0192915050565b6000613d0f602b836149a1565b7f73656e64657220646f6573206e6f742068617665207065726d697373696f6e2081527f746f207769746864726177000000000000000000000000000000000000000000602082015260400192915050565b6000613d6e6032836149a1565b7f4f7261636c65207072696365206973206c657373207468616e2074686520707281527f6f7669646564206c6f77657220626f756e640000000000000000000000000000602082015260400192915050565b6000613dcd602f836149a1565b7f54686520636f6c6c61746572616c20726571756972656d656e742063616e6e6f81527f7420626520756e64657220313030250000000000000000000000000000000000602082015260400192915050565b6000613e2c6026836149a1565b7f4f6e6c79207065726d697474656420647572696e672066696e616c207365747481527f6c656d656e740000000000000000000000000000000000000000000000000000602082015260400192915050565b6000613e8b601b836149a1565b7f536166654d6174683a206164646974696f6e206f766572666c6f770000000000815260200192915050565b6000613ec4601d836149a1565b7f747261646572206973206e6f7420676c6f62616c206f70657261746f72000000815260200192915050565b6000613efd6027836149a1565b7f53616665436173743a2076616c756520646f65736e27742066697420696e203181527f3230206269747300000000000000000000000000000000000000000000000000602082015260400192915050565b6000613f5c6021836149a1565b7f6f6e6c7920676c6f62616c206f70657261746f722063616e20776974686472618152607760f81b602082015260400192915050565b6000613f9f6027836149a1565b7f53616665436173743a2076616c756520646f65736e27742066697420696e203181527f3238206269747300000000000000000000000000000000000000000000000000602082015260400192915050565b6000613ffe6020836149a1565b7f5361666545524332303a206c6f772d6c6576656c2063616c6c206661696c6564815260200192915050565b6000614037602a836149a1565b7f4f7261636c6520707269636520726571756573746572206e6f7420676c6f626181527f6c206f70657261746f7200000000000000000000000000000000000000000000602082015260400192915050565b6000614096601e836149a1565b7f41646d696e61626c653a2063616c6c6572206973206e6f742061646d696e0000815260200192915050565b60006140cf6025836149a1565b7f4e6f74207065726d697474656420647572696e672066696e616c20736574746c81527f656d656e74000000000000000000000000000000000000000000000000000000602082015260400192915050565b600061412e601f836149a1565b7f50657270657475616c563120616c726561647920696e697469616c697a656400815260200192915050565b60006141676021836149a1565b7f536166654d6174683a206d756c7469706c69636174696f6e206f766572666c6f8152607760f81b602082015260400192915050565b60006141aa6025836149a1565b7f4e6577206f7261636c652063616e6e6f742072657475726e2061207a65726f2081527f7072696365000000000000000000000000000000000000000000000000000000602082015260400192915050565b6000614209600f836149a1565b7f63616e6e6f742077697468647261770000000000000000000000000000000000815260200192915050565b60006142426022836149a1565b7f4163636f756e7473206d7573742068617665206e6f6e2d7a65726f206c656e678152610e8d60f31b602082015260400192915050565b60006142866026836149a1565b7f53616665436173743a2076616c756520646f65736e27742066697420696e203381527f3220626974730000000000000000000000000000000000000000000000000000602082015260400192915050565b60006142e56029836149a1565b7f696e73756666696369656e742062616c616e636520746f20636f76657220667581527f6e64696e67206665650000000000000000000000000000000000000000000000602082015260400192915050565b6000614344601a836149a1565b7f6163636f756e74206e6f7420636f6c6c61746572616c697a6564000000000000815260200192915050565b600061437d6035836149a1565b7f4f7261636c652070726963652069732067726561746572207468616e2074686581527f2070726f766964656420757070657220626f756e640000000000000000000000602082015260400192915050565b60006143dc602a836149a1565b7f5361666545524332303a204552433230206f7065726174696f6e20646964206e81527f6f74207375636365656400000000000000000000000000000000000000000000602082015260400192915050565b600061443b601f836149a1565b7f5265656e7472616e637947756172643a207265656e7472616e742063616c6c00815260200192915050565b6000614474601f836149a1565b7f5361666545524332303a2063616c6c20746f206e6f6e2d636f6e747261637400815260200192915050565b60006144ad6022836149a1565b7f4163636f756e7473206d75737420626520736f7274656420616e6420756e6971815261756560f01b602082015260400192915050565b805160808301906144f58482613c47565b5060208201516145086020850182613c47565b50604082015161451b6040850182614565565b506060820151612a626060850182614565565b8051606083019061453f8482614577565b5060208201516145526020850182613c47565b506040820151612a62604085018261456e565b613c38816149c2565b613c38816149ce565b613c38816149e6565b60006114828284613c59565b6000610af082613cc9565b60208101610af08284613c3e565b60c081016145b38289613c2f565b6145c06020830188613c3e565b6145cd6040830187613c3e565b6145da6060830186613c50565b81810360808301526145ec8185613c88565b90506145fb60a0830184613c50565b979650505050505050565b606081016146148286613c3e565b6146216020830185613c3e565b612a366040830184613c50565b6040810161463c8285613c3e565b6114826020830184613c47565b604081016146578285613c3e565b6114826020830184613c50565b60a081016146728288613c3e565b61467f6020830187613c50565b61468c6040830186613c47565b6146996060830185613c50565b6146a66080830184613c50565b9695505050505050565b606081016146be8286613c3e565b6146216020830185613c50565b60c081016146d98289613c3e565b6146e66020830188613c50565b6146f36040830187613c50565b6147006060830186613c47565b61470d6080830185613c50565b6145fb60a0830184613c50565b60208101610af08284613c47565b606081016146be8286613c47565b60208101610af08284613c50565b60208101610af08284613cc0565b602080825281016114828184613c88565b60208082528101610af081613d02565b60208082528101610af081613d61565b60208082528101610af081613dc0565b60208082528101610af081613e1f565b60208082528101610af081613e7e565b60208082528101610af081613eb7565b60208082528101610af081613ef0565b60208082528101610af081613f4f565b60208082528101610af081613f92565b60208082528101610af081613ff1565b60208082528101610af08161402a565b60208082528101610af081614089565b60208082528101610af0816140c2565b60208082528101610af081614121565b60208082528101610af08161415a565b60208082528101610af08161419d565b60208082528101610af0816141fc565b60208082528101610af081614235565b60208082528101610af081614279565b60208082528101610af0816142d8565b60208082528101610af081614337565b60208082528101610af081614370565b60208082528101610af0816143cf565b60208082528101610af08161442e565b60208082528101610af081614467565b60208082528101610af0816144a0565b60808101610af082846144e4565b60608101610af0828461452e565b604081016146578285613c50565b60405181810167ffffffffffffffff8111828210171561494c57600080fd5b604052919050565b600067ffffffffffffffff82111561496b57600080fd5b5060209081020190565b600067ffffffffffffffff82111561498c57600080fd5b506020601f91909101601f19160190565b5190565b90815260200190565b919050565b6000610af0826149da565b151590565b90565b6001600160781b031690565b6001600160801b031690565b6001600160a01b031690565b63ffffffff1690565b6000610af082614a05565b6000610af0826149bf565b6000610af0826149af565b82818337506000910152565b60005b83811015614a37578181015183820152602001614a1f565b83811115612a625750506000910152565b601f01601f191690565b614a5b816149af565b8114614a6657600080fd5b50565b614a5b816149ba565b614a5b816149bf56fea365627a7a72315820bcd2738b6843e2947befab333d9afa15fb25f8bae7c1867fa720e8c5ce7e57a26c6578706572696d656e74616cf564736f6c63430005100040",
  "devdoc": {
    "author": "axor",
    "details": "Main perpetual market implementation contract that inherits from other contracts.",
    "methods": {
      "deposit(address,address,uint256,uint256,uint256,bool)": {
        "details": "Emits LogIndex, LogAccountSettled, and LogDeposit events.",
        "params": {
          "account": "The account for which to credit the deposit.",
          "amount": "the amount of tokens to deposit."
        }
      },
      "enableFinalSettlement(uint256,uint256)": {
        "details": "Must be called by the PerpetualV1 admin. The current result of the price oracle must be between the two bounds supplied. Emits the LogFinalSettlementEnabled event.",
        "params": {
          "priceLowerBound": "The lower-bound (inclusive) of the acceptable price range.",
          "priceUpperBound": "The upper-bound (inclusive) of the acceptable price range."
        }
      },
      "getAccountBalance(address)": {
        "params": {
          "account": "The address of the account to query the balances of."
        },
        "return": "The balances of the account."
      },
      "getAccountIndex(address)": {
        "params": {
          "account": "The address of the account to query the index of."
        },
        "return": "The index of the account."
      },
      "getAdmin()": {
        "return": "The EIP-1967 proxy admin"
      },
      "getFinalSettlementEnabled()": {
        "return": "True if final-settlement was enabled, false otherwise."
      },
      "getFunderContract()": {
        "return": "The address of the funder contract."
      },
      "getGlobalIndex()": {
        "return": "The most recently cached global index."
      },
      "getIsGlobalOperator(address)": {
        "params": {
          "operator": "The address of the operator to query the status of."
        },
        "return": "True if the address is a global operator, false otherwise."
      },
      "getIsLocalOperator(address,address)": {
        "params": {
          "account": "The account to query the operator for.",
          "operator": "The address of the operator to query the status of."
        },
        "return": "True if the operator is a local operator of the account, false otherwise."
      },
      "getMinCollateral()": {
        "return": "The minimum-acceptable collateralization ratio, returned as a fixed-point number with 18 decimals of precision."
      },
      "getOracleContract()": {
        "return": "The address of the price oracle contract."
      },
      "getOraclePrice()": {
        "details": "Only able to be called by global operators.",
        "return": "The price returned by the current price oracle."
      },
      "getTokenContract()": {
        "return": "The address of the ERC20 token."
      },
      "hasAccountPermissions(address,address)": {
        "params": {
          "account": "The account to query.",
          "operator": "The address to query."
        },
        "return": "True if the operator has permission to operate the account,                  and false otherwise."
      },
      "initializeV1(address,address,address,uint256)": {
        "details": "Once-only initializer function that replaces the constructor since this contract is proxied. Uses a non-colliding storage slot to store if this version has been initialized.Can only be called once and can only be called by the admin of this contract.",
        "params": {
          "funder": "The address of the funder contract.",
          "minCollateral": "The minimum allowed initial collateralization percentage.",
          "oracle": "The address of the price oracle contract.",
          "token": "The address of the token to use for margin-deposits."
        }
      },
      "requestWithdraw(address,address)": {
        "details": "Emits LogIndex, LogAccountSettled, and LogWithdraw events.",
        "params": {
          "account": "The account for which to debit the withdrawal.",
          "destination": "The address to which the tokens are transferred."
        }
      },
      "setFunder(address)": {
        "details": "Must be called by the PerpetualV1 admin. Emits the LogSetFunder event.",
        "params": {
          "funder": "The address of the new funder contract."
        }
      },
      "setGlobalOperator(address,bool)": {
        "details": "Must be called by the PerpetualV1 admin. Emits the LogSetGlobalOperator event.",
        "params": {
          "approved": "True if approved, false if disapproved.",
          "operator": "The address for which to enable or disable global operator privileges."
        }
      },
      "setLocalOperator(address,bool)": {
        "details": "Emits the LogSetLocalOperator event.",
        "params": {
          "approved": "True for approval, false for disapproval.",
          "operator": "The account that is approved or disapproved."
        }
      },
      "setMinCollateral(uint256)": {
        "details": "Must be called by the PerpetualV1 admin. Emits the LogSetMinCollateral event.",
        "params": {
          "minCollateral": "The new value of the minimum initial collateralization percentage,                       as a fixed-point number with 18 decimals."
        }
      },
      "setOracle(address)": {
        "details": "Must be called by the PerpetualV1 admin. Emits the LogSetOracle event.",
        "params": {
          "oracle": "The address of the new price oracle contract."
        }
      },
      "setWithdrawDelayBlock(uint256)": {
        "details": "Must be called by the PerpetualV1 admin.",
        "params": {
          "withdrawDelayBlock": "The new value of the number of blocks required to withdraw funds."
        }
      },
      "trade(address[],(uint256,uint256,address,bytes)[],uint256[],bool[],uint256)": {
        "details": "Emits the LogIndex event, one LogAccountSettled event for each account in `accounts`, and the LogTrade event for each trade in `trades`.",
        "params": {
          "accounts": "The sorted list of accounts that are involved in trades.",
          "trades": "The list of trades to execute in-order."
        }
      },
      "userWithdraw(address,address,uint256)": {
        "details": "Emits LogIndex, LogAccountSettled, and LogWithdraw events.",
        "params": {
          "account": "The account for which to debit the withdrawal.",
          "amount": "The amount of tokens to withdraw.",
          "destination": "The address to which the tokens are transferred."
        }
      },
      "withdraw(address,address,uint256,uint256,uint256,bool)": {
        "details": "Emits LogIndex, LogAccountSettled, and LogWithdraw events.",
        "params": {
          "account": "The account for which to debit the withdrawal.",
          "amount": "The amount of tokens to withdraw.",
          "destination": "The address to which the tokens are transferred.",
          "price": "The oracle price at the time of the withdrawal."
        }
      },
      "withdrawFinalSettlement()": {
        "details": "Emits the LogAccountSettled and LogWithdrawFinalSettlement events."
      }
    },
    "title": "PerpetualV1"
  },
  "userdoc": {
    "methods": {
      "deposit(address,address,uint256,uint256,uint256,bool)": {
        "notice": "Deposit some amount of margin tokens from the msg.sender into an account."
      },
      "enableFinalSettlement(uint256,uint256)": {
        "notice": "Enables final settlement if the oracle price is between the provided bounds."
      },
      "getAccountBalance(address)": {
        "notice": "Get the balance of an account, without accounting for changes in the index."
      },
      "getAccountIndex(address)": {
        "notice": "Gets the most recently cached index of an account."
      },
      "getFinalSettlementEnabled()": {
        "notice": "Gets the status of whether final-settlement was initiated by the Admin."
      },
      "getFunderContract()": {
        "notice": "Gets the current address of the funder contract."
      },
      "getGlobalIndex()": {
        "notice": "Gets the most recently cached global index."
      },
      "getIsGlobalOperator(address)": {
        "notice": "Gets the global operator status of an address."
      },
      "getIsLocalOperator(address,address)": {
        "notice": "Gets the local operator status of an operator for a particular account."
      },
      "getMinCollateral()": {
        "notice": "Gets minimum collateralization ratio of the protocol."
      },
      "getOracleContract()": {
        "notice": "Gets the current address of the price oracle contract."
      },
      "getOraclePrice()": {
        "notice": "Gets the price returned by the oracle."
      },
      "getTokenContract()": {
        "notice": "Gets the address of the ERC20 margin contract used for margin deposits."
      },
      "hasAccountPermissions(address,address)": {
        "notice": "Gets whether an address has permissions to operate an account."
      },
      "requestWithdraw(address,address)": {
        "notice": "Set Withdraw acction."
      },
      "setFunder(address)": {
        "notice": "Sets a new funder contract."
      },
      "setGlobalOperator(address,bool)": {
        "notice": "Add or remove a Global Operator address."
      },
      "setLocalOperator(address,bool)": {
        "notice": "Grants or revokes permission for another account to perform certain actions on behalf of the sender."
      },
      "setMinCollateral(uint256)": {
        "notice": "Sets a new value for the minimum collateralization percentage."
      },
      "setOracle(address)": {
        "notice": "Sets a new price oracle contract."
      },
      "setWithdrawDelayBlock(uint256)": {
        "notice": "Sets a new value for the number of blocks required to withdraw funds."
      },
      "trade(address[],(uint256,uint256,address,bytes)[],uint256[],bool[],uint256)": {
        "notice": "Submits one or more trades between any number of accounts."
      },
      "userWithdraw(address,address,uint256)": {
        "notice": "Withdraw some amount of margin tokens from an account to a destination address."
      },
      "withdraw(address,address,uint256,uint256,uint256,bool)": {
        "notice": "Withdraw some amount of margin tokens from an account to a destination address."
      },
      "withdrawFinalSettlement()": {
        "notice": "Withdraw the number of margin tokens equal to the value of the account at the time that final settlement occurred."
      }
    },
    "notice": "A market for a perpetual contract, a financial derivative which may be traded on margin and which aims to closely track the spot price of an underlying asset. The underlying asset is specified via the price oracle which reports its spot price. Tethering of the perpetual market price is supported by a funding oracle which governs funding payments between longs and shorts."
  },
  "storageLayout": {
    "storage": [
      {
        "astId": 1537,
        "contract": "contracts/protocol/v1/PerpetualV1.sol:PerpetualV1",
        "label": "_STATUS_",
        "offset": 0,
        "slot": "0",
        "type": "t_uint256"
      },
      {
        "astId": 3960,
        "contract": "contracts/protocol/v1/PerpetualV1.sol:PerpetualV1",
        "label": "_BALANCES_",
        "offset": 0,
        "slot": "1",
        "type": "t_mapping(t_address,t_struct(Balance)5311_storage)"
      },
      {
        "astId": 3964,
        "contract": "contracts/protocol/v1/PerpetualV1.sol:PerpetualV1",
        "label": "_LOCAL_INDEXES_",
        "offset": 0,
        "slot": "2",
        "type": "t_mapping(t_address,t_struct(Index)5302_storage)"
      },
      {
        "astId": 3968,
        "contract": "contracts/protocol/v1/PerpetualV1.sol:PerpetualV1",
        "label": "_GLOBAL_OPERATORS_",
        "offset": 0,
        "slot": "3",
        "type": "t_mapping(t_address,t_bool)"
      },
      {
        "astId": 3972,
        "contract": "contracts/protocol/v1/PerpetualV1.sol:PerpetualV1",
        "label": "_WITHDRAW_DELAY_",
        "offset": 0,
        "slot": "4",
        "type": "t_mapping(t_address,t_uint256)"
      },
      {
        "astId": 3978,
        "contract": "contracts/protocol/v1/PerpetualV1.sol:PerpetualV1",
        "label": "_LOCAL_OPERATORS_",
        "offset": 0,
        "slot": "5",
        "type": "t_mapping(t_address,t_mapping(t_address,t_bool))"
      },
      {
        "astId": 3980,
        "contract": "contracts/protocol/v1/PerpetualV1.sol:PerpetualV1",
        "label": "_TOKEN_",
        "offset": 0,
        "slot": "6",
        "type": "t_address"
      },
      {
        "astId": 3982,
        "contract": "contracts/protocol/v1/PerpetualV1.sol:PerpetualV1",
        "label": "_ORACLE_",
        "offset": 0,
        "slot": "7",
        "type": "t_address"
      },
      {
        "astId": 3984,
        "contract": "contracts/protocol/v1/PerpetualV1.sol:PerpetualV1",
        "label": "_FUNDER_",
        "offset": 0,
        "slot": "8",
        "type": "t_address"
      },
      {
        "astId": 3986,
        "contract": "contracts/protocol/v1/PerpetualV1.sol:PerpetualV1",
        "label": "_GLOBAL_INDEX_",
        "offset": 0,
        "slot": "9",
        "type": "t_struct(Index)5302_storage"
      },
      {
        "astId": 3988,
        "contract": "contracts/protocol/v1/PerpetualV1.sol:PerpetualV1",
        "label": "_MIN_COLLATERAL_",
        "offset": 0,
        "slot": "10",
        "type": "t_uint256"
      },
      {
        "astId": 3990,
        "contract": "contracts/protocol/v1/PerpetualV1.sol:PerpetualV1",
        "label": "_FINAL_SETTLEMENT_ENABLED_",
        "offset": 0,
        "slot": "11",
        "type": "t_bool"
      },
      {
        "astId": 3992,
        "contract": "contracts/protocol/v1/PerpetualV1.sol:PerpetualV1",
        "label": "_FINAL_SETTLEMENT_PRICE_",
        "offset": 0,
        "slot": "12",
        "type": "t_uint256"
      },
      {
        "astId": 3994,
        "contract": "contracts/protocol/v1/PerpetualV1.sol:PerpetualV1",
        "label": "_WITHDRAW_DELAY_BLOCK_",
        "offset": 0,
        "slot": "13",
        "type": "t_uint256"
      }
    ],
    "types": {
      "t_address": {
        "encoding": "inplace",
        "label": "address",
        "numberOfBytes": "20"
      },
      "t_bool": {
        "encoding": "inplace",
        "label": "bool",
        "numberOfBytes": "1"
      },
      "t_mapping(t_address,t_bool)": {
        "encoding": "mapping",
        "key": "t_address",
        "label": "mapping(address => bool)",
        "numberOfBytes": "32",
        "value": "t_bool"
      },
      "t_mapping(t_address,t_mapping(t_address,t_bool))": {
        "encoding": "mapping",
        "key": "t_address",
        "label": "mapping(address => mapping(address => bool))",
        "numberOfBytes": "32",
        "value": "t_mapping(t_address,t_bool)"
      },
      "t_mapping(t_address,t_struct(Balance)5311_storage)": {
        "encoding": "mapping",
        "key": "t_address",
        "label": "mapping(address => struct P1Types.Balance)",
        "numberOfBytes": "32",
        "value": "t_struct(Balance)5311_storage"
      },
      "t_mapping(t_address,t_struct(Index)5302_storage)": {
        "encoding": "mapping",
        "key": "t_address",
        "label": "mapping(address => struct P1Types.Index)",
        "numberOfBytes": "32",
        "value": "t_struct(Index)5302_storage"
      },
      "t_mapping(t_address,t_uint256)": {
        "encoding": "mapping",
        "key": "t_address",
        "label": "mapping(address => uint256)",
        "numberOfBytes": "32",
        "value": "t_uint256"
      },
      "t_struct(Balance)5311_storage": {
        "encoding": "inplace",
        "label": "struct P1Types.Balance",
        "members": [
          {
            "astId": 5304,
            "contract": "contracts/protocol/v1/PerpetualV1.sol:PerpetualV1",
            "label": "marginIsPositive",
            "offset": 0,
            "slot": "0",
            "type": "t_bool"
          },
          {
            "astId": 5306,
            "contract": "contracts/protocol/v1/PerpetualV1.sol:PerpetualV1",
            "label": "positionIsPositive",
            "offset": 1,
            "slot": "0",
            "type": "t_bool"
          },
          {
            "astId": 5308,
            "contract": "contracts/protocol/v1/PerpetualV1.sol:PerpetualV1",
            "label": "margin",
            "offset": 2,
            "slot": "0",
            "type": "t_uint120"
          },
          {
            "astId": 5310,
            "contract": "contracts/protocol/v1/PerpetualV1.sol:PerpetualV1",
            "label": "position",
            "offset": 17,
            "slot": "0",
            "type": "t_uint120"
          }
        ],
        "numberOfBytes": "32"
      },
      "t_struct(Index)5302_storage": {
        "encoding": "inplace",
        "label": "struct P1Types.Index",
        "members": [
          {
            "astId": 5297,
            "contract": "contracts/protocol/v1/PerpetualV1.sol:PerpetualV1",
            "label": "timestamp",
            "offset": 0,
            "slot": "0",
            "type": "t_uint32"
          },
          {
            "astId": 5299,
            "contract": "contracts/protocol/v1/PerpetualV1.sol:PerpetualV1",
            "label": "isPositive",
            "offset": 4,
            "slot": "0",
            "type": "t_bool"
          },
          {
            "astId": 5301,
            "contract": "contracts/protocol/v1/PerpetualV1.sol:PerpetualV1",
            "label": "value",
            "offset": 5,
            "slot": "0",
            "type": "t_uint128"
          }
        ],
        "numberOfBytes": "32"
      },
      "t_uint120": {
        "encoding": "inplace",
        "label": "uint120",
        "numberOfBytes": "15"
      },
      "t_uint128": {
        "encoding": "inplace",
        "label": "uint128",
        "numberOfBytes": "16"
      },
      "t_uint256": {
        "encoding": "inplace",
        "label": "uint256",
        "numberOfBytes": "32"
      },
      "t_uint32": {
        "encoding": "inplace",
        "label": "uint32",
        "numberOfBytes": "4"
      }
    }
  }
}