{
  "address": "0xe538F1872CedEEd1c83CcB7FD34AAA898b17e25e",
  "abi": [
    {
      "constant": true,
      "inputs": [],
      "name": "TRADER_FLAG_RESULT_2",
      "outputs": [
        {
          "internalType": "bytes32",
          "name": "",
          "type": "bytes32"
        }
      ],
      "payable": false,
      "stateMutability": "view",
      "type": "function"
    },
    {
      "constant": true,
      "inputs": [],
      "name": "_FUNDING_",
      "outputs": [
        {
          "internalType": "uint256",
          "name": "",
          "type": "uint256"
        }
      ],
      "payable": false,
      "stateMutability": "view",
      "type": "function"
    },
    {
      "constant": true,
      "inputs": [],
      "name": "_FUNDING_IS_POSITIVE_",
      "outputs": [
        {
          "internalType": "bool",
          "name": "",
          "type": "bool"
        }
      ],
      "payable": false,
      "stateMutability": "view",
      "type": "function"
    },
    {
      "constant": true,
      "inputs": [],
      "name": "_PRICE_",
      "outputs": [
        {
          "internalType": "uint256",
          "name": "",
          "type": "uint256"
        }
      ],
      "payable": false,
      "stateMutability": "view",
      "type": "function"
    },
    {
      "constant": true,
      "inputs": [],
      "name": "_TRADE_RESULT_",
      "outputs": [
        {
          "internalType": "uint256",
          "name": "marginAmount",
          "type": "uint256"
        },
        {
          "internalType": "uint256",
          "name": "positionAmount",
          "type": "uint256"
        },
        {
          "internalType": "bool",
          "name": "isBuy",
          "type": "bool"
        },
        {
          "internalType": "bytes32",
          "name": "traderFlags",
          "type": "bytes32"
        }
      ],
      "payable": false,
      "stateMutability": "view",
      "type": "function"
    },
    {
      "constant": true,
      "inputs": [],
      "name": "_TRADE_RESULT_2_",
      "outputs": [
        {
          "internalType": "uint256",
          "name": "marginAmount",
          "type": "uint256"
        },
        {
          "internalType": "uint256",
          "name": "positionAmount",
          "type": "uint256"
        },
        {
          "internalType": "bool",
          "name": "isBuy",
          "type": "bool"
        },
        {
          "internalType": "bytes32",
          "name": "traderFlags",
          "type": "bytes32"
        }
      ],
      "payable": false,
      "stateMutability": "view",
      "type": "function"
    },
    {
      "constant": true,
      "inputs": [
        {
          "internalType": "uint256",
          "name": "",
          "type": "uint256"
        }
      ],
      "name": "getFunding",
      "outputs": [
        {
          "internalType": "bool",
          "name": "",
          "type": "bool"
        },
        {
          "internalType": "uint256",
          "name": "",
          "type": "uint256"
        }
      ],
      "payable": false,
      "stateMutability": "view",
      "type": "function"
    },
    {
      "constant": true,
      "inputs": [],
      "name": "getPrice",
      "outputs": [
        {
          "internalType": "uint256",
          "name": "",
          "type": "uint256"
        }
      ],
      "payable": false,
      "stateMutability": "view",
      "type": "function"
    },
    {
      "constant": false,
      "inputs": [
        {
          "internalType": "bool",
          "name": "isPositive",
          "type": "bool"
        },
        {
          "internalType": "uint256",
          "name": "newFunding",
          "type": "uint256"
        }
      ],
      "name": "setFunding",
      "outputs": [],
      "payable": false,
      "stateMutability": "nonpayable",
      "type": "function"
    },
    {
      "constant": false,
      "inputs": [
        {
          "internalType": "uint256",
          "name": "newPrice",
          "type": "uint256"
        }
      ],
      "name": "setPrice",
      "outputs": [],
      "payable": false,
      "stateMutability": "nonpayable",
      "type": "function"
    },
    {
      "constant": false,
      "inputs": [
        {
          "internalType": "uint256",
          "name": "marginAmount",
          "type": "uint256"
        },
        {
          "internalType": "uint256",
          "name": "positionAmount",
          "type": "uint256"
        },
        {
          "internalType": "bool",
          "name": "isBuy",
          "type": "bool"
        },
        {
          "internalType": "bytes32",
          "name": "traderFlags",
          "type": "bytes32"
        }
      ],
      "name": "setSecondTradeResult",
      "outputs": [],
      "payable": false,
      "stateMutability": "nonpayable",
      "type": "function"
    },
    {
      "constant": false,
      "inputs": [
        {
          "internalType": "uint256",
          "name": "marginAmount",
          "type": "uint256"
        },
        {
          "internalType": "uint256",
          "name": "positionAmount",
          "type": "uint256"
        },
        {
          "internalType": "bool",
          "name": "isBuy",
          "type": "bool"
        },
        {
          "internalType": "bytes32",
          "name": "traderFlags",
          "type": "bytes32"
        }
      ],
      "name": "setTradeResult",
      "outputs": [],
      "payable": false,
      "stateMutability": "nonpayable",
      "type": "function"
    },
    {
      "constant": false,
      "inputs": [
        {
          "internalType": "address",
          "name": "",
          "type": "address"
        },
        {
          "internalType": "address",
          "name": "",
          "type": "address"
        },
        {
          "internalType": "address",
          "name": "",
          "type": "address"
        },
        {
          "internalType": "uint256",
          "name": "",
          "type": "uint256"
        },
        {
          "internalType": "bytes",
          "name": "",
          "type": "bytes"
        },
        {
          "internalType": "bytes32",
          "name": "traderFlags",
          "type": "bytes32"
        }
      ],
      "name": "trade",
      "outputs": [
        {
          "components": [
            {
              "internalType": "uint256",
              "name": "marginAmount",
              "type": "uint256"
            },
            {
              "internalType": "uint256",
              "name": "positionAmount",
              "type": "uint256"
            },
            {
              "internalType": "bool",
              "name": "isBuy",
              "type": "bool"
            },
            {
              "internalType": "bytes32",
              "name": "traderFlags",
              "type": "bytes32"
            }
          ],
          "internalType": "struct P1Types.TradeResult",
          "name": "",
          "type": "tuple"
        }
      ],
      "payable": false,
      "stateMutability": "nonpayable",
      "type": "function"
    }
  ],
  "transactionHash": "0x3e3c668eabf87c09a11731ab5a292a5f27bf63d1889c73902db932a4b5326938",
  "args": [],
  "numDeployments": 1,
  "solcInputHash": "7b375e8e8aa0fb10286da7ff3506a287",
  "bytecode": "0x60806040526000805460ff19166001908117825581905560025534801561002557600080fd5b506106e2806100356000396000f3fe608060405234801561001057600080fd5b50600436106100df5760003560e01c806391b7f5ed1161008c5780639f5cf46a116100665780639f5cf46a1461018f578063e41a054f14610197578063e53adbb2146101aa578063ebed4bd4146101bd576100df565b806391b7f5ed14610154578063970c2ba11461016757806398d5fdca14610187576100df565b80636d2c6021116100bd5780636d2c60211461012f57806375092a3014610137578063910fb0731461013f576100df565b8063495f9bff146100e45780634993cc3b1461010557806363a3d85f1461011a575b600080fd5b6100ec6101de565b6040516100fc949392919061060c565b60405180910390f35b61010d6101f3565b6040516100fc91906105f0565b61012d6101283660046104f7565b6101f9565b005b61010d61023c565b6100ec610242565b610147610257565b6040516100fc91906105c0565b61012d6101623660046104d1565b610260565b61017a6101753660046103f2565b610265565b6040516100fc91906105fe565b61010d6102e6565b61010d6102ec565b61012d6101a5366004610497565b6102f2565b61012d6101b83660046104f7565b610309565b6101d06101cb3660046104d1565b61034c565b6040516100fc9291906105ce565b60035460045460055460065460ff9091169084565b60015481565b604080516080810182528581526020810185905292151590830181905260609092018190526007939093556008919091556009805460ff19169091179055600a55565b60001981565b600754600854600954600a5460ff9091169084565b60005460ff1681565b600255565b61026d61035b565b6000198214156102ab5750604080516080810182526007548152600854602082015260095460ff16151591810191909152600a5460608201526102db565b50604080516080810182526003548152600454602082015260055460ff1615159181019190915260065460608201525b979650505050505050565b60025490565b60025481565b6000805460ff191692151592909217909155600155565b604080516080810182528581526020810185905292151590830181905260609092018190526003939093556004919091556005805460ff19169091179055600655565b5060005460015460ff90911691565b60408051608081018252600080825260208201819052918101829052606081019190915290565b803561038d81610676565b92915050565b803561038d8161068d565b803561038d81610696565b60008083601f8401126103bb57600080fd5b50813567ffffffffffffffff8111156103d357600080fd5b6020830191508360018202830111156103eb57600080fd5b9250929050565b600080600080600080600060c0888a03121561040d57600080fd5b60006104198a8a610382565b975050602061042a8a828b01610382565b965050604061043b8a828b01610382565b955050606061044c8a828b0161039e565b945050608088013567ffffffffffffffff81111561046957600080fd5b6104758a828b016103a9565b935093505060a06104888a828b0161039e565b91505092959891949750929550565b600080604083850312156104aa57600080fd5b60006104b68585610393565b92505060206104c78582860161039e565b9150509250929050565b6000602082840312156104e357600080fd5b60006104ef848461039e565b949350505050565b6000806000806080858703121561050d57600080fd5b6000610519878761039e565b945050602061052a8782880161039e565b935050604061053b87828801610393565b925050606061054c8782880161039e565b91505092959194509250565b61056181610655565b82525050565b6105618161065a565b805160808301906105818482610567565b5060208201516105946020850182610567565b5060408201516105a76040850182610558565b5060608201516105ba6060850182610567565b50505050565b6020810161038d8284610558565b604081016105dc8285610558565b6105e96020830184610567565b9392505050565b6020810161038d8284610567565b6080810161038d8284610570565b6080810161061a8287610567565b6106276020830186610567565b6106346040830185610558565b6106416060830184610567565b95945050505050565b600061038d8261065d565b151590565b90565b73ffffffffffffffffffffffffffffffffffffffff1690565b61067f8161064a565b811461068a57600080fd5b50565b61067f81610655565b61067f8161065a56fea365627a7a723158202e7e85acc1856fc8775a3b9f5a23d5825d770dd3b08693d23271d37ad4c95a476c6578706572696d656e74616cf564736f6c63430005100040",
  "devdoc": {
    "author": "axor",
    "methods": {},
    "title": "Test_P1Monolith"
  },
  "userdoc": {
    "methods": {
      "setSecondTradeResult(uint256,uint256,bool,bytes32)": {
        "notice": "Sets a second trade result which can be triggered by the trader flags of the first trade."
      }
    },
    "notice": "A second contract for testing the funder, oracle, and trader."
  },
  "storageLayout": {
    "storage": [
      {
        "astId": 8739,
        "contract": "contracts/test/v1/Test_P1Monolith.sol:Test_P1Monolith",
        "label": "_FUNDING_IS_POSITIVE_",
        "offset": 0,
        "slot": "0",
        "type": "t_bool"
      },
      {
        "astId": 8742,
        "contract": "contracts/test/v1/Test_P1Monolith.sol:Test_P1Monolith",
        "label": "_FUNDING_",
        "offset": 0,
        "slot": "1",
        "type": "t_uint256"
      },
      {
        "astId": 8799,
        "contract": "contracts/test/v1/Test_P1Monolith.sol:Test_P1Monolith",
        "label": "_PRICE_",
        "offset": 0,
        "slot": "2",
        "type": "t_uint256"
      },
      {
        "astId": 8829,
        "contract": "contracts/test/v1/Test_P1Monolith.sol:Test_P1Monolith",
        "label": "_TRADE_RESULT_",
        "offset": 0,
        "slot": "3",
        "type": "t_struct(TradeResult)5333_storage"
      },
      {
        "astId": 8831,
        "contract": "contracts/test/v1/Test_P1Monolith.sol:Test_P1Monolith",
        "label": "_TRADE_RESULT_2_",
        "offset": 0,
        "slot": "7",
        "type": "t_struct(TradeResult)5333_storage"
      }
    ],
    "types": {
      "t_bool": {
        "encoding": "inplace",
        "label": "bool",
        "numberOfBytes": "1"
      },
      "t_bytes32": {
        "encoding": "inplace",
        "label": "bytes32",
        "numberOfBytes": "32"
      },
      "t_struct(TradeResult)5333_storage": {
        "encoding": "inplace",
        "label": "struct P1Types.TradeResult",
        "members": [
          {
            "astId": 5326,
            "contract": "contracts/test/v1/Test_P1Monolith.sol:Test_P1Monolith",
            "label": "marginAmount",
            "offset": 0,
            "slot": "0",
            "type": "t_uint256"
          },
          {
            "astId": 5328,
            "contract": "contracts/test/v1/Test_P1Monolith.sol:Test_P1Monolith",
            "label": "positionAmount",
            "offset": 0,
            "slot": "1",
            "type": "t_uint256"
          },
          {
            "astId": 5330,
            "contract": "contracts/test/v1/Test_P1Monolith.sol:Test_P1Monolith",
            "label": "isBuy",
            "offset": 0,
            "slot": "2",
            "type": "t_bool"
          },
          {
            "astId": 5332,
            "contract": "contracts/test/v1/Test_P1Monolith.sol:Test_P1Monolith",
            "label": "traderFlags",
            "offset": 0,
            "slot": "3",
            "type": "t_bytes32"
          }
        ],
        "numberOfBytes": "128"
      },
      "t_uint256": {
        "encoding": "inplace",
        "label": "uint256",
        "numberOfBytes": "32"
      }
    }
  }
}