{
  "address": "0xd692DA87998E875F7D6188117D0c8DEc9C355c24",
  "abi": [
    {
      "constant": true,
      "inputs": [],
      "name": "_FUNDING_",
      "outputs": [
        {
          "internalType": "uint256",
          "name": "",
          "type": "uint256"
        }
      ],
      "payable": false,
      "stateMutability": "view",
      "type": "function"
    },
    {
      "constant": true,
      "inputs": [],
      "name": "_FUNDING_IS_POSITIVE_",
      "outputs": [
        {
          "internalType": "bool",
          "name": "",
          "type": "bool"
        }
      ],
      "payable": false,
      "stateMutability": "view",
      "type": "function"
    },
    {
      "constant": true,
      "inputs": [
        {
          "internalType": "uint256",
          "name": "",
          "type": "uint256"
        }
      ],
      "name": "getFunding",
      "outputs": [
        {
          "internalType": "bool",
          "name": "",
          "type": "bool"
        },
        {
          "internalType": "uint256",
          "name": "",
          "type": "uint256"
        }
      ],
      "payable": false,
      "stateMutability": "view",
      "type": "function"
    },
    {
      "constant": false,
      "inputs": [
        {
          "internalType": "bool",
          "name": "isPositive",
          "type": "bool"
        },
        {
          "internalType": "uint256",
          "name": "newFunding",
          "type": "uint256"
        }
      ],
      "name": "setFunding",
      "outputs": [],
      "payable": false,
      "stateMutability": "nonpayable",
      "type": "function"
    }
  ],
  "transactionHash": "0xa552964c610b8d2a98e91148f948e0e1a858150042361f3fed22b3f4f3b0f96e",
  "args": [],
  "numDeployments": 1,
  "solcInputHash": "db213bef23e2378c2985c2cd86541259",
  "bytecode": "0x60806040526000805460ff1916600190811782555534801561002057600080fd5b5061022c806100306000396000f3fe608060405234801561001057600080fd5b506004361061004c5760003560e01c80634993cc3b14610051578063910fb0731461006f578063e41a054f14610084578063ebed4bd414610099575b600080fd5b6100596100ba565b60405161006691906101b3565b60405180910390f35b6100776100c0565b6040516100669190610183565b61009761009236600461010b565b6100c9565b005b6100ac6100a7366004610145565b6100e0565b604051610066929190610191565b60015481565b60005460ff1681565b6000805460ff191692151592909217909155600155565b5060005460015460ff90911691565b80356100fa816101c9565b92915050565b80356100fa816101e0565b6000806040838503121561011e57600080fd5b600061012a85856100ef565b925050602061013b85828601610100565b9150509250929050565b60006020828403121561015757600080fd5b60006101638484610100565b949350505050565b610174816101c1565b82525050565b610174816101c6565b602081016100fa828461016b565b6040810161019f828561016b565b6101ac602083018461017a565b9392505050565b602081016100fa828461017a565b151590565b90565b6101d2816101c1565b81146101dd57600080fd5b50565b6101d2816101c656fea365627a7a723158202ea78d43c1be0aef43e3c1e24b890a3a3563dadadb90bdefabed76eefbeb09c16c6578706572696d656e74616cf564736f6c63430005100040",
  "devdoc": {
    "author": "axor",
    "methods": {},
    "title": "Test_P1Funder"
  },
  "userdoc": {
    "methods": {},
    "notice": "I_P1Funder implementation for testing."
  },
  "storageLayout": {
    "storage": [
      {
        "astId": 8656,
        "contract": "contracts/test/v1/Test_P1Funder.sol:Test_P1Funder",
        "label": "_FUNDING_IS_POSITIVE_",
        "offset": 0,
        "slot": "0",
        "type": "t_bool"
      },
      {
        "astId": 8659,
        "contract": "contracts/test/v1/Test_P1Funder.sol:Test_P1Funder",
        "label": "_FUNDING_",
        "offset": 0,
        "slot": "1",
        "type": "t_uint256"
      }
    ],
    "types": {
      "t_bool": {
        "encoding": "inplace",
        "label": "bool",
        "numberOfBytes": "1"
      },
      "t_uint256": {
        "encoding": "inplace",
        "label": "uint256",
        "numberOfBytes": "32"
      }
    }
  }
}