{
  "address": "0x231c55DFdfCDAE1456f4d184aDe1758e3dD3957A",
  "abi": [
    {
      "constant": true,
      "inputs": [],
      "name": "_ANSWER_",
      "outputs": [
        {
          "internalType": "int256",
          "name": "",
          "type": "int256"
        }
      ],
      "payable": false,
      "stateMutability": "view",
      "type": "function"
    },
    {
      "constant": true,
      "inputs": [],
      "name": "latestAnswer",
      "outputs": [
        {
          "internalType": "int256",
          "name": "",
          "type": "int256"
        }
      ],
      "payable": false,
      "stateMutability": "view",
      "type": "function"
    },
    {
      "constant": false,
      "inputs": [
        {
          "internalType": "int256",
          "name": "newAnswer",
          "type": "int256"
        }
      ],
      "name": "setAnswer",
      "outputs": [],
      "payable": false,
      "stateMutability": "nonpayable",
      "type": "function"
    }
  ],
  "transactionHash": "0x8efefb78226a26f2420369ea683a451a56ade5fe80d97aac3182b97011c420c3",
  "args": [],
  "numDeployments": 1,
  "solcInputHash": "d8a4bed0d8259721c6e731840c9f1c4e",
  "bytecode": "0x60806040526000805534801561001457600080fd5b50610128806100246000396000f3fe6080604052348015600f57600080fd5b5060043610603c5760003560e01c80633ad12a2214604157806350d25bcd14605b57806399213cd8146061575b600080fd5b60476072565b6040516052919060c2565b60405180910390f35b60476078565b6070606c3660046092565b607e565b005b60005481565b60005490565b600055565b8035608c8160d1565b92915050565b60006020828403121560a357600080fd5b600060ad84846083565b949350505050565b60bc8160ce565b82525050565b60208101608c828460b5565b90565b60d88160ce565b811460e257600080fd5b5056fea365627a7a723158204d6c9d0c1593cf7d3f95afc7cfe964354f03d5904d92816ddfad6809165725a76c6578706572696d656e74616cf564736f6c63430005100040",
  "devdoc": {
    "author": "axor * Chainlink Aggregator for testing",
    "methods": {},
    "title": "Test_ChainlinkAggregator"
  },
  "userdoc": {
    "methods": {}
  },
  "storageLayout": {
    "storage": [
      {
        "astId": 8317,
        "contract": "contracts/test/external/Test_ChainlinkAggregator.sol:Test_ChainlinkAggregator",
        "label": "_ANSWER_",
        "offset": 0,
        "slot": "0",
        "type": "t_int256"
      }
    ],
    "types": {
      "t_int256": {
        "encoding": "inplace",
        "label": "int256",
        "numberOfBytes": "32"
      }
    }
  }
}