{
  "address": "0xe80b3A283eDd11d25A09c51925f2aA56958b02E3",
  "abi": [
    {
      "inputs": [
        {
          "internalType": "address",
          "name": "perpetualV1",
          "type": "address"
        },
        {
          "internalType": "uint256",
          "name": "chainId",
          "type": "uint256"
        }
      ],
      "payable": false,
      "stateMutability": "nonpayable",
      "type": "constructor"
    },
    {
      "anonymous": false,
      "inputs": [
        {
          "indexed": true,
          "internalType": "address",
          "name": "maker",
          "type": "address"
        },
        {
          "indexed": false,
          "internalType": "bytes32",
          "name": "orderHash",
          "type": "bytes32"
        }
      ],
      "name": "LogOrderApproved",
      "type": "event"
    },
    {
      "anonymous": false,
      "inputs": [
        {
          "indexed": true,
          "internalType": "address",
          "name": "maker",
          "type": "address"
        },
        {
          "indexed": false,
          "internalType": "bytes32",
          "name": "orderHash",
          "type": "bytes32"
        }
      ],
      "name": "LogOrderCanceled",
      "type": "event"
    },
    {
      "anonymous": false,
      "inputs": [
        {
          "indexed": false,
          "internalType": "bytes32",
          "name": "orderHash",
          "type": "bytes32"
        },
        {
          "indexed": false,
          "internalType": "bytes32",
          "name": "flags",
          "type": "bytes32"
        },
        {
          "indexed": false,
          "internalType": "uint256",
          "name": "triggerPrice",
          "type": "uint256"
        },
        {
          "components": [
            {
              "internalType": "uint256",
              "name": "amount",
              "type": "uint256"
            },
            {
              "internalType": "uint256",
              "name": "price",
              "type": "uint256"
            },
            {
              "internalType": "uint256",
              "name": "fee",
              "type": "uint256"
            },
            {
              "internalType": "bool",
              "name": "isNegativeFee",
              "type": "bool"
            }
          ],
          "indexed": false,
          "internalType": "struct P1Orders.Fill",
          "name": "fill",
          "type": "tuple"
        }
      ],
      "name": "LogOrderFilled",
      "type": "event"
    },
    {
      "constant": true,
      "inputs": [],
      "name": "_EIP712_DOMAIN_HASH_",
      "outputs": [
        {
          "internalType": "bytes32",
          "name": "",
          "type": "bytes32"
        }
      ],
      "payable": false,
      "stateMutability": "view",
      "type": "function"
    },
    {
      "constant": true,
      "inputs": [
        {
          "internalType": "bytes32",
          "name": "",
          "type": "bytes32"
        }
      ],
      "name": "_FILLED_AMOUNT_",
      "outputs": [
        {
          "internalType": "uint256",
          "name": "",
          "type": "uint256"
        }
      ],
      "payable": false,
      "stateMutability": "view",
      "type": "function"
    },
    {
      "constant": true,
      "inputs": [],
      "name": "_PERPETUAL_V1_",
      "outputs": [
        {
          "internalType": "address",
          "name": "",
          "type": "address"
        }
      ],
      "payable": false,
      "stateMutability": "view",
      "type": "function"
    },
    {
      "constant": true,
      "inputs": [
        {
          "internalType": "bytes32",
          "name": "",
          "type": "bytes32"
        }
      ],
      "name": "_STATUS_",
      "outputs": [
        {
          "internalType": "enum P1Orders.OrderStatus",
          "name": "",
          "type": "uint8"
        }
      ],
      "payable": false,
      "stateMutability": "view",
      "type": "function"
    },
    {
      "constant": false,
      "inputs": [
        {
          "components": [
            {
              "internalType": "bytes32",
              "name": "flags",
              "type": "bytes32"
            },
            {
              "internalType": "uint256",
              "name": "amount",
              "type": "uint256"
            },
            {
              "internalType": "uint256",
              "name": "limitPrice",
              "type": "uint256"
            },
            {
              "internalType": "uint256",
              "name": "triggerPrice",
              "type": "uint256"
            },
            {
              "internalType": "uint256",
              "name": "limitFee",
              "type": "uint256"
            },
            {
              "internalType": "address",
              "name": "maker",
              "type": "address"
            },
            {
              "internalType": "address",
              "name": "taker",
              "type": "address"
            },
            {
              "internalType": "uint256",
              "name": "expiration",
              "type": "uint256"
            }
          ],
          "internalType": "struct P1Orders.Order",
          "name": "order",
          "type": "tuple"
        }
      ],
      "name": "approveOrder",
      "outputs": [],
      "payable": false,
      "stateMutability": "nonpayable",
      "type": "function"
    },
    {
      "constant": false,
      "inputs": [
        {
          "components": [
            {
              "internalType": "bytes32",
              "name": "flags",
              "type": "bytes32"
            },
            {
              "internalType": "uint256",
              "name": "amount",
              "type": "uint256"
            },
            {
              "internalType": "uint256",
              "name": "limitPrice",
              "type": "uint256"
            },
            {
              "internalType": "uint256",
              "name": "triggerPrice",
              "type": "uint256"
            },
            {
              "internalType": "uint256",
              "name": "limitFee",
              "type": "uint256"
            },
            {
              "internalType": "address",
              "name": "maker",
              "type": "address"
            },
            {
              "internalType": "address",
              "name": "taker",
              "type": "address"
            },
            {
              "internalType": "uint256",
              "name": "expiration",
              "type": "uint256"
            }
          ],
          "internalType": "struct P1Orders.Order",
          "name": "order",
          "type": "tuple"
        }
      ],
      "name": "cancelOrder",
      "outputs": [],
      "payable": false,
      "stateMutability": "nonpayable",
      "type": "function"
    },
    {
      "constant": true,
      "inputs": [
        {
          "internalType": "bytes32[]",
          "name": "orderHashes",
          "type": "bytes32[]"
        }
      ],
      "name": "getOrdersStatus",
      "outputs": [
        {
          "components": [
            {
              "internalType": "enum P1Orders.OrderStatus",
              "name": "status",
              "type": "uint8"
            },
            {
              "internalType": "uint256",
              "name": "filledAmount",
              "type": "uint256"
            }
          ],
          "internalType": "struct P1Orders.OrderQueryOutput[]",
          "name": "",
          "type": "tuple[]"
        }
      ],
      "payable": false,
      "stateMutability": "view",
      "type": "function"
    },
    {
      "constant": false,
      "inputs": [
        {
          "internalType": "address",
          "name": "sender",
          "type": "address"
        },
        {
          "internalType": "address",
          "name": "maker",
          "type": "address"
        },
        {
          "internalType": "address",
          "name": "taker",
          "type": "address"
        },
        {
          "internalType": "uint256",
          "name": "price",
          "type": "uint256"
        },
        {
          "internalType": "bytes",
          "name": "data",
          "type": "bytes"
        },
        {
          "internalType": "bytes32",
          "name": "",
          "type": "bytes32"
        }
      ],
      "name": "trade",
      "outputs": [
        {
          "components": [
            {
              "internalType": "uint256",
              "name": "marginAmount",
              "type": "uint256"
            },
            {
              "internalType": "uint256",
              "name": "positionAmount",
              "type": "uint256"
            },
            {
              "internalType": "bool",
              "name": "isBuy",
              "type": "bool"
            },
            {
              "internalType": "bytes32",
              "name": "traderFlags",
              "type": "bytes32"
            }
          ],
          "internalType": "struct P1Types.TradeResult",
          "name": "",
          "type": "tuple"
        }
      ],
      "payable": false,
      "stateMutability": "nonpayable",
      "type": "function"
    }
  ],
  "transactionHash": "0x14f3c4f39352279fac818022dc93ea3bd2a794a67c6e6e94121b6b6182e8c810",
  "args": [
    "0x7a3a0557a052C97ED1C661f73a9e8c8CAa61a248",
    421614
  ],
  "numDeployments": 1,
  "solcInputHash": "638c89ae9bbcccd3b2c9594585590c46",
  "bytecode": "0x60806040523480156200001157600080fd5b506040516200260f3803806200260f833981016040819052620000349162000145565b600080546001600160a01b0319166001600160a01b0384161790556040516200006090602001620002aa565b60408051601f1981840301815282825280516020918201208383018352600884526750314f726465727360c01b938201939093528151808301835260038152620312e360ec1b9082015290516200010192917fa158a5339131788e3aca6a19d29e24b109bb548949d45296cd531bbe8e7565d1917fe6bbd6277e1bf288eed5e8d1780f9a50b239e86b153736bceebccf4ea79d90b3918691309101620002f8565b60405160208183030381529060405280519060200120600181905550505062000394565b805162000132816200036f565b92915050565b8051620001328162000389565b600080604083850312156200015957600080fd5b600062000167858562000125565b92505060206200017a8582860162000138565b9150509250929050565b6200018f8162000353565b82525050565b6200018f8162000360565b6000620001af600c836200034e565b6b1cdd1c9a5b99c81b985b594b60a21b8152600c0192915050565b6000620001d96019836200034e565b7f6164647265737320766572696679696e67436f6e747261637400000000000000815260190192915050565b6000620002146010836200034e565b6f1d5a5b9d0c8d4d8818da185a5b92590b60821b815260100192915050565b6000620002426001836200034e565b602960f81b815260010192915050565b600062000261600f836200034e565b6e1cdd1c9a5b99c81d995c9cda5bdb8b608a1b8152600f0192915050565b60006200028e600d836200034e565b6c08a92a06e626488dedac2d2dc5609b1b8152600d0192915050565b6000620002b7826200027f565b9150620002c482620001a0565b9150620002d18262000252565b9150620002de8262000205565b9150620002eb82620001ca565b9150620001328262000233565b60a0810162000308828862000195565b62000317602083018762000195565b62000326604083018662000195565b62000335606083018562000195565b62000344608083018462000184565b9695505050505050565b919050565b6000620001328262000363565b90565b6001600160a01b031690565b6200037a8162000353565b81146200038657600080fd5b50565b6200037a8162000360565b61226b80620003a46000396000f3fe608060405234801561001057600080fd5b50600436106100885760003560e01c80639ea070711161005b5780639ea07071146100fe578063aacc263e1461011e578063c7dc03f91461013e578063d4bec8eb1461014657610088565b80635c457f291461008d5780637946c890146100b6578063867f1690146100cb578063970c2ba1146100de575b600080fd5b6100a061009b3660046114a1565b61015b565b6040516100ad9190611f0a565b60405180910390f35b6100c96100c43660046114dd565b61016d565b005b6100c96100d93660046114dd565b610229565b6100f16100ec36600461139c565b610307565b6040516100ad91906120d6565b61011161010c3660046114a1565b6105ba565b6040516100ad9190611fa7565b61013161012c366004611441565b6105cf565b6040516100ad9190611eeb565b6100a06106a2565b61014e6106a8565b6040516100ad9190611ec2565b60026020526000908152604090205481565b61017d60c0820160a08301611376565b6001600160a01b0316336001600160a01b0316146101b65760405162461bcd60e51b81526004016101ad90612076565b60405180910390fd5b60006101cf6101ca368490038401846114fc565b6106b7565b60008181526003602052604090819020805460ff191660021790555190915033907f4117a4c82505f7102c183e1fb9daa8f8e06d56d6af04479fc417fa8c049028939061021d908490611f0a565b60405180910390a25050565b61023960c0820160a08301611376565b6001600160a01b0316336001600160a01b0316146102695760405162461bcd60e51b81526004016101ad90612016565b600061027d6101ca368490038401846114fc565b9050600260008281526003602052604090205460ff16600281111561029e57fe5b14156102bc5760405162461bcd60e51b81526004016101ad90612096565b60008181526003602052604090819020805460ff191660011790555133907fbd06df5febc1b0cd2e8ba37a6bb524ae77524c4aa2dc5e0f5ac64f5d11a50b1b9061021d908490611f0a565b61030f610f3c565b6000546001600160a01b031633811461033a5760405162461bcd60e51b81526004016101ad906120c6565b886001600160a01b0316876001600160a01b0316146103ed57604051634275143160e11b81526001600160a01b038216906384ea286290610381908a908d90600401611ed0565b60206040518083038186803b15801561039957600080fd5b505afa1580156103ad573d6000803e3d6000fd5b505050506040513d601f19601f820116820180604052506103d19190810190611483565b6103ed5760405162461bcd60e51b81526004016101ad90611fc6565b6103f5610f63565b6104018587018761151b565b9050600061041282600001516106b7565b905061041e8282610742565b61042b828b8b868c6107f8565b6000818152600260209081526040822054908401515190919061045590839063ffffffff610b1316565b84516020015190915081111561047d5760405162461bcd60e51b81526004016101ad906120a6565b600083815260026020908152604091829020839055855180516060909101519187015192517f5760b5a80923536b02524ebe3b1f92cc973195ac25559c60564e8db9e02d15ad936104d393889392909190611f18565b60405180910390a16000610500856020015160200151866020015160400151610b3f90919063ffffffff16565b905060006105118660000151610b69565b90506000866020015160600151151582151514610545576020808801510151610540908463ffffffff610b1316565b61055d565b602080880151015161055d908463ffffffff610b7216565b90506040518060800160405280610585838a6020015160000151610b3f90919063ffffffff16565b815260209889015151988101989098529115604088015250600160609096019590955250929c9b505050505050505050505050565b60036020526000908152604090205460ff1681565b6060808383905060405190808252806020026020018201604052801561060f57816020015b6105fc610f95565b8152602001906001900390816105f45790505b50905060005b8381101561069857600085858381811061062b57fe5b604080518082018252602092830294909401356000818152600390935291205490935082915060ff16600281111561065f57fe5b8152600083815260026020908152604090912054910152835184908490811061068457fe5b602090810291909101015250600101610615565b5090505b92915050565b60015481565b6000546001600160a01b031681565b6000806040516020016106c990611e54565b60405160208183030381529060405280519060200120836040516020016106f1929190611f56565b60408051601f198184030181529082905280516020918201206001549093506107239261190160f01b92859101611dfb565b604051602081830303815290604052805190602001209150505b919050565b60008181526003602052604081205460ff169081600281111561076157fe5b14156107b257610775828460400151610bb4565b6001600160a01b0316836000015160a001516001600160a01b0316146107ad5760405162461bcd60e51b81526004016101ad90612046565b6107f3565b60028160028111156107c057fe5b14156107de5760405162461bcd60e51b81526004016101ad90612026565b60018160028111156107ec57fe5b146107f357fe5b505050565b836001600160a01b0316856000015160a001516001600160a01b0316146108315760405162461bcd60e51b81526004016101ad90611ff6565b826001600160a01b0316856000015160c001516001600160a01b031614806108655750845160c001516001600160a01b0316155b6108815760405162461bcd60e51b81526004016101ad906120b6565b845160e00151421115806108985750845160e00151155b6108b45760405162461bcd60e51b81526004016101ad90612056565b60006108c38660000151610b69565b90506108e660405180606001604052806022815260200161220760229139610d44565b6108ef81610d8a565b610900866020015160200151610dcd565b85516040015161090f90610dcd565b60008161092b578651604001516020808901510151101561093c565b865160400151602080890151015111155b90508061095b5760405162461bcd60e51b81526004016101ad90612086565b600061096a8860000151610e10565b610994578760200151606001518061098f575087516080015160208901516040015111155b6109b6565b87602001516060015180156109b6575087516080015160208901516040015110155b9050806109d55760405162461bcd60e51b81526004016101ad90611fd6565b87516060015115610a20576000836109f5578851606001518511156109ff565b8851606001518510155b905080610a1e5760405162461bcd60e51b81526004016101ad90612066565b505b8751610a2b90610e19565b15610b0957610a38610f3c565b6040516324d08fa760e21b81526001600160a01b038716906393423e9c90610a64908b90600401611ec2565b60806040518083038186803b158015610a7c57600080fd5b505afa158015610a90573d6000803e3d6000fd5b505050506040513d601f19601f82011682018060405250610ab491908101906114bf565b90508060200151151584151514158015610aeb575080606001516effffffffffffffffffffffffffffff1689602001516000015111155b610b075760405162461bcd60e51b81526004016101ad90611fe6565b505b5050505050505050565b600082820183811015610b385760405162461bcd60e51b81526004016101ad90612006565b9392505050565b6000610b38670de0b6b3a7640000610b5d858563ffffffff610e2216565b9063ffffffff610e5c16565b51600116151590565b6000610b3883836040518060400160405280601e81526020017f536166654d6174683a207375627472616374696f6e206f766572666c6f770000815250610e9e565b6040810151600090819060f01c60ff166003811115610bcf57fe5b9050600080826003811115610be057fe5b1415610bed575083610cdc565b6001826003811115610bfb57fe5b1415610c66576040518060400160405280601c81526020017f19457468657265756d205369676e6564204d6573736167653a0a33320000000081525085604051602001610c49929190611e32565b604051602081830303815290604052805190602001209050610cdc565b6002826003811115610c7457fe5b14610c7b57fe5b6040518060400160405280601b81526020017f19457468657265756d205369676e6564204d6573736167653a0a20000000000081525085604051602001610cc3929190611e32565b6040516020818303038152906040528051906020012090505b600181856040015160f81c8660000151876020015160405160008152602001604052604051610d0e9493929190611f72565b6020604051602081039080840390855afa158015610d30573d6000803e3d6000fd5b5050604051601f1901519695505050505050565b610d8781604051602401610d589190611fb5565b60408051601f198184030181529190526020810180516001600160e01b031663104c13eb60e21b179052610eca565b50565b610d8781604051602401610d9e9190611efc565b60408051601f198184030181529190526020810180516001600160e01b03166332458eed60e01b179052610eca565b610d8781604051602401610de19190611f0a565b60408051601f198184030181529190526020810180516001600160e01b031663f82c50f160e01b179052610eca565b51600416151590565b51600216151590565b600082610e315750600061069c565b82820282848281610e3e57fe5b0414610b385760405162461bcd60e51b81526004016101ad90612036565b6000610b3883836040518060400160405280601a81526020017f536166654d6174683a206469766973696f6e206279207a65726f000000000000815250610ee1565b60008184841115610ec25760405162461bcd60e51b81526004016101ad9190611fb5565b505050900390565b610d8781610ed9610f18610f39565b63ffffffff16565b60008183610f025760405162461bcd60e51b81526004016101ad9190611fb5565b506000838581610f0e57fe5b0495945050505050565b60006a636f6e736f6c652e6c6f679050600080835160208501845afa505050565b90565b60408051608081018252600080825260208201819052918101829052606081019190915290565b6040518060600160405280610f76610fac565b8152602001610f83611006565b8152602001610f90611030565b905290565b604080518082019091526000808252602082015290565b604051806101000160405280600080191681526020016000815260200160008152602001600081526020016000815260200160006001600160a01b0316815260200160006001600160a01b03168152602001600081525090565b60405180608001604052806000815260200160008152602001600081526020016000151581525090565b604080516060810182526000808252602082018190529181019190915290565b803561069c816121ce565b60008083601f84011261106d57600080fd5b50813567ffffffffffffffff81111561108557600080fd5b60208301915083602082028301111561109d57600080fd5b9250929050565b803561069c816121e2565b805161069c816121e2565b803561069c816121eb565b803561069c816121f4565b60008083601f8401126110e257600080fd5b50813567ffffffffffffffff8111156110fa57600080fd5b60208301915083600182028301111561109d57600080fd5b60006080828403121561112457600080fd5b61112e60806120e4565b9050600061113c84846110af565b825250602061114d848483016110af565b60208301525060406111618482850161136b565b60408301525060606111758482850161136b565b60608301525092915050565b60006080828403121561119357600080fd5b61119d60806120e4565b905060006111ab84846110c5565b82525060206111bc848483016110c5565b60208301525060406111d0848285016110c5565b6040830152506060611175848285016110a4565b600061010082840312156111f757600080fd5b50919050565b6000610100828403121561121057600080fd5b61121b6101006120e4565b9050600061122984846110c5565b825250602061123a848483016110c5565b602083015250604061124e848285016110c5565b6040830152506060611262848285016110c5565b6060830152506080611276848285016110c5565b60808301525060a061128a84828501611050565b60a08301525060c061129e84828501611050565b60c08301525060e06112b2848285016110c5565b60e08301525092915050565b6000606082840312156112d057600080fd5b6112da60606120e4565b905060006112e884846110c5565b82525060206112f9848483016110c5565b602083015250604061130d848285016110ba565b60408301525092915050565b60006101e0828403121561132c57600080fd5b61133660606120e4565b9050600061134484846111fd565b82525061010061135684848301611181565b60208301525061018061130d848285016112be565b805161069c816121fd565b60006020828403121561138857600080fd5b60006113948484611050565b949350505050565b600080600080600080600060c0888a0312156113b757600080fd5b60006113c38a8a611050565b97505060206113d48a828b01611050565b96505060406113e58a828b01611050565b95505060606113f68a828b016110c5565b945050608088013567ffffffffffffffff81111561141357600080fd5b61141f8a828b016110d0565b935093505060a06114328a828b016110c5565b91505092959891949750929550565b6000806020838503121561145457600080fd5b823567ffffffffffffffff81111561146b57600080fd5b6114778582860161105b565b92509250509250929050565b60006020828403121561149557600080fd5b600061139484846110af565b6000602082840312156114b357600080fd5b600061139484846110c5565b6000608082840312156114d157600080fd5b60006113948484611112565b600061010082840312156114f057600080fd5b600061139484846111e4565b6000610100828403121561150f57600080fd5b600061139484846111fd565b60006101e0828403121561152e57600080fd5b60006113948484611319565b60006115468383611ced565b505060400190565b6115578161211e565b82525050565b600061156882612111565b6115728185612115565b935061157d8361210b565b8060005b838110156115ab578151611595888261153a565b97506115a08361210b565b925050600101611581565b509495945050505050565b61155781612129565b6115576115cb8261212e565b610f39565b61155781610f39565b6115576115cb82610f39565b60006115f082612111565b6115fa818561073d565b935061160a81856020860161218e565b9290920192915050565b61155781612183565b600061162882612111565b6116328185612115565b935061164281856020860161218e565b61164b816121ba565b9093019392505050565b6000611662602e83612115565b7f53656e64657220646f6573206e6f742068617665207065726d697373696f6e7381527f20666f72207468652074616b6572000000000000000000000000000000000000602082015260400192915050565b60006116c1601383612115565b7f46696c6c2066656520697320696e76616c696400000000000000000000000000815260200192915050565b60006116fa601f83612115565b7f46696c6c20646f6573206e6f7420646563726561736520706f736974696f6e00815260200192915050565b6000611733600f8361073d565b7f75696e7432353620616d6f756e742c00000000000000000000000000000000008152600f0192915050565b600061176c602083612115565b7f4f72646572206d616b657220646f6573206e6f74206d61746368206d616b6572815260200192915050565b60006117a560068361073d565b7f4f72646572280000000000000000000000000000000000000000000000000000815260060192915050565b60006117de601b83612115565b7f536166654d6174683a206164646974696f6e206f766572666c6f770000000000815260200192915050565b600061181760158361073d565b7f75696e74323536207472696767657250726963652c0000000000000000000000815260150192915050565b600061185060018361073d565b602960f81b815260010192915050565b600061186d602583612115565b7f4f726465722063616e6e6f7420626520617070726f766564206279206e6f6e2d81526436b0b5b2b960d91b602082015260400192915050565b60006118b4600e8361073d565b7f6279746573333220666c6167732c0000000000000000000000000000000000008152600e0192915050565b60006118ed601a83612115565b7f4f726465722077617320616c72656164792063616e63656c6564000000000000815260200192915050565b6000611926602183612115565b7f536166654d6174683a206d756c7469706c69636174696f6e206f766572666c6f8152607760f81b602082015260400192915050565b600061196960138361073d565b7f75696e74323536206c696d697450726963652c00000000000000000000000000815260130192915050565b60006119a2600e8361073d565b7f616464726573732074616b65722c0000000000000000000000000000000000008152600e0192915050565b60006119db600e8361073d565b7f61646472657373206d616b65722c0000000000000000000000000000000000008152600e0192915050565b6000611a14601e83612115565b7f4f726465722068617320616e20696e76616c6964207369676e61747572650000815260200192915050565b6000611a4d601183612115565b7f4f72646572206861732065787069726564000000000000000000000000000000815260200192915050565b6000611a86602283612115565b7f5472696767657220707269636520686173206e6f74206265656e207265616368815261195960f21b602082015260400192915050565b6000611aca60128361073d565b7f75696e743235362065787069726174696f6e0000000000000000000000000000815260120192915050565b6000611b03602583612115565b7f4f726465722063616e6e6f742062652063616e63656c6564206279206e6f6e2d81526436b0b5b2b960d91b602082015260400192915050565b6000611b4a601583612115565b7f46696c6c20707269636520697320696e76616c69640000000000000000000000815260200192915050565b6000611b83602183612115565b7f43616e63656c6564206f726465722063616e6e6f7420626520617070726f76658152601960fa1b602082015260400192915050565b6000611bc6601583612115565b7f43616e6e6f74206f76657266696c6c206f726465720000000000000000000000815260200192915050565b6000611bff602083612115565b7f4f726465722074616b657220646f6573206e6f74206d617463682074616b6572815260200192915050565b6000611c3860118361073d565b7f75696e74323536206c696d69744665652c000000000000000000000000000000815260110192915050565b6000611c71601e83612115565b7f6d73672e73656e646572206d7573742062652050657270657475616c56310000815260200192915050565b80516080830190611cae84826115d0565b506020820151611cc160208501826115d0565b506040820151611cd460408501826115d0565b506060820151611ce760608501826115b6565b50505050565b80516040830190611cfe8482611614565b506020820151611ce760208501826115d0565b8051610100830190611d2384826115d0565b506020820151611d3660208501826115d0565b506040820151611d4960408501826115d0565b506060820151611d5c60608501826115d0565b506080820151611d6f60808501826115d0565b5060a0820151611d8260a085018261154e565b5060c0820151611d9560c085018261154e565b5060e0820151611ce760e08501826115d0565b80516080830190611db984826115d0565b506020820151611dcc60208501826115d0565b506040820151611ddf60408501826115b6565b506060820151611ce760608501826115d0565b6115578161217d565b6000611e0782866115bf565b600282019150611e1782856115d9565b602082019150611e2782846115d9565b506020019392505050565b6000611e3e82856115e5565b9150611e4a82846115d9565b5060200192915050565b6000611e5f82611798565b9150611e6a826118a7565b9150611e7582611726565b9150611e808261195c565b9150611e8b8261180a565b9150611e9682611c2b565b9150611ea1826119ce565b9150611eac82611995565b9150611eb782611abd565b915061069c82611843565b6020810161069c828461154e565b60408101611ede828561154e565b610b38602083018461154e565b60208082528101610b38818461155d565b6020810161069c82846115b6565b6020810161069c82846115d0565b60e08101611f2682876115d0565b611f3360208301866115d0565b611f4060408301856115d0565b611f4d6060830184611c9d565b95945050505050565b6101208101611f6582856115d0565b610b386020830184611d11565b60808101611f8082876115d0565b611f8d6020830186611df2565b611f9a60408301856115d0565b611f4d60608301846115d0565b6020810161069c8284611614565b60208082528101610b38818461161d565b6020808252810161069c81611655565b6020808252810161069c816116b4565b6020808252810161069c816116ed565b6020808252810161069c8161175f565b6020808252810161069c816117d1565b6020808252810161069c81611860565b6020808252810161069c816118e0565b6020808252810161069c81611919565b6020808252810161069c81611a07565b6020808252810161069c81611a40565b6020808252810161069c81611a79565b6020808252810161069c81611af6565b6020808252810161069c81611b3d565b6020808252810161069c81611b76565b6020808252810161069c81611bb9565b6020808252810161069c81611bf2565b6020808252810161069c81611c64565b6080810161069c8284611da8565b60405181810167ffffffffffffffff8111828210171561210357600080fd5b604052919050565b60200190565b5190565b90815260200190565b600061069c82612171565b151590565b7fffff0000000000000000000000000000000000000000000000000000000000001690565b8061073d816121c4565b6effffffffffffffffffffffffffffff1690565b6001600160a01b031690565b60ff1690565b600061069c82612153565b60005b838110156121a9578181015183820152602001612191565b83811115611ce75750506000910152565b601f01601f191690565b60038110610d8757fe5b6121d78161211e565b8114610d8757600080fd5b6121d781612129565b6121d78161212e565b6121d781610f39565b6121d78161215d56fe3d3d3d3d3d3d3d3d3d3d3d636865636b2066696c6c2070726963653d3d3d3d3d3d3da365627a7a72315820932d7969d6102b93221f7f200c1fd44bf98e14f2b21e97f40725a561f0cbafa36c6578706572696d656e74616cf564736f6c63430005100040",
  "devdoc": {
    "author": "axor",
    "methods": {
      "approveOrder((bytes32,uint256,uint256,uint256,uint256,address,address,uint256))": {
        "details": "Emits the LogOrderApproved event.",
        "params": {
          "order": "The order that will be approved."
        }
      },
      "cancelOrder((bytes32,uint256,uint256,uint256,uint256,address,address,uint256))": {
        "details": "Emits the LogOrderCanceled event.",
        "params": {
          "order": "The order that will be permanently canceled."
        }
      },
      "getOrdersStatus(bytes32[])": {
        "params": {
          "orderHashes": "A list of the hashes of the orders to check."
        },
        "return": "A list of OrderQueryOutput structs containing the status and filled                     amount of each order."
      },
      "trade(address,address,address,uint256,bytes,bytes32)": {
        "details": "Emits the LogOrderFilled event.",
        "params": {
          "data": "A struct of type TradeData.",
          "maker": "The maker of the order.",
          "price": "The current oracle price of the underlying asset.",
          "sender": "The address that called the trade() function on PerpetualV1.",
          "taker": "The taker of the order."
        },
        "return": "The assets to be traded and traderFlags that indicate that a trade occurred."
      }
    },
    "title": "P1Orders"
  },
  "userdoc": {
    "methods": {
      "approveOrder((bytes32,uint256,uint256,uint256,uint256,address,address,uint256))": {
        "notice": "On-chain approves an order."
      },
      "cancelOrder((bytes32,uint256,uint256,uint256,uint256,address,address,uint256))": {
        "notice": "On-chain cancels an order."
      },
      "getOrdersStatus(bytes32[])": {
        "notice": "Gets the status (open/approved/canceled) and filled amount of each order in a list."
      },
      "trade(address,address,address,uint256,bytes,bytes32)": {
        "notice": "Allows an account to take an order cryptographically signed by a different account."
      }
    },
    "notice": "Contract allowing trading between accounts using cryptographically signed messages."
  },
  "storageLayout": {
    "storage": [
      {
        "astId": 7035,
        "contract": "contracts/protocol/v1/traders/P1Orders.sol:P1Orders",
        "label": "_PERPETUAL_V1_",
        "offset": 0,
        "slot": "0",
        "type": "t_address"
      },
      {
        "astId": 7037,
        "contract": "contracts/protocol/v1/traders/P1Orders.sol:P1Orders",
        "label": "_EIP712_DOMAIN_HASH_",
        "offset": 0,
        "slot": "1",
        "type": "t_bytes32"
      },
      {
        "astId": 7041,
        "contract": "contracts/protocol/v1/traders/P1Orders.sol:P1Orders",
        "label": "_FILLED_AMOUNT_",
        "offset": 0,
        "slot": "2",
        "type": "t_mapping(t_bytes32,t_uint256)"
      },
      {
        "astId": 7045,
        "contract": "contracts/protocol/v1/traders/P1Orders.sol:P1Orders",
        "label": "_STATUS_",
        "offset": 0,
        "slot": "3",
        "type": "t_mapping(t_bytes32,t_enum(OrderStatus)6973)"
      }
    ],
    "types": {
      "t_address": {
        "encoding": "inplace",
        "label": "address",
        "numberOfBytes": "20"
      },
      "t_bytes32": {
        "encoding": "inplace",
        "label": "bytes32",
        "numberOfBytes": "32"
      },
      "t_enum(OrderStatus)6973": {
        "encoding": "inplace",
        "label": "enum P1Orders.OrderStatus",
        "numberOfBytes": "1"
      },
      "t_mapping(t_bytes32,t_enum(OrderStatus)6973)": {
        "encoding": "mapping",
        "key": "t_bytes32",
        "label": "mapping(bytes32 => enum P1Orders.OrderStatus)",
        "numberOfBytes": "32",
        "value": "t_enum(OrderStatus)6973"
      },
      "t_mapping(t_bytes32,t_uint256)": {
        "encoding": "mapping",
        "key": "t_bytes32",
        "label": "mapping(bytes32 => uint256)",
        "numberOfBytes": "32",
        "value": "t_uint256"
      },
      "t_uint256": {
        "encoding": "inplace",
        "label": "uint256",
        "numberOfBytes": "32"
      }
    }
  }
}