{
  "address": "0x63059E6dFb1df0CaeF154c8FF4768E771f270B31",
  "abi": [
    {
      "inputs": [
        {
          "internalType": "address",
          "name": "perpetualV1",
          "type": "address"
        }
      ],
      "payable": false,
      "stateMutability": "nonpayable",
      "type": "constructor"
    },
    {
      "anonymous": false,
      "inputs": [
        {
          "indexed": true,
          "internalType": "address",
          "name": "maker",
          "type": "address"
        },
        {
          "indexed": true,
          "internalType": "address",
          "name": "taker",
          "type": "address"
        },
        {
          "indexed": false,
          "internalType": "uint256",
          "name": "amount",
          "type": "uint256"
        },
        {
          "indexed": false,
          "internalType": "bool",
          "name": "isBuy",
          "type": "bool"
        },
        {
          "indexed": false,
          "internalType": "uint256",
          "name": "oraclePrice",
          "type": "uint256"
        }
      ],
      "name": "LogLiquidated",
      "type": "event"
    },
    {
      "constant": true,
      "inputs": [],
      "name": "_PERPETUAL_V1_",
      "outputs": [
        {
          "internalType": "address",
          "name": "",
          "type": "address"
        }
      ],
      "payable": false,
      "stateMutability": "view",
      "type": "function"
    },
    {
      "constant": false,
      "inputs": [
        {
          "internalType": "address",
          "name": "sender",
          "type": "address"
        },
        {
          "internalType": "address",
          "name": "maker",
          "type": "address"
        },
        {
          "internalType": "address",
          "name": "taker",
          "type": "address"
        },
        {
          "internalType": "uint256",
          "name": "price",
          "type": "uint256"
        },
        {
          "internalType": "bytes",
          "name": "data",
          "type": "bytes"
        },
        {
          "internalType": "bytes32",
          "name": "",
          "type": "bytes32"
        }
      ],
      "name": "trade",
      "outputs": [
        {
          "components": [
            {
              "internalType": "uint256",
              "name": "marginAmount",
              "type": "uint256"
            },
            {
              "internalType": "uint256",
              "name": "positionAmount",
              "type": "uint256"
            },
            {
              "internalType": "bool",
              "name": "isBuy",
              "type": "bool"
            },
            {
              "internalType": "bytes32",
              "name": "traderFlags",
              "type": "bytes32"
            }
          ],
          "internalType": "struct P1Types.TradeResult",
          "name": "",
          "type": "tuple"
        }
      ],
      "payable": false,
      "stateMutability": "nonpayable",
      "type": "function"
    }
  ],
  "transactionHash": "0xb113fb29b3a60ddaf05b17f95e414a8da424657624871e0dcdbceb28baf2d28b",
  "args": [
    "0xf6e465EdCd0243205D03d5ad3286C5d4cE63e1Cc"
  ],
  "numDeployments": 1,
  "solcInputHash": "d8a4bed0d8259721c6e731840c9f1c4e",
  "bytecode": "0x608060405234801561001057600080fd5b50604051610fe4380380610fe483398101604081905261002f91610065565b600080546001600160a01b0319166001600160a01b03929092169190911790556100b3565b805161005f8161009c565b92915050565b60006020828403121561007757600080fd5b60006100838484610054565b949350505050565b60006001600160a01b03821661005f565b6100a58161008b565b81146100b057600080fd5b50565b610f22806100c26000396000f3fe608060405234801561001057600080fd5b50600436106100365760003560e01c8063970c2ba11461003b578063d4bec8eb14610064575b600080fd5b61004e610049366004610907565b610079565b60405161005b9190610de2565b60405180910390f35b61006c610318565b60405161005b9190610d43565b610081610772565b6000546001600160a01b03163381146100b55760405162461bcd60e51b81526004016100ac90610dd2565b60405180910390fd5b60405163052f72d760e01b81526001600160a01b0382169063052f72d7906100e1908c90600401610d43565b60206040518083038186803b1580156100f957600080fd5b505afa15801561010d573d6000803e3d6000fd5b505050506040513d601f19601f8201168201806040525061013191908101906109ac565b61014d5760405162461bcd60e51b81526004016100ac90610db2565b610155610799565b610161858701876109f0565b905061016b610772565b6040516324d08fa760e21b81526001600160a01b038416906393423e9c90610197908d90600401610d43565b60806040518083038186803b1580156101af57600080fd5b505afa1580156101c3573d6000803e3d6000fd5b505050506040513d601f19601f820116820180604052506101e791908101906109d2565b90506101f58282858b610327565b6000610212836000015183606001516001600160781b0316610410565b905060008360200151156102565761024f8284606001516001600160781b031685604001516001600160781b031661042a9092919063ffffffff16565b9050610288565b6102858284606001516001600160781b031685604001516001600160781b03166104999092919063ffffffff16565b90505b8a6001600160a01b03168c6001600160a01b03167f6a35c9c914a0cd15e436f6ff44611a525491fdeb755e1044e9841d7e74ba42428487602001518e6040516102d393929190610df0565b60405180910390a36040518060800160405280828152602001838152602001856020015115158152602001600260001b81525095505050505050979650505050505050565b6000546001600160a01b031681565b6103328383836104af565b61034e5760405162461bcd60e51b81526004016100ac90610d72565b8360400151158061036d5750835160608401516001600160781b031610155b6103895760405162461bcd60e51b81526004016100ac90610da2565b8260200151151584602001511515146103b45760405162461bcd60e51b81526004016100ac90610dc2565b8251806103cc575060408301516001600160781b0316155b806103d8575082602001515b806103ee575060608301516001600160781b0316155b61040a5760405162461bcd60e51b81526004016100ac90610d92565b50505050565b600081831061041f5781610421565b825b90505b92915050565b6000831580610437575082155b1561044e57610447600083610571565b9050610492565b61048f6001610483846104778361046b8a8a63ffffffff6105b316565b9063ffffffff6105ed16565b9063ffffffff61057116565b9063ffffffff61062f16565b90505b9392505050565b600061048f82610477868663ffffffff6105b316565b600080836001600160a01b031663e830b6906040518163ffffffff1660e01b815260040160206040518083038186803b1580156104eb57600080fd5b505afa1580156104ff573d6000803e3d6000fd5b505050506040513d601f19601f820116820180604052506105239190810190610a0e565b9050600080610538878663ffffffff61065416565b909250905061054d818463ffffffff6105b316565b610565610558610703565b849063ffffffff6105b316565b10979650505050505050565b600061042183836040518060400160405280601a81526020017f536166654d6174683a206469766973696f6e206279207a65726f00000000000081525061070f565b6000826105c257506000610424565b828202828482816105cf57fe5b04146104215760405162461bcd60e51b81526004016100ac90610d82565b600061042183836040518060400160405280601e81526020017f536166654d6174683a207375627472616374696f6e206f766572666c6f770000815250610746565b6000828201838110156104215760405162461bcd60e51b81526004016100ac90610d62565b8151600090819081908190156106905761068961066f610703565b60408801516001600160781b03169063ffffffff6105b316565b915061069e565b61069b61066f610703565b90505b60608601516000906106bf906001600160781b03168763ffffffff6105b316565b90508660200151156106e2576106db838263ffffffff61062f16565b92506106f5565b6106f2828263ffffffff61062f16565b91505b5090925090505b9250929050565b670de0b6b3a764000090565b600081836107305760405162461bcd60e51b81526004016100ac9190610d51565b50600083858161073c57fe5b0495945050505050565b6000818484111561076a5760405162461bcd60e51b81526004016100ac9190610d51565b505050900390565b60408051608081018252600080825260208201819052918101829052606081019190915290565b604080516060810182526000808252602082018190529181019190915290565b803561042481610ead565b803561042481610ec4565b805161042481610ec4565b803561042481610ecd565b60008083601f8401126107f757600080fd5b50813567ffffffffffffffff81111561080f57600080fd5b6020830191508360018202830111156106fc57600080fd5b60006080828403121561083957600080fd5b6108436080610e18565b9050600061085184846107cf565b8252506020610862848483016107cf565b6020830152506040610876848285016108f1565b604083015250606061088a848285016108f1565b60608301525092915050565b6000606082840312156108a857600080fd5b6108b26060610e18565b905060006108c084846107da565b82525060206108d1848483016107c4565b60208301525060406108e5848285016107c4565b60408301525092915050565b805161042481610ed6565b805161042481610ecd565b600080600080600080600060c0888a03121561092257600080fd5b600061092e8a8a6107b9565b975050602061093f8a828b016107b9565b96505060406109508a828b016107b9565b95505060606109618a828b016107da565b945050608088013567ffffffffffffffff81111561097e57600080fd5b61098a8a828b016107e5565b935093505060a061099d8a828b016107da565b91505092959891949750929550565b6000602082840312156109be57600080fd5b60006109ca84846107cf565b949350505050565b6000608082840312156109e457600080fd5b60006109ca8484610827565b600060608284031215610a0257600080fd5b60006109ca8484610896565b600060208284031215610a2057600080fd5b60006109ca84846108fc565b610a3581610e4c565b82525050565b610a3581610e57565b610a3581610e5c565b6000610a5882610e3f565b610a628185610e43565b9350610a72818560208601610e77565b610a7b81610ea3565b9093019392505050565b6000610a92601b83610e43565b7f536166654d6174683a206164646974696f6e206f766572666c6f770000000000815260200192915050565b6000610acb603783610e43565b7f43616e6e6f74206c69717569646174652073696e6365206d616b65722069732081527f6e6f7420756e646572636f6c6c61746572616c697a6564000000000000000000602082015260400192915050565b6000610b2a602183610e43565b7f536166654d6174683a206d756c7469706c69636174696f6e206f766572666c6f8152607760f81b602082015260400192915050565b6000610b6d604183610e43565b7f43616e6e6f74206c6971756964617465207768656e206d616b657220706f736981527f74696f6e20616e64206d617267696e2061726520626f7468206e6567617469766020820152606560f81b604082015260600192915050565b6000610bd6603a83610e43565b7f616c6c4f724e6f7468696e672069732073657420616e64206d616b657220706f81527f736974696f6e206973206c657373207468616e20616d6f756e74000000000000602082015260400192915050565b6000610c35601f83610e43565b7f53656e646572206973206e6f74206120676c6f62616c206f70657261746f7200815260200192915050565b6000610c6e603383610e43565b7f6c69717569646174696f6e206d757374206e6f7420696e637265617365206d6181527f6b6572277320706f736974696f6e2073697a6500000000000000000000000000602082015260400192915050565b6000610ccd601e83610e43565b7f6d73672e73656e646572206d7573742062652050657270657475616c56310000815260200192915050565b80516080830190610d0a8482610a44565b506020820151610d1d6020850182610a44565b506040820151610d306040850182610a3b565b50606082015161040a6060850182610a44565b602081016104248284610a2c565b602080825281016104218184610a4d565b6020808252810161042481610a85565b6020808252810161042481610abe565b6020808252810161042481610b1d565b6020808252810161042481610b60565b6020808252810161042481610bc9565b6020808252810161042481610c28565b6020808252810161042481610c61565b6020808252810161042481610cc0565b608081016104248284610cf9565b60608101610dfe8286610a44565b610e0b6020830185610a3b565b6109ca6040830184610a44565b60405181810167ffffffffffffffff81118282101715610e3757600080fd5b604052919050565b5190565b90815260200190565b600061042482610e6b565b151590565b90565b6001600160781b031690565b6001600160a01b031690565b60005b83811015610e92578181015183820152602001610e7a565b8381111561040a5750506000910152565b601f01601f191690565b610eb681610e4c565b8114610ec157600080fd5b50565b610eb681610e57565b610eb681610e5c565b610eb681610e5f56fea365627a7a72315820791e17574c3c4df13a20c26d4568118861d01d2ea67daff25c85c12471074f7b6c6578706572696d656e74616cf564736f6c63430005100040",
  "devdoc": {
    "author": "axor",
    "methods": {
      "trade(address,address,address,uint256,bytes,bytes32)": {
        "details": "Emits the LogLiquidated event.",
        "params": {
          "data": "A struct of type TradeData.",
          "maker": "The account to be liquidated.",
          "price": "The current oracle price of the underlying asset.",
          "sender": "The address that called the trade() function on PerpetualV1.",
          "taker": "The account of the liquidator."
        },
        "return": "The amounts to be traded, and flags indicating that a liquidation occurred."
      }
    },
    "title": "P1Liquidation"
  },
  "userdoc": {
    "methods": {
      "trade(address,address,address,uint256,bytes,bytes32)": {
        "notice": "Allows an account below the minimum collateralization to be liquidated by another account. This allows the account to be partially or fully subsumed by the liquidator."
      }
    },
    "notice": "Contract allowing accounts to be liquidated by other accounts."
  },
  "storageLayout": {
    "storage": [
      {
        "astId": 6578,
        "contract": "contracts/protocol/v1/traders/P1Liquidation.sol:P1Liquidation",
        "label": "_PERPETUAL_V1_",
        "offset": 0,
        "slot": "0",
        "type": "t_address"
      }
    ],
    "types": {
      "t_address": {
        "encoding": "inplace",
        "label": "address",
        "numberOfBytes": "20"
      }
    }
  }
}