{
  "address": "0x94928b286171943f79292C64E13cBdcFCab75269",
  "abi": [
    {
      "inputs": [
        {
          "internalType": "address",
          "name": "fundingRateProvider",
          "type": "address"
        }
      ],
      "payable": false,
      "stateMutability": "nonpayable",
      "type": "constructor"
    },
    {
      "anonymous": false,
      "inputs": [
        {
          "indexed": false,
          "internalType": "address",
          "name": "fundingRateProvider",
          "type": "address"
        }
      ],
      "name": "LogFundingRateProviderSet",
      "type": "event"
    },
    {
      "anonymous": false,
      "inputs": [
        {
          "indexed": false,
          "internalType": "bytes32",
          "name": "fundingRate",
          "type": "bytes32"
        }
      ],
      "name": "LogFundingRateUpdated",
      "type": "event"
    },
    {
      "anonymous": false,
      "inputs": [
        {
          "indexed": true,
          "internalType": "address",
          "name": "previousOwner",
          "type": "address"
        },
        {
          "indexed": true,
          "internalType": "address",
          "name": "newOwner",
          "type": "address"
        }
      ],
      "name": "OwnershipTransferred",
      "type": "event"
    },
    {
      "constant": true,
      "inputs": [],
      "name": "MAX_ABS_DIFF_PER_SECOND",
      "outputs": [
        {
          "internalType": "uint128",
          "name": "",
          "type": "uint128"
        }
      ],
      "payable": false,
      "stateMutability": "view",
      "type": "function"
    },
    {
      "constant": true,
      "inputs": [],
      "name": "MAX_ABS_VALUE",
      "outputs": [
        {
          "internalType": "uint128",
          "name": "",
          "type": "uint128"
        }
      ],
      "payable": false,
      "stateMutability": "view",
      "type": "function"
    },
    {
      "constant": true,
      "inputs": [],
      "name": "_FUNDING_RATE_PROVIDER_",
      "outputs": [
        {
          "internalType": "address",
          "name": "",
          "type": "address"
        }
      ],
      "payable": false,
      "stateMutability": "view",
      "type": "function"
    },
    {
      "constant": true,
      "inputs": [
        {
          "internalType": "uint256",
          "name": "timeDelta",
          "type": "uint256"
        }
      ],
      "name": "getFunding",
      "outputs": [
        {
          "internalType": "bool",
          "name": "",
          "type": "bool"
        },
        {
          "internalType": "uint256",
          "name": "",
          "type": "uint256"
        }
      ],
      "payable": false,
      "stateMutability": "view",
      "type": "function"
    },
    {
      "constant": true,
      "inputs": [],
      "name": "isOwner",
      "outputs": [
        {
          "internalType": "bool",
          "name": "",
          "type": "bool"
        }
      ],
      "payable": false,
      "stateMutability": "view",
      "type": "function"
    },
    {
      "constant": true,
      "inputs": [],
      "name": "owner",
      "outputs": [
        {
          "internalType": "address",
          "name": "",
          "type": "address"
        }
      ],
      "payable": false,
      "stateMutability": "view",
      "type": "function"
    },
    {
      "constant": false,
      "inputs": [],
      "name": "renounceOwnership",
      "outputs": [],
      "payable": false,
      "stateMutability": "nonpayable",
      "type": "function"
    },
    {
      "constant": false,
      "inputs": [
        {
          "components": [
            {
              "internalType": "uint256",
              "name": "value",
              "type": "uint256"
            },
            {
              "internalType": "bool",
              "name": "isPositive",
              "type": "bool"
            }
          ],
          "internalType": "struct SignedMath.Int",
          "name": "newRate",
          "type": "tuple"
        }
      ],
      "name": "setFundingRate",
      "outputs": [
        {
          "components": [
            {
              "internalType": "uint32",
              "name": "timestamp",
              "type": "uint32"
            },
            {
              "internalType": "bool",
              "name": "isPositive",
              "type": "bool"
            },
            {
              "internalType": "uint128",
              "name": "value",
              "type": "uint128"
            }
          ],
          "internalType": "struct P1Types.Index",
          "name": "",
          "type": "tuple"
        }
      ],
      "payable": false,
      "stateMutability": "nonpayable",
      "type": "function"
    },
    {
      "constant": false,
      "inputs": [
        {
          "internalType": "address",
          "name": "newProvider",
          "type": "address"
        }
      ],
      "name": "setFundingRateProvider",
      "outputs": [],
      "payable": false,
      "stateMutability": "nonpayable",
      "type": "function"
    },
    {
      "constant": false,
      "inputs": [
        {
          "internalType": "address",
          "name": "newOwner",
          "type": "address"
        }
      ],
      "name": "transferOwnership",
      "outputs": [],
      "payable": false,
      "stateMutability": "nonpayable",
      "type": "function"
    }
  ],
  "transactionHash": "0xd809f82fc90a3e4a3a8221e885f6538569ec9ba922388f50cf29af7bd6353705",
  "args": [
    "0x0000000000000000000000000000000000000000"
  ],
  "numDeployments": 1,
  "solcInputHash": "d8a4bed0d8259721c6e731840c9f1c4e",
  "bytecode": "0x60806040523480156200001157600080fd5b506040516200139b3803806200139b833981016040819052620000349162000292565b6000620000496001600160e01b03620001e316565b600080546001600160a01b0319166001600160a01b0383169081178255604051929350917f8be0079c531659141344cd1fd0a4f28419497f9722a3daafe3b4186f6b6457e0908290a3506200009d6200025f565b6040518060600160405280620000be42620001e760201b620006961760201c565b63ffffffff908116825260016020808401829052600060409485015284518254868301519587015163ffffffff19909116919094161760ff60201b19166401000000009415159490940293909317600160281b600160a81b031916650100000000006001600160801b0390931692909202919091179055600280546001600160a01b0319166001600160a01b0386161790559091507f2ebf65220b5046a8d9cff102710ef15de0a0bf3709dcc11c3af50abe472e1c22906200018b9083906200021d811b620006e517901c565b6040516200019a919062000331565b60405180910390a17f232d43841005a98dbf929d234a7a8d2c4c570becee067c9c81bcd4e0acd0ab9282604051620001d3919062000321565b60405180910390a1505062000392565b3390565b60006401000000008210620002195760405162461bcd60e51b8152600401620002109062000341565b60405180910390fd5b5090565b6000806088836000015163ffffffff16901b83602001516200024157600062000247565b600160801b5b60408501516001600160801b03161717915050919050565b604080516060810182526000808252602082018190529181019190915290565b80516200028c8162000378565b92915050565b600060208284031215620002a557600080fd5b6000620002b384846200027f565b949350505050565b620002c6816200035c565b82525050565b620002c68162000369565b6000620002e660268362000353565b7f53616665436173743a2076616c756520646f65736e27742066697420696e203381526532206269747360d01b602082015260400192915050565b602081016200028c8284620002bb565b602081016200028c8284620002cc565b602080825281016200028c81620002d7565b90815260200190565b60006200028c826200036c565b90565b6001600160a01b031690565b62000383816200035c565b81146200038f57600080fd5b50565b610ff980620003a26000396000f3fe608060405234801561001057600080fd5b50600436106100be5760003560e01c80638da5cb5b11610076578063ebed4bd41161005b578063ebed4bd414610138578063ef460e3614610159578063f2fde38b14610179576100be565b80638da5cb5b1461011b5780638f32d59b14610123576100be565b8063499c9c6d116100a7578063499c9c6d146100f657806356a281ea1461010b578063715018a614610113576100be565b80630b8781ee146100c3578063109f60e3146100e1575b600080fd5b6100cb61018c565b6040516100d89190610e10565b60405180910390f35b6100f46100ef366004610ab7565b61019b565b005b6100fe61022b565b6040516100d89190610ee4565b6100fe61023b565b6100f4610249565b6100cb6102c4565b61012b6102d3565b6040516100d89190610e1e565b61014b610146366004610b19565b6102f7565b6040516100d8929190610e2c565b61016c610167366004610add565b610368565b6040516100d89190610ed6565b6100f4610187366004610ab7565b6104c1565b6002546001600160a01b031681565b6101a36102d3565b6101c85760405162461bcd60e51b81526004016101bf90610eb6565b60405180910390fd5b6002805473ffffffffffffffffffffffffffffffffffffffff19166001600160a01b0383161790556040517f232d43841005a98dbf929d234a7a8d2c4c570becee067c9c81bcd4e0acd0ab9290610220908390610e10565b60405180910390a150565b617080661aa535d3d0c0005b0481565b610a8c64794415f854610237565b6102516102d3565b61026d5760405162461bcd60e51b81526004016101bf90610eb6565b600080546040516001600160a01b03909116907f8be0079c531659141344cd1fd0a4f28419497f9722a3daafe3b4186f6b6457e0908390a36000805473ffffffffffffffffffffffffffffffffffffffff19169055565b6000546001600160a01b031690565b600080546001600160a01b03166102e86104f1565b6001600160a01b031614905090565b600080610302610a00565b506040805160608101825260015463ffffffff8082168352640100000000820460ff1615156020840152650100000000009091046001600160801b03169282018390529091600091610357919087906104f516565b602090920151935090915050915091565b610370610a00565b6002546001600160a01b0316331461039a5760405162461bcd60e51b81526004016101bf90610e96565b6103a2610a20565b6103b96103b436859003850185610afb565b610538565b90506103c3610a00565b60405180606001604052806103d742610696565b63ffffffff1681526020018360200151151581526020016103fb84600001516106c0565b6001600160801b039081169091528151600180546020850151604086015190941665010000000000027fffffffffffffffffffffff00000000000000000000000000000000ffffffffff9415156401000000000264ff000000001963ffffffff90951663ffffffff199093169290921793909316179290921617905590507f2ebf65220b5046a8d9cff102710ef15de0a0bf3709dcc11c3af50abe472e1c226104a3826106e5565b6040516104b09190610e47565b60405180910390a19150505b919050565b6104c96102d3565b6104e55760405162461bcd60e51b81526004016101bf90610eb6565b6104ee81610725565b50565b3390565b60008261050457506000610532565b8282028284828161051157fe5b041461052f5760405162461bcd60e51b81526004016101bf90610ea6565b90505b92915050565b610540610a20565b610548610a00565b506040805160608101825260015463ffffffff81168252640100000000810460ff16151560208301526501000000000090046001600160801b031691810191909152610592610a20565b50604080518082018252908201516001600160801b0316815260208083015115159082015281516000906105d190429063ffffffff908116906107b316565b905060006105e9630b7f70728363ffffffff6104f516565b90506105fb868463ffffffff6107f516565b1561065157610608610a20565b61063961061b858463ffffffff61084916565b60408051808201909152643ca20afc2a8152600160208201526108e8565b905061064587826108e8565b955050505050506104bc565b610659610a20565b61068a61066c858463ffffffff61090b16565b60408051808201909152643ca20afc2a815260006020820152610998565b90506106458782610998565b600064010000000082106106bc5760405162461bcd60e51b81526004016101bf90610ec6565b5090565b6000600160801b82106106bc5760405162461bcd60e51b81526004016101bf90610e86565b6000806088836000015163ffffffff16901b836020015161070757600061070d565b600160801b5b60408501516001600160801b03161717915050919050565b6001600160a01b03811661074b5760405162461bcd60e51b81526004016101bf90610e66565b600080546040516001600160a01b03808516939216917f8be0079c531659141344cd1fd0a4f28419497f9722a3daafe3b4186f6b6457e091a36000805473ffffffffffffffffffffffffffffffffffffffff19166001600160a01b0392909216919091179055565b600061052f83836040518060400160405280601e81526020017f536166654d6174683a207375627472616374696f6e206f766572666c6f7700008152506109aa565b600082602001511561082c5781602001511561081657508051825111610532565b82511515806108255750815115155b9050610532565b81602001511561083e57506000610532565b508051825110610532565b610851610a20565b82602001511561088e57604051806040016040528061087d8560000151856109db90919063ffffffff16565b815260016020909101529050610532565b82518211156108b957604051806040016040528061087d8560000151856107b390919063ffffffff16565b60408051808201909152835181906108d7908563ffffffff6107b316565b815260006020909101529392505050565b6108f0610a20565b6108fa82846107f5565b610904578161052f565b5090919050565b610913610a20565b826020015161094f57604051806040016040528061093e8560000151856109db90919063ffffffff16565b815260006020909101529050610532565b825182101561097657604080518082019091528351819061087d908563ffffffff6107b316565b60405180604001604052806108d78560000151856107b390919063ffffffff16565b6109a0610a20565b6108fa83836107f5565b600081848411156109ce5760405162461bcd60e51b81526004016101bf9190610e55565b50508183035b9392505050565b60008282018381101561052f5760405162461bcd60e51b81526004016101bf90610e76565b604080516060810182526000808252602082018190529181019190915290565b604080518082019091526000808252602082015290565b803561053281610f90565b803561053281610fa4565b600060408284031215610a5f57600080fd5b50919050565b600060408284031215610a7757600080fd5b610a816040610ef2565b90506000610a8f8484610aac565b8252506020610aa084848301610a42565b60208301525092915050565b803561053281610fad565b600060208284031215610ac957600080fd5b6000610ad58484610a37565b949350505050565b600060408284031215610aef57600080fd5b6000610ad58484610a4d565b600060408284031215610b0d57600080fd5b6000610ad58484610a65565b600060208284031215610b2b57600080fd5b6000610ad58484610aac565b610b4081610f26565b82525050565b610b4081610f31565b610b4081610f36565b6000610b6382610f19565b610b6d8185610f1d565b9350610b7d818560208601610f5a565b610b8681610f86565b9093019392505050565b6000610b9d602683610f1d565b7f4f776e61626c653a206e6577206f776e657220697320746865207a65726f206181527f6464726573730000000000000000000000000000000000000000000000000000602082015260400192915050565b6000610bfc601b83610f1d565b7f536166654d6174683a206164646974696f6e206f766572666c6f770000000000815260200192915050565b6000610c35602783610f1d565b7f53616665436173743a2076616c756520646f65736e27742066697420696e203181527f3238206269747300000000000000000000000000000000000000000000000000602082015260400192915050565b6000610c94603d83610f1d565b7f5468652066756e64696e6720726174652063616e206f6e6c792062652073657481527f206279207468652066756e64696e6720726174652070726f7669646572000000602082015260400192915050565b6000610cf3602183610f1d565b7f536166654d6174683a206d756c7469706c69636174696f6e206f766572666c6f8152607760f81b602082015260400192915050565b6000610d36602083610f1d565b7f4f776e61626c653a2063616c6c6572206973206e6f7420746865206f776e6572815260200192915050565b6000610d6f602683610f1d565b7f53616665436173743a2076616c756520646f65736e27742066697420696e203381527f3220626974730000000000000000000000000000000000000000000000000000602082015260400192915050565b80516060830190610dd28482610e07565b506020820151610de56020850182610b46565b506040820151610df86040850182610dfe565b50505050565b610b4081610f39565b610b4081610f51565b602081016105328284610b37565b602081016105328284610b46565b60408101610e3a8285610b46565b6109d46020830184610b4f565b602081016105328284610b4f565b6020808252810161052f8184610b58565b6020808252810161053281610b90565b6020808252810161053281610bef565b6020808252810161053281610c28565b6020808252810161053281610c87565b6020808252810161053281610ce6565b6020808252810161053281610d29565b6020808252810161053281610d62565b606081016105328284610dc1565b602081016105328284610dfe565b60405181810167ffffffffffffffff81118282101715610f1157600080fd5b604052919050565b5190565b90815260200190565b600061053282610f45565b151590565b90565b6001600160801b031690565b6001600160a01b031690565b63ffffffff1690565b60005b83811015610f75578181015183820152602001610f5d565b83811115610df85750506000910152565b601f01601f191690565b610f9981610f26565b81146104ee57600080fd5b610f9981610f31565b610f9981610f3656fea365627a7a72315820c2c9503dd6d6a7f5b394468199fe5924c946cb4d2e6be954622ef17ec9007ce06c6578706572696d656e74616cf564736f6c63430005100040",
  "devdoc": {
    "author": "axor",
    "methods": {
      "getFunding(uint256)": {
        "params": {
          "timeDelta": "Number of seconds over which to calculate the accumulated funding amount."
        },
        "return": "True if the funding rate is positive, and false otherwise.The funding amount as a unitless rate, represented as a fixed-point number                   with 18 decimals."
      },
      "isOwner()": {
        "details": "Returns true if the caller is the current owner."
      },
      "owner()": {
        "details": "Returns the address of the current owner."
      },
      "renounceOwnership()": {
        "details": "Leaves the contract without owner. It will not be possible to call `onlyOwner` functions anymore. Can only be called by the current owner.     * NOTE: Renouncing ownership will leave the contract without an owner, thereby removing any functionality that is only available to the owner."
      },
      "setFundingRate((uint256,bool))": {
        "details": "Can only be called by the funding rate provider. Emits the LogFundingRateUpdated event.",
        "params": {
          "newRate": "The intended new funding rate. Is bounded by the global constant bounds."
        },
        "return": "The new funding rate with a timestamp of the update."
      },
      "setFundingRateProvider(address)": {
        "details": "Emits the LogFundingRateProviderSet event.",
        "params": {
          "newProvider": "The new provider, who will have the ability to set the funding rate."
        }
      },
      "transferOwnership(address)": {
        "details": "Transfers ownership of the contract to a new account (`newOwner`). Can only be called by the current owner."
      }
    },
    "title": "P1FundingOracle"
  },
  "userdoc": {
    "methods": {
      "getFunding(uint256)": {
        "notice": "Calculates the signed funding amount that has accumulated over a period of time."
      },
      "setFundingRate((uint256,bool))": {
        "notice": "Set the funding rate, denoted in units per second, fixed-point with 18 decimals."
      },
      "setFundingRateProvider(address)": {
        "notice": "Set the funding rate provider. Can only be called by the admin."
      }
    },
    "notice": "Oracle providing the funding rate for a perpetual market."
  },
  "storageLayout": {
    "storage": [
      {
        "astId": 220,
        "contract": "contracts/protocol/v1/oracles/P1FundingOracle.sol:P1FundingOracle",
        "label": "_owner",
        "offset": 0,
        "slot": "0",
        "type": "t_address"
      },
      {
        "astId": 5515,
        "contract": "contracts/protocol/v1/oracles/P1FundingOracle.sol:P1FundingOracle",
        "label": "_FUNDING_RATE_",
        "offset": 0,
        "slot": "1",
        "type": "t_struct(Index)5247_storage"
      },
      {
        "astId": 5517,
        "contract": "contracts/protocol/v1/oracles/P1FundingOracle.sol:P1FundingOracle",
        "label": "_FUNDING_RATE_PROVIDER_",
        "offset": 0,
        "slot": "2",
        "type": "t_address"
      }
    ],
    "types": {
      "t_address": {
        "encoding": "inplace",
        "label": "address",
        "numberOfBytes": "20"
      },
      "t_bool": {
        "encoding": "inplace",
        "label": "bool",
        "numberOfBytes": "1"
      },
      "t_struct(Index)5247_storage": {
        "encoding": "inplace",
        "label": "struct P1Types.Index",
        "members": [
          {
            "astId": 5242,
            "contract": "contracts/protocol/v1/oracles/P1FundingOracle.sol:P1FundingOracle",
            "label": "timestamp",
            "offset": 0,
            "slot": "0",
            "type": "t_uint32"
          },
          {
            "astId": 5244,
            "contract": "contracts/protocol/v1/oracles/P1FundingOracle.sol:P1FundingOracle",
            "label": "isPositive",
            "offset": 4,
            "slot": "0",
            "type": "t_bool"
          },
          {
            "astId": 5246,
            "contract": "contracts/protocol/v1/oracles/P1FundingOracle.sol:P1FundingOracle",
            "label": "value",
            "offset": 5,
            "slot": "0",
            "type": "t_uint128"
          }
        ],
        "numberOfBytes": "32"
      },
      "t_uint128": {
        "encoding": "inplace",
        "label": "uint128",
        "numberOfBytes": "16"
      },
      "t_uint32": {
        "encoding": "inplace",
        "label": "uint32",
        "numberOfBytes": "4"
      }
    }
  }
}