{
  "address": "0xe79a2F45d840B1EDEcDF07D8672D42c7BbbbaF19",
  "abi": [
    {
      "anonymous": false,
      "inputs": [
        {
          "indexed": true,
          "internalType": "address",
          "name": "account",
          "type": "address"
        },
        {
          "indexed": false,
          "internalType": "bool",
          "name": "isPositive",
          "type": "bool"
        },
        {
          "indexed": false,
          "internalType": "uint256",
          "name": "amount",
          "type": "uint256"
        },
        {
          "indexed": false,
          "internalType": "bytes32",
          "name": "balance",
          "type": "bytes32"
        }
      ],
      "name": "LogAccountSettled",
      "type": "event"
    },
    {
      "anonymous": false,
      "inputs": [
        {
          "indexed": true,
          "internalType": "address",
          "name": "account",
          "type": "address"
        },
        {
          "indexed": false,
          "internalType": "uint256",
          "name": "amount",
          "type": "uint256"
        },
        {
          "indexed": false,
          "internalType": "bytes32",
          "name": "balance",
          "type": "bytes32"
        }
      ],
      "name": "LogDeposit",
      "type": "event"
    },
    {
      "anonymous": false,
      "inputs": [
        {
          "indexed": false,
          "internalType": "uint256",
          "name": "settlementPrice",
          "type": "uint256"
        }
      ],
      "name": "LogFinalSettlementEnabled",
      "type": "event"
    },
    {
      "anonymous": false,
      "inputs": [
        {
          "indexed": false,
          "internalType": "bytes32",
          "name": "index",
          "type": "bytes32"
        }
      ],
      "name": "LogIndex",
      "type": "event"
    },
    {
      "anonymous": false,
      "inputs": [
        {
          "indexed": false,
          "internalType": "address",
          "name": "funder",
          "type": "address"
        }
      ],
      "name": "LogSetFunder",
      "type": "event"
    },
    {
      "anonymous": false,
      "inputs": [
        {
          "indexed": false,
          "internalType": "address",
          "name": "operator",
          "type": "address"
        },
        {
          "indexed": false,
          "internalType": "bool",
          "name": "approved",
          "type": "bool"
        }
      ],
      "name": "LogSetGlobalOperator",
      "type": "event"
    },
    {
      "anonymous": false,
      "inputs": [
        {
          "indexed": true,
          "internalType": "address",
          "name": "sender",
          "type": "address"
        },
        {
          "indexed": false,
          "internalType": "address",
          "name": "operator",
          "type": "address"
        },
        {
          "indexed": false,
          "internalType": "bool",
          "name": "approved",
          "type": "bool"
        }
      ],
      "name": "LogSetLocalOperator",
      "type": "event"
    },
    {
      "anonymous": false,
      "inputs": [
        {
          "indexed": false,
          "internalType": "uint256",
          "name": "minCollateral",
          "type": "uint256"
        }
      ],
      "name": "LogSetMinCollateral",
      "type": "event"
    },
    {
      "anonymous": false,
      "inputs": [
        {
          "indexed": false,
          "internalType": "address",
          "name": "oracle",
          "type": "address"
        }
      ],
      "name": "LogSetOracle",
      "type": "event"
    },
    {
      "anonymous": false,
      "inputs": [
        {
          "indexed": true,
          "internalType": "address",
          "name": "account",
          "type": "address"
        },
        {
          "indexed": false,
          "internalType": "address",
          "name": "destination",
          "type": "address"
        }
      ],
      "name": "LogSetWithdraw",
      "type": "event"
    },
    {
      "anonymous": false,
      "inputs": [
        {
          "indexed": true,
          "internalType": "address",
          "name": "maker",
          "type": "address"
        },
        {
          "indexed": true,
          "internalType": "address",
          "name": "taker",
          "type": "address"
        },
        {
          "indexed": false,
          "internalType": "address",
          "name": "trader",
          "type": "address"
        },
        {
          "indexed": false,
          "internalType": "uint256",
          "name": "marginAmount",
          "type": "uint256"
        },
        {
          "indexed": false,
          "internalType": "uint256",
          "name": "positionAmount",
          "type": "uint256"
        },
        {
          "indexed": false,
          "internalType": "bool",
          "name": "isBuy",
          "type": "bool"
        },
        {
          "indexed": false,
          "internalType": "bytes32",
          "name": "makerBalance",
          "type": "bytes32"
        },
        {
          "indexed": false,
          "internalType": "bytes32",
          "name": "takerBalance",
          "type": "bytes32"
        }
      ],
      "name": "LogTrade",
      "type": "event"
    },
    {
      "anonymous": false,
      "inputs": [
        {
          "indexed": true,
          "internalType": "address",
          "name": "account",
          "type": "address"
        },
        {
          "indexed": false,
          "internalType": "address",
          "name": "destination",
          "type": "address"
        },
        {
          "indexed": false,
          "internalType": "uint256",
          "name": "amount",
          "type": "uint256"
        },
        {
          "indexed": false,
          "internalType": "bool",
          "name": "settlementIsPositive",
          "type": "bool"
        },
        {
          "indexed": false,
          "internalType": "uint256",
          "name": "settlementAmount",
          "type": "uint256"
        },
        {
          "indexed": false,
          "internalType": "bytes32",
          "name": "balance",
          "type": "bytes32"
        }
      ],
      "name": "LogUserForceWithdraw",
      "type": "event"
    },
    {
      "anonymous": false,
      "inputs": [
        {
          "indexed": true,
          "internalType": "address",
          "name": "account",
          "type": "address"
        },
        {
          "indexed": false,
          "internalType": "address",
          "name": "destination",
          "type": "address"
        },
        {
          "indexed": false,
          "internalType": "uint256",
          "name": "amount",
          "type": "uint256"
        },
        {
          "indexed": false,
          "internalType": "bytes32",
          "name": "balance",
          "type": "bytes32"
        }
      ],
      "name": "LogWithdraw",
      "type": "event"
    },
    {
      "anonymous": false,
      "inputs": [
        {
          "indexed": true,
          "internalType": "address",
          "name": "account",
          "type": "address"
        },
        {
          "indexed": false,
          "internalType": "uint256",
          "name": "amount",
          "type": "uint256"
        },
        {
          "indexed": false,
          "internalType": "bytes32",
          "name": "balance",
          "type": "bytes32"
        }
      ],
      "name": "LogWithdrawFinalSettlement",
      "type": "event"
    },
    {
      "constant": false,
      "inputs": [
        {
          "internalType": "address",
          "name": "from",
          "type": "address"
        },
        {
          "internalType": "address",
          "name": "account",
          "type": "address"
        },
        {
          "internalType": "uint256",
          "name": "amount",
          "type": "uint256"
        },
        {
          "internalType": "uint256",
          "name": "price",
          "type": "uint256"
        },
        {
          "internalType": "uint256",
          "name": "settlementAmounts",
          "type": "uint256"
        },
        {
          "internalType": "bool",
          "name": "settlementIsPositives",
          "type": "bool"
        }
      ],
      "name": "deposit",
      "outputs": [],
      "payable": false,
      "stateMutability": "nonpayable",
      "type": "function"
    },
    {
      "constant": false,
      "inputs": [
        {
          "internalType": "uint256",
          "name": "priceLowerBound",
          "type": "uint256"
        },
        {
          "internalType": "uint256",
          "name": "priceUpperBound",
          "type": "uint256"
        }
      ],
      "name": "enableFinalSettlement",
      "outputs": [],
      "payable": false,
      "stateMutability": "nonpayable",
      "type": "function"
    },
    {
      "constant": true,
      "inputs": [
        {
          "internalType": "address",
          "name": "account",
          "type": "address"
        }
      ],
      "name": "getAccountBalance",
      "outputs": [
        {
          "components": [
            {
              "internalType": "bool",
              "name": "marginIsPositive",
              "type": "bool"
            },
            {
              "internalType": "bool",
              "name": "positionIsPositive",
              "type": "bool"
            },
            {
              "internalType": "uint120",
              "name": "margin",
              "type": "uint120"
            },
            {
              "internalType": "uint120",
              "name": "position",
              "type": "uint120"
            }
          ],
          "internalType": "struct P1Types.Balance",
          "name": "",
          "type": "tuple"
        }
      ],
      "payable": false,
      "stateMutability": "view",
      "type": "function"
    },
    {
      "constant": true,
      "inputs": [
        {
          "internalType": "address",
          "name": "account",
          "type": "address"
        }
      ],
      "name": "getAccountIndex",
      "outputs": [
        {
          "components": [
            {
              "internalType": "uint32",
              "name": "timestamp",
              "type": "uint32"
            },
            {
              "internalType": "bool",
              "name": "isPositive",
              "type": "bool"
            },
            {
              "internalType": "uint128",
              "name": "value",
              "type": "uint128"
            }
          ],
          "internalType": "struct P1Types.Index",
          "name": "",
          "type": "tuple"
        }
      ],
      "payable": false,
      "stateMutability": "view",
      "type": "function"
    },
    {
      "constant": true,
      "inputs": [],
      "name": "getAdmin",
      "outputs": [
        {
          "internalType": "address",
          "name": "",
          "type": "address"
        }
      ],
      "payable": false,
      "stateMutability": "view",
      "type": "function"
    },
    {
      "constant": true,
      "inputs": [],
      "name": "getDelayBlock",
      "outputs": [
        {
          "internalType": "uint256",
          "name": "",
          "type": "uint256"
        }
      ],
      "payable": false,
      "stateMutability": "view",
      "type": "function"
    },
    {
      "constant": true,
      "inputs": [],
      "name": "getFinalSettlementEnabled",
      "outputs": [
        {
          "internalType": "bool",
          "name": "",
          "type": "bool"
        }
      ],
      "payable": false,
      "stateMutability": "view",
      "type": "function"
    },
    {
      "constant": true,
      "inputs": [],
      "name": "getFunderContract",
      "outputs": [
        {
          "internalType": "address",
          "name": "",
          "type": "address"
        }
      ],
      "payable": false,
      "stateMutability": "view",
      "type": "function"
    },
    {
      "constant": true,
      "inputs": [],
      "name": "getGlobalIndex",
      "outputs": [
        {
          "components": [
            {
              "internalType": "uint32",
              "name": "timestamp",
              "type": "uint32"
            },
            {
              "internalType": "bool",
              "name": "isPositive",
              "type": "bool"
            },
            {
              "internalType": "uint128",
              "name": "value",
              "type": "uint128"
            }
          ],
          "internalType": "struct P1Types.Index",
          "name": "",
          "type": "tuple"
        }
      ],
      "payable": false,
      "stateMutability": "view",
      "type": "function"
    },
    {
      "constant": true,
      "inputs": [
        {
          "internalType": "address",
          "name": "operator",
          "type": "address"
        }
      ],
      "name": "getIsGlobalOperator",
      "outputs": [
        {
          "internalType": "bool",
          "name": "",
          "type": "bool"
        }
      ],
      "payable": false,
      "stateMutability": "view",
      "type": "function"
    },
    {
      "constant": true,
      "inputs": [
        {
          "internalType": "address",
          "name": "account",
          "type": "address"
        },
        {
          "internalType": "address",
          "name": "operator",
          "type": "address"
        }
      ],
      "name": "getIsLocalOperator",
      "outputs": [
        {
          "internalType": "bool",
          "name": "",
          "type": "bool"
        }
      ],
      "payable": false,
      "stateMutability": "view",
      "type": "function"
    },
    {
      "constant": true,
      "inputs": [],
      "name": "getMinCollateral",
      "outputs": [
        {
          "internalType": "uint256",
          "name": "",
          "type": "uint256"
        }
      ],
      "payable": false,
      "stateMutability": "view",
      "type": "function"
    },
    {
      "constant": true,
      "inputs": [],
      "name": "getOracleContract",
      "outputs": [
        {
          "internalType": "address",
          "name": "",
          "type": "address"
        }
      ],
      "payable": false,
      "stateMutability": "view",
      "type": "function"
    },
    {
      "constant": true,
      "inputs": [],
      "name": "getOraclePrice",
      "outputs": [
        {
          "internalType": "uint256",
          "name": "",
          "type": "uint256"
        }
      ],
      "payable": false,
      "stateMutability": "view",
      "type": "function"
    },
    {
      "constant": true,
      "inputs": [],
      "name": "getTokenContract",
      "outputs": [
        {
          "internalType": "address",
          "name": "",
          "type": "address"
        }
      ],
      "payable": false,
      "stateMutability": "view",
      "type": "function"
    },
    {
      "constant": true,
      "inputs": [
        {
          "internalType": "address",
          "name": "account",
          "type": "address"
        },
        {
          "internalType": "address",
          "name": "operator",
          "type": "address"
        }
      ],
      "name": "hasAccountPermissions",
      "outputs": [
        {
          "internalType": "bool",
          "name": "",
          "type": "bool"
        }
      ],
      "payable": false,
      "stateMutability": "view",
      "type": "function"
    },
    {
      "constant": false,
      "inputs": [
        {
          "internalType": "address",
          "name": "token",
          "type": "address"
        },
        {
          "internalType": "address",
          "name": "oracle",
          "type": "address"
        },
        {
          "internalType": "address",
          "name": "funder",
          "type": "address"
        },
        {
          "internalType": "uint256",
          "name": "minCollateral",
          "type": "uint256"
        }
      ],
      "name": "initializeV1",
      "outputs": [],
      "payable": false,
      "stateMutability": "nonpayable",
      "type": "function"
    },
    {
      "constant": false,
      "inputs": [
        {
          "internalType": "address",
          "name": "account",
          "type": "address"
        },
        {
          "internalType": "address",
          "name": "destination",
          "type": "address"
        }
      ],
      "name": "requestWithdraw",
      "outputs": [],
      "payable": false,
      "stateMutability": "nonpayable",
      "type": "function"
    },
    {
      "constant": false,
      "inputs": [
        {
          "internalType": "address",
          "name": "funder",
          "type": "address"
        }
      ],
      "name": "setFunder",
      "outputs": [],
      "payable": false,
      "stateMutability": "nonpayable",
      "type": "function"
    },
    {
      "constant": false,
      "inputs": [
        {
          "internalType": "address",
          "name": "operator",
          "type": "address"
        },
        {
          "internalType": "bool",
          "name": "approved",
          "type": "bool"
        }
      ],
      "name": "setGlobalOperator",
      "outputs": [],
      "payable": false,
      "stateMutability": "nonpayable",
      "type": "function"
    },
    {
      "constant": false,
      "inputs": [
        {
          "internalType": "address",
          "name": "operator",
          "type": "address"
        },
        {
          "internalType": "bool",
          "name": "approved",
          "type": "bool"
        }
      ],
      "name": "setLocalOperator",
      "outputs": [],
      "payable": false,
      "stateMutability": "nonpayable",
      "type": "function"
    },
    {
      "constant": false,
      "inputs": [
        {
          "internalType": "uint256",
          "name": "minCollateral",
          "type": "uint256"
        }
      ],
      "name": "setMinCollateral",
      "outputs": [],
      "payable": false,
      "stateMutability": "nonpayable",
      "type": "function"
    },
    {
      "constant": false,
      "inputs": [
        {
          "internalType": "address",
          "name": "oracle",
          "type": "address"
        }
      ],
      "name": "setOracle",
      "outputs": [],
      "payable": false,
      "stateMutability": "nonpayable",
      "type": "function"
    },
    {
      "constant": false,
      "inputs": [
        {
          "internalType": "uint256",
          "name": "withdrawDelayBlock",
          "type": "uint256"
        }
      ],
      "name": "setWithdrawDelayBlock",
      "outputs": [],
      "payable": false,
      "stateMutability": "nonpayable",
      "type": "function"
    },
    {
      "constant": false,
      "inputs": [
        {
          "internalType": "address[]",
          "name": "accounts",
          "type": "address[]"
        },
        {
          "components": [
            {
              "internalType": "uint256",
              "name": "takerIndex",
              "type": "uint256"
            },
            {
              "internalType": "uint256",
              "name": "makerIndex",
              "type": "uint256"
            },
            {
              "internalType": "address",
              "name": "trader",
              "type": "address"
            },
            {
              "internalType": "bytes",
              "name": "data",
              "type": "bytes"
            }
          ],
          "internalType": "struct P1Trade.TradeArg[]",
          "name": "trades",
          "type": "tuple[]"
        },
        {
          "internalType": "uint256[]",
          "name": "settlementAmounts",
          "type": "uint256[]"
        },
        {
          "internalType": "bool[]",
          "name": "settlementIsPositives",
          "type": "bool[]"
        },
        {
          "internalType": "uint256",
          "name": "price",
          "type": "uint256"
        }
      ],
      "name": "trade",
      "outputs": [],
      "payable": false,
      "stateMutability": "nonpayable",
      "type": "function"
    },
    {
      "constant": false,
      "inputs": [
        {
          "internalType": "address",
          "name": "account",
          "type": "address"
        },
        {
          "internalType": "address",
          "name": "destination",
          "type": "address"
        },
        {
          "internalType": "uint256",
          "name": "amount",
          "type": "uint256"
        }
      ],
      "name": "userWithdraw",
      "outputs": [],
      "payable": false,
      "stateMutability": "nonpayable",
      "type": "function"
    },
    {
      "constant": false,
      "inputs": [
        {
          "internalType": "address",
          "name": "account",
          "type": "address"
        },
        {
          "internalType": "address",
          "name": "destination",
          "type": "address"
        },
        {
          "internalType": "uint256",
          "name": "amount",
          "type": "uint256"
        },
        {
          "internalType": "uint256",
          "name": "price",
          "type": "uint256"
        },
        {
          "internalType": "uint256",
          "name": "settlementAmounts",
          "type": "uint256"
        },
        {
          "internalType": "bool",
          "name": "settlementIsPositives",
          "type": "bool"
        }
      ],
      "name": "withdraw",
      "outputs": [],
      "payable": false,
      "stateMutability": "nonpayable",
      "type": "function"
    },
    {
      "constant": false,
      "inputs": [],
      "name": "withdrawFinalSettlement",
      "outputs": [],
      "payable": false,
      "stateMutability": "nonpayable",
      "type": "function"
    }
  ],
  "transactionHash": "0x23104aa278fa568e2fcc22cd0147bb9497a228a6bafca9a6fc7b3f1a1a1d4d2a",
  "args": [],
  "numDeployments": 1,
  "solcInputHash": "d8a4bed0d8259721c6e731840c9f1c4e",
  "bytecode": "0x60806040526001600055614997806100186000396000f3fe608060405234801561001057600080fd5b50600436106101c45760003560e01c806380d63681116100f9578063a895155b11610097578063e3bbb56511610071578063e3bbb56514610385578063e77cb8921461038d578063e830b690146103a0578063f40c3699146103a8576101c4565b8063a895155b14610357578063b4959e721461036a578063dc4f3a0e1461037d576101c4565b80638e9b3957116100d35780638e9b39571461030957806393423e9c1461031c5780639795d87b1461033c5780639ba63e9e14610344576101c4565b806380d63681146102ce578063846321a4146102e357806384ea2862146102f6576101c4565b806346d256c5116101665780637099366b116101405780637099366b1461028b57806377ecf41114610293578063796da7af146102a65780637adbf973146102bb576101c4565b806346d256c51461025d57806364232659146102705780636e9960c314610283576101c4565b80631d13f344116101a25780631d13f3441461020f57806328b7bede146102225780632f21dc32146102375780633a031bf01461024a576101c4565b8063052f72d7146101c95780630acc8cd1146101f2578063142c69b314610207575b600080fd5b6101dc6101d736600461379f565b6103bb565b6040516101e991906145f3565b60405180910390f35b61020561020036600461379f565b6103d9565b005b61020561052a565b61020561021d3660046138a5565b610804565b61022a6109ac565b6040516101e99190614470565b6102056102453660046137bd565b6109bb565b6101dc6102583660046137bd565b610a8a565b61020561026b36600461392c565b610aba565b61020561027e3660046138a5565b610b82565b61022a610d44565b6101dc610d74565b6102056102a1366004613858565b610d7d565b6102ae611002565b6040516101e9919061460f565b6102056102c936600461379f565b6110b7565b6102d6611201565b6040516101e991906147ea565b6102056102f1366004613a9c565b61124e565b6101dc6103043660046137bd565b61130c565b610205610317366004613a9c565b61137d565b61032f61032a36600461379f565b6113e3565b6040516101e991906147dc565b6102ae611453565b6102d661035236600461379f565b611459565b6102056103653660046137f7565b6114c1565b61020561037836600461392c565b61162e565b61022a61169b565b61022a6116aa565b61020561039b36600461395c565b6116b9565b6102ae611cb5565b6102056103b6366004613ad8565b611cbb565b6001600160a01b031660009081526003602052604090205460ff1690565b6103e1610d44565b6001600160a01b0316336001600160a01b03161461041a5760405162461bcd60e51b8152600401610411906146ec565b60405180910390fd5b600019600054141561043e5760405162461bcd60e51b8152600401610411906147ac565b6000196000908155604051633afb52f560e21b81526001600160a01b0383169163ebed4bd491610471919060040161461d565b604080518083038186803b15801561048857600080fd5b505afa15801561049c573d6000803e3d6000fd5b505050506040513d601f19601f820116820180604052506104c09190810190613a4e565b50506008805473ffffffffffffffffffffffffffffffffffffffff19166001600160a01b0383161790556040517f433b5c8c9ff78f62114ee8804a916537fa42009ebac4965bfed953f771789e479061051a908390614470565b60405180910390a1506001600055565b600b5460ff1661054c5760405162461bcd60e51b81526004016104119061466c565b60001960005414156105705760405162461bcd60e51b8152600401610411906147ac565b60001960005561057e6133be565b506040805160608082018352600c548252600a546020808401919091528351918201845260095463ffffffff81168352640100000000810460ff161515918301919091526501000000000090046001600160801b031681840152918101919091526105e76133e4565b6105f18233611deb565b5050905060008061060683856000015161217b565b915091508082101561061b57505050506107fd565b6000610644610628612228565b610638858563ffffffff61223416565b9063ffffffff61227616565b6006546040516370a0823160e01b81529192506000916001600160a01b03909116906370a082319061067a903090600401614470565b60206040518083038186803b15801561069257600080fd5b505afa1580156106a6573d6000803e3d6000fd5b505050506040513d601f19601f820116820180604052506106ca9190810190613aba565b905060006106d882846122b8565b905060006106f46106ef858463ffffffff61223416565b6122ce565b604080516080810182526001600160781b0383811680151583526000602080850182815285870193845260608601838152338085526001909352969092208551815493519451975160ff199094169015151761ff001916610100941515949094029390931770ffffffffffffffffffffffffffffff000019166201000096851696909602959095176001600160881b0316600160881b91909316029190911790556006549099509192506107b2916001600160a01b03169084612303565b337fc3b34c584e097adcd5d59ecaf4107928698a4f075c7753b5dbe28cd20d7ac1fd836107de8a61238e565b6040516107ec9291906147f8565b60405180910390a250505050505050505b6001600055565b600b5460ff16156108275760405162461bcd60e51b8152600401610411906146fc565b600019600054141561084b5760405162461bcd60e51b8152600401610411906147ac565b60001960009081553381526003602052604090205460ff1661087f5760405162461bcd60e51b81526004016104119061468c565b6108876133be565b610890846123f7565b905061089a6133e4565b6108a682888686612669565b6006549091506108c1906001600160a01b0316893089612917565b6108d1818763ffffffff61294116565b6001600160a01b038716600081815260016020908152604091829020845181549286015193860151606087015160ff199094169115159190911761ff001916610100941515949094029390931770ffffffffffffffffffffffffffffff00001916620100006001600160781b0394851602176001600160881b0316600160881b93909216929092021790557f40a9cb3a9707d3a68091d8ef7ffd4158d01d0b2ad92b1e489abe8312dd543023876109878461238e565b6040516109959291906147f8565b60405180910390a250506001600055505050505050565b6006546001600160a01b031690565b600b5460ff16156109de5760405162461bcd60e51b8152600401610411906146fc565b6000196000541415610a025760405162461bcd60e51b8152600401610411906147ac565b600019600055610a12823361130c565b610a2e5760405162461bcd60e51b81526004016104119061463c565b6001600160a01b03821660008181526004602052604090819020439055517f9a37e35722b49ddb4423d6a2457572e944ace1c590b8f3a14ff5eb4c7a83ca9590610a79908490614470565b60405180910390a250506001600055565b6001600160a01b0380831660009081526005602090815260408083209385168352929052205460ff165b92915050565b610ac2610d44565b6001600160a01b0316336001600160a01b031614610af25760405162461bcd60e51b8152600401610411906146ec565b6000196000541415610b165760405162461bcd60e51b8152600401610411906147ac565b60001960009081556001600160a01b03831681526003602052604090819020805460ff1916831515179055517feaeee7699e70e6b31ac89ec999ef6936b97ac1e364f0e1fcf584772372caa0d390610b719084908490614507565b60405180910390a150506001600055565b600b5460ff1615610ba55760405162461bcd60e51b8152600401610411906146fc565b6000196000541415610bc95760405162461bcd60e51b8152600401610411906147ac565b60001960009081553381526003602052604090205460ff16610bfd5760405162461bcd60e51b8152600401610411906146ac565b610c056133be565b610c0e846123f7565b9050610c186133e4565b610c2482898686612669565b600654909150610c3e906001600160a01b03168888612303565b610c4e818763ffffffff61297616565b6001600160a01b038816600090815260016020908152604091829020835181549285015193850151606086015160ff199094169115159190911761ff001916610100941515949094029390931770ffffffffffffffffffffffffffffff00001916620100006001600160781b0394851602176001600160881b0316600160881b9390921692909202179055610ce38282612999565b610cff5760405162461bcd60e51b81526004016104119061477c565b876001600160a01b03167f74348e8cb927b5536fe550310d0cdf05914498fcb04ad61b99c29e3899b0bce98888610d358561238e565b60405161099593929190614589565b6000610d6f7fb53127684a568b3173ae13b9f8a6016e243e63b6e8ee1178d6a717850b5d61036129f3565b905090565b600b5460ff1690565b600b5460ff1615610da05760405162461bcd60e51b8152600401610411906146fc565b6000196000541415610dc45760405162461bcd60e51b8152600401610411906147ac565b600019600055610dd4833361130c565b610df05760405162461bcd60e51b81526004016104119061463c565b6001600160a01b03831660009081526004602052604090205415801590610e345750600d546001600160a01b03841660009081526004602052604090205443910111155b610e505760405162461bcd60e51b81526004016104119061473c565b6001600160a01b038316600090815260046020526040812055610e716133be565b610e796129f7565b9050610e836133e4565b600080610e908488611deb565b92509250925080851015610eb65760405162461bcd60e51b81526004016104119061476c565b8115610ec55793840193610ecb565b80850394505b600654610ee2906001600160a01b03168787612303565b610ef2838663ffffffff61297616565b6001600160a01b038716600090815260016020908152604091829020855181549287015193870151606088015160ff199094169115159190911761ff001916610100941515949094029390931770ffffffffffffffffffffffffffffff00001916620100006001600160781b0394851602176001600160881b0316600160881b9390921692909202179055610f878484612999565b610fa35760405162461bcd60e51b81526004016104119061477c565b866001600160a01b03167f5cbceab3e5a3f7f2c0de8532ed22367c5b34ac743e712398d68fb28d64af99f787878585610fdb8961238e565b604051610fec95949392919061453d565b60405180910390a2505060016000555050505050565b3360009081526003602052604081205460ff166110315760405162461bcd60e51b8152600401610411906146dc565b600760009054906101000a90046001600160a01b03166001600160a01b03166398d5fdca6040518163ffffffff1660e01b815260040160206040518083038186803b15801561107f57600080fd5b505afa158015611093573d6000803e3d6000fd5b505050506040513d601f19601f82011682018060405250610d6f9190810190613aba565b6110bf610d44565b6001600160a01b0316336001600160a01b0316146110ef5760405162461bcd60e51b8152600401610411906146ec565b60001960005414156111135760405162461bcd60e51b8152600401610411906147ac565b600019600081905550806001600160a01b03166398d5fdca6040518163ffffffff1660e01b815260040160206040518083038186803b15801561115557600080fd5b505afa158015611169573d6000803e3d6000fd5b505050506040513d601f19601f8201168201806040525061118d9190810190613aba565b6111a95760405162461bcd60e51b81526004016104119061472c565b6007805473ffffffffffffffffffffffffffffffffffffffff19166001600160a01b0383161790556040517fad675642c3cba5442815383698d42cd28889533d9671a6d32cffea58ef0874da9061051a908390614470565b61120961340b565b506040805160608101825260095463ffffffff81168252640100000000810460ff16151560208301526501000000000090046001600160801b03169181019190915290565b611256610d44565b6001600160a01b0316336001600160a01b0316146112865760405162461bcd60e51b8152600401610411906146ec565b60001960005414156112aa5760405162461bcd60e51b8152600401610411906147ac565b6000196000556112b8612228565b8110156112d75760405162461bcd60e51b81526004016104119061465c565b600a8190556040517f248b36ced4662a14c995e0872f00eb61be4e3dea3913226cdeb513d64728cdca9061051a90839061460f565b6000816001600160a01b0316836001600160a01b0316148061134657506001600160a01b03821660009081526003602052604090205460ff165b8061137657506001600160a01b0380841660009081526005602090815260408083209386168352929052205460ff165b9392505050565b611385610d44565b6001600160a01b0316336001600160a01b0316146113b55760405162461bcd60e51b8152600401610411906146ec565b60001960005414156113d95760405162461bcd60e51b8152600401610411906147ac565b600d556001600055565b6113eb6133e4565b506001600160a01b03166000908152600160209081526040918290208251608081018452905460ff808216151583526101008204161515928201929092526001600160781b03620100008304811693820193909352600160881b909104909116606082015290565b600d5490565b61146161340b565b506001600160a01b03166000908152600260209081526040918290208251606081018452905463ffffffff81168252640100000000810460ff16151592820192909252650100000000009091046001600160801b03169181019190915290565b6114c9610d44565b6001600160a01b0316336001600160a01b0316146114f95760405162461bcd60e51b8152600401610411906146ec565b600019600054141561151d5760405162461bcd60e51b8152600401610411906147ac565b6000196000556040516115459060019061153690614465565b604051908190039020036129f3565b156115625760405162461bcd60e51b81526004016104119061470c565b611584600160405161157390614465565b604051908190039020036001612cf5565b6006805473ffffffffffffffffffffffffffffffffffffffff199081166001600160a01b0396871617909155600780548216948616949094179093556008805490931691909316179055600a55604080516060810182524263ffffffff16808252600060208301819052919092018190526009805463ffffffff19169092177fffffffffffffffffffffff0000000000000000000000000000000000ffffffff1690915560019055565b3360008181526005602090815260408083206001600160a01b038716845290915290819020805460ff1916841515179055517ffe9fa8ad7dbd5e50cbcd1a903ea64717cb80b02e6b737e74f7e2f070b3e4d15f9061168f9085908590614507565b60405180910390a25050565b6008546001600160a01b031690565b6007546001600160a01b031690565b600b5460ff16156116dc5760405162461bcd60e51b8152600401610411906146fc565b60001960005414156117005760405162461bcd60e51b8152600401610411906147ac565b60001960009081553381526003602052604090205460ff166117345760405162461bcd60e51b81526004016104119061468c565b61173d85612cf9565b6117456133be565b61174e826123f7565b9050606061175e82888787612d96565b90506060815160405190808252806020026020018201604052801561179d57816020015b61178a6133e4565b8152602001906001900390816117825790505b50905060005b88518110156117ea576000600460008b84815181106117be57fe5b6020908102919091018101516001600160a01b03168252810191909152604001600020556001016117a3565b5060005b82518110156118325761181383828151811061180657fe5b6020026020010151612e57565b82828151811061181f57fe5b60209081029190910101526001016117ee565b506000805b8851821015611ca45761184861342b565b89838151811061185457fe5b6020908102919091018101516040808201516001600160a01b0316600090815260039093529091205490915060ff1661189f5760405162461bcd60e51b81526004016104119061468c565b60008b8260200151815181106118b157fe5b6020026020010151905060008c8360000151815181106118cd57fe5b602002602001015190506118df6133e4565b6040808501518a516060870151925163970c2ba160e01b81526001600160a01b039092169263970c2ba1926119209233928992899291908d9060040161447e565b608060405180830381600087803b15801561193a57600080fd5b505af115801561194e573d6000803e3d6000fd5b505050506040513d601f19601f820116820180604052506119729190810190613a7e565b9050806060015185179450816001600160a01b0316836001600160a01b031614156119a05750505050611c99565b6119a86133e4565b878560200151815181106119b857fe5b602002602001015190506119ca6133e4565b888660000151815181106119da57fe5b60200260200101519050826040015115611a45578251611a0190839063ffffffff61294116565b6020830151611a1790839063ffffffff612ead16565b8251611a2a90829063ffffffff61297616565b6020830151611a4090829063ffffffff612ee216565b611a97565b8251611a5890839063ffffffff61297616565b6020830151611a6e90839063ffffffff612ee216565b8251611a8190829063ffffffff61294116565b6020830151611a9790829063ffffffff612ead16565b8160016000876001600160a01b03166001600160a01b0316815260200190815260200160002060008201518160000160006101000a81548160ff02191690831515021790555060208201518160000160016101000a81548160ff02191690831515021790555060408201518160000160026101000a8154816001600160781b0302191690836001600160781b0316021790555060608201518160000160116101000a8154816001600160781b0302191690836001600160781b031602179055509050508060016000866001600160a01b03166001600160a01b0316815260200190815260200160002060008201518160000160006101000a81548160ff02191690831515021790555060208201518160000160016101000a81548160ff02191690831515021790555060408201518160000160026101000a8154816001600160781b0302191690836001600160781b0316021790555060608201518160000160116101000a8154816001600160781b0302191690836001600160781b03160217905550905050836001600160a01b0316856001600160a01b03167f5171a2ba3550a103fd09ca39b7dcfdf328a5acef18e290c7802d69c8ba73d8d98860400151866000015187602001518860400151611c6f8961238e565b611c788961238e565b604051611c8a969594939291906145a4565b60405180910390a35050505050505b600190910190611837565b505060016000555050505050505050565b600a5490565b611cc3610d44565b6001600160a01b0316336001600160a01b031614611cf35760405162461bcd60e51b8152600401610411906146ec565b600b5460ff1615611d165760405162461bcd60e51b8152600401610411906146fc565b6000196000541415611d3a5760405162461bcd60e51b8152600401610411906147ac565b600019600055611d486133be565b611d506129f7565b90508281600001511015611d765760405162461bcd60e51b81526004016104119061464c565b8051821015611d975760405162461bcd60e51b81526004016104119061478c565b8051600c819055600b805460ff191660011790556040517f68e4c41627e835051be46337f1542645a60c7e6d6ea79efc5f20bdadae5f88d291611dd99161460f565b60405180910390a15050600160005550565b611df36133e4565b600080611dfe61340b565b506040850151611e0c61340b565b506001600160a01b0385166000908152600260209081526040918290208251606081018452905463ffffffff81168252640100000000810460ff16151592820192909252650100000000009091046001600160801b031691810191909152611e726133e4565b506001600160a01b0386166000908152600160209081526040918290208251608081018452905460ff808216151583526101008204161515928201929092526001600160781b03620100008304811693820193909352600160881b90910490911660608201528251825163ffffffff90811691161415611efd57945060009350839250612174915050565b6001600160a01b03871660009081526002602090815260409182902085518154928701519387015163ffffffff1990931663ffffffff9091161764ff000000001916640100000000931515939093029290921774ffffffffffffffffffffffffffffffff00000000001916650100000000006001600160801b039092169190910217905560608101516001600160781b0316611fa457945060009350839250612174915050565b611fac61345c565b50604080518082018252908401516001600160801b0316815260208085015115158183015283015115611fff576040830151611ff89082906001600160801b031663ffffffff612f0516565b9050612021565b604083015161201e9082906001600160801b031663ffffffff612fb416565b90505b816020015115158160200151151514159550851561206f5760608201518151612058916001600160781b031663ffffffff61303116565b945061206a828663ffffffff61294116565b6120a0565b6060820151815161208e916001600160781b031663ffffffff61304f16565b94506120a0828663ffffffff61297616565b6001600160a01b038816600081815260016020908152604091829020855181549287015193870151606088015160ff199094169115159190911761ff001916610100941515949094029390931770ffffffffffffffffffffffffffffff00001916620100006001600160781b0394851602176001600160881b0316600160881b93909216929092021790557f022694ffbbd957d26de6b85c040be68ec582d13d40114b29130581793a1bf31e87876121578661238e565b60405161216693929190614601565b60405180910390a250945050505b9250925092565b8151600090819081908190156121b7576121b0612196612228565b60408801516001600160781b03169063ffffffff6130a616565b91506121c5565b6121c2612196612228565b90505b60608601516000906121e6906001600160781b03168763ffffffff6130a616565b905086602001511561220957612202838263ffffffff6130e016565b925061221c565b612219828263ffffffff6130e016565b91505b50909590945092505050565b670de0b6b3a764000090565b600061137683836040518060400160405280601e81526020017f536166654d6174683a207375627472616374696f6e206f766572666c6f770000815250613105565b600061137683836040518060400160405280601a81526020017f536166654d6174683a206469766973696f6e206279207a65726f000000000000815250613131565b60008183106122c75781611376565b5090919050565b60006f0100000000000000000000000000000082106122ff5760405162461bcd60e51b81526004016104119061469c565b5090565b60405161238990849063a9059cbb60e01b906123259086908690602401614522565b60408051601f198184030181529190526020810180517bffffffffffffffffffffffffffffffffffffffffffffffffffffffff167fffffffff0000000000000000000000000000000000000000000000000000000090931692909217909152613168565b505050565b60008082602001516123a15760006123b3565b6f010000000000000000000000000000005b83516123c05760006123c6565b600160f81b5b608085604001516001600160781b0316901b85606001516001600160781b031617171790508060001b915050919050565b6123ff6133be565b61240761340b565b506040805160608101825260095463ffffffff808216808452640100000000830460ff1615156020850152650100000000009092046001600160801b031693830193909352909160009161245e9142919061223416565b9050801561260d5761246e61345c565b50604080518082018252838201516001600160801b031681526020808501511515908201526008549151633afb52f560e21b8152909160009182916001600160a01b03169063ebed4bd4906124c790879060040161460f565b604080518083038186803b1580156124de57600080fd5b505afa1580156124f2573d6000803e3d6000fd5b505050506040513d601f19601f820116820180604052506125169190810190613a4e565b909250905061252b818863ffffffff61303116565b9050811561254a57612543838263ffffffff612fb416565b925061255d565b61255a838263ffffffff612f0516565b92505b60405180606001604052806125714261324d565b63ffffffff1681526020018460200151151581526020016125958560000151613273565b6001600160801b0390811690915281516009805460208501516040860151909416650100000000000274ffffffffffffffffffffffffffffffff0000000000199415156401000000000264ff000000001963ffffffff90951663ffffffff199093169290921793909316179290921617905594505050505b7f995e61c355733308eab39a59e1e1ac167274cdd1ad707fe4d13e127a0107642861263783613298565b604051612644919061460f565b60405180910390a15060408051606081018252938452600a5460208501528301525090565b6126716133e4565b61267961340b565b50604085015161268761340b565b506001600160a01b0385166000908152600260209081526040918290208251606081018452905463ffffffff81168252640100000000810460ff16151592820192909252650100000000009091046001600160801b0316918101919091526126ed6133e4565b506001600160a01b0386166000908152600160209081526040918290208251608081018452905460ff808216151583526101008204161515928201929092526001600160781b03620100008304811693820193909352600160881b90910490911660608201528251825163ffffffff9081169116141561277157925061290f915050565b6001600160a01b03871660009081526002602090815260409182902085518154928701519387015163ffffffff1990931663ffffffff9091161764ff000000001916640100000000931515939093029290921774ffffffffffffffffffffffffffffffff00000000001916650100000000006001600160801b039092169190910217905560608101516001600160781b031661281157925061290f915050565b841561282c57612827818763ffffffff61294116565b61283c565b61283c818763ffffffff61297616565b6001600160a01b038716600081815260016020908152604091829020845181549286015193860151606087015160ff199094169115159190911761ff001916610100941515949094029390931770ffffffffffffffffffffffffffffff00001916620100006001600160781b0394851602176001600160881b0316600160881b93909216929092021790557f022694ffbbd957d26de6b85c040be68ec582d13d40114b29130581793a1bf31e86886128f38561238e565b60405161290293929190614601565b60405180910390a2925050505b949350505050565b60405161293b9085906323b872dd60e01b90612325908790879087906024016144df565b50505050565b61294961345c565b612952836132d8565b9050612964818363ffffffff612fb416565b9050612389838263ffffffff61330516565b61297e61345c565b612987836132d8565b9050612964818363ffffffff612f0516565b60008060006129b585600001518561217b90919063ffffffff16565b915091506129d08560200151826130a690919063ffffffff16565b6129e86129db612228565b849063ffffffff6130a616565b101595945050505050565b5490565b6129ff6133be565b612a0761340b565b506040805160608101825260095463ffffffff81168252640100000000810460ff161515602080840191909152650100000000009091046001600160801b0316828401526007548351634c6afee560e11b8152935192936000936001600160a01b03909216926398d5fdca92600480840193829003018186803b158015612a8d57600080fd5b505afa158015612aa1573d6000803e3d6000fd5b505050506040513d601f19601f82011682018060405250612ac59190810190613aba565b90506000612ae6836000015163ffffffff164261223490919063ffffffff16565b90508015612c9557612af661345c565b50604080518082018252848201516001600160801b031681526020808601511515908201526008549151633afb52f560e21b8152909160009182916001600160a01b03169063ebed4bd490612b4f90879060040161460f565b604080518083038186803b158015612b6657600080fd5b505afa158015612b7a573d6000803e3d6000fd5b505050506040513d601f19601f82011682018060405250612b9e9190810190613a4e565b9092509050612bb3818663ffffffff61303116565b90508115612bd257612bcb838263ffffffff612fb416565b9250612be5565b612be2838263ffffffff612f0516565b92505b6040518060600160405280612bf94261324d565b63ffffffff168152602001846020015115158152602001612c1d8560000151613273565b6001600160801b0390811690915281516009805460208501516040860151909416650100000000000274ffffffffffffffffffffffffffffffff0000000000199415156401000000000264ff000000001963ffffffff90951663ffffffff199093169290921793909316179290921617905595505050505b7f995e61c355733308eab39a59e1e1ac167274cdd1ad707fe4d13e127a01076428612cbf84613298565b604051612ccc919061460f565b60405180910390a15060408051606081018252918252600a546020830152810191909152905090565b9055565b6000815111612d1a5760405162461bcd60e51b81526004016104119061474c565b600081600081518110612d2957fe5b602002602001015190506000600190505b8251811015612389576000838281518110612d5157fe5b60200260200101519050826001600160a01b0316816001600160a01b031611612d8c5760405162461bcd60e51b8152600401610411906147cc565b9150600101612d3a565b6060600084519050606081604051908082528060200260200182016040528015612dda57816020015b612dc76133e4565b815260200190600190039081612dbf5790505b50905060005b82811015612e4c57612e2d88888381518110612df857fe5b6020026020010151888481518110612e0c57fe5b6020026020010151888581518110612e2057fe5b6020026020010151612669565b828281518110612e3957fe5b6020908102919091010152600101612de0565b509695505050505050565b612e5f6133e4565b604051806080016040528083600001511515815260200183602001511515815260200183604001516001600160781b0316815260200183606001516001600160781b03168152509050919050565b612eb561345c565b612ebe83613328565b9050612ed0818363ffffffff612f0516565b9050612389838263ffffffff61335f16565b612eea61345c565b612ef383613328565b9050612ed0818363ffffffff612fb416565b612f0d61345c565b8260200151612f49576040518060400160405280612f388560000151856130e090919063ffffffff16565b815260006020909101529050610ab4565b8251821015612f81576040805180820190915283518190612f70908563ffffffff61223416565b815260016020909101529050610ab4565b6040518060400160405280612fa385600001518561223490919063ffffffff16565b815260006020909101529392505050565b612fbc61345c565b826020015115612fe8576040518060400160405280612f708560000151856130e090919063ffffffff16565b8251821115613013576040518060400160405280612f7085600001518561223490919063ffffffff16565b6040805180820190915283518190612fa3908563ffffffff61223416565b6000611376670de0b6b3a7640000610638858563ffffffff6130a616565b600082158061305c575081155b1561306957506000610ab4565b611376600161309a670de0b6b3a76400006106388361308e898963ffffffff6130a616565b9063ffffffff61223416565b9063ffffffff6130e016565b6000826130b557506000610ab4565b828202828482816130c257fe5b04146113765760405162461bcd60e51b81526004016104119061471c565b6000828201838110156113765760405162461bcd60e51b81526004016104119061467c565b600081848411156131295760405162461bcd60e51b8152600401610411919061462b565b505050900390565b600081836131525760405162461bcd60e51b8152600401610411919061462b565b50600083858161315e57fe5b0495945050505050565b61317a826001600160a01b0316613385565b6131965760405162461bcd60e51b8152600401610411906147bc565b60006060836001600160a01b0316836040516131b29190614459565b6000604051808303816000865af19150503d80600081146131ef576040519150601f19603f3d011682016040523d82523d6000602084013e6131f4565b606091505b5091509150816132165760405162461bcd60e51b8152600401610411906146cc565b80511561293b57808060200190516132319190810190613a30565b61293b5760405162461bcd60e51b81526004016104119061479c565b600064010000000082106122ff5760405162461bcd60e51b81526004016104119061475c565b6000600160801b82106122ff5760405162461bcd60e51b8152600401610411906146bc565b6000806088836000015163ffffffff16901b83602001516132ba5760006132c0565b600160801b5b60408501516001600160801b03161717915050919050565b6132e061345c565b50604080518082018252908201516001600160781b0316815290511515602082015290565b8051613310906122ce565b6001600160781b031660408301526020015115159052565b61333061345c565b604051806040016040528083606001516001600160781b03168152602001836020015115158152509050919050565b805161336a906122ce565b6001600160781b031660608301526020908101511515910152565b6000813f7fc5d2460186f7233c927e7db2dcc703c0e500b653ca82273b7bfad8045d85a47081811480159061290f575050151592915050565b604051806060016040528060008152602001600081526020016133df61340b565b905290565b60408051608081018252600080825260208201819052918101829052606081019190915290565b604080516060810182526000808252602082018190529181019190915290565b6040518060800160405280600081526020016000815260200160006001600160a01b03168152602001606081525090565b604080518082019091526000808252602082015290565b8035610ab48161492b565b600082601f83011261348f57600080fd5b81356134a261349d8261482d565b614806565b915081818352602084019350602081019050838560208402820111156134c757600080fd5b60005b838110156134f357816134dd8882613473565b84525060209283019291909101906001016134ca565b5050505092915050565b600082601f83011261350e57600080fd5b813561351c61349d8261482d565b9150818183526020840193506020810190508385602084028201111561354157600080fd5b60005b838110156134f35781613557888261363a565b8452506020928301929190910190600101613544565b600082601f83011261357e57600080fd5b813561358c61349d8261482d565b81815260209384019390925082018360005b838110156134f357813586016135b488826136aa565b845250602092830192919091019060010161359e565b600082601f8301126135db57600080fd5b81356135e961349d8261482d565b9150818183526020840193506020810190508385602084028201111561360e57600080fd5b60005b838110156134f357816136248882613794565b8452506020928301929190910190600101613611565b8035610ab481614942565b8051610ab481614942565b8051610ab48161494b565b600082601f83011261366c57600080fd5b813561367a61349d8261484e565b9150808252602083016020830185838301111561369657600080fd5b6136a18382846148e9565b50505092915050565b6000608082840312156136bc57600080fd5b6136c66080614806565b905060006136d48484613794565b82525060206136e584848301613794565b60208301525060406136f984828501613473565b604083015250606082013567ffffffffffffffff81111561371957600080fd5b6137258482850161365b565b60608301525092915050565b60006080828403121561374357600080fd5b61374d6080614806565b9050600061375b8484613650565b825250602061376c84848301613650565b602083015250604061378084828501613645565b604083015250606061372584828501613650565b8035610ab48161494b565b6000602082840312156137b157600080fd5b600061290f8484613473565b600080604083850312156137d057600080fd5b60006137dc8585613473565b92505060206137ed85828601613473565b9150509250929050565b6000806000806080858703121561380d57600080fd5b60006138198787613473565b945050602061382a87828801613473565b935050604061383b87828801613473565b925050606061384c87828801613794565b91505092959194509250565b60008060006060848603121561386d57600080fd5b60006138798686613473565b935050602061388a86828701613473565b925050604061389b86828701613794565b9150509250925092565b60008060008060008060c087890312156138be57600080fd5b60006138ca8989613473565b96505060206138db89828a01613473565b95505060406138ec89828a01613794565b94505060606138fd89828a01613794565b935050608061390e89828a01613794565b92505060a061391f89828a0161363a565b9150509295509295509295565b6000806040838503121561393f57600080fd5b600061394b8585613473565b92505060206137ed8582860161363a565b600080600080600060a0868803121561397457600080fd5b853567ffffffffffffffff81111561398b57600080fd5b6139978882890161347e565b955050602086013567ffffffffffffffff8111156139b457600080fd5b6139c08882890161356d565b945050604086013567ffffffffffffffff8111156139dd57600080fd5b6139e9888289016135ca565b935050606086013567ffffffffffffffff811115613a0657600080fd5b613a12888289016134fd565b9250506080613a2388828901613794565b9150509295509295909350565b600060208284031215613a4257600080fd5b600061290f8484613645565b60008060408385031215613a6157600080fd5b6000613a6d8585613645565b92505060206137ed85828601613650565b600060808284031215613a9057600080fd5b600061290f8484613731565b600060208284031215613aae57600080fd5b600061290f8484613794565b600060208284031215613acc57600080fd5b600061290f8484613650565b60008060408385031215613aeb57600080fd5b6000613af78585613794565b92505060206137ed85828601613794565b613b11816148c8565b82525050565b613b1181614888565b613b1181614893565b613b1181614898565b6000613b3d82614876565b613b478185614883565b9350613b578185602086016148f5565b9290920192915050565b6000613b6c82614876565b613b76818561487a565b9350613b868185602086016148f5565b613b8f81614921565b9093019392505050565b613b11816148d3565b6000613baf601b83614883565b7f61786f722e50657270657475616c56312e696e697469616c697a6500000000008152601b0192915050565b6000613be8602b8361487a565b7f73656e64657220646f6573206e6f742068617665207065726d697373696f6e2081527f746f207769746864726177000000000000000000000000000000000000000000602082015260400192915050565b6000613c4760328361487a565b7f4f7261636c65207072696365206973206c657373207468616e2074686520707281527f6f7669646564206c6f77657220626f756e640000000000000000000000000000602082015260400192915050565b6000613ca6602f8361487a565b7f54686520636f6c6c61746572616c20726571756972656d656e742063616e6e6f81527f7420626520756e64657220313030250000000000000000000000000000000000602082015260400192915050565b6000613d0560268361487a565b7f4f6e6c79207065726d697474656420647572696e672066696e616c207365747481527f6c656d656e740000000000000000000000000000000000000000000000000000602082015260400192915050565b6000613d64601b8361487a565b7f536166654d6174683a206164646974696f6e206f766572666c6f770000000000815260200192915050565b6000613d9d601d8361487a565b7f747261646572206973206e6f7420676c6f62616c206f70657261746f72000000815260200192915050565b6000613dd660278361487a565b7f53616665436173743a2076616c756520646f65736e27742066697420696e203181527f3230206269747300000000000000000000000000000000000000000000000000602082015260400192915050565b6000613e3560218361487a565b7f6f6e6c7920676c6f62616c206f70657261746f722063616e20776974686472618152607760f81b602082015260400192915050565b6000613e7860278361487a565b7f53616665436173743a2076616c756520646f65736e27742066697420696e203181527f3238206269747300000000000000000000000000000000000000000000000000602082015260400192915050565b6000613ed760208361487a565b7f5361666545524332303a206c6f772d6c6576656c2063616c6c206661696c6564815260200192915050565b6000613f10602a8361487a565b7f4f7261636c6520707269636520726571756573746572206e6f7420676c6f626181527f6c206f70657261746f7200000000000000000000000000000000000000000000602082015260400192915050565b6000613f6f601e8361487a565b7f41646d696e61626c653a2063616c6c6572206973206e6f742061646d696e0000815260200192915050565b6000613fa860258361487a565b7f4e6f74207065726d697474656420647572696e672066696e616c20736574746c81527f656d656e74000000000000000000000000000000000000000000000000000000602082015260400192915050565b6000614007601f8361487a565b7f50657270657475616c563120616c726561647920696e697469616c697a656400815260200192915050565b600061404060218361487a565b7f536166654d6174683a206d756c7469706c69636174696f6e206f766572666c6f8152607760f81b602082015260400192915050565b600061408360258361487a565b7f4e6577206f7261636c652063616e6e6f742072657475726e2061207a65726f2081527f7072696365000000000000000000000000000000000000000000000000000000602082015260400192915050565b60006140e2600f8361487a565b7f63616e6e6f742077697468647261770000000000000000000000000000000000815260200192915050565b600061411b60228361487a565b7f4163636f756e7473206d7573742068617665206e6f6e2d7a65726f206c656e678152610e8d60f31b602082015260400192915050565b600061415f60268361487a565b7f53616665436173743a2076616c756520646f65736e27742066697420696e203381527f3220626974730000000000000000000000000000000000000000000000000000602082015260400192915050565b60006141be60298361487a565b7f696e73756666696369656e742062616c616e636520746f20636f76657220667581527f6e64696e67206665650000000000000000000000000000000000000000000000602082015260400192915050565b600061421d601a8361487a565b7f6163636f756e74206e6f7420636f6c6c61746572616c697a6564000000000000815260200192915050565b600061425660358361487a565b7f4f7261636c652070726963652069732067726561746572207468616e2074686581527f2070726f766964656420757070657220626f756e640000000000000000000000602082015260400192915050565b60006142b5602a8361487a565b7f5361666545524332303a204552433230206f7065726174696f6e20646964206e81527f6f74207375636365656400000000000000000000000000000000000000000000602082015260400192915050565b6000614314601f8361487a565b7f5265656e7472616e637947756172643a207265656e7472616e742063616c6c00815260200192915050565b600061434d601f8361487a565b7f5361666545524332303a2063616c6c20746f206e6f6e2d636f6e747261637400815260200192915050565b600061438660228361487a565b7f4163636f756e7473206d75737420626520736f7274656420616e6420756e6971815261756560f01b602082015260400192915050565b805160808301906143ce8482613b20565b5060208201516143e16020850182613b20565b5060408201516143f4604085018261443e565b50606082015161293b606085018261443e565b805160608301906144188482614450565b50602082015161442b6020850182613b20565b50604082015161293b6040850182614447565b613b118161489b565b613b11816148a7565b613b11816148bf565b60006113768284613b32565b6000610ab482613ba2565b60208101610ab48284613b17565b60c0810161448c8289613b08565b6144996020830188613b17565b6144a66040830187613b17565b6144b36060830186613b29565b81810360808301526144c58185613b61565b90506144d460a0830184613b29565b979650505050505050565b606081016144ed8286613b17565b6144fa6020830185613b17565b61290f6040830184613b29565b604081016145158285613b17565b6113766020830184613b20565b604081016145308285613b17565b6113766020830184613b29565b60a0810161454b8288613b17565b6145586020830187613b29565b6145656040830186613b20565b6145726060830185613b29565b61457f6080830184613b29565b9695505050505050565b606081016145978286613b17565b6144fa6020830185613b29565b60c081016145b28289613b17565b6145bf6020830188613b29565b6145cc6040830187613b29565b6145d96060830186613b20565b6145e66080830185613b29565b6144d460a0830184613b29565b60208101610ab48284613b20565b606081016145978286613b20565b60208101610ab48284613b29565b60208101610ab48284613b99565b602080825281016113768184613b61565b60208082528101610ab481613bdb565b60208082528101610ab481613c3a565b60208082528101610ab481613c99565b60208082528101610ab481613cf8565b60208082528101610ab481613d57565b60208082528101610ab481613d90565b60208082528101610ab481613dc9565b60208082528101610ab481613e28565b60208082528101610ab481613e6b565b60208082528101610ab481613eca565b60208082528101610ab481613f03565b60208082528101610ab481613f62565b60208082528101610ab481613f9b565b60208082528101610ab481613ffa565b60208082528101610ab481614033565b60208082528101610ab481614076565b60208082528101610ab4816140d5565b60208082528101610ab48161410e565b60208082528101610ab481614152565b60208082528101610ab4816141b1565b60208082528101610ab481614210565b60208082528101610ab481614249565b60208082528101610ab4816142a8565b60208082528101610ab481614307565b60208082528101610ab481614340565b60208082528101610ab481614379565b60808101610ab482846143bd565b60608101610ab48284614407565b604081016145308285613b29565b60405181810167ffffffffffffffff8111828210171561482557600080fd5b604052919050565b600067ffffffffffffffff82111561484457600080fd5b5060209081020190565b600067ffffffffffffffff82111561486557600080fd5b506020601f91909101601f19160190565b5190565b90815260200190565b919050565b6000610ab4826148b3565b151590565b90565b6001600160781b031690565b6001600160801b031690565b6001600160a01b031690565b63ffffffff1690565b6000610ab4826148de565b6000610ab482614898565b6000610ab482614888565b82818337506000910152565b60005b838110156149105781810151838201526020016148f8565b8381111561293b5750506000910152565b601f01601f191690565b61493481614888565b811461493f57600080fd5b50565b61493481614893565b6149348161489856fea365627a7a72315820e6202d1ddb59bb7ebbe5292e2814d165c7c049b803bfe03ee3150f7e725f45b56c6578706572696d656e74616cf564736f6c63430005100040",
  "devdoc": {
    "author": "axor",
    "details": "Main perpetual market implementation contract that inherits from other contracts.",
    "methods": {
      "deposit(address,address,uint256,uint256,uint256,bool)": {
        "details": "Emits LogIndex, LogAccountSettled, and LogDeposit events.",
        "params": {
          "account": "The account for which to credit the deposit.",
          "amount": "the amount of tokens to deposit."
        }
      },
      "enableFinalSettlement(uint256,uint256)": {
        "details": "Must be called by the PerpetualV1 admin. The current result of the price oracle must be between the two bounds supplied. Emits the LogFinalSettlementEnabled event.",
        "params": {
          "priceLowerBound": "The lower-bound (inclusive) of the acceptable price range.",
          "priceUpperBound": "The upper-bound (inclusive) of the acceptable price range."
        }
      },
      "getAccountBalance(address)": {
        "params": {
          "account": "The address of the account to query the balances of."
        },
        "return": "The balances of the account."
      },
      "getAccountIndex(address)": {
        "params": {
          "account": "The address of the account to query the index of."
        },
        "return": "The index of the account."
      },
      "getAdmin()": {
        "return": "The EIP-1967 proxy admin"
      },
      "getFinalSettlementEnabled()": {
        "return": "True if final-settlement was enabled, false otherwise."
      },
      "getFunderContract()": {
        "return": "The address of the funder contract."
      },
      "getGlobalIndex()": {
        "return": "The most recently cached global index."
      },
      "getIsGlobalOperator(address)": {
        "params": {
          "operator": "The address of the operator to query the status of."
        },
        "return": "True if the address is a global operator, false otherwise."
      },
      "getIsLocalOperator(address,address)": {
        "params": {
          "account": "The account to query the operator for.",
          "operator": "The address of the operator to query the status of."
        },
        "return": "True if the operator is a local operator of the account, false otherwise."
      },
      "getMinCollateral()": {
        "return": "The minimum-acceptable collateralization ratio, returned as a fixed-point number with 18 decimals of precision."
      },
      "getOracleContract()": {
        "return": "The address of the price oracle contract."
      },
      "getOraclePrice()": {
        "details": "Only able to be called by global operators.",
        "return": "The price returned by the current price oracle."
      },
      "getTokenContract()": {
        "return": "The address of the ERC20 token."
      },
      "hasAccountPermissions(address,address)": {
        "params": {
          "account": "The account to query.",
          "operator": "The address to query."
        },
        "return": "True if the operator has permission to operate the account,                  and false otherwise."
      },
      "initializeV1(address,address,address,uint256)": {
        "details": "Once-only initializer function that replaces the constructor since this contract is proxied. Uses a non-colliding storage slot to store if this version has been initialized.Can only be called once and can only be called by the admin of this contract.",
        "params": {
          "funder": "The address of the funder contract.",
          "minCollateral": "The minimum allowed initial collateralization percentage.",
          "oracle": "The address of the price oracle contract.",
          "token": "The address of the token to use for margin-deposits."
        }
      },
      "requestWithdraw(address,address)": {
        "details": "Emits LogIndex, LogAccountSettled, and LogWithdraw events.",
        "params": {
          "account": "The account for which to debit the withdrawal.",
          "destination": "The address to which the tokens are transferred."
        }
      },
      "setFunder(address)": {
        "details": "Must be called by the PerpetualV1 admin. Emits the LogSetFunder event.",
        "params": {
          "funder": "The address of the new funder contract."
        }
      },
      "setGlobalOperator(address,bool)": {
        "details": "Must be called by the PerpetualV1 admin. Emits the LogSetGlobalOperator event.",
        "params": {
          "approved": "True if approved, false if disapproved.",
          "operator": "The address for which to enable or disable global operator privileges."
        }
      },
      "setLocalOperator(address,bool)": {
        "details": "Emits the LogSetLocalOperator event.",
        "params": {
          "approved": "True for approval, false for disapproval.",
          "operator": "The account that is approved or disapproved."
        }
      },
      "setMinCollateral(uint256)": {
        "details": "Must be called by the PerpetualV1 admin. Emits the LogSetMinCollateral event.",
        "params": {
          "minCollateral": "The new value of the minimum initial collateralization percentage,                       as a fixed-point number with 18 decimals."
        }
      },
      "setOracle(address)": {
        "details": "Must be called by the PerpetualV1 admin. Emits the LogSetOracle event.",
        "params": {
          "oracle": "The address of the new price oracle contract."
        }
      },
      "setWithdrawDelayBlock(uint256)": {
        "details": "Must be called by the PerpetualV1 admin.",
        "params": {
          "withdrawDelayBlock": "The new value of the number of blocks required to withdraw funds."
        }
      },
      "trade(address[],(uint256,uint256,address,bytes)[],uint256[],bool[],uint256)": {
        "details": "Emits the LogIndex event, one LogAccountSettled event for each account in `accounts`, and the LogTrade event for each trade in `trades`.",
        "params": {
          "accounts": "The sorted list of accounts that are involved in trades.",
          "trades": "The list of trades to execute in-order."
        }
      },
      "userWithdraw(address,address,uint256)": {
        "details": "Emits LogIndex, LogAccountSettled, and LogWithdraw events.",
        "params": {
          "account": "The account for which to debit the withdrawal.",
          "amount": "The amount of tokens to withdraw.",
          "destination": "The address to which the tokens are transferred."
        }
      },
      "withdraw(address,address,uint256,uint256,uint256,bool)": {
        "details": "Emits LogIndex, LogAccountSettled, and LogWithdraw events.",
        "params": {
          "account": "The account for which to debit the withdrawal.",
          "amount": "The amount of tokens to withdraw.",
          "destination": "The address to which the tokens are transferred.",
          "price": "The oracle price at the time of the withdrawal."
        }
      },
      "withdrawFinalSettlement()": {
        "details": "Emits the LogAccountSettled and LogWithdrawFinalSettlement events."
      }
    },
    "title": "PerpetualV1"
  },
  "userdoc": {
    "methods": {
      "deposit(address,address,uint256,uint256,uint256,bool)": {
        "notice": "Deposit some amount of margin tokens from the msg.sender into an account."
      },
      "enableFinalSettlement(uint256,uint256)": {
        "notice": "Enables final settlement if the oracle price is between the provided bounds."
      },
      "getAccountBalance(address)": {
        "notice": "Get the balance of an account, without accounting for changes in the index."
      },
      "getAccountIndex(address)": {
        "notice": "Gets the most recently cached index of an account."
      },
      "getFinalSettlementEnabled()": {
        "notice": "Gets the status of whether final-settlement was initiated by the Admin."
      },
      "getFunderContract()": {
        "notice": "Gets the current address of the funder contract."
      },
      "getGlobalIndex()": {
        "notice": "Gets the most recently cached global index."
      },
      "getIsGlobalOperator(address)": {
        "notice": "Gets the global operator status of an address."
      },
      "getIsLocalOperator(address,address)": {
        "notice": "Gets the local operator status of an operator for a particular account."
      },
      "getMinCollateral()": {
        "notice": "Gets minimum collateralization ratio of the protocol."
      },
      "getOracleContract()": {
        "notice": "Gets the current address of the price oracle contract."
      },
      "getOraclePrice()": {
        "notice": "Gets the price returned by the oracle."
      },
      "getTokenContract()": {
        "notice": "Gets the address of the ERC20 margin contract used for margin deposits."
      },
      "hasAccountPermissions(address,address)": {
        "notice": "Gets whether an address has permissions to operate an account."
      },
      "requestWithdraw(address,address)": {
        "notice": "Set Withdraw acction."
      },
      "setFunder(address)": {
        "notice": "Sets a new funder contract."
      },
      "setGlobalOperator(address,bool)": {
        "notice": "Add or remove a Global Operator address."
      },
      "setLocalOperator(address,bool)": {
        "notice": "Grants or revokes permission for another account to perform certain actions on behalf of the sender."
      },
      "setMinCollateral(uint256)": {
        "notice": "Sets a new value for the minimum collateralization percentage."
      },
      "setOracle(address)": {
        "notice": "Sets a new price oracle contract."
      },
      "setWithdrawDelayBlock(uint256)": {
        "notice": "Sets a new value for the number of blocks required to withdraw funds."
      },
      "trade(address[],(uint256,uint256,address,bytes)[],uint256[],bool[],uint256)": {
        "notice": "Submits one or more trades between any number of accounts."
      },
      "userWithdraw(address,address,uint256)": {
        "notice": "Withdraw some amount of margin tokens from an account to a destination address."
      },
      "withdraw(address,address,uint256,uint256,uint256,bool)": {
        "notice": "Withdraw some amount of margin tokens from an account to a destination address."
      },
      "withdrawFinalSettlement()": {
        "notice": "Withdraw the number of margin tokens equal to the value of the account at the time that final settlement occurred."
      }
    },
    "notice": "A market for a perpetual contract, a financial derivative which may be traded on margin and which aims to closely track the spot price of an underlying asset. The underlying asset is specified via the price oracle which reports its spot price. Tethering of the perpetual market price is supported by a funding oracle which governs funding payments between longs and shorts."
  },
  "storageLayout": {
    "storage": [
      {
        "astId": 1537,
        "contract": "contracts/protocol/v1/PerpetualV1.sol:PerpetualV1",
        "label": "_STATUS_",
        "offset": 0,
        "slot": "0",
        "type": "t_uint256"
      },
      {
        "astId": 3905,
        "contract": "contracts/protocol/v1/PerpetualV1.sol:PerpetualV1",
        "label": "_BALANCES_",
        "offset": 0,
        "slot": "1",
        "type": "t_mapping(t_address,t_struct(Balance)5256_storage)"
      },
      {
        "astId": 3909,
        "contract": "contracts/protocol/v1/PerpetualV1.sol:PerpetualV1",
        "label": "_LOCAL_INDEXES_",
        "offset": 0,
        "slot": "2",
        "type": "t_mapping(t_address,t_struct(Index)5247_storage)"
      },
      {
        "astId": 3913,
        "contract": "contracts/protocol/v1/PerpetualV1.sol:PerpetualV1",
        "label": "_GLOBAL_OPERATORS_",
        "offset": 0,
        "slot": "3",
        "type": "t_mapping(t_address,t_bool)"
      },
      {
        "astId": 3917,
        "contract": "contracts/protocol/v1/PerpetualV1.sol:PerpetualV1",
        "label": "_WITHDRAW_DELAY_",
        "offset": 0,
        "slot": "4",
        "type": "t_mapping(t_address,t_uint256)"
      },
      {
        "astId": 3923,
        "contract": "contracts/protocol/v1/PerpetualV1.sol:PerpetualV1",
        "label": "_LOCAL_OPERATORS_",
        "offset": 0,
        "slot": "5",
        "type": "t_mapping(t_address,t_mapping(t_address,t_bool))"
      },
      {
        "astId": 3925,
        "contract": "contracts/protocol/v1/PerpetualV1.sol:PerpetualV1",
        "label": "_TOKEN_",
        "offset": 0,
        "slot": "6",
        "type": "t_address"
      },
      {
        "astId": 3927,
        "contract": "contracts/protocol/v1/PerpetualV1.sol:PerpetualV1",
        "label": "_ORACLE_",
        "offset": 0,
        "slot": "7",
        "type": "t_address"
      },
      {
        "astId": 3929,
        "contract": "contracts/protocol/v1/PerpetualV1.sol:PerpetualV1",
        "label": "_FUNDER_",
        "offset": 0,
        "slot": "8",
        "type": "t_address"
      },
      {
        "astId": 3931,
        "contract": "contracts/protocol/v1/PerpetualV1.sol:PerpetualV1",
        "label": "_GLOBAL_INDEX_",
        "offset": 0,
        "slot": "9",
        "type": "t_struct(Index)5247_storage"
      },
      {
        "astId": 3933,
        "contract": "contracts/protocol/v1/PerpetualV1.sol:PerpetualV1",
        "label": "_MIN_COLLATERAL_",
        "offset": 0,
        "slot": "10",
        "type": "t_uint256"
      },
      {
        "astId": 3935,
        "contract": "contracts/protocol/v1/PerpetualV1.sol:PerpetualV1",
        "label": "_FINAL_SETTLEMENT_ENABLED_",
        "offset": 0,
        "slot": "11",
        "type": "t_bool"
      },
      {
        "astId": 3937,
        "contract": "contracts/protocol/v1/PerpetualV1.sol:PerpetualV1",
        "label": "_FINAL_SETTLEMENT_PRICE_",
        "offset": 0,
        "slot": "12",
        "type": "t_uint256"
      },
      {
        "astId": 3939,
        "contract": "contracts/protocol/v1/PerpetualV1.sol:PerpetualV1",
        "label": "_WITHDRAW_DELAY_BLOCK_",
        "offset": 0,
        "slot": "13",
        "type": "t_uint256"
      }
    ],
    "types": {
      "t_address": {
        "encoding": "inplace",
        "label": "address",
        "numberOfBytes": "20"
      },
      "t_bool": {
        "encoding": "inplace",
        "label": "bool",
        "numberOfBytes": "1"
      },
      "t_mapping(t_address,t_bool)": {
        "encoding": "mapping",
        "key": "t_address",
        "label": "mapping(address => bool)",
        "numberOfBytes": "32",
        "value": "t_bool"
      },
      "t_mapping(t_address,t_mapping(t_address,t_bool))": {
        "encoding": "mapping",
        "key": "t_address",
        "label": "mapping(address => mapping(address => bool))",
        "numberOfBytes": "32",
        "value": "t_mapping(t_address,t_bool)"
      },
      "t_mapping(t_address,t_struct(Balance)5256_storage)": {
        "encoding": "mapping",
        "key": "t_address",
        "label": "mapping(address => struct P1Types.Balance)",
        "numberOfBytes": "32",
        "value": "t_struct(Balance)5256_storage"
      },
      "t_mapping(t_address,t_struct(Index)5247_storage)": {
        "encoding": "mapping",
        "key": "t_address",
        "label": "mapping(address => struct P1Types.Index)",
        "numberOfBytes": "32",
        "value": "t_struct(Index)5247_storage"
      },
      "t_mapping(t_address,t_uint256)": {
        "encoding": "mapping",
        "key": "t_address",
        "label": "mapping(address => uint256)",
        "numberOfBytes": "32",
        "value": "t_uint256"
      },
      "t_struct(Balance)5256_storage": {
        "encoding": "inplace",
        "label": "struct P1Types.Balance",
        "members": [
          {
            "astId": 5249,
            "contract": "contracts/protocol/v1/PerpetualV1.sol:PerpetualV1",
            "label": "marginIsPositive",
            "offset": 0,
            "slot": "0",
            "type": "t_bool"
          },
          {
            "astId": 5251,
            "contract": "contracts/protocol/v1/PerpetualV1.sol:PerpetualV1",
            "label": "positionIsPositive",
            "offset": 1,
            "slot": "0",
            "type": "t_bool"
          },
          {
            "astId": 5253,
            "contract": "contracts/protocol/v1/PerpetualV1.sol:PerpetualV1",
            "label": "margin",
            "offset": 2,
            "slot": "0",
            "type": "t_uint120"
          },
          {
            "astId": 5255,
            "contract": "contracts/protocol/v1/PerpetualV1.sol:PerpetualV1",
            "label": "position",
            "offset": 17,
            "slot": "0",
            "type": "t_uint120"
          }
        ],
        "numberOfBytes": "32"
      },
      "t_struct(Index)5247_storage": {
        "encoding": "inplace",
        "label": "struct P1Types.Index",
        "members": [
          {
            "astId": 5242,
            "contract": "contracts/protocol/v1/PerpetualV1.sol:PerpetualV1",
            "label": "timestamp",
            "offset": 0,
            "slot": "0",
            "type": "t_uint32"
          },
          {
            "astId": 5244,
            "contract": "contracts/protocol/v1/PerpetualV1.sol:PerpetualV1",
            "label": "isPositive",
            "offset": 4,
            "slot": "0",
            "type": "t_bool"
          },
          {
            "astId": 5246,
            "contract": "contracts/protocol/v1/PerpetualV1.sol:PerpetualV1",
            "label": "value",
            "offset": 5,
            "slot": "0",
            "type": "t_uint128"
          }
        ],
        "numberOfBytes": "32"
      },
      "t_uint120": {
        "encoding": "inplace",
        "label": "uint120",
        "numberOfBytes": "15"
      },
      "t_uint128": {
        "encoding": "inplace",
        "label": "uint128",
        "numberOfBytes": "16"
      },
      "t_uint256": {
        "encoding": "inplace",
        "label": "uint256",
        "numberOfBytes": "32"
      },
      "t_uint32": {
        "encoding": "inplace",
        "label": "uint32",
        "numberOfBytes": "4"
      }
    }
  }
}