{
  "address": "0x15AD02A98D3d95e4D60897A553193C8911f685e0",
  "abi": [
    {
      "anonymous": false,
      "inputs": [
        {
          "indexed": true,
          "internalType": "address",
          "name": "oracle",
          "type": "address"
        },
        {
          "indexed": false,
          "internalType": "uint256",
          "name": "adjustment",
          "type": "uint256"
        }
      ],
      "name": "LogAdjustmentSet",
      "type": "event"
    },
    {
      "anonymous": false,
      "inputs": [
        {
          "indexed": true,
          "internalType": "address",
          "name": "sender",
          "type": "address"
        },
        {
          "indexed": false,
          "internalType": "address",
          "name": "oracle",
          "type": "address"
        }
      ],
      "name": "LogRouteSet",
      "type": "event"
    },
    {
      "anonymous": false,
      "inputs": [
        {
          "indexed": true,
          "internalType": "address",
          "name": "previousOwner",
          "type": "address"
        },
        {
          "indexed": true,
          "internalType": "address",
          "name": "newOwner",
          "type": "address"
        }
      ],
      "name": "OwnershipTransferred",
      "type": "event"
    },
    {
      "constant": true,
      "inputs": [
        {
          "internalType": "address",
          "name": "",
          "type": "address"
        }
      ],
      "name": "_ADJUSTMENTS_",
      "outputs": [
        {
          "internalType": "uint256",
          "name": "",
          "type": "uint256"
        }
      ],
      "payable": false,
      "stateMutability": "view",
      "type": "function"
    },
    {
      "constant": true,
      "inputs": [
        {
          "internalType": "address",
          "name": "",
          "type": "address"
        }
      ],
      "name": "_ROUTER_",
      "outputs": [
        {
          "internalType": "address",
          "name": "",
          "type": "address"
        }
      ],
      "payable": false,
      "stateMutability": "view",
      "type": "function"
    },
    {
      "constant": true,
      "inputs": [],
      "name": "getPrice",
      "outputs": [
        {
          "internalType": "uint256",
          "name": "",
          "type": "uint256"
        }
      ],
      "payable": false,
      "stateMutability": "view",
      "type": "function"
    },
    {
      "constant": true,
      "inputs": [],
      "name": "isOwner",
      "outputs": [
        {
          "internalType": "bool",
          "name": "",
          "type": "bool"
        }
      ],
      "payable": false,
      "stateMutability": "view",
      "type": "function"
    },
    {
      "constant": true,
      "inputs": [],
      "name": "owner",
      "outputs": [
        {
          "internalType": "address",
          "name": "",
          "type": "address"
        }
      ],
      "payable": false,
      "stateMutability": "view",
      "type": "function"
    },
    {
      "constant": false,
      "inputs": [],
      "name": "renounceOwnership",
      "outputs": [],
      "payable": false,
      "stateMutability": "nonpayable",
      "type": "function"
    },
    {
      "constant": false,
      "inputs": [
        {
          "internalType": "address",
          "name": "oracle",
          "type": "address"
        },
        {
          "internalType": "uint256",
          "name": "adjustment",
          "type": "uint256"
        }
      ],
      "name": "setAdjustment",
      "outputs": [],
      "payable": false,
      "stateMutability": "nonpayable",
      "type": "function"
    },
    {
      "constant": false,
      "inputs": [
        {
          "internalType": "address",
          "name": "sender",
          "type": "address"
        },
        {
          "internalType": "address",
          "name": "oracle",
          "type": "address"
        }
      ],
      "name": "setRoute",
      "outputs": [],
      "payable": false,
      "stateMutability": "nonpayable",
      "type": "function"
    },
    {
      "constant": false,
      "inputs": [
        {
          "internalType": "address",
          "name": "newOwner",
          "type": "address"
        }
      ],
      "name": "transferOwnership",
      "outputs": [],
      "payable": false,
      "stateMutability": "nonpayable",
      "type": "function"
    }
  ],
  "transactionHash": "0x7128db31c96eff88a4634e47e8c4d6f3d87c886ccaf290251b67580625cb9c20",
  "args": [],
  "numDeployments": 1,
  "solcInputHash": "1bd7185fc182f445a21d38e03e9aa98e",
  "bytecode": "0x608060405260006100176001600160e01b0361006616565b600080546001600160a01b0319166001600160a01b0383169081178255604051929350917f8be0079c531659141344cd1fd0a4f28419497f9722a3daafe3b4186f6b6457e0908290a35061006a565b3390565b6109d6806100796000396000f3fe608060405234801561001057600080fd5b50600436106100a35760003560e01c80638f32d59b11610076578063ca670a7a1161005b578063ca670a7a14610120578063f2fde38b14610133578063f77b3a1714610146576100a3565b80638f32d59b1461010357806398d5fdca14610118576100a3565b80630505e94d146100a857806346fb89ce146100bd578063715018a6146100e65780638da5cb5b146100ee575b600080fd5b6100bb6100b636600461064c565b610159565b005b6100d06100cb366004610626565b6101ff565b6040516100dd9190610902565b60405180910390f35b6100bb610211565b6100f661028c565b6040516100dd9190610885565b61010b61029b565b6040516100dd9190610893565b6100d06102bf565b6100f661012e366004610626565b6103cc565b6100bb610141366004610626565b6103e7565b6100bb610154366004610686565b610417565b61016161029b565b6101865760405162461bcd60e51b815260040161017d906108e2565b60405180910390fd5b6001600160a01b0382811660008181526001602052604090819020805473ffffffffffffffffffffffffffffffffffffffff19169385169390931790925590517f16f50a0fb14e340612b259bd02dedc506aae22cf39d7215c0b8d5e85030e87b3906101f3908490610885565b60405180910390a25050565b60026020526000908152604090205481565b61021961029b565b6102355760405162461bcd60e51b815260040161017d906108e2565b600080546040516001600160a01b03909116907f8be0079c531659141344cd1fd0a4f28419497f9722a3daafe3b4186f6b6457e0908390a36000805473ffffffffffffffffffffffffffffffffffffffff19169055565b6000546001600160a01b031690565b600080546001600160a01b03166102b0610486565b6001600160a01b031614905090565b336000908152600160205260408120546001600160a01b0316806102f55760405162461bcd60e51b815260040161017d906108f2565b6001600160a01b0381166000908152600260205260409020548061031e5761031b61048a565b90505b6000826001600160a01b03166357de26a46040518163ffffffff1660e01b815260040160206040518083038186803b15801561035957600080fd5b505afa15801561036d573d6000803e3d6000fd5b505050506040513d601f19601f8201168201806040525061039191908101906106b6565b905060006103a5828463ffffffff61049616565b9050806103c45760405162461bcd60e51b815260040161017d906108c2565b935050505090565b6001602052600090815260409020546001600160a01b031681565b6103ef61029b565b61040b5760405162461bcd60e51b815260040161017d906108e2565b610414816104c9565b50565b61041f61029b565b61043b5760405162461bcd60e51b815260040161017d906108e2565b6001600160a01b03821660008181526002602052604090819020839055517f6a5ac74b5033ae621af6e2a1a99689adfe6563e782629d2b76aad70664178e21906101f3908490610902565b3390565b670de0b6b3a764000090565b60006104c0670de0b6b3a76400006104b4858563ffffffff61055716565b9063ffffffff61059116565b90505b92915050565b6001600160a01b0381166104ef5760405162461bcd60e51b815260040161017d906108b2565b600080546040516001600160a01b03808516939216917f8be0079c531659141344cd1fd0a4f28419497f9722a3daafe3b4186f6b6457e091a36000805473ffffffffffffffffffffffffffffffffffffffff19166001600160a01b0392909216919091179055565b600082610566575060006104c3565b8282028284828161057357fe5b04146104c05760405162461bcd60e51b815260040161017d906108d2565b60006104c083836040518060400160405280601a81526020017f536166654d6174683a206469766973696f6e206279207a65726f000000000000815250600081836105ef5760405162461bcd60e51b815260040161017d91906108a1565b5060008385816105fb57fe5b0495945050505050565b80356104c381610976565b80516104c38161098a565b80356104c38161098a565b60006020828403121561063857600080fd5b60006106448484610605565b949350505050565b6000806040838503121561065f57600080fd5b600061066b8585610605565b925050602061067c85828601610605565b9150509250929050565b6000806040838503121561069957600080fd5b60006106a58585610605565b925050602061067c8582860161061b565b6000602082840312156106c857600080fd5b60006106448484610610565b6106dd8161091d565b82525050565b6106dd81610928565b60006106f782610910565b6107018185610914565b935061071181856020860161093c565b61071a8161096c565b9093019392505050565b6000610731602683610914565b7f4f776e61626c653a206e6577206f776e657220697320746865207a65726f206181527f6464726573730000000000000000000000000000000000000000000000000000602082015260400192915050565b6000610790601e83610914565b7f4f7261636c6520776f756c642072657475726e207a65726f2070726963650000815260200192915050565b60006107c9602183610914565b7f536166654d6174683a206d756c7469706c69636174696f6e206f766572666c6f8152607760f81b602082015260400192915050565b600061080c602083610914565b7f4f776e61626c653a2063616c6c6572206973206e6f7420746865206f776e6572815260200192915050565b6000610845602283610914565b7f53656e646572206e6f7420617574686f72697a656420746f2067657420707269815261636560f01b602082015260400192915050565b6106dd8161092d565b602081016104c382846106d4565b602081016104c382846106e3565b602080825281016104c081846106ec565b602080825281016104c381610724565b602080825281016104c381610783565b602080825281016104c3816107bc565b602080825281016104c3816107ff565b602080825281016104c381610838565b602081016104c3828461087c565b5190565b90815260200190565b60006104c382610930565b151590565b90565b6001600160a01b031690565b60005b8381101561095757818101518382015260200161093f565b83811115610966576000848401525b50505050565b601f01601f191690565b61097f8161091d565b811461041457600080fd5b61097f8161092d56fea365627a7a72315820d3fd6749a4f675f4f9a9c74c34c0788c3100907f23e860581bf240cbc9ed76726c6578706572696d656e74616cf564736f6c63430005100040",
  "devdoc": {
    "author": "axor",
    "methods": {
      "getPrice()": {
        "return": "The price as a fixed-point number with 18 decimals."
      },
      "isOwner()": {
        "details": "Returns true if the caller is the current owner."
      },
      "owner()": {
        "details": "Returns the address of the current owner."
      },
      "renounceOwnership()": {
        "details": "Leaves the contract without owner. It will not be possible to call `onlyOwner` functions anymore. Can only be called by the current owner.     * NOTE: Renouncing ownership will leave the contract without an owner, thereby removing any functionality that is only available to the owner."
      },
      "setAdjustment(address,uint256)": {
        "details": "Allows the owner to set an adjustment to an oracle source.",
        "params": {
          "adjustment": "The adjustment to set when reading from the oracle.",
          "oracle": "The oracle to apply the adjustment to."
        }
      },
      "setRoute(address,address)": {
        "details": "Allows the owner to set a route for a particular sender.",
        "params": {
          "oracle": "The oracle to route the sender to.",
          "sender": "The sender to set the route for."
        }
      },
      "transferOwnership(address)": {
        "details": "Transfers ownership of the contract to a new account (`newOwner`). Can only be called by the current owner."
      }
    },
    "title": "P1MakerOracle"
  },
  "userdoc": {
    "methods": {
      "getPrice()": {
        "notice": "Returns the price of the underlying asset relative to the margin token."
      }
    },
    "notice": "P1Oracle that reads the price from a Maker V2 Oracle."
  },
  "storageLayout": {
    "storage": [
      {
        "astId": 220,
        "contract": "contracts/protocol/v1/oracles/P1MakerOracle.sol:P1MakerOracle",
        "label": "_owner",
        "offset": 0,
        "slot": "0",
        "type": "t_address"
      },
      {
        "astId": 5824,
        "contract": "contracts/protocol/v1/oracles/P1MakerOracle.sol:P1MakerOracle",
        "label": "_ROUTER_",
        "offset": 0,
        "slot": "1",
        "type": "t_mapping(t_address,t_address)"
      },
      {
        "astId": 5828,
        "contract": "contracts/protocol/v1/oracles/P1MakerOracle.sol:P1MakerOracle",
        "label": "_ADJUSTMENTS_",
        "offset": 0,
        "slot": "2",
        "type": "t_mapping(t_address,t_uint256)"
      }
    ],
    "types": {
      "t_address": {
        "encoding": "inplace",
        "label": "address",
        "numberOfBytes": "20"
      },
      "t_mapping(t_address,t_address)": {
        "encoding": "mapping",
        "key": "t_address",
        "label": "mapping(address => address)",
        "numberOfBytes": "32",
        "value": "t_address"
      },
      "t_mapping(t_address,t_uint256)": {
        "encoding": "mapping",
        "key": "t_address",
        "label": "mapping(address => uint256)",
        "numberOfBytes": "32",
        "value": "t_uint256"
      },
      "t_uint256": {
        "encoding": "inplace",
        "label": "uint256",
        "numberOfBytes": "32"
      }
    }
  }
}