{
  "address": "0x8bf308b6096a15574B452e82bBEc88485D2964B6",
  "abi": [
    {
      "anonymous": false,
      "inputs": [
        {
          "indexed": true,
          "internalType": "address",
          "name": "account",
          "type": "address"
        },
        {
          "indexed": false,
          "internalType": "bool",
          "name": "isPositive",
          "type": "bool"
        },
        {
          "indexed": false,
          "internalType": "uint256",
          "name": "amount",
          "type": "uint256"
        },
        {
          "indexed": false,
          "internalType": "bytes32",
          "name": "balance",
          "type": "bytes32"
        }
      ],
      "name": "LogAccountSettled",
      "type": "event"
    },
    {
      "anonymous": false,
      "inputs": [
        {
          "indexed": true,
          "internalType": "address",
          "name": "account",
          "type": "address"
        },
        {
          "indexed": false,
          "internalType": "uint256",
          "name": "amount",
          "type": "uint256"
        },
        {
          "indexed": false,
          "internalType": "bytes32",
          "name": "balance",
          "type": "bytes32"
        }
      ],
      "name": "LogDeposit",
      "type": "event"
    },
    {
      "anonymous": false,
      "inputs": [
        {
          "indexed": false,
          "internalType": "uint256",
          "name": "settlementPrice",
          "type": "uint256"
        }
      ],
      "name": "LogFinalSettlementEnabled",
      "type": "event"
    },
    {
      "anonymous": false,
      "inputs": [
        {
          "indexed": false,
          "internalType": "bytes32",
          "name": "index",
          "type": "bytes32"
        }
      ],
      "name": "LogIndex",
      "type": "event"
    },
    {
      "anonymous": false,
      "inputs": [
        {
          "indexed": false,
          "internalType": "address",
          "name": "funder",
          "type": "address"
        }
      ],
      "name": "LogSetFunder",
      "type": "event"
    },
    {
      "anonymous": false,
      "inputs": [
        {
          "indexed": false,
          "internalType": "address",
          "name": "operator",
          "type": "address"
        },
        {
          "indexed": false,
          "internalType": "bool",
          "name": "approved",
          "type": "bool"
        }
      ],
      "name": "LogSetGlobalOperator",
      "type": "event"
    },
    {
      "anonymous": false,
      "inputs": [
        {
          "indexed": true,
          "internalType": "address",
          "name": "sender",
          "type": "address"
        },
        {
          "indexed": false,
          "internalType": "address",
          "name": "operator",
          "type": "address"
        },
        {
          "indexed": false,
          "internalType": "bool",
          "name": "approved",
          "type": "bool"
        }
      ],
      "name": "LogSetLocalOperator",
      "type": "event"
    },
    {
      "anonymous": false,
      "inputs": [
        {
          "indexed": false,
          "internalType": "uint256",
          "name": "minCollateral",
          "type": "uint256"
        }
      ],
      "name": "LogSetMinCollateral",
      "type": "event"
    },
    {
      "anonymous": false,
      "inputs": [
        {
          "indexed": false,
          "internalType": "address",
          "name": "oracle",
          "type": "address"
        }
      ],
      "name": "LogSetOracle",
      "type": "event"
    },
    {
      "anonymous": false,
      "inputs": [
        {
          "indexed": true,
          "internalType": "address",
          "name": "account",
          "type": "address"
        },
        {
          "indexed": false,
          "internalType": "address",
          "name": "destination",
          "type": "address"
        }
      ],
      "name": "LogSetWithdraw",
      "type": "event"
    },
    {
      "anonymous": false,
      "inputs": [
        {
          "indexed": true,
          "internalType": "address",
          "name": "maker",
          "type": "address"
        },
        {
          "indexed": true,
          "internalType": "address",
          "name": "taker",
          "type": "address"
        },
        {
          "indexed": false,
          "internalType": "address",
          "name": "trader",
          "type": "address"
        },
        {
          "indexed": false,
          "internalType": "uint256",
          "name": "marginAmount",
          "type": "uint256"
        },
        {
          "indexed": false,
          "internalType": "uint256",
          "name": "positionAmount",
          "type": "uint256"
        },
        {
          "indexed": false,
          "internalType": "bool",
          "name": "isBuy",
          "type": "bool"
        },
        {
          "indexed": false,
          "internalType": "bytes32",
          "name": "makerBalance",
          "type": "bytes32"
        },
        {
          "indexed": false,
          "internalType": "bytes32",
          "name": "takerBalance",
          "type": "bytes32"
        }
      ],
      "name": "LogTrade",
      "type": "event"
    },
    {
      "anonymous": false,
      "inputs": [
        {
          "indexed": true,
          "internalType": "address",
          "name": "account",
          "type": "address"
        },
        {
          "indexed": false,
          "internalType": "address",
          "name": "destination",
          "type": "address"
        },
        {
          "indexed": false,
          "internalType": "uint256",
          "name": "amount",
          "type": "uint256"
        },
        {
          "indexed": false,
          "internalType": "bool",
          "name": "settlementIsPositive",
          "type": "bool"
        },
        {
          "indexed": false,
          "internalType": "uint256",
          "name": "settlementAmount",
          "type": "uint256"
        },
        {
          "indexed": false,
          "internalType": "bytes32",
          "name": "balance",
          "type": "bytes32"
        }
      ],
      "name": "LogUserForceWithdraw",
      "type": "event"
    },
    {
      "anonymous": false,
      "inputs": [
        {
          "indexed": true,
          "internalType": "address",
          "name": "account",
          "type": "address"
        },
        {
          "indexed": false,
          "internalType": "address",
          "name": "destination",
          "type": "address"
        },
        {
          "indexed": false,
          "internalType": "uint256",
          "name": "amount",
          "type": "uint256"
        },
        {
          "indexed": false,
          "internalType": "bytes32",
          "name": "balance",
          "type": "bytes32"
        }
      ],
      "name": "LogWithdraw",
      "type": "event"
    },
    {
      "anonymous": false,
      "inputs": [
        {
          "indexed": true,
          "internalType": "address",
          "name": "account",
          "type": "address"
        },
        {
          "indexed": false,
          "internalType": "uint256",
          "name": "amount",
          "type": "uint256"
        },
        {
          "indexed": false,
          "internalType": "bytes32",
          "name": "balance",
          "type": "bytes32"
        }
      ],
      "name": "LogWithdrawFinalSettlement",
      "type": "event"
    },
    {
      "constant": false,
      "inputs": [
        {
          "internalType": "address",
          "name": "from",
          "type": "address"
        },
        {
          "internalType": "address",
          "name": "account",
          "type": "address"
        },
        {
          "internalType": "uint256",
          "name": "amount",
          "type": "uint256"
        },
        {
          "internalType": "uint256",
          "name": "price",
          "type": "uint256"
        },
        {
          "internalType": "uint256",
          "name": "settlementAmounts",
          "type": "uint256"
        },
        {
          "internalType": "bool",
          "name": "settlementIsPositives",
          "type": "bool"
        }
      ],
      "name": "deposit",
      "outputs": [],
      "payable": false,
      "stateMutability": "nonpayable",
      "type": "function"
    },
    {
      "constant": false,
      "inputs": [
        {
          "internalType": "uint256",
          "name": "priceLowerBound",
          "type": "uint256"
        },
        {
          "internalType": "uint256",
          "name": "priceUpperBound",
          "type": "uint256"
        }
      ],
      "name": "enableFinalSettlement",
      "outputs": [],
      "payable": false,
      "stateMutability": "nonpayable",
      "type": "function"
    },
    {
      "constant": true,
      "inputs": [
        {
          "internalType": "address",
          "name": "account",
          "type": "address"
        }
      ],
      "name": "getAccountBalance",
      "outputs": [
        {
          "components": [
            {
              "internalType": "bool",
              "name": "marginIsPositive",
              "type": "bool"
            },
            {
              "internalType": "bool",
              "name": "positionIsPositive",
              "type": "bool"
            },
            {
              "internalType": "uint120",
              "name": "margin",
              "type": "uint120"
            },
            {
              "internalType": "uint120",
              "name": "position",
              "type": "uint120"
            }
          ],
          "internalType": "struct P1Types.Balance",
          "name": "",
          "type": "tuple"
        }
      ],
      "payable": false,
      "stateMutability": "view",
      "type": "function"
    },
    {
      "constant": true,
      "inputs": [
        {
          "internalType": "address",
          "name": "account",
          "type": "address"
        }
      ],
      "name": "getAccountIndex",
      "outputs": [
        {
          "components": [
            {
              "internalType": "uint32",
              "name": "timestamp",
              "type": "uint32"
            },
            {
              "internalType": "bool",
              "name": "isPositive",
              "type": "bool"
            },
            {
              "internalType": "uint128",
              "name": "value",
              "type": "uint128"
            }
          ],
          "internalType": "struct P1Types.Index",
          "name": "",
          "type": "tuple"
        }
      ],
      "payable": false,
      "stateMutability": "view",
      "type": "function"
    },
    {
      "constant": true,
      "inputs": [],
      "name": "getAdmin",
      "outputs": [
        {
          "internalType": "address",
          "name": "",
          "type": "address"
        }
      ],
      "payable": false,
      "stateMutability": "view",
      "type": "function"
    },
    {
      "constant": true,
      "inputs": [],
      "name": "getDelayBlock",
      "outputs": [
        {
          "internalType": "uint256",
          "name": "",
          "type": "uint256"
        }
      ],
      "payable": false,
      "stateMutability": "view",
      "type": "function"
    },
    {
      "constant": true,
      "inputs": [],
      "name": "getFinalSettlementEnabled",
      "outputs": [
        {
          "internalType": "bool",
          "name": "",
          "type": "bool"
        }
      ],
      "payable": false,
      "stateMutability": "view",
      "type": "function"
    },
    {
      "constant": true,
      "inputs": [],
      "name": "getFunderContract",
      "outputs": [
        {
          "internalType": "address",
          "name": "",
          "type": "address"
        }
      ],
      "payable": false,
      "stateMutability": "view",
      "type": "function"
    },
    {
      "constant": true,
      "inputs": [],
      "name": "getGlobalIndex",
      "outputs": [
        {
          "components": [
            {
              "internalType": "uint32",
              "name": "timestamp",
              "type": "uint32"
            },
            {
              "internalType": "bool",
              "name": "isPositive",
              "type": "bool"
            },
            {
              "internalType": "uint128",
              "name": "value",
              "type": "uint128"
            }
          ],
          "internalType": "struct P1Types.Index",
          "name": "",
          "type": "tuple"
        }
      ],
      "payable": false,
      "stateMutability": "view",
      "type": "function"
    },
    {
      "constant": true,
      "inputs": [
        {
          "internalType": "address",
          "name": "operator",
          "type": "address"
        }
      ],
      "name": "getIsGlobalOperator",
      "outputs": [
        {
          "internalType": "bool",
          "name": "",
          "type": "bool"
        }
      ],
      "payable": false,
      "stateMutability": "view",
      "type": "function"
    },
    {
      "constant": true,
      "inputs": [
        {
          "internalType": "address",
          "name": "account",
          "type": "address"
        },
        {
          "internalType": "address",
          "name": "operator",
          "type": "address"
        }
      ],
      "name": "getIsLocalOperator",
      "outputs": [
        {
          "internalType": "bool",
          "name": "",
          "type": "bool"
        }
      ],
      "payable": false,
      "stateMutability": "view",
      "type": "function"
    },
    {
      "constant": true,
      "inputs": [],
      "name": "getMinCollateral",
      "outputs": [
        {
          "internalType": "uint256",
          "name": "",
          "type": "uint256"
        }
      ],
      "payable": false,
      "stateMutability": "view",
      "type": "function"
    },
    {
      "constant": true,
      "inputs": [],
      "name": "getOracleContract",
      "outputs": [
        {
          "internalType": "address",
          "name": "",
          "type": "address"
        }
      ],
      "payable": false,
      "stateMutability": "view",
      "type": "function"
    },
    {
      "constant": true,
      "inputs": [],
      "name": "getOraclePrice",
      "outputs": [
        {
          "internalType": "uint256",
          "name": "",
          "type": "uint256"
        }
      ],
      "payable": false,
      "stateMutability": "view",
      "type": "function"
    },
    {
      "constant": true,
      "inputs": [],
      "name": "getTokenContract",
      "outputs": [
        {
          "internalType": "address",
          "name": "",
          "type": "address"
        }
      ],
      "payable": false,
      "stateMutability": "view",
      "type": "function"
    },
    {
      "constant": true,
      "inputs": [
        {
          "internalType": "address",
          "name": "account",
          "type": "address"
        }
      ],
      "name": "getUserFlag",
      "outputs": [
        {
          "internalType": "uint256",
          "name": "",
          "type": "uint256"
        }
      ],
      "payable": false,
      "stateMutability": "view",
      "type": "function"
    },
    {
      "constant": true,
      "inputs": [
        {
          "internalType": "address",
          "name": "account",
          "type": "address"
        },
        {
          "internalType": "address",
          "name": "operator",
          "type": "address"
        }
      ],
      "name": "hasAccountPermissions",
      "outputs": [
        {
          "internalType": "bool",
          "name": "",
          "type": "bool"
        }
      ],
      "payable": false,
      "stateMutability": "view",
      "type": "function"
    },
    {
      "constant": false,
      "inputs": [
        {
          "internalType": "address",
          "name": "token",
          "type": "address"
        },
        {
          "internalType": "address",
          "name": "oracle",
          "type": "address"
        },
        {
          "internalType": "address",
          "name": "funder",
          "type": "address"
        },
        {
          "internalType": "uint256",
          "name": "minCollateral",
          "type": "uint256"
        }
      ],
      "name": "initializeV1",
      "outputs": [],
      "payable": false,
      "stateMutability": "nonpayable",
      "type": "function"
    },
    {
      "constant": false,
      "inputs": [
        {
          "internalType": "address",
          "name": "account",
          "type": "address"
        },
        {
          "internalType": "address",
          "name": "destination",
          "type": "address"
        }
      ],
      "name": "requestWithdraw",
      "outputs": [],
      "payable": false,
      "stateMutability": "nonpayable",
      "type": "function"
    },
    {
      "constant": false,
      "inputs": [
        {
          "internalType": "address",
          "name": "funder",
          "type": "address"
        }
      ],
      "name": "setFunder",
      "outputs": [],
      "payable": false,
      "stateMutability": "nonpayable",
      "type": "function"
    },
    {
      "constant": false,
      "inputs": [
        {
          "internalType": "address",
          "name": "operator",
          "type": "address"
        },
        {
          "internalType": "bool",
          "name": "approved",
          "type": "bool"
        }
      ],
      "name": "setGlobalOperator",
      "outputs": [],
      "payable": false,
      "stateMutability": "nonpayable",
      "type": "function"
    },
    {
      "constant": false,
      "inputs": [
        {
          "internalType": "address",
          "name": "operator",
          "type": "address"
        },
        {
          "internalType": "bool",
          "name": "approved",
          "type": "bool"
        }
      ],
      "name": "setLocalOperator",
      "outputs": [],
      "payable": false,
      "stateMutability": "nonpayable",
      "type": "function"
    },
    {
      "constant": false,
      "inputs": [
        {
          "internalType": "uint256",
          "name": "minCollateral",
          "type": "uint256"
        }
      ],
      "name": "setMinCollateral",
      "outputs": [],
      "payable": false,
      "stateMutability": "nonpayable",
      "type": "function"
    },
    {
      "constant": false,
      "inputs": [
        {
          "internalType": "address",
          "name": "oracle",
          "type": "address"
        }
      ],
      "name": "setOracle",
      "outputs": [],
      "payable": false,
      "stateMutability": "nonpayable",
      "type": "function"
    },
    {
      "constant": false,
      "inputs": [
        {
          "internalType": "uint256",
          "name": "withdrawDelayBlock",
          "type": "uint256"
        }
      ],
      "name": "setWithdrawDelayBlock",
      "outputs": [],
      "payable": false,
      "stateMutability": "nonpayable",
      "type": "function"
    },
    {
      "constant": false,
      "inputs": [
        {
          "internalType": "address[]",
          "name": "accounts",
          "type": "address[]"
        },
        {
          "components": [
            {
              "internalType": "uint256",
              "name": "takerIndex",
              "type": "uint256"
            },
            {
              "internalType": "uint256",
              "name": "makerIndex",
              "type": "uint256"
            },
            {
              "internalType": "address",
              "name": "trader",
              "type": "address"
            },
            {
              "internalType": "bytes",
              "name": "data",
              "type": "bytes"
            }
          ],
          "internalType": "struct P1Trade.TradeArg[]",
          "name": "trades",
          "type": "tuple[]"
        },
        {
          "internalType": "uint256[]",
          "name": "settlementAmounts",
          "type": "uint256[]"
        },
        {
          "internalType": "bool[]",
          "name": "settlementIsPositives",
          "type": "bool[]"
        },
        {
          "internalType": "uint256",
          "name": "price",
          "type": "uint256"
        }
      ],
      "name": "trade",
      "outputs": [],
      "payable": false,
      "stateMutability": "nonpayable",
      "type": "function"
    },
    {
      "constant": false,
      "inputs": [
        {
          "internalType": "address",
          "name": "account",
          "type": "address"
        },
        {
          "internalType": "address",
          "name": "destination",
          "type": "address"
        },
        {
          "internalType": "uint256",
          "name": "amount",
          "type": "uint256"
        }
      ],
      "name": "userWithdraw",
      "outputs": [],
      "payable": false,
      "stateMutability": "nonpayable",
      "type": "function"
    },
    {
      "constant": false,
      "inputs": [
        {
          "internalType": "address",
          "name": "account",
          "type": "address"
        },
        {
          "internalType": "address",
          "name": "destination",
          "type": "address"
        },
        {
          "internalType": "uint256",
          "name": "amount",
          "type": "uint256"
        },
        {
          "internalType": "uint256",
          "name": "price",
          "type": "uint256"
        },
        {
          "internalType": "uint256",
          "name": "settlementAmounts",
          "type": "uint256"
        },
        {
          "internalType": "bool",
          "name": "settlementIsPositives",
          "type": "bool"
        }
      ],
      "name": "withdraw",
      "outputs": [],
      "payable": false,
      "stateMutability": "nonpayable",
      "type": "function"
    },
    {
      "constant": false,
      "inputs": [],
      "name": "withdrawFinalSettlement",
      "outputs": [],
      "payable": false,
      "stateMutability": "nonpayable",
      "type": "function"
    }
  ],
  "transactionHash": "0x9555ee18dafa2981da95f15bccee031ad9f8ce11cf684e1f7ce0553ed51d315a",
  "args": [],
  "numDeployments": 1,
  "solcInputHash": "1bd7185fc182f445a21d38e03e9aa98e",
  "bytecode": "0x60806040526001600055614940806100186000396000f3fe608060405234801561001057600080fd5b50600436106101cf5760003560e01c806380d6368111610104578063a895155b116100a2578063e3bbb56511610071578063e3bbb565146103a3578063e77cb892146103ab578063e830b690146103be578063f40c3699146103c6576101cf565b8063a895155b14610362578063b4959e7214610375578063dc4f3a0e14610388578063e200b63014610390576101cf565b80638e9b3957116100de5780638e9b39571461031457806393423e9c146103275780639795d87b146103475780639ba63e9e1461034f576101cf565b806380d63681146102d9578063846321a4146102ee57806384ea286214610301576101cf565b806346d256c5116101715780637099366b1161014b5780637099366b1461029657806377ecf4111461029e578063796da7af146102b15780637adbf973146102c6576101cf565b806346d256c514610268578063642326591461027b5780636e9960c31461028e576101cf565b80631d13f344116101ad5780631d13f3441461021a57806328b7bede1461022d5780632f21dc32146102425780633a031bf014610255576101cf565b8063052f72d7146101d45780630acc8cd1146101fd578063142c69b314610212575b600080fd5b6101e76101e23660046137b7565b6103d9565b6040516101f491906145ac565b60405180910390f35b61021061020b3660046137b7565b6103f7565b005b610210610548565b6102106102283660046138bd565b610822565b6102356109ca565b6040516101f49190614429565b6102106102503660046137d5565b6109d9565b6101e76102633660046137d5565b610aa8565b610210610276366004613944565b610ad8565b6102106102893660046138bd565b610ba0565b610235610d74565b6101e7610da4565b6102106102ac366004613870565b610dad565b6102b9610fff565b6040516101f491906145c8565b6102106102d43660046137b7565b6110b4565b6102e16111fe565b6040516101f49190614793565b6102106102fc366004613ab4565b61124b565b6101e761030f3660046137d5565b611309565b610210610322366004613ab4565b61137a565b61033a6103353660046137b7565b6113e0565b6040516101f49190614785565b6102b9611450565b6102e161035d3660046137b7565b611456565b61021061037036600461380f565b6114be565b610210610383366004613944565b61162b565b610235611698565b6102b961039e3660046137b7565b6116a7565b6102356116c2565b6102106103b9366004613974565b6116d1565b6102b9611ccd565b6102106103d4366004613af0565b611cd3565b6001600160a01b031660009081526003602052604090205460ff1690565b6103ff610d74565b6001600160a01b0316336001600160a01b0316146104385760405162461bcd60e51b815260040161042f906146a5565b60405180910390fd5b600019600054141561045c5760405162461bcd60e51b815260040161042f90614755565b6000196000908155604051633afb52f560e21b81526001600160a01b0383169163ebed4bd49161048f91906004016145d6565b604080518083038186803b1580156104a657600080fd5b505afa1580156104ba573d6000803e3d6000fd5b505050506040513d601f19601f820116820180604052506104de9190810190613a66565b50506008805473ffffffffffffffffffffffffffffffffffffffff19166001600160a01b0383161790556040517f433b5c8c9ff78f62114ee8804a916537fa42009ebac4965bfed953f771789e4790610538908390614429565b60405180910390a1506001600055565b600b5460ff1661056a5760405162461bcd60e51b815260040161042f90614625565b600019600054141561058e5760405162461bcd60e51b815260040161042f90614755565b60001960005561059c6133d6565b506040805160608082018352600c548252600a546020808401919091528351918201845260095463ffffffff81168352640100000000810460ff161515918301919091526501000000000090046001600160801b031681840152918101919091526106056133fc565b61060f8233611e03565b50509050600080610624838560000151612193565b9150915080821015610639575050505061081b565b6000610662610646612240565b610656858563ffffffff61224c16565b9063ffffffff61228e16565b6006546040516370a0823160e01b81529192506000916001600160a01b03909116906370a0823190610698903090600401614429565b60206040518083038186803b1580156106b057600080fd5b505afa1580156106c4573d6000803e3d6000fd5b505050506040513d601f19601f820116820180604052506106e89190810190613ad2565b905060006106f682846122d0565b9050600061071261070d858463ffffffff61224c16565b6122e6565b604080516080810182526001600160781b0383811680151583526000602080850182815285870193845260608601838152338085526001909352969092208551815493519451975160ff199094169015151761ff001916610100941515949094029390931770ffffffffffffffffffffffffffffff000019166201000096851696909602959095176001600160881b0316600160881b91909316029190911790556006549099509192506107d0916001600160a01b0316908461231b565b337fc3b34c584e097adcd5d59ecaf4107928698a4f075c7753b5dbe28cd20d7ac1fd836107fc8a6123a6565b60405161080a9291906147a1565b60405180910390a250505050505050505b6001600055565b600b5460ff16156108455760405162461bcd60e51b815260040161042f906146b5565b60001960005414156108695760405162461bcd60e51b815260040161042f90614755565b60001960009081553381526003602052604090205460ff1661089d5760405162461bcd60e51b815260040161042f90614645565b6108a56133d6565b6108ae8461240f565b90506108b86133fc565b6108c482888686612681565b6006549091506108df906001600160a01b031689308961292f565b6108ef818763ffffffff61295916565b6001600160a01b038716600081815260016020908152604091829020845181549286015193860151606087015160ff199094169115159190911761ff001916610100941515949094029390931770ffffffffffffffffffffffffffffff00001916620100006001600160781b0394851602176001600160881b0316600160881b93909216929092021790557f40a9cb3a9707d3a68091d8ef7ffd4158d01d0b2ad92b1e489abe8312dd543023876109a5846123a6565b6040516109b39291906147a1565b60405180910390a250506001600055505050505050565b6006546001600160a01b031690565b600b5460ff16156109fc5760405162461bcd60e51b815260040161042f906146b5565b6000196000541415610a205760405162461bcd60e51b815260040161042f90614755565b600019600055610a308233611309565b610a4c5760405162461bcd60e51b815260040161042f906145f5565b6001600160a01b03821660008181526004602052604090819020439055517f9a37e35722b49ddb4423d6a2457572e944ace1c590b8f3a14ff5eb4c7a83ca9590610a97908490614429565b60405180910390a250506001600055565b6001600160a01b0380831660009081526005602090815260408083209385168352929052205460ff165b92915050565b610ae0610d74565b6001600160a01b0316336001600160a01b031614610b105760405162461bcd60e51b815260040161042f906146a5565b6000196000541415610b345760405162461bcd60e51b815260040161042f90614755565b60001960009081556001600160a01b03831681526003602052604090819020805460ff1916831515179055517feaeee7699e70e6b31ac89ec999ef6936b97ac1e364f0e1fcf584772372caa0d390610b8f90849084906144c0565b60405180910390a150506001600055565b600b5460ff1615610bc35760405162461bcd60e51b815260040161042f906146b5565b6000196000541415610be75760405162461bcd60e51b815260040161042f90614755565b60001960009081553381526003602052604090205460ff16610c1b5760405162461bcd60e51b815260040161042f90614665565b610c236133d6565b610c2c8461240f565b9050610c366133fc565b610c4282898686612681565b6001600160a01b03808a16600090815260046020526040812055600654919250610c6e9116888861231b565b610c7e818763ffffffff61298e16565b6001600160a01b038816600090815260016020908152604091829020835181549285015193850151606086015160ff199094169115159190911761ff001916610100941515949094029390931770ffffffffffffffffffffffffffffff00001916620100006001600160781b0394851602176001600160881b0316600160881b9390921692909202179055610d1382826129b1565b610d2f5760405162461bcd60e51b815260040161042f90614725565b876001600160a01b03167f74348e8cb927b5536fe550310d0cdf05914498fcb04ad61b99c29e3899b0bce98888610d65856123a6565b6040516109b393929190614542565b6000610d9f7fb53127684a568b3173ae13b9f8a6016e243e63b6e8ee1178d6a717850b5d6103612a0b565b905090565b600b5460ff1690565b600b5460ff1615610dd05760405162461bcd60e51b815260040161042f906146b5565b6000196000541415610df45760405162461bcd60e51b815260040161042f90614755565b600019600055610e048333611309565b610e205760405162461bcd60e51b815260040161042f906145f5565b6001600160a01b03831660009081526004602052604090205415801590610e645750600d546001600160a01b03841660009081526004602052604090205443910111155b610e805760405162461bcd60e51b815260040161042f906146f5565b6001600160a01b038316600090815260046020526040812055610ea16133d6565b610ea9612a0f565b9050610eb36133fc565b600080610ec08488611e03565b6006549295509093509150610edf906001600160a01b0316878761231b565b610eef838663ffffffff61298e16565b6001600160a01b038716600090815260016020908152604091829020855181549287015193870151606088015160ff199094169115159190911761ff001916610100941515949094029390931770ffffffffffffffffffffffffffffff00001916620100006001600160781b0394851602176001600160881b0316600160881b9390921692909202179055610f8484846129b1565b610fa05760405162461bcd60e51b815260040161042f90614725565b866001600160a01b03167f5cbceab3e5a3f7f2c0de8532ed22367c5b34ac743e712398d68fb28d64af99f787878585610fd8896123a6565b604051610fe99594939291906144f6565b60405180910390a2505060016000555050505050565b3360009081526003602052604081205460ff1661102e5760405162461bcd60e51b815260040161042f90614695565b600760009054906101000a90046001600160a01b03166001600160a01b03166398d5fdca6040518163ffffffff1660e01b815260040160206040518083038186803b15801561107c57600080fd5b505afa158015611090573d6000803e3d6000fd5b505050506040513d601f19601f82011682018060405250610d9f9190810190613ad2565b6110bc610d74565b6001600160a01b0316336001600160a01b0316146110ec5760405162461bcd60e51b815260040161042f906146a5565b60001960005414156111105760405162461bcd60e51b815260040161042f90614755565b600019600081905550806001600160a01b03166398d5fdca6040518163ffffffff1660e01b815260040160206040518083038186803b15801561115257600080fd5b505afa158015611166573d6000803e3d6000fd5b505050506040513d601f19601f8201168201806040525061118a9190810190613ad2565b6111a65760405162461bcd60e51b815260040161042f906146e5565b6007805473ffffffffffffffffffffffffffffffffffffffff19166001600160a01b0383161790556040517fad675642c3cba5442815383698d42cd28889533d9671a6d32cffea58ef0874da90610538908390614429565b611206613423565b506040805160608101825260095463ffffffff81168252640100000000810460ff16151560208301526501000000000090046001600160801b03169181019190915290565b611253610d74565b6001600160a01b0316336001600160a01b0316146112835760405162461bcd60e51b815260040161042f906146a5565b60001960005414156112a75760405162461bcd60e51b815260040161042f90614755565b6000196000556112b5612240565b8110156112d45760405162461bcd60e51b815260040161042f90614615565b600a8190556040517f248b36ced4662a14c995e0872f00eb61be4e3dea3913226cdeb513d64728cdca906105389083906145c8565b6000816001600160a01b0316836001600160a01b0316148061134357506001600160a01b03821660009081526003602052604090205460ff165b8061137357506001600160a01b0380841660009081526005602090815260408083209386168352929052205460ff165b9392505050565b611382610d74565b6001600160a01b0316336001600160a01b0316146113b25760405162461bcd60e51b815260040161042f906146a5565b60001960005414156113d65760405162461bcd60e51b815260040161042f90614755565b600d556001600055565b6113e86133fc565b506001600160a01b03166000908152600160209081526040918290208251608081018452905460ff808216151583526101008204161515928201929092526001600160781b03620100008304811693820193909352600160881b909104909116606082015290565b600d5490565b61145e613423565b506001600160a01b03166000908152600260209081526040918290208251606081018452905463ffffffff81168252640100000000810460ff16151592820192909252650100000000009091046001600160801b03169181019190915290565b6114c6610d74565b6001600160a01b0316336001600160a01b0316146114f65760405162461bcd60e51b815260040161042f906146a5565b600019600054141561151a5760405162461bcd60e51b815260040161042f90614755565b600019600055604051611542906001906115339061441e565b60405190819003902003612a0b565b1561155f5760405162461bcd60e51b815260040161042f906146c5565b61158160016040516115709061441e565b604051908190039020036001612d0d565b6006805473ffffffffffffffffffffffffffffffffffffffff199081166001600160a01b0396871617909155600780548216948616949094179093556008805490931691909316179055600a55604080516060810182524263ffffffff16808252600060208301819052919092018190526009805463ffffffff19169092177fffffffffffffffffffffff0000000000000000000000000000000000ffffffff1690915560019055565b3360008181526005602090815260408083206001600160a01b038716845290915290819020805460ff1916841515179055517ffe9fa8ad7dbd5e50cbcd1a903ea64717cb80b02e6b737e74f7e2f070b3e4d15f9061168c90859085906144c0565b60405180910390a25050565b6008546001600160a01b031690565b6001600160a01b031660009081526004602052604090205490565b6007546001600160a01b031690565b600b5460ff16156116f45760405162461bcd60e51b815260040161042f906146b5565b60001960005414156117185760405162461bcd60e51b815260040161042f90614755565b60001960009081553381526003602052604090205460ff1661174c5760405162461bcd60e51b815260040161042f90614645565b61175585612d11565b61175d6133d6565b6117668261240f565b9050606061177682888787612dae565b9050606081516040519080825280602002602001820160405280156117b557816020015b6117a26133fc565b81526020019060019003908161179a5790505b50905060005b8851811015611802576000600460008b84815181106117d657fe5b6020908102919091018101516001600160a01b03168252810191909152604001600020556001016117bb565b5060005b825181101561184a5761182b83828151811061181e57fe5b6020026020010151612e6f565b82828151811061183757fe5b6020908102919091010152600101611806565b506000805b8851821015611cbc57611860613443565b89838151811061186c57fe5b6020908102919091018101516040808201516001600160a01b0316600090815260039093529091205490915060ff166118b75760405162461bcd60e51b815260040161042f90614645565b60008b8260200151815181106118c957fe5b6020026020010151905060008c8360000151815181106118e557fe5b602002602001015190506118f76133fc565b6040808501518a516060870151925163970c2ba160e01b81526001600160a01b039092169263970c2ba1926119389233928992899291908d90600401614437565b608060405180830381600087803b15801561195257600080fd5b505af1158015611966573d6000803e3d6000fd5b505050506040513d601f19601f8201168201806040525061198a9190810190613a96565b9050806060015185179450816001600160a01b0316836001600160a01b031614156119b85750505050611cb1565b6119c06133fc565b878560200151815181106119d057fe5b602002602001015190506119e26133fc565b888660000151815181106119f257fe5b60200260200101519050826040015115611a5d578251611a1990839063ffffffff61295916565b6020830151611a2f90839063ffffffff612ec516565b8251611a4290829063ffffffff61298e16565b6020830151611a5890829063ffffffff612efa16565b611aaf565b8251611a7090839063ffffffff61298e16565b6020830151611a8690839063ffffffff612efa16565b8251611a9990829063ffffffff61295916565b6020830151611aaf90829063ffffffff612ec516565b8160016000876001600160a01b03166001600160a01b0316815260200190815260200160002060008201518160000160006101000a81548160ff02191690831515021790555060208201518160000160016101000a81548160ff02191690831515021790555060408201518160000160026101000a8154816001600160781b0302191690836001600160781b0316021790555060608201518160000160116101000a8154816001600160781b0302191690836001600160781b031602179055509050508060016000866001600160a01b03166001600160a01b0316815260200190815260200160002060008201518160000160006101000a81548160ff02191690831515021790555060208201518160000160016101000a81548160ff02191690831515021790555060408201518160000160026101000a8154816001600160781b0302191690836001600160781b0316021790555060608201518160000160116101000a8154816001600160781b0302191690836001600160781b03160217905550905050836001600160a01b0316856001600160a01b03167f5171a2ba3550a103fd09ca39b7dcfdf328a5acef18e290c7802d69c8ba73d8d98860400151866000015187602001518860400151611c87896123a6565b611c90896123a6565b604051611ca29695949392919061455d565b60405180910390a35050505050505b60019091019061184f565b505060016000555050505050505050565b600a5490565b611cdb610d74565b6001600160a01b0316336001600160a01b031614611d0b5760405162461bcd60e51b815260040161042f906146a5565b600b5460ff1615611d2e5760405162461bcd60e51b815260040161042f906146b5565b6000196000541415611d525760405162461bcd60e51b815260040161042f90614755565b600019600055611d606133d6565b611d68612a0f565b90508281600001511015611d8e5760405162461bcd60e51b815260040161042f90614605565b8051821015611daf5760405162461bcd60e51b815260040161042f90614735565b8051600c819055600b805460ff191660011790556040517f68e4c41627e835051be46337f1542645a60c7e6d6ea79efc5f20bdadae5f88d291611df1916145c8565b60405180910390a15050600160005550565b611e0b6133fc565b600080611e16613423565b506040850151611e24613423565b506001600160a01b0385166000908152600260209081526040918290208251606081018452905463ffffffff81168252640100000000810460ff16151592820192909252650100000000009091046001600160801b031691810191909152611e8a6133fc565b506001600160a01b0386166000908152600160209081526040918290208251608081018452905460ff808216151583526101008204161515928201929092526001600160781b03620100008304811693820193909352600160881b90910490911660608201528251825163ffffffff90811691161415611f155794506000935083925061218c915050565b6001600160a01b03871660009081526002602090815260409182902085518154928701519387015163ffffffff1990931663ffffffff9091161764ff000000001916640100000000931515939093029290921774ffffffffffffffffffffffffffffffff00000000001916650100000000006001600160801b039092169190910217905560608101516001600160781b0316611fbc5794506000935083925061218c915050565b611fc4613474565b50604080518082018252908401516001600160801b03168152602080850151151581830152830151156120175760408301516120109082906001600160801b031663ffffffff612f1d16565b9050612039565b60408301516120369082906001600160801b031663ffffffff612fcc16565b90505b81602001511515816020015115151415955085156120875760608201518151612070916001600160781b031663ffffffff61304916565b9450612082828663ffffffff61295916565b6120b8565b606082015181516120a6916001600160781b031663ffffffff61306716565b94506120b8828663ffffffff61298e16565b6001600160a01b038816600081815260016020908152604091829020855181549287015193870151606088015160ff199094169115159190911761ff001916610100941515949094029390931770ffffffffffffffffffffffffffffff00001916620100006001600160781b0394851602176001600160881b0316600160881b93909216929092021790557f022694ffbbd957d26de6b85c040be68ec582d13d40114b29130581793a1bf31e878761216f866123a6565b60405161217e939291906145ba565b60405180910390a250945050505b9250925092565b8151600090819081908190156121cf576121c86121ae612240565b60408801516001600160781b03169063ffffffff6130be16565b91506121dd565b6121da6121ae612240565b90505b60608601516000906121fe906001600160781b03168763ffffffff6130be16565b90508660200151156122215761221a838263ffffffff6130f816565b9250612234565b612231828263ffffffff6130f816565b91505b50909590945092505050565b670de0b6b3a764000090565b600061137383836040518060400160405280601e81526020017f536166654d6174683a207375627472616374696f6e206f766572666c6f77000081525061311d565b600061137383836040518060400160405280601a81526020017f536166654d6174683a206469766973696f6e206279207a65726f000000000000815250613149565b60008183106122df5781611373565b5090919050565b60006f0100000000000000000000000000000082106123175760405162461bcd60e51b815260040161042f90614655565b5090565b6040516123a190849063a9059cbb60e01b9061233d90869086906024016144db565b60408051601f198184030181529190526020810180517bffffffffffffffffffffffffffffffffffffffffffffffffffffffff167fffffffff0000000000000000000000000000000000000000000000000000000090931692909217909152613180565b505050565b60008082602001516123b95760006123cb565b6f010000000000000000000000000000005b83516123d85760006123de565b600160f81b5b608085604001516001600160781b0316901b85606001516001600160781b031617171790508060001b915050919050565b6124176133d6565b61241f613423565b506040805160608101825260095463ffffffff808216808452640100000000830460ff1615156020850152650100000000009092046001600160801b03169383019390935290916000916124769142919061224c16565b9050801561262557612486613474565b50604080518082018252838201516001600160801b031681526020808501511515908201526008549151633afb52f560e21b8152909160009182916001600160a01b03169063ebed4bd4906124df9087906004016145c8565b604080518083038186803b1580156124f657600080fd5b505afa15801561250a573d6000803e3d6000fd5b505050506040513d601f19601f8201168201806040525061252e9190810190613a66565b9092509050612543818863ffffffff61304916565b905081156125625761255b838263ffffffff612fcc16565b9250612575565b612572838263ffffffff612f1d16565b92505b604051806060016040528061258942613265565b63ffffffff1681526020018460200151151581526020016125ad856000015161328b565b6001600160801b0390811690915281516009805460208501516040860151909416650100000000000274ffffffffffffffffffffffffffffffff0000000000199415156401000000000264ff000000001963ffffffff90951663ffffffff199093169290921793909316179290921617905594505050505b7f995e61c355733308eab39a59e1e1ac167274cdd1ad707fe4d13e127a0107642861264f836132b0565b60405161265c91906145c8565b60405180910390a15060408051606081018252938452600a5460208501528301525090565b6126896133fc565b612691613423565b50604085015161269f613423565b506001600160a01b0385166000908152600260209081526040918290208251606081018452905463ffffffff81168252640100000000810460ff16151592820192909252650100000000009091046001600160801b0316918101919091526127056133fc565b506001600160a01b0386166000908152600160209081526040918290208251608081018452905460ff808216151583526101008204161515928201929092526001600160781b03620100008304811693820193909352600160881b90910490911660608201528251825163ffffffff90811691161415612789579250612927915050565b6001600160a01b03871660009081526002602090815260409182902085518154928701519387015163ffffffff1990931663ffffffff9091161764ff000000001916640100000000931515939093029290921774ffffffffffffffffffffffffffffffff00000000001916650100000000006001600160801b039092169190910217905560608101516001600160781b0316612829579250612927915050565b84156128445761283f818763ffffffff61295916565b612854565b612854818763ffffffff61298e16565b6001600160a01b038716600081815260016020908152604091829020845181549286015193860151606087015160ff199094169115159190911761ff001916610100941515949094029390931770ffffffffffffffffffffffffffffff00001916620100006001600160781b0394851602176001600160881b0316600160881b93909216929092021790557f022694ffbbd957d26de6b85c040be68ec582d13d40114b29130581793a1bf31e868861290b856123a6565b60405161291a939291906145ba565b60405180910390a2925050505b949350505050565b6040516129539085906323b872dd60e01b9061233d90879087908790602401614498565b50505050565b612961613474565b61296a836132f0565b905061297c818363ffffffff612fcc16565b90506123a1838263ffffffff61331d16565b612996613474565b61299f836132f0565b905061297c818363ffffffff612f1d16565b60008060006129cd85600001518561219390919063ffffffff16565b915091506129e88560200151826130be90919063ffffffff16565b612a006129f3612240565b849063ffffffff6130be16565b101595945050505050565b5490565b612a176133d6565b612a1f613423565b506040805160608101825260095463ffffffff81168252640100000000810460ff161515602080840191909152650100000000009091046001600160801b0316828401526007548351634c6afee560e11b8152935192936000936001600160a01b03909216926398d5fdca92600480840193829003018186803b158015612aa557600080fd5b505afa158015612ab9573d6000803e3d6000fd5b505050506040513d601f19601f82011682018060405250612add9190810190613ad2565b90506000612afe836000015163ffffffff164261224c90919063ffffffff16565b90508015612cad57612b0e613474565b50604080518082018252848201516001600160801b031681526020808601511515908201526008549151633afb52f560e21b8152909160009182916001600160a01b03169063ebed4bd490612b679087906004016145c8565b604080518083038186803b158015612b7e57600080fd5b505afa158015612b92573d6000803e3d6000fd5b505050506040513d601f19601f82011682018060405250612bb69190810190613a66565b9092509050612bcb818663ffffffff61304916565b90508115612bea57612be3838263ffffffff612fcc16565b9250612bfd565b612bfa838263ffffffff612f1d16565b92505b6040518060600160405280612c1142613265565b63ffffffff168152602001846020015115158152602001612c35856000015161328b565b6001600160801b0390811690915281516009805460208501516040860151909416650100000000000274ffffffffffffffffffffffffffffffff0000000000199415156401000000000264ff000000001963ffffffff90951663ffffffff199093169290921793909316179290921617905595505050505b7f995e61c355733308eab39a59e1e1ac167274cdd1ad707fe4d13e127a01076428612cd7846132b0565b604051612ce491906145c8565b60405180910390a15060408051606081018252918252600a546020830152810191909152905090565b9055565b6000815111612d325760405162461bcd60e51b815260040161042f90614705565b600081600081518110612d4157fe5b602002602001015190506000600190505b82518110156123a1576000838281518110612d6957fe5b60200260200101519050826001600160a01b0316816001600160a01b031611612da45760405162461bcd60e51b815260040161042f90614775565b9150600101612d52565b6060600084519050606081604051908082528060200260200182016040528015612df257816020015b612ddf6133fc565b815260200190600190039081612dd75790505b50905060005b82811015612e6457612e4588888381518110612e1057fe5b6020026020010151888481518110612e2457fe5b6020026020010151888581518110612e3857fe5b6020026020010151612681565b828281518110612e5157fe5b6020908102919091010152600101612df8565b509695505050505050565b612e776133fc565b604051806080016040528083600001511515815260200183602001511515815260200183604001516001600160781b0316815260200183606001516001600160781b03168152509050919050565b612ecd613474565b612ed683613340565b9050612ee8818363ffffffff612f1d16565b90506123a1838263ffffffff61337716565b612f02613474565b612f0b83613340565b9050612ee8818363ffffffff612fcc16565b612f25613474565b8260200151612f61576040518060400160405280612f508560000151856130f890919063ffffffff16565b815260006020909101529050610ad2565b8251821015612f99576040805180820190915283518190612f88908563ffffffff61224c16565b815260016020909101529050610ad2565b6040518060400160405280612fbb85600001518561224c90919063ffffffff16565b815260006020909101529392505050565b612fd4613474565b826020015115613000576040518060400160405280612f888560000151856130f890919063ffffffff16565b825182111561302b576040518060400160405280612f8885600001518561224c90919063ffffffff16565b6040805180820190915283518190612fbb908563ffffffff61224c16565b6000611373670de0b6b3a7640000610656858563ffffffff6130be16565b6000821580613074575081155b1561308157506000610ad2565b61137360016130b2670de0b6b3a7640000610656836130a6898963ffffffff6130be16565b9063ffffffff61224c16565b9063ffffffff6130f816565b6000826130cd57506000610ad2565b828202828482816130da57fe5b04146113735760405162461bcd60e51b815260040161042f906146d5565b6000828201838110156113735760405162461bcd60e51b815260040161042f90614635565b600081848411156131415760405162461bcd60e51b815260040161042f91906145e4565b505050900390565b6000818361316a5760405162461bcd60e51b815260040161042f91906145e4565b50600083858161317657fe5b0495945050505050565b613192826001600160a01b031661339d565b6131ae5760405162461bcd60e51b815260040161042f90614765565b60006060836001600160a01b0316836040516131ca9190614412565b6000604051808303816000865af19150503d8060008114613207576040519150601f19603f3d011682016040523d82523d6000602084013e61320c565b606091505b50915091508161322e5760405162461bcd60e51b815260040161042f90614685565b80511561295357808060200190516132499190810190613a48565b6129535760405162461bcd60e51b815260040161042f90614745565b600064010000000082106123175760405162461bcd60e51b815260040161042f90614715565b6000600160801b82106123175760405162461bcd60e51b815260040161042f90614675565b6000806088836000015163ffffffff16901b83602001516132d25760006132d8565b600160801b5b60408501516001600160801b03161717915050919050565b6132f8613474565b50604080518082018252908201516001600160781b0316815290511515602082015290565b8051613328906122e6565b6001600160781b031660408301526020015115159052565b613348613474565b604051806040016040528083606001516001600160781b03168152602001836020015115158152509050919050565b8051613382906122e6565b6001600160781b031660608301526020908101511515910152565b6000813f7fc5d2460186f7233c927e7db2dcc703c0e500b653ca82273b7bfad8045d85a470818114801590612927575050151592915050565b604051806060016040528060008152602001600081526020016133f7613423565b905290565b60408051608081018252600080825260208201819052918101829052606081019190915290565b604080516060810182526000808252602082018190529181019190915290565b6040518060800160405280600081526020016000815260200160006001600160a01b03168152602001606081525090565b604080518082019091526000808252602082015290565b8035610ad2816148d4565b600082601f8301126134a757600080fd5b81356134ba6134b5826147d6565b6147af565b915081818352602084019350602081019050838560208402820111156134df57600080fd5b60005b8381101561350b57816134f5888261348b565b84525060209283019291909101906001016134e2565b5050505092915050565b600082601f83011261352657600080fd5b81356135346134b5826147d6565b9150818183526020840193506020810190508385602084028201111561355957600080fd5b60005b8381101561350b578161356f8882613652565b845250602092830192919091019060010161355c565b600082601f83011261359657600080fd5b81356135a46134b5826147d6565b81815260209384019390925082018360005b8381101561350b57813586016135cc88826136c2565b84525060209283019291909101906001016135b6565b600082601f8301126135f357600080fd5b81356136016134b5826147d6565b9150818183526020840193506020810190508385602084028201111561362657600080fd5b60005b8381101561350b578161363c88826137ac565b8452506020928301929190910190600101613629565b8035610ad2816148eb565b8051610ad2816148eb565b8051610ad2816148f4565b600082601f83011261368457600080fd5b81356136926134b5826147f7565b915080825260208301602083018583830111156136ae57600080fd5b6136b9838284614892565b50505092915050565b6000608082840312156136d457600080fd5b6136de60806147af565b905060006136ec84846137ac565b82525060206136fd848483016137ac565b60208301525060406137118482850161348b565b604083015250606082013567ffffffffffffffff81111561373157600080fd5b61373d84828501613673565b60608301525092915050565b60006080828403121561375b57600080fd5b61376560806147af565b905060006137738484613668565b825250602061378484848301613668565b60208301525060406137988482850161365d565b604083015250606061373d84828501613668565b8035610ad2816148f4565b6000602082840312156137c957600080fd5b6000612927848461348b565b600080604083850312156137e857600080fd5b60006137f4858561348b565b92505060206138058582860161348b565b9150509250929050565b6000806000806080858703121561382557600080fd5b6000613831878761348b565b94505060206138428782880161348b565b93505060406138538782880161348b565b9250506060613864878288016137ac565b91505092959194509250565b60008060006060848603121561388557600080fd5b6000613891868661348b565b93505060206138a28682870161348b565b92505060406138b3868287016137ac565b9150509250925092565b60008060008060008060c087890312156138d657600080fd5b60006138e2898961348b565b96505060206138f389828a0161348b565b955050604061390489828a016137ac565b945050606061391589828a016137ac565b935050608061392689828a016137ac565b92505060a061393789828a01613652565b9150509295509295509295565b6000806040838503121561395757600080fd5b6000613963858561348b565b925050602061380585828601613652565b600080600080600060a0868803121561398c57600080fd5b853567ffffffffffffffff8111156139a357600080fd5b6139af88828901613496565b955050602086013567ffffffffffffffff8111156139cc57600080fd5b6139d888828901613585565b945050604086013567ffffffffffffffff8111156139f557600080fd5b613a01888289016135e2565b935050606086013567ffffffffffffffff811115613a1e57600080fd5b613a2a88828901613515565b9250506080613a3b888289016137ac565b9150509295509295909350565b600060208284031215613a5a57600080fd5b6000612927848461365d565b60008060408385031215613a7957600080fd5b6000613a85858561365d565b925050602061380585828601613668565b600060808284031215613aa857600080fd5b60006129278484613749565b600060208284031215613ac657600080fd5b600061292784846137ac565b600060208284031215613ae457600080fd5b60006129278484613668565b60008060408385031215613b0357600080fd5b6000613b0f85856137ac565b9250506020613805858286016137ac565b613b2981614871565b82525050565b613b2981614831565b613b298161483c565b613b2981614841565b6000613b558261481f565b613b5f818561482c565b9350613b6f81856020860161489e565b9290920192915050565b6000613b848261481f565b613b8e8185614823565b9350613b9e81856020860161489e565b613ba7816148ca565b9093019392505050565b613b298161487c565b6000613bc7601b8361482c565b7f61786f722e50657270657475616c56312e696e697469616c697a6500000000008152601b0192915050565b6000613c00602b83614823565b7f73656e64657220646f6573206e6f742068617665207065726d697373696f6e2081527f746f207769746864726177000000000000000000000000000000000000000000602082015260400192915050565b6000613c5f603283614823565b7f4f7261636c65207072696365206973206c657373207468616e2074686520707281527f6f7669646564206c6f77657220626f756e640000000000000000000000000000602082015260400192915050565b6000613cbe602f83614823565b7f54686520636f6c6c61746572616c20726571756972656d656e742063616e6e6f81527f7420626520756e64657220313030250000000000000000000000000000000000602082015260400192915050565b6000613d1d602683614823565b7f4f6e6c79207065726d697474656420647572696e672066696e616c207365747481527f6c656d656e740000000000000000000000000000000000000000000000000000602082015260400192915050565b6000613d7c601b83614823565b7f536166654d6174683a206164646974696f6e206f766572666c6f770000000000815260200192915050565b6000613db5601d83614823565b7f747261646572206973206e6f7420676c6f62616c206f70657261746f72000000815260200192915050565b6000613dee602783614823565b7f53616665436173743a2076616c756520646f65736e27742066697420696e203181527f3230206269747300000000000000000000000000000000000000000000000000602082015260400192915050565b6000613e4d602183614823565b7f6f6e6c7920676c6f62616c206f70657261746f722063616e20776974686472618152607760f81b602082015260400192915050565b6000613e90602783614823565b7f53616665436173743a2076616c756520646f65736e27742066697420696e203181527f3238206269747300000000000000000000000000000000000000000000000000602082015260400192915050565b6000613eef602083614823565b7f5361666545524332303a206c6f772d6c6576656c2063616c6c206661696c6564815260200192915050565b6000613f28602a83614823565b7f4f7261636c6520707269636520726571756573746572206e6f7420676c6f626181527f6c206f70657261746f7200000000000000000000000000000000000000000000602082015260400192915050565b6000613f87601e83614823565b7f41646d696e61626c653a2063616c6c6572206973206e6f742061646d696e0000815260200192915050565b6000613fc0602583614823565b7f4e6f74207065726d697474656420647572696e672066696e616c20736574746c81527f656d656e74000000000000000000000000000000000000000000000000000000602082015260400192915050565b600061401f601f83614823565b7f50657270657475616c563120616c726561647920696e697469616c697a656400815260200192915050565b6000614058602183614823565b7f536166654d6174683a206d756c7469706c69636174696f6e206f766572666c6f8152607760f81b602082015260400192915050565b600061409b602583614823565b7f4e6577206f7261636c652063616e6e6f742072657475726e2061207a65726f2081527f7072696365000000000000000000000000000000000000000000000000000000602082015260400192915050565b60006140fa600f83614823565b7f63616e6e6f742077697468647261770000000000000000000000000000000000815260200192915050565b6000614133602283614823565b7f4163636f756e7473206d7573742068617665206e6f6e2d7a65726f206c656e678152610e8d60f31b602082015260400192915050565b6000614177602683614823565b7f53616665436173743a2076616c756520646f65736e27742066697420696e203381527f3220626974730000000000000000000000000000000000000000000000000000602082015260400192915050565b60006141d6601a83614823565b7f6163636f756e74206e6f7420636f6c6c61746572616c697a6564000000000000815260200192915050565b600061420f603583614823565b7f4f7261636c652070726963652069732067726561746572207468616e2074686581527f2070726f766964656420757070657220626f756e640000000000000000000000602082015260400192915050565b600061426e602a83614823565b7f5361666545524332303a204552433230206f7065726174696f6e20646964206e81527f6f74207375636365656400000000000000000000000000000000000000000000602082015260400192915050565b60006142cd601f83614823565b7f5265656e7472616e637947756172643a207265656e7472616e742063616c6c00815260200192915050565b6000614306601f83614823565b7f5361666545524332303a2063616c6c20746f206e6f6e2d636f6e747261637400815260200192915050565b600061433f602283614823565b7f4163636f756e7473206d75737420626520736f7274656420616e6420756e6971815261756560f01b602082015260400192915050565b805160808301906143878482613b38565b50602082015161439a6020850182613b38565b5060408201516143ad60408501826143f7565b50606082015161295360608501826143f7565b805160608301906143d18482614409565b5060208201516143e46020850182613b38565b5060408201516129536040850182614400565b613b2981614844565b613b2981614850565b613b2981614868565b60006113738284613b4a565b6000610ad282613bba565b60208101610ad28284613b2f565b60c081016144458289613b20565b6144526020830188613b2f565b61445f6040830187613b2f565b61446c6060830186613b41565b818103608083015261447e8185613b79565b905061448d60a0830184613b41565b979650505050505050565b606081016144a68286613b2f565b6144b36020830185613b2f565b6129276040830184613b41565b604081016144ce8285613b2f565b6113736020830184613b38565b604081016144e98285613b2f565b6113736020830184613b41565b60a081016145048288613b2f565b6145116020830187613b41565b61451e6040830186613b38565b61452b6060830185613b41565b6145386080830184613b41565b9695505050505050565b606081016145508286613b2f565b6144b36020830185613b41565b60c0810161456b8289613b2f565b6145786020830188613b41565b6145856040830187613b41565b6145926060830186613b38565b61459f6080830185613b41565b61448d60a0830184613b41565b60208101610ad28284613b38565b606081016145508286613b38565b60208101610ad28284613b41565b60208101610ad28284613bb1565b602080825281016113738184613b79565b60208082528101610ad281613bf3565b60208082528101610ad281613c52565b60208082528101610ad281613cb1565b60208082528101610ad281613d10565b60208082528101610ad281613d6f565b60208082528101610ad281613da8565b60208082528101610ad281613de1565b60208082528101610ad281613e40565b60208082528101610ad281613e83565b60208082528101610ad281613ee2565b60208082528101610ad281613f1b565b60208082528101610ad281613f7a565b60208082528101610ad281613fb3565b60208082528101610ad281614012565b60208082528101610ad28161404b565b60208082528101610ad28161408e565b60208082528101610ad2816140ed565b60208082528101610ad281614126565b60208082528101610ad28161416a565b60208082528101610ad2816141c9565b60208082528101610ad281614202565b60208082528101610ad281614261565b60208082528101610ad2816142c0565b60208082528101610ad2816142f9565b60208082528101610ad281614332565b60808101610ad28284614376565b60608101610ad282846143c0565b604081016144e98285613b41565b60405181810167ffffffffffffffff811182821017156147ce57600080fd5b604052919050565b600067ffffffffffffffff8211156147ed57600080fd5b5060209081020190565b600067ffffffffffffffff82111561480e57600080fd5b506020601f91909101601f19160190565b5190565b90815260200190565b919050565b6000610ad28261485c565b151590565b90565b6001600160781b031690565b6001600160801b031690565b6001600160a01b031690565b63ffffffff1690565b6000610ad282614887565b6000610ad282614841565b6000610ad282614831565b82818337506000910152565b60005b838110156148b95781810151838201526020016148a1565b838111156129535750506000910152565b601f01601f191690565b6148dd81614831565b81146148e857600080fd5b50565b6148dd8161483c565b6148dd8161484156fea365627a7a72315820482967b691b8b56c6dd26d3393d0686ad700caa815d22076f71762cb22d9751e6c6578706572696d656e74616cf564736f6c63430005100040",
  "devdoc": {
    "author": "axor",
    "details": "Main perpetual market implementation contract that inherits from other contracts.",
    "methods": {
      "deposit(address,address,uint256,uint256,uint256,bool)": {
        "details": "Emits LogIndex, LogAccountSettled, and LogDeposit events.",
        "params": {
          "account": "The account for which to credit the deposit.",
          "amount": "the amount of tokens to deposit."
        }
      },
      "enableFinalSettlement(uint256,uint256)": {
        "details": "Must be called by the PerpetualV1 admin. The current result of the price oracle must be between the two bounds supplied. Emits the LogFinalSettlementEnabled event.",
        "params": {
          "priceLowerBound": "The lower-bound (inclusive) of the acceptable price range.",
          "priceUpperBound": "The upper-bound (inclusive) of the acceptable price range."
        }
      },
      "getAccountBalance(address)": {
        "params": {
          "account": "The address of the account to query the balances of."
        },
        "return": "The balances of the account."
      },
      "getAccountIndex(address)": {
        "params": {
          "account": "The address of the account to query the index of."
        },
        "return": "The index of the account."
      },
      "getAdmin()": {
        "return": "The EIP-1967 proxy admin"
      },
      "getFinalSettlementEnabled()": {
        "return": "True if final-settlement was enabled, false otherwise."
      },
      "getFunderContract()": {
        "return": "The address of the funder contract."
      },
      "getGlobalIndex()": {
        "return": "The most recently cached global index."
      },
      "getIsGlobalOperator(address)": {
        "params": {
          "operator": "The address of the operator to query the status of."
        },
        "return": "True if the address is a global operator, false otherwise."
      },
      "getIsLocalOperator(address,address)": {
        "params": {
          "account": "The account to query the operator for.",
          "operator": "The address of the operator to query the status of."
        },
        "return": "True if the operator is a local operator of the account, false otherwise."
      },
      "getMinCollateral()": {
        "return": "The minimum-acceptable collateralization ratio, returned as a fixed-point number with 18 decimals of precision."
      },
      "getOracleContract()": {
        "return": "The address of the price oracle contract."
      },
      "getOraclePrice()": {
        "details": "Only able to be called by global operators.",
        "return": "The price returned by the current price oracle."
      },
      "getTokenContract()": {
        "return": "The address of the ERC20 token."
      },
      "hasAccountPermissions(address,address)": {
        "params": {
          "account": "The account to query.",
          "operator": "The address to query."
        },
        "return": "True if the operator has permission to operate the account,                  and false otherwise."
      },
      "initializeV1(address,address,address,uint256)": {
        "details": "Once-only initializer function that replaces the constructor since this contract is proxied. Uses a non-colliding storage slot to store if this version has been initialized.Can only be called once and can only be called by the admin of this contract.",
        "params": {
          "funder": "The address of the funder contract.",
          "minCollateral": "The minimum allowed initial collateralization percentage.",
          "oracle": "The address of the price oracle contract.",
          "token": "The address of the token to use for margin-deposits."
        }
      },
      "requestWithdraw(address,address)": {
        "details": "Emits LogIndex, LogAccountSettled, and LogWithdraw events.",
        "params": {
          "account": "The account for which to debit the withdrawal.",
          "destination": "The address to which the tokens are transferred."
        }
      },
      "setFunder(address)": {
        "details": "Must be called by the PerpetualV1 admin. Emits the LogSetFunder event.",
        "params": {
          "funder": "The address of the new funder contract."
        }
      },
      "setGlobalOperator(address,bool)": {
        "details": "Must be called by the PerpetualV1 admin. Emits the LogSetGlobalOperator event.",
        "params": {
          "approved": "True if approved, false if disapproved.",
          "operator": "The address for which to enable or disable global operator privileges."
        }
      },
      "setLocalOperator(address,bool)": {
        "details": "Emits the LogSetLocalOperator event.",
        "params": {
          "approved": "True for approval, false for disapproval.",
          "operator": "The account that is approved or disapproved."
        }
      },
      "setMinCollateral(uint256)": {
        "details": "Must be called by the PerpetualV1 admin. Emits the LogSetMinCollateral event.",
        "params": {
          "minCollateral": "The new value of the minimum initial collateralization percentage,                       as a fixed-point number with 18 decimals."
        }
      },
      "setOracle(address)": {
        "details": "Must be called by the PerpetualV1 admin. Emits the LogSetOracle event.",
        "params": {
          "oracle": "The address of the new price oracle contract."
        }
      },
      "setWithdrawDelayBlock(uint256)": {
        "details": "Must be called by the PerpetualV1 admin.",
        "params": {
          "withdrawDelayBlock": "The new value of the number of blocks required to withdraw funds."
        }
      },
      "trade(address[],(uint256,uint256,address,bytes)[],uint256[],bool[],uint256)": {
        "details": "Emits the LogIndex event, one LogAccountSettled event for each account in `accounts`, and the LogTrade event for each trade in `trades`.",
        "params": {
          "accounts": "The sorted list of accounts that are involved in trades.",
          "trades": "The list of trades to execute in-order."
        }
      },
      "userWithdraw(address,address,uint256)": {
        "details": "Emits LogIndex, LogAccountSettled, and LogWithdraw events.",
        "params": {
          "account": "The account for which to debit the withdrawal.",
          "amount": "The amount of tokens to withdraw.",
          "destination": "The address to which the tokens are transferred."
        }
      },
      "withdraw(address,address,uint256,uint256,uint256,bool)": {
        "details": "Emits LogIndex, LogAccountSettled, and LogWithdraw events.",
        "params": {
          "account": "The account for which to debit the withdrawal.",
          "amount": "The amount of tokens to withdraw.",
          "destination": "The address to which the tokens are transferred.",
          "price": "The oracle price at the time of the withdrawal."
        }
      },
      "withdrawFinalSettlement()": {
        "details": "Emits the LogAccountSettled and LogWithdrawFinalSettlement events."
      }
    },
    "title": "PerpetualV1"
  },
  "userdoc": {
    "methods": {
      "deposit(address,address,uint256,uint256,uint256,bool)": {
        "notice": "Deposit some amount of margin tokens from the msg.sender into an account."
      },
      "enableFinalSettlement(uint256,uint256)": {
        "notice": "Enables final settlement if the oracle price is between the provided bounds."
      },
      "getAccountBalance(address)": {
        "notice": "Get the balance of an account, without accounting for changes in the index."
      },
      "getAccountIndex(address)": {
        "notice": "Gets the most recently cached index of an account."
      },
      "getFinalSettlementEnabled()": {
        "notice": "Gets the status of whether final-settlement was initiated by the Admin."
      },
      "getFunderContract()": {
        "notice": "Gets the current address of the funder contract."
      },
      "getGlobalIndex()": {
        "notice": "Gets the most recently cached global index."
      },
      "getIsGlobalOperator(address)": {
        "notice": "Gets the global operator status of an address."
      },
      "getIsLocalOperator(address,address)": {
        "notice": "Gets the local operator status of an operator for a particular account."
      },
      "getMinCollateral()": {
        "notice": "Gets minimum collateralization ratio of the protocol."
      },
      "getOracleContract()": {
        "notice": "Gets the current address of the price oracle contract."
      },
      "getOraclePrice()": {
        "notice": "Gets the price returned by the oracle."
      },
      "getTokenContract()": {
        "notice": "Gets the address of the ERC20 margin contract used for margin deposits."
      },
      "hasAccountPermissions(address,address)": {
        "notice": "Gets whether an address has permissions to operate an account."
      },
      "requestWithdraw(address,address)": {
        "notice": "Set Withdraw acction."
      },
      "setFunder(address)": {
        "notice": "Sets a new funder contract."
      },
      "setGlobalOperator(address,bool)": {
        "notice": "Add or remove a Global Operator address."
      },
      "setLocalOperator(address,bool)": {
        "notice": "Grants or revokes permission for another account to perform certain actions on behalf of the sender."
      },
      "setMinCollateral(uint256)": {
        "notice": "Sets a new value for the minimum collateralization percentage."
      },
      "setOracle(address)": {
        "notice": "Sets a new price oracle contract."
      },
      "setWithdrawDelayBlock(uint256)": {
        "notice": "Sets a new value for the number of blocks required to withdraw funds."
      },
      "trade(address[],(uint256,uint256,address,bytes)[],uint256[],bool[],uint256)": {
        "notice": "Submits one or more trades between any number of accounts."
      },
      "userWithdraw(address,address,uint256)": {
        "notice": "Withdraw some amount of margin tokens from an account to a destination address."
      },
      "withdraw(address,address,uint256,uint256,uint256,bool)": {
        "notice": "Withdraw some amount of margin tokens from an account to a destination address."
      },
      "withdrawFinalSettlement()": {
        "notice": "Withdraw the number of margin tokens equal to the value of the account at the time that final settlement occurred."
      }
    },
    "notice": "A market for a perpetual contract, a financial derivative which may be traded on margin and which aims to closely track the spot price of an underlying asset. The underlying asset is specified via the price oracle which reports its spot price. Tethering of the perpetual market price is supported by a funding oracle which governs funding payments between longs and shorts."
  },
  "storageLayout": {
    "storage": [
      {
        "astId": 1537,
        "contract": "contracts/protocol/v1/PerpetualV1.sol:PerpetualV1",
        "label": "_STATUS_",
        "offset": 0,
        "slot": "0",
        "type": "t_uint256"
      },
      {
        "astId": 3902,
        "contract": "contracts/protocol/v1/PerpetualV1.sol:PerpetualV1",
        "label": "_BALANCES_",
        "offset": 0,
        "slot": "1",
        "type": "t_mapping(t_address,t_struct(Balance)5253_storage)"
      },
      {
        "astId": 3906,
        "contract": "contracts/protocol/v1/PerpetualV1.sol:PerpetualV1",
        "label": "_LOCAL_INDEXES_",
        "offset": 0,
        "slot": "2",
        "type": "t_mapping(t_address,t_struct(Index)5244_storage)"
      },
      {
        "astId": 3910,
        "contract": "contracts/protocol/v1/PerpetualV1.sol:PerpetualV1",
        "label": "_GLOBAL_OPERATORS_",
        "offset": 0,
        "slot": "3",
        "type": "t_mapping(t_address,t_bool)"
      },
      {
        "astId": 3914,
        "contract": "contracts/protocol/v1/PerpetualV1.sol:PerpetualV1",
        "label": "_WITHDRAW_DELAY_",
        "offset": 0,
        "slot": "4",
        "type": "t_mapping(t_address,t_uint256)"
      },
      {
        "astId": 3920,
        "contract": "contracts/protocol/v1/PerpetualV1.sol:PerpetualV1",
        "label": "_LOCAL_OPERATORS_",
        "offset": 0,
        "slot": "5",
        "type": "t_mapping(t_address,t_mapping(t_address,t_bool))"
      },
      {
        "astId": 3922,
        "contract": "contracts/protocol/v1/PerpetualV1.sol:PerpetualV1",
        "label": "_TOKEN_",
        "offset": 0,
        "slot": "6",
        "type": "t_address"
      },
      {
        "astId": 3924,
        "contract": "contracts/protocol/v1/PerpetualV1.sol:PerpetualV1",
        "label": "_ORACLE_",
        "offset": 0,
        "slot": "7",
        "type": "t_address"
      },
      {
        "astId": 3926,
        "contract": "contracts/protocol/v1/PerpetualV1.sol:PerpetualV1",
        "label": "_FUNDER_",
        "offset": 0,
        "slot": "8",
        "type": "t_address"
      },
      {
        "astId": 3928,
        "contract": "contracts/protocol/v1/PerpetualV1.sol:PerpetualV1",
        "label": "_GLOBAL_INDEX_",
        "offset": 0,
        "slot": "9",
        "type": "t_struct(Index)5244_storage"
      },
      {
        "astId": 3930,
        "contract": "contracts/protocol/v1/PerpetualV1.sol:PerpetualV1",
        "label": "_MIN_COLLATERAL_",
        "offset": 0,
        "slot": "10",
        "type": "t_uint256"
      },
      {
        "astId": 3932,
        "contract": "contracts/protocol/v1/PerpetualV1.sol:PerpetualV1",
        "label": "_FINAL_SETTLEMENT_ENABLED_",
        "offset": 0,
        "slot": "11",
        "type": "t_bool"
      },
      {
        "astId": 3934,
        "contract": "contracts/protocol/v1/PerpetualV1.sol:PerpetualV1",
        "label": "_FINAL_SETTLEMENT_PRICE_",
        "offset": 0,
        "slot": "12",
        "type": "t_uint256"
      },
      {
        "astId": 3936,
        "contract": "contracts/protocol/v1/PerpetualV1.sol:PerpetualV1",
        "label": "_WITHDRAW_DELAY_BLOCK_",
        "offset": 0,
        "slot": "13",
        "type": "t_uint256"
      }
    ],
    "types": {
      "t_address": {
        "encoding": "inplace",
        "label": "address",
        "numberOfBytes": "20"
      },
      "t_bool": {
        "encoding": "inplace",
        "label": "bool",
        "numberOfBytes": "1"
      },
      "t_mapping(t_address,t_bool)": {
        "encoding": "mapping",
        "key": "t_address",
        "label": "mapping(address => bool)",
        "numberOfBytes": "32",
        "value": "t_bool"
      },
      "t_mapping(t_address,t_mapping(t_address,t_bool))": {
        "encoding": "mapping",
        "key": "t_address",
        "label": "mapping(address => mapping(address => bool))",
        "numberOfBytes": "32",
        "value": "t_mapping(t_address,t_bool)"
      },
      "t_mapping(t_address,t_struct(Balance)5253_storage)": {
        "encoding": "mapping",
        "key": "t_address",
        "label": "mapping(address => struct P1Types.Balance)",
        "numberOfBytes": "32",
        "value": "t_struct(Balance)5253_storage"
      },
      "t_mapping(t_address,t_struct(Index)5244_storage)": {
        "encoding": "mapping",
        "key": "t_address",
        "label": "mapping(address => struct P1Types.Index)",
        "numberOfBytes": "32",
        "value": "t_struct(Index)5244_storage"
      },
      "t_mapping(t_address,t_uint256)": {
        "encoding": "mapping",
        "key": "t_address",
        "label": "mapping(address => uint256)",
        "numberOfBytes": "32",
        "value": "t_uint256"
      },
      "t_struct(Balance)5253_storage": {
        "encoding": "inplace",
        "label": "struct P1Types.Balance",
        "members": [
          {
            "astId": 5246,
            "contract": "contracts/protocol/v1/PerpetualV1.sol:PerpetualV1",
            "label": "marginIsPositive",
            "offset": 0,
            "slot": "0",
            "type": "t_bool"
          },
          {
            "astId": 5248,
            "contract": "contracts/protocol/v1/PerpetualV1.sol:PerpetualV1",
            "label": "positionIsPositive",
            "offset": 1,
            "slot": "0",
            "type": "t_bool"
          },
          {
            "astId": 5250,
            "contract": "contracts/protocol/v1/PerpetualV1.sol:PerpetualV1",
            "label": "margin",
            "offset": 2,
            "slot": "0",
            "type": "t_uint120"
          },
          {
            "astId": 5252,
            "contract": "contracts/protocol/v1/PerpetualV1.sol:PerpetualV1",
            "label": "position",
            "offset": 17,
            "slot": "0",
            "type": "t_uint120"
          }
        ],
        "numberOfBytes": "32"
      },
      "t_struct(Index)5244_storage": {
        "encoding": "inplace",
        "label": "struct P1Types.Index",
        "members": [
          {
            "astId": 5239,
            "contract": "contracts/protocol/v1/PerpetualV1.sol:PerpetualV1",
            "label": "timestamp",
            "offset": 0,
            "slot": "0",
            "type": "t_uint32"
          },
          {
            "astId": 5241,
            "contract": "contracts/protocol/v1/PerpetualV1.sol:PerpetualV1",
            "label": "isPositive",
            "offset": 4,
            "slot": "0",
            "type": "t_bool"
          },
          {
            "astId": 5243,
            "contract": "contracts/protocol/v1/PerpetualV1.sol:PerpetualV1",
            "label": "value",
            "offset": 5,
            "slot": "0",
            "type": "t_uint128"
          }
        ],
        "numberOfBytes": "32"
      },
      "t_uint120": {
        "encoding": "inplace",
        "label": "uint120",
        "numberOfBytes": "15"
      },
      "t_uint128": {
        "encoding": "inplace",
        "label": "uint128",
        "numberOfBytes": "16"
      },
      "t_uint256": {
        "encoding": "inplace",
        "label": "uint256",
        "numberOfBytes": "32"
      },
      "t_uint32": {
        "encoding": "inplace",
        "label": "uint32",
        "numberOfBytes": "4"
      }
    }
  }
}