{
  "address": "0x2e856fc478bF8c54A062A61425f0656bf16d7319",
  "abi": [
    {
      "constant": true,
      "inputs": [
        {
          "components": [
            {
              "internalType": "uint256",
              "name": "value",
              "type": "uint256"
            },
            {
              "internalType": "bool",
              "name": "isPositive",
              "type": "bool"
            }
          ],
          "internalType": "struct SignedMath.Int",
          "name": "sint",
          "type": "tuple"
        },
        {
          "internalType": "uint256",
          "name": "value",
          "type": "uint256"
        }
      ],
      "name": "add",
      "outputs": [
        {
          "components": [
            {
              "internalType": "uint256",
              "name": "value",
              "type": "uint256"
            },
            {
              "internalType": "bool",
              "name": "isPositive",
              "type": "bool"
            }
          ],
          "internalType": "struct SignedMath.Int",
          "name": "",
          "type": "tuple"
        }
      ],
      "payable": false,
      "stateMutability": "pure",
      "type": "function"
    },
    {
      "constant": true,
      "inputs": [
        {
          "components": [
            {
              "internalType": "bool",
              "name": "marginIsPositive",
              "type": "bool"
            },
            {
              "internalType": "bool",
              "name": "positionIsPositive",
              "type": "bool"
            },
            {
              "internalType": "uint120",
              "name": "margin",
              "type": "uint120"
            },
            {
              "internalType": "uint120",
              "name": "position",
              "type": "uint120"
            }
          ],
          "internalType": "struct P1Types.Balance",
          "name": "balance",
          "type": "tuple"
        },
        {
          "internalType": "uint256",
          "name": "amount",
          "type": "uint256"
        }
      ],
      "name": "addToMargin",
      "outputs": [
        {
          "components": [
            {
              "internalType": "bool",
              "name": "marginIsPositive",
              "type": "bool"
            },
            {
              "internalType": "bool",
              "name": "positionIsPositive",
              "type": "bool"
            },
            {
              "internalType": "uint120",
              "name": "margin",
              "type": "uint120"
            },
            {
              "internalType": "uint120",
              "name": "position",
              "type": "uint120"
            }
          ],
          "internalType": "struct P1Types.Balance",
          "name": "",
          "type": "tuple"
        }
      ],
      "payable": false,
      "stateMutability": "pure",
      "type": "function"
    },
    {
      "constant": true,
      "inputs": [
        {
          "components": [
            {
              "internalType": "bool",
              "name": "marginIsPositive",
              "type": "bool"
            },
            {
              "internalType": "bool",
              "name": "positionIsPositive",
              "type": "bool"
            },
            {
              "internalType": "uint120",
              "name": "margin",
              "type": "uint120"
            },
            {
              "internalType": "uint120",
              "name": "position",
              "type": "uint120"
            }
          ],
          "internalType": "struct P1Types.Balance",
          "name": "balance",
          "type": "tuple"
        },
        {
          "internalType": "uint256",
          "name": "amount",
          "type": "uint256"
        }
      ],
      "name": "addToPosition",
      "outputs": [
        {
          "components": [
            {
              "internalType": "bool",
              "name": "marginIsPositive",
              "type": "bool"
            },
            {
              "internalType": "bool",
              "name": "positionIsPositive",
              "type": "bool"
            },
            {
              "internalType": "uint120",
              "name": "margin",
              "type": "uint120"
            },
            {
              "internalType": "uint120",
              "name": "position",
              "type": "uint120"
            }
          ],
          "internalType": "struct P1Types.Balance",
          "name": "",
          "type": "tuple"
        }
      ],
      "payable": false,
      "stateMutability": "pure",
      "type": "function"
    },
    {
      "constant": true,
      "inputs": [],
      "name": "base",
      "outputs": [
        {
          "internalType": "uint256",
          "name": "",
          "type": "uint256"
        }
      ],
      "payable": false,
      "stateMutability": "pure",
      "type": "function"
    },
    {
      "constant": true,
      "inputs": [
        {
          "internalType": "uint256",
          "name": "value",
          "type": "uint256"
        },
        {
          "internalType": "uint256",
          "name": "baseValue",
          "type": "uint256"
        }
      ],
      "name": "baseDiv",
      "outputs": [
        {
          "internalType": "uint256",
          "name": "",
          "type": "uint256"
        }
      ],
      "payable": false,
      "stateMutability": "pure",
      "type": "function"
    },
    {
      "constant": true,
      "inputs": [
        {
          "internalType": "uint256",
          "name": "value",
          "type": "uint256"
        },
        {
          "internalType": "uint256",
          "name": "baseValue",
          "type": "uint256"
        }
      ],
      "name": "baseDivMul",
      "outputs": [
        {
          "internalType": "uint256",
          "name": "",
          "type": "uint256"
        }
      ],
      "payable": false,
      "stateMutability": "pure",
      "type": "function"
    },
    {
      "constant": true,
      "inputs": [
        {
          "internalType": "uint256",
          "name": "value",
          "type": "uint256"
        },
        {
          "internalType": "uint256",
          "name": "baseValue",
          "type": "uint256"
        }
      ],
      "name": "baseMul",
      "outputs": [
        {
          "internalType": "uint256",
          "name": "",
          "type": "uint256"
        }
      ],
      "payable": false,
      "stateMutability": "pure",
      "type": "function"
    },
    {
      "constant": true,
      "inputs": [
        {
          "internalType": "uint256",
          "name": "value",
          "type": "uint256"
        },
        {
          "internalType": "uint256",
          "name": "baseValue",
          "type": "uint256"
        }
      ],
      "name": "baseMulRoundUp",
      "outputs": [
        {
          "internalType": "uint256",
          "name": "",
          "type": "uint256"
        }
      ],
      "payable": false,
      "stateMutability": "pure",
      "type": "function"
    },
    {
      "constant": true,
      "inputs": [
        {
          "internalType": "uint256",
          "name": "baseValue",
          "type": "uint256"
        }
      ],
      "name": "baseReciprocal",
      "outputs": [
        {
          "internalType": "uint256",
          "name": "",
          "type": "uint256"
        }
      ],
      "payable": false,
      "stateMutability": "pure",
      "type": "function"
    },
    {
      "constant": true,
      "inputs": [
        {
          "components": [
            {
              "internalType": "bool",
              "name": "marginIsPositive",
              "type": "bool"
            },
            {
              "internalType": "bool",
              "name": "positionIsPositive",
              "type": "bool"
            },
            {
              "internalType": "uint120",
              "name": "margin",
              "type": "uint120"
            },
            {
              "internalType": "uint120",
              "name": "position",
              "type": "uint120"
            }
          ],
          "internalType": "struct P1Types.Balance",
          "name": "balance",
          "type": "tuple"
        }
      ],
      "name": "copy",
      "outputs": [
        {
          "components": [
            {
              "internalType": "bool",
              "name": "marginIsPositive",
              "type": "bool"
            },
            {
              "internalType": "bool",
              "name": "positionIsPositive",
              "type": "bool"
            },
            {
              "internalType": "uint120",
              "name": "margin",
              "type": "uint120"
            },
            {
              "internalType": "uint120",
              "name": "position",
              "type": "uint120"
            }
          ],
          "internalType": "struct P1Types.Balance",
          "name": "",
          "type": "tuple"
        }
      ],
      "payable": false,
      "stateMutability": "pure",
      "type": "function"
    },
    {
      "constant": true,
      "inputs": [
        {
          "internalType": "uint256",
          "name": "target",
          "type": "uint256"
        },
        {
          "internalType": "uint256",
          "name": "numerator",
          "type": "uint256"
        },
        {
          "internalType": "uint256",
          "name": "denominator",
          "type": "uint256"
        }
      ],
      "name": "getFraction",
      "outputs": [
        {
          "internalType": "uint256",
          "name": "",
          "type": "uint256"
        }
      ],
      "payable": false,
      "stateMutability": "pure",
      "type": "function"
    },
    {
      "constant": true,
      "inputs": [
        {
          "internalType": "uint256",
          "name": "target",
          "type": "uint256"
        },
        {
          "internalType": "uint256",
          "name": "numerator",
          "type": "uint256"
        },
        {
          "internalType": "uint256",
          "name": "denominator",
          "type": "uint256"
        }
      ],
      "name": "getFractionRoundUp",
      "outputs": [
        {
          "internalType": "uint256",
          "name": "",
          "type": "uint256"
        }
      ],
      "payable": false,
      "stateMutability": "pure",
      "type": "function"
    },
    {
      "constant": true,
      "inputs": [
        {
          "components": [
            {
              "internalType": "bool",
              "name": "marginIsPositive",
              "type": "bool"
            },
            {
              "internalType": "bool",
              "name": "positionIsPositive",
              "type": "bool"
            },
            {
              "internalType": "uint120",
              "name": "margin",
              "type": "uint120"
            },
            {
              "internalType": "uint120",
              "name": "position",
              "type": "uint120"
            }
          ],
          "internalType": "struct P1Types.Balance",
          "name": "balance",
          "type": "tuple"
        }
      ],
      "name": "getMargin",
      "outputs": [
        {
          "components": [
            {
              "internalType": "uint256",
              "name": "value",
              "type": "uint256"
            },
            {
              "internalType": "bool",
              "name": "isPositive",
              "type": "bool"
            }
          ],
          "internalType": "struct SignedMath.Int",
          "name": "",
          "type": "tuple"
        }
      ],
      "payable": false,
      "stateMutability": "pure",
      "type": "function"
    },
    {
      "constant": true,
      "inputs": [
        {
          "components": [
            {
              "internalType": "bool",
              "name": "marginIsPositive",
              "type": "bool"
            },
            {
              "internalType": "bool",
              "name": "positionIsPositive",
              "type": "bool"
            },
            {
              "internalType": "uint120",
              "name": "margin",
              "type": "uint120"
            },
            {
              "internalType": "uint120",
              "name": "position",
              "type": "uint120"
            }
          ],
          "internalType": "struct P1Types.Balance",
          "name": "balance",
          "type": "tuple"
        }
      ],
      "name": "getPosition",
      "outputs": [
        {
          "components": [
            {
              "internalType": "uint256",
              "name": "value",
              "type": "uint256"
            },
            {
              "internalType": "bool",
              "name": "isPositive",
              "type": "bool"
            }
          ],
          "internalType": "struct SignedMath.Int",
          "name": "",
          "type": "tuple"
        }
      ],
      "payable": false,
      "stateMutability": "pure",
      "type": "function"
    },
    {
      "constant": true,
      "inputs": [
        {
          "components": [
            {
              "internalType": "bool",
              "name": "marginIsPositive",
              "type": "bool"
            },
            {
              "internalType": "bool",
              "name": "positionIsPositive",
              "type": "bool"
            },
            {
              "internalType": "uint120",
              "name": "margin",
              "type": "uint120"
            },
            {
              "internalType": "uint120",
              "name": "position",
              "type": "uint120"
            }
          ],
          "internalType": "struct P1Types.Balance",
          "name": "balance",
          "type": "tuple"
        },
        {
          "internalType": "uint256",
          "name": "price",
          "type": "uint256"
        }
      ],
      "name": "getPositiveAndNegativeValue",
      "outputs": [
        {
          "internalType": "uint256",
          "name": "",
          "type": "uint256"
        },
        {
          "internalType": "uint256",
          "name": "",
          "type": "uint256"
        }
      ],
      "payable": false,
      "stateMutability": "pure",
      "type": "function"
    },
    {
      "constant": true,
      "inputs": [
        {
          "internalType": "bytes32",
          "name": "slot",
          "type": "bytes32"
        }
      ],
      "name": "load",
      "outputs": [
        {
          "internalType": "bytes32",
          "name": "",
          "type": "bytes32"
        }
      ],
      "payable": false,
      "stateMutability": "view",
      "type": "function"
    },
    {
      "constant": true,
      "inputs": [
        {
          "internalType": "uint256",
          "name": "a",
          "type": "uint256"
        },
        {
          "internalType": "uint256",
          "name": "b",
          "type": "uint256"
        }
      ],
      "name": "max",
      "outputs": [
        {
          "internalType": "uint256",
          "name": "",
          "type": "uint256"
        }
      ],
      "payable": false,
      "stateMutability": "pure",
      "type": "function"
    },
    {
      "constant": true,
      "inputs": [
        {
          "internalType": "uint256",
          "name": "a",
          "type": "uint256"
        },
        {
          "internalType": "uint256",
          "name": "b",
          "type": "uint256"
        }
      ],
      "name": "min",
      "outputs": [
        {
          "internalType": "uint256",
          "name": "",
          "type": "uint256"
        }
      ],
      "payable": false,
      "stateMutability": "pure",
      "type": "function"
    },
    {
      "constant": false,
      "inputs": [],
      "name": "nonReentrant1",
      "outputs": [
        {
          "internalType": "uint256",
          "name": "",
          "type": "uint256"
        }
      ],
      "payable": false,
      "stateMutability": "nonpayable",
      "type": "function"
    },
    {
      "constant": false,
      "inputs": [],
      "name": "nonReentrant2",
      "outputs": [
        {
          "internalType": "uint256",
          "name": "",
          "type": "uint256"
        }
      ],
      "payable": false,
      "stateMutability": "nonpayable",
      "type": "function"
    },
    {
      "constant": true,
      "inputs": [
        {
          "internalType": "bytes32",
          "name": "hash",
          "type": "bytes32"
        },
        {
          "internalType": "bytes",
          "name": "signatureBytes",
          "type": "bytes"
        }
      ],
      "name": "recover",
      "outputs": [
        {
          "internalType": "address",
          "name": "",
          "type": "address"
        }
      ],
      "payable": false,
      "stateMutability": "pure",
      "type": "function"
    },
    {
      "constant": true,
      "inputs": [
        {
          "components": [
            {
              "internalType": "bool",
              "name": "marginIsPositive",
              "type": "bool"
            },
            {
              "internalType": "bool",
              "name": "positionIsPositive",
              "type": "bool"
            },
            {
              "internalType": "uint120",
              "name": "margin",
              "type": "uint120"
            },
            {
              "internalType": "uint120",
              "name": "position",
              "type": "uint120"
            }
          ],
          "internalType": "struct P1Types.Balance",
          "name": "balance",
          "type": "tuple"
        },
        {
          "components": [
            {
              "internalType": "uint256",
              "name": "value",
              "type": "uint256"
            },
            {
              "internalType": "bool",
              "name": "isPositive",
              "type": "bool"
            }
          ],
          "internalType": "struct SignedMath.Int",
          "name": "newMargin",
          "type": "tuple"
        }
      ],
      "name": "setMargin",
      "outputs": [
        {
          "components": [
            {
              "internalType": "bool",
              "name": "marginIsPositive",
              "type": "bool"
            },
            {
              "internalType": "bool",
              "name": "positionIsPositive",
              "type": "bool"
            },
            {
              "internalType": "uint120",
              "name": "margin",
              "type": "uint120"
            },
            {
              "internalType": "uint120",
              "name": "position",
              "type": "uint120"
            }
          ],
          "internalType": "struct P1Types.Balance",
          "name": "",
          "type": "tuple"
        }
      ],
      "payable": false,
      "stateMutability": "pure",
      "type": "function"
    },
    {
      "constant": true,
      "inputs": [
        {
          "components": [
            {
              "internalType": "bool",
              "name": "marginIsPositive",
              "type": "bool"
            },
            {
              "internalType": "bool",
              "name": "positionIsPositive",
              "type": "bool"
            },
            {
              "internalType": "uint120",
              "name": "margin",
              "type": "uint120"
            },
            {
              "internalType": "uint120",
              "name": "position",
              "type": "uint120"
            }
          ],
          "internalType": "struct P1Types.Balance",
          "name": "balance",
          "type": "tuple"
        },
        {
          "components": [
            {
              "internalType": "uint256",
              "name": "value",
              "type": "uint256"
            },
            {
              "internalType": "bool",
              "name": "isPositive",
              "type": "bool"
            }
          ],
          "internalType": "struct SignedMath.Int",
          "name": "newPosition",
          "type": "tuple"
        }
      ],
      "name": "setPosition",
      "outputs": [
        {
          "components": [
            {
              "internalType": "bool",
              "name": "marginIsPositive",
              "type": "bool"
            },
            {
              "internalType": "bool",
              "name": "positionIsPositive",
              "type": "bool"
            },
            {
              "internalType": "uint120",
              "name": "margin",
              "type": "uint120"
            },
            {
              "internalType": "uint120",
              "name": "position",
              "type": "uint120"
            }
          ],
          "internalType": "struct P1Types.Balance",
          "name": "",
          "type": "tuple"
        }
      ],
      "payable": false,
      "stateMutability": "pure",
      "type": "function"
    },
    {
      "constant": true,
      "inputs": [
        {
          "components": [
            {
              "internalType": "uint256",
              "name": "value",
              "type": "uint256"
            },
            {
              "internalType": "bool",
              "name": "isPositive",
              "type": "bool"
            }
          ],
          "internalType": "struct SignedMath.Int",
          "name": "augend",
          "type": "tuple"
        },
        {
          "components": [
            {
              "internalType": "uint256",
              "name": "value",
              "type": "uint256"
            },
            {
              "internalType": "bool",
              "name": "isPositive",
              "type": "bool"
            }
          ],
          "internalType": "struct SignedMath.Int",
          "name": "addend",
          "type": "tuple"
        }
      ],
      "name": "signedAdd",
      "outputs": [
        {
          "components": [
            {
              "internalType": "uint256",
              "name": "value",
              "type": "uint256"
            },
            {
              "internalType": "bool",
              "name": "isPositive",
              "type": "bool"
            }
          ],
          "internalType": "struct SignedMath.Int",
          "name": "",
          "type": "tuple"
        }
      ],
      "payable": false,
      "stateMutability": "pure",
      "type": "function"
    },
    {
      "constant": true,
      "inputs": [
        {
          "components": [
            {
              "internalType": "uint256",
              "name": "value",
              "type": "uint256"
            },
            {
              "internalType": "bool",
              "name": "isPositive",
              "type": "bool"
            }
          ],
          "internalType": "struct SignedMath.Int",
          "name": "minuend",
          "type": "tuple"
        },
        {
          "components": [
            {
              "internalType": "uint256",
              "name": "value",
              "type": "uint256"
            },
            {
              "internalType": "bool",
              "name": "isPositive",
              "type": "bool"
            }
          ],
          "internalType": "struct SignedMath.Int",
          "name": "subtrahend",
          "type": "tuple"
        }
      ],
      "name": "signedSub",
      "outputs": [
        {
          "components": [
            {
              "internalType": "uint256",
              "name": "value",
              "type": "uint256"
            },
            {
              "internalType": "bool",
              "name": "isPositive",
              "type": "bool"
            }
          ],
          "internalType": "struct SignedMath.Int",
          "name": "",
          "type": "tuple"
        }
      ],
      "payable": false,
      "stateMutability": "pure",
      "type": "function"
    },
    {
      "constant": false,
      "inputs": [
        {
          "internalType": "bytes32",
          "name": "slot",
          "type": "bytes32"
        },
        {
          "internalType": "bytes32",
          "name": "value",
          "type": "bytes32"
        }
      ],
      "name": "store",
      "outputs": [],
      "payable": false,
      "stateMutability": "nonpayable",
      "type": "function"
    },
    {
      "constant": true,
      "inputs": [
        {
          "components": [
            {
              "internalType": "uint256",
              "name": "value",
              "type": "uint256"
            },
            {
              "internalType": "bool",
              "name": "isPositive",
              "type": "bool"
            }
          ],
          "internalType": "struct SignedMath.Int",
          "name": "sint",
          "type": "tuple"
        },
        {
          "internalType": "uint256",
          "name": "value",
          "type": "uint256"
        }
      ],
      "name": "sub",
      "outputs": [
        {
          "components": [
            {
              "internalType": "uint256",
              "name": "value",
              "type": "uint256"
            },
            {
              "internalType": "bool",
              "name": "isPositive",
              "type": "bool"
            }
          ],
          "internalType": "struct SignedMath.Int",
          "name": "",
          "type": "tuple"
        }
      ],
      "payable": false,
      "stateMutability": "pure",
      "type": "function"
    },
    {
      "constant": true,
      "inputs": [
        {
          "components": [
            {
              "internalType": "bool",
              "name": "marginIsPositive",
              "type": "bool"
            },
            {
              "internalType": "bool",
              "name": "positionIsPositive",
              "type": "bool"
            },
            {
              "internalType": "uint120",
              "name": "margin",
              "type": "uint120"
            },
            {
              "internalType": "uint120",
              "name": "position",
              "type": "uint120"
            }
          ],
          "internalType": "struct P1Types.Balance",
          "name": "balance",
          "type": "tuple"
        },
        {
          "internalType": "uint256",
          "name": "amount",
          "type": "uint256"
        }
      ],
      "name": "subFromMargin",
      "outputs": [
        {
          "components": [
            {
              "internalType": "bool",
              "name": "marginIsPositive",
              "type": "bool"
            },
            {
              "internalType": "bool",
              "name": "positionIsPositive",
              "type": "bool"
            },
            {
              "internalType": "uint120",
              "name": "margin",
              "type": "uint120"
            },
            {
              "internalType": "uint120",
              "name": "position",
              "type": "uint120"
            }
          ],
          "internalType": "struct P1Types.Balance",
          "name": "",
          "type": "tuple"
        }
      ],
      "payable": false,
      "stateMutability": "pure",
      "type": "function"
    },
    {
      "constant": true,
      "inputs": [
        {
          "components": [
            {
              "internalType": "bool",
              "name": "marginIsPositive",
              "type": "bool"
            },
            {
              "internalType": "bool",
              "name": "positionIsPositive",
              "type": "bool"
            },
            {
              "internalType": "uint120",
              "name": "margin",
              "type": "uint120"
            },
            {
              "internalType": "uint120",
              "name": "position",
              "type": "uint120"
            }
          ],
          "internalType": "struct P1Types.Balance",
          "name": "balance",
          "type": "tuple"
        },
        {
          "internalType": "uint256",
          "name": "amount",
          "type": "uint256"
        }
      ],
      "name": "subFromPosition",
      "outputs": [
        {
          "components": [
            {
              "internalType": "bool",
              "name": "marginIsPositive",
              "type": "bool"
            },
            {
              "internalType": "bool",
              "name": "positionIsPositive",
              "type": "bool"
            },
            {
              "internalType": "uint120",
              "name": "margin",
              "type": "uint120"
            },
            {
              "internalType": "uint120",
              "name": "position",
              "type": "uint120"
            }
          ],
          "internalType": "struct P1Types.Balance",
          "name": "",
          "type": "tuple"
        }
      ],
      "payable": false,
      "stateMutability": "pure",
      "type": "function"
    },
    {
      "constant": true,
      "inputs": [
        {
          "internalType": "bool",
          "name": "must",
          "type": "bool"
        },
        {
          "internalType": "string",
          "name": "requireReason",
          "type": "string"
        },
        {
          "internalType": "address",
          "name": "addr",
          "type": "address"
        }
      ],
      "name": "that",
      "outputs": [],
      "payable": false,
      "stateMutability": "pure",
      "type": "function"
    },
    {
      "constant": true,
      "inputs": [
        {
          "internalType": "uint256",
          "name": "value",
          "type": "uint256"
        }
      ],
      "name": "toUint120",
      "outputs": [
        {
          "internalType": "uint120",
          "name": "",
          "type": "uint120"
        }
      ],
      "payable": false,
      "stateMutability": "pure",
      "type": "function"
    },
    {
      "constant": true,
      "inputs": [
        {
          "internalType": "uint256",
          "name": "value",
          "type": "uint256"
        }
      ],
      "name": "toUint128",
      "outputs": [
        {
          "internalType": "uint128",
          "name": "",
          "type": "uint128"
        }
      ],
      "payable": false,
      "stateMutability": "pure",
      "type": "function"
    },
    {
      "constant": true,
      "inputs": [
        {
          "internalType": "uint256",
          "name": "value",
          "type": "uint256"
        }
      ],
      "name": "toUint32",
      "outputs": [
        {
          "internalType": "uint32",
          "name": "",
          "type": "uint32"
        }
      ],
      "payable": false,
      "stateMutability": "pure",
      "type": "function"
    }
  ],
  "transactionHash": "0x6492871f950820d503e7130dfcb755a8e1333db9ac97a7e112835c5385c0dea3",
  "args": [],
  "numDeployments": 1,
  "solcInputHash": "1bd7185fc182f445a21d38e03e9aa98e",
  "bytecode": "0x60806040526001600055611e59806100186000396000f3fe608060405234801561001057600080fd5b506004361061020b5760003560e01c80637dc1e49a1161012a578063c8193255116100bd578063d46b4aff1161008c578063ded7c1c511610071578063ded7c1c51461049d578063e78af4ec146104b0578063f0350799146104c35761020b565b8063d46b4aff14610469578063d5ae406c1461047c5761020b565b8063c819325514610410578063ce18b19014610430578063cf17840814610443578063d165c800146104565761020b565b80638f6561af116100f95780638f6561af146103c457806397259d26146103d7578063b63f6580146103ea578063c1f7ea1e146103fd5761020b565b80637dc1e49a1461036b5780637dd1c9621461037e57806380778a4f14610391578063809fdd33146103a45761020b565b80634c93be61116101a25780636394400f116101715780636394400f1461032a5780636d5433e61461033d5780637ae2b5c7146103505780637bdfba4b146103635761020b565b80634c93be61146102e95780635001f3b5146102fc57806351894bf6146103045780635b827a5d146103175761020b565b80632953a626116101de5780632953a626146102995780634000e4f6146102ac578063437348e7146102c15780634437e178146102d45761020b565b80630d261665146102105780631491ac011461023957806319045a25146102595780631e4e4bad14610279575b600080fd5b61022361021e3660046116d3565b6104d6565b6040516102309190611c7b565b60405180910390f35b61024c6102473660046116b5565b610518565b6040516102309190611c89565b61026c61026736600461165f565b610537565b6040516102309190611bb0565b61028c610287366004611607565b610564565b6040516102309190611c97565b61024c6102a7366004611781565b61056f565b6102bf6102ba366004611625565b61058f565b005b6102236102cf366004611703565b61059d565b6102dc6105c8565b6040516102309190611bbe565b6102bf6102f736600461159d565b61068a565b6102dc6106d2565b61024c610312366004611751565b6106e1565b6102dc61032536600461180b565b61070f565b6102dc610338366004611625565b610724565b6102dc61034b366004611625565b610730565b6102dc61035e366004611625565b61073c565b6102dc610748565b6102dc610379366004611607565b610779565b61022361038c366004611703565b610784565b61022361039f3660046116d3565b6107af565b6103b76103b2366004611607565b6107e8565b6040516102309190611ca5565b6102dc6103d2366004611625565b6107f3565b6102dc6103e536600461180b565b6107ff565b61024c6103f8366004611751565b61080c565b61024c61040b3660046116b5565b61083a565b61042361041e366004611607565b610859565b6040516102309190611cce565b6102dc61043e366004611625565b610864565b610223610451366004611703565b610870565b61024c610464366004611781565b61089b565b6102236104773660046116b5565b6108bb565b61048f61048a366004611703565b6108da565b604051610230929190611cb3565b6102dc6104ab366004611625565b610901565b6102236104be366004611703565b61090d565b6102dc6104d1366004611607565b610938565b6104de611380565b6104e6611380565b6104f536859003850185611733565b905061050f8161050a368690038601866117b1565b610943565b90505b92915050565b6105206113a7565b61051261053236849003840184611733565b610969565b60006105416113be565b61054d838501856117cf565b905061055985826109a0565b9150505b9392505050565b600061051282610b30565b6105776113a7565b61050f610589368590038501856117b1565b83610b65565b6105998282610c04565b5050565b6105a5611380565b6105ad611380565b6105bc36859003850185611733565b905061050f8184610c08565b600060001960005414156105f75760405162461bcd60e51b81526004016105ee90611c6b565b60405180910390fd5b6000196000819055503073ffffffffffffffffffffffffffffffffffffffff16637bdfba4b6040518163ffffffff1660e01b8152600401602060405180830381600087803b15801561064857600080fd5b505af115801561065c573d6000803e3d6000fd5b505050506040513d601f19601f8201168201806040525061068091908101906117ed565b9050600160005590565b6106cc8484848080601f016020809104026020016040519081016040528093929190818152602001838380828437600092019190915250869250610c42915050565b50505050565b60006106dc610c88565b905090565b6106e96113a7565b61050f6106fb368590038501856117b1565b61070a368590038501856117b1565b610c94565b600061071c848484610cc6565b949350505050565b600061050f8383610ce8565b600061050f8383610d3f565b600061050f8383610d55565b6000600019600054141561076e5760405162461bcd60e51b81526004016105ee90611c6b565b506001600090815590565b600061051282610d64565b61078c611380565b610794611380565b6107a336859003850185611733565b905061050f8184610d78565b6107b7611380565b6107bf611380565b6107ce36859003850185611733565b905061050f816107e3368690038601866117b1565b610dad565b600061051282610dd0565b600061050f8383610e02565b600061071c848484610e2c565b6108146113a7565b61050f610826368590038501856117b1565b610835368590038501856117b1565b610e6d565b6108426113a7565b61051261085436849003840184611733565b610e9a565b600061051282610ec7565b600061050f8383610eed565b610878611380565b610880611380565b61088f36859003850185611733565b905061050f8184610f0b565b6108a36113a7565b61050f6108b5368590038501856117b1565b83610f2e565b6108c3611380565b6105126108d536849003840184611733565b610fbb565b6000806108f56108ef36869003860186611733565b84611011565b915091505b9250929050565b600061050f83836110be565b610915611380565b61091d611380565b61092c36859003850185611733565b905061050f81846110dc565b6000610512826110ff565b805161094e90610b30565b6001600160781b031660608301526020908101511515910152565b6109716113a7565b604051806040016040528083606001516001600160781b03168152602001836020015115158152509050919050565b6040810151600090819060f01c60ff1660038111156109bb57fe5b90506000808260038111156109cc57fe5b14156109d9575083610ac8565b60018260038111156109e757fe5b1415610a52576040518060400160405280601c81526020017f19457468657265756d205369676e6564204d6573736167653a0a33320000000081525085604051602001610a35929190611b76565b604051602081830303815290604052805190602001209050610ac8565b6002826003811115610a6057fe5b14610a6757fe5b6040518060400160405280601b81526020017f19457468657265756d205369676e6564204d6573736167653a0a20000000000081525085604051602001610aaf929190611b76565b6040516020818303038152906040528051906020012090505b600181856040015160f81c8660000151876020015160405160008152602001604052604051610afa9493929190611bcc565b6020604051602081039080840390855afa158015610b1c573d6000803e3d6000fd5b5050604051601f1901519695505050505050565b60006f010000000000000000000000000000008210610b615760405162461bcd60e51b81526004016105ee90611c2b565b5090565b610b6d6113a7565b826020015115610baa576040518060400160405280610b9985600001518561110390919063ffffffff16565b815260016020909101529050610512565b8251821115610bd5576040518060400160405280610b9985600001518561112890919063ffffffff16565b6040805180820190915283518190610bf3908563ffffffff61112816565b815260006020909101529392505050565b9055565b610c106113a7565b610c1983610969565b9050610c2b818363ffffffff610f2e16565b9050610c3d838263ffffffff61094316565b505050565b82610c3d5781610c518261116a565b604051602001610c62929190611b98565b60408051601f198184030181529082905262461bcd60e51b82526105ee91600401611c0a565b670de0b6b3a764000090565b610c9c6113a7565b8160200151610cb857610cb3838360000151610b65565b61050f565b61050f838360000151610f2e565b600061071c82610cdc868663ffffffff61127f16565b9063ffffffff6112b916565b6000821580610cf5575081155b15610d0257506000610512565b61050f6001610d33670de0b6b3a7640000610cdc83610d27898963ffffffff61127f16565b9063ffffffff61112816565b9063ffffffff61110316565b6000818311610d4e578161050f565b5090919050565b6000818310610d4e578161050f565b6000610512670de0b6b3a7640000836110be565b610d806113a7565b610d8983610e9a565b9050610d9b818363ffffffff610f2e16565b9050610c3d838263ffffffff610dad16565b8051610db890610b30565b6001600160781b031660408301526020015115159052565b60007001000000000000000000000000000000008210610b615760405162461bcd60e51b81526004016105ee90611c3b565b600061050f82610e2085670de0b6b3a764000063ffffffff6112b916565b9063ffffffff61127f16565b6000831580610e39575082155b15610e5057610e496000836112b9565b905061055d565b61071c6001610d3384610cdc83610d278a8a63ffffffff61127f16565b610e756113a7565b8160200151610e8c57610cb3838360000151610f2e565b61050f838360000151610b65565b610ea26113a7565b50604080518082018252908201516001600160781b0316815290511515602082015290565b60006401000000008210610b615760405162461bcd60e51b81526004016105ee90611c5b565b600061050f670de0b6b3a7640000610cdc858563ffffffff61127f16565b610f136113a7565b610f1c83610969565b9050610c2b818363ffffffff610b6516565b610f366113a7565b8260200151610f72576040518060400160405280610f6185600001518561110390919063ffffffff16565b815260006020909101529050610512565b8251821015610f99576040805180820190915283518190610b99908563ffffffff61112816565b6040518060400160405280610bf385600001518561112890919063ffffffff16565b610fc3611380565b604051806080016040528083600001511515815260200183602001511515815260200183604001516001600160781b0316815260200183606001516001600160781b03168152509050919050565b81516000908190819081901561104d5761104661102c610c88565b60408801516001600160781b03169063ffffffff61127f16565b915061105b565b61105861102c610c88565b90505b606086015160009061107c906001600160781b03168763ffffffff61127f16565b905086602001511561109f57611098838263ffffffff61110316565b92506110b2565b6110af828263ffffffff61110316565b91505b50909590945092505050565b600061050f82610cdc85670de0b6b3a764000063ffffffff61127f16565b6110e46113a7565b6110ed83610e9a565b9050610d9b818363ffffffff610b6516565b5490565b60008282018381101561050f5760405162461bcd60e51b81526004016105ee90611c1b565b600061050f83836040518060400160405280601e81526020017f536166654d6174683a207375627472616374696f6e206f766572666c6f7700008152506112fb565b606080763a20307830303030303030302e2e2e303030303030303060481b6040516020016111989190611b61565b60408051601f19818403018152919052905073ffffffffffffffffffffffffffffffffffffffff8316609c601c60045b600c811015611274576111dc84841c611327565b8582815181106111e857fe5b60200101907effffffffffffffffffffffffffffffffffffffffffffffffffffffffffffff1916908160001a90535061122284831c611327565b8582600b018151811061123157fe5b60200101907effffffffffffffffffffffffffffffffffffffffffffffffffffffffffffff1916908160001a9053506003199283019291909101906001016111c8565b509295945050505050565b60008261128e57506000610512565b8282028284828161129b57fe5b041461050f5760405162461bcd60e51b81526004016105ee90611c4b565b600061050f83836040518060400160405280601a81526020017f536166654d6174683a206469766973696f6e206279207a65726f000000000000815250611349565b6000818484111561131f5760405162461bcd60e51b81526004016105ee9190611c0a565b505050900390565b6000600f8216600a811061133c57605761133f565b60305b0160f81b92915050565b6000818361136a5760405162461bcd60e51b81526004016105ee9190611c0a565b50600083858161137657fe5b0495945050505050565b60408051608081018252600080825260208201819052918101829052606081019190915290565b604080518082019091526000808252602082015290565b604080516060810182526000808252602082018190529181019190915290565b803561051281611ddb565b803561051281611df2565b803561051281611dfb565b803561051281611e04565b60008083601f84011261141c57600080fd5b50813567ffffffffffffffff81111561143457600080fd5b6020830191508360018202830111156108fa57600080fd5b60006080828403121561145e57600080fd5b50919050565b60006080828403121561147657600080fd5b6114806080611cdc565b9050600061148e84846113e9565b825250602061149f848483016113e9565b60208301525060406114b384828501611587565b60408301525060606114c784828501611587565b60608301525092915050565b60006040828403121561145e57600080fd5b6000604082840312156114f757600080fd5b6115016040611cdc565b9050600061150f84846113ff565b8252506020611520848483016113e9565b60208301525092915050565b60006060828403121561153e57600080fd5b6115486060611cdc565b9050600061155684846113ff565b8252506020611567848483016113ff565b602083015250604061157b848285016113f4565b60408301525092915050565b803561051281611e0d565b805161051281611e04565b600080600080606085870312156115b357600080fd5b60006115bf87876113e9565b945050602085013567ffffffffffffffff8111156115dc57600080fd5b6115e88782880161140a565b935093505060406115fb878288016113de565b91505092959194509250565b60006020828403121561161957600080fd5b600061071c84846113ff565b6000806040838503121561163857600080fd5b600061164485856113ff565b9250506020611655858286016113ff565b9150509250929050565b60008060006040848603121561167457600080fd5b600061168086866113ff565b935050602084013567ffffffffffffffff81111561169d57600080fd5b6116a98682870161140a565b92509250509250925092565b6000608082840312156116c757600080fd5b600061071c848461144c565b60008060c083850312156116e657600080fd5b60006116f2858561144c565b9250506080611655858286016114d3565b60008060a0838503121561171657600080fd5b6000611722858561144c565b9250506080611655858286016113ff565b60006080828403121561174557600080fd5b600061071c8484611464565b6000806080838503121561176457600080fd5b600061177085856114d3565b9250506040611655858286016114d3565b6000806060838503121561179457600080fd5b60006117a085856114d3565b9250506040611655858286016113ff565b6000604082840312156117c357600080fd5b600061071c84846114e5565b6000606082840312156117e157600080fd5b600061071c848461152c565b6000602082840312156117ff57600080fd5b600061071c8484611592565b60008060006060848603121561182057600080fd5b600061182c86866113ff565b935050602061183d868287016113ff565b925050604061184e868287016113ff565b9150509250925092565b61186181611d15565b82525050565b61186181611d20565b61186161187c82611d4a565b611d59565b61186181611d59565b61186161187c82611d59565b60006118a182611d03565b6118ab8185611d07565b93506118bb818560208601611da5565b9290920192915050565b60006118d082611d03565b6118da8185611d0c565b93506118ea818560208601611da5565b6118f381611dd1565b9093019392505050565b600061190a601b83611d0c565b7f536166654d6174683a206164646974696f6e206f766572666c6f770000000000815260200192915050565b6000611943602783611d0c565b7f53616665436173743a2076616c756520646f65736e27742066697420696e203181527f3230206269747300000000000000000000000000000000000000000000000000602082015260400192915050565b60006119a2602783611d0c565b7f53616665436173743a2076616c756520646f65736e27742066697420696e203181527f3238206269747300000000000000000000000000000000000000000000000000602082015260400192915050565b6000611a01602183611d0c565b7f536166654d6174683a206d756c7469706c69636174696f6e206f766572666c6f8152607760f81b602082015260400192915050565b6000611a44602683611d0c565b7f53616665436173743a2076616c756520646f65736e27742066697420696e203381527f3220626974730000000000000000000000000000000000000000000000000000602082015260400192915050565b6000611aa3601f83611d0c565b7f5265656e7472616e637947756172643a207265656e7472616e742063616c6c00815260200192915050565b80516080830190611ae08482611867565b506020820151611af36020850182611867565b506040820151611b066040850182611b3d565b5060608201516106cc6060850182611b3d565b80516040830190611b2a8482611881565b5060208201516106cc6020850182611867565b61186181611d5c565b61186181611d68565b61186181611d96565b61186181611d9f565b6000611b6d8284611870565b50601701919050565b6000611b828285611896565b9150611b8e828461188a565b5060200192915050565b6000611ba48285611896565b915061071c8284611896565b602081016105128284611858565b602081016105128284611881565b60808101611bda8287611881565b611be76020830186611b58565b611bf46040830185611881565b611c016060830184611881565b95945050505050565b6020808252810161050f81846118c5565b60208082528101610512816118fd565b6020808252810161051281611936565b6020808252810161051281611995565b60208082528101610512816119f4565b6020808252810161051281611a37565b6020808252810161051281611a96565b608081016105128284611acf565b604081016105128284611b19565b602081016105128284611b3d565b602081016105128284611b46565b60408101611cc18285611881565b61055d6020830184611881565b602081016105128284611b4f565b60405181810167ffffffffffffffff81118282101715611cfb57600080fd5b604052919050565b5190565b919050565b90815260200190565b600061051282611d7d565b151590565b7fffff0000000000000000000000000000000000000000000000000000000000001690565b68ffffffffffffffffff191690565b90565b6001600160781b031690565b6fffffffffffffffffffffffffffffffff1690565b73ffffffffffffffffffffffffffffffffffffffff1690565b63ffffffff1690565b60ff1690565b60005b83811015611dc0578181015183820152602001611da8565b838111156106cc5750506000910152565b601f01601f191690565b611de481611d15565b8114611def57600080fd5b50565b611de481611d20565b611de481611d25565b611de481611d59565b611de481611d5c56fea365627a7a7231582017aab10dcc9e4118032d0c19f9e4fe21d46140de8923787fa1bbd8eb52f743006c6578706572696d656e74616cf564736f6c63430005100040",
  "devdoc": {
    "author": "axor",
    "methods": {},
    "title": "Test_Lib"
  },
  "userdoc": {
    "methods": {},
    "notice": "Exposes library functions for testing."
  },
  "storageLayout": {
    "storage": [
      {
        "astId": 1537,
        "contract": "contracts/test/Test_Lib.sol:Test_Lib",
        "label": "_STATUS_",
        "offset": 0,
        "slot": "0",
        "type": "t_uint256"
      }
    ],
    "types": {
      "t_uint256": {
        "encoding": "inplace",
        "label": "uint256",
        "numberOfBytes": "32"
      }
    }
  }
}